{
  "_format": "hh-sol-artifact-1",
  "contractName": "AuctionResolveFacet",
  "sourceName": "contracts/marketplace/facets/AuctionResolveFacet.sol",
  "abi": [
    {
      "anonymous": false,
      "inputs": [
        {
          "indexed": true,
          "internalType": "uint256",
          "name": "bundleId",
          "type": "uint256"
        },
        {
          "indexed": true,
          "internalType": "address",
          "name": "bidder",
          "type": "address"
        },
        {
          "indexed": false,
          "internalType": "uint256",
          "name": "value",
          "type": "uint256"
        }
      ],
      "name": "AuctionBidReturned",
      "type": "event"
    },
    {
      "anonymous": false,
      "inputs": [
        {
          "indexed": true,
          "internalType": "uint256",
          "name": "bundleId",
          "type": "uint256"
        },
        {
          "indexed": false,
          "internalType": "uint8",
          "name": "result",
          "type": "uint8"
        }
      ],
      "name": "AuctionResolved",
      "type": "event"
    },
    {
      "anonymous": false,
      "inputs": [
        {
          "indexed": false,
          "internalType": "address",
          "name": "paymentToken",
          "type": "address"
        },
        {
          "indexed": true,
          "internalType": "address",
          "name": "buyer",
          "type": "address"
        },
        {
          "indexed": true,
          "internalType": "address",
          "name": "receiver",
          "type": "address"
        },
        {
          "indexed": false,
          "internalType": "uint256",
          "name": "value",
          "type": "uint256"
        }
      ],
      "name": "ComissionPayed",
      "type": "event"
    },
    {
      "anonymous": false,
      "inputs": [
        {
          "indexed": true,
          "internalType": "address",
          "name": "token",
          "type": "address"
        },
        {
          "indexed": false,
          "internalType": "address",
          "name": "paymentToken",
          "type": "address"
        },
        {
          "indexed": false,
          "internalType": "address",
          "name": "buyer",
          "type": "address"
        },
        {
          "indexed": true,
          "internalType": "address",
          "name": "receiver",
          "type": "address"
        },
        {
          "indexed": true,
          "internalType": "uint256",
          "name": "tokenId",
          "type": "uint256"
        },
        {
          "indexed": false,
          "internalType": "uint256",
          "name": "value",
          "type": "uint256"
        }
      ],
      "name": "RoyaltyPayed",
      "type": "event"
    },
    {
      "inputs": [
        {
          "components": [
            {
              "internalType": "uint256",
              "name": "bundleId",
              "type": "uint256"
            },
            {
              "internalType": "bool",
              "name": "accept",
              "type": "bool"
            }
          ],
          "internalType": "struct AuctionResolveOrder",
          "name": "order",
          "type": "tuple"
        },
        {
          "internalType": "bytes",
          "name": "signature",
          "type": "bytes"
        }
      ],
      "name": "auctionResolve",
      "outputs": [],
      "stateMutability": "nonpayable",
      "type": "function"
    }
  ],
  "bytecode": "0x608060405234801561001057600080fd5b50613a46806100206000396000f3fe608060405234801561001057600080fd5b506004361061002b5760003560e01c8063439adfc914610030575b600080fd5b61004a6004803603810190610045919061279a565b61004c565b005b60008060030160010160008560000135815260200190815260200160002090506000610076610235565b90508073ffffffffffffffffffffffffffffffffffffffff168260000160009054906101000a900473ffffffffffffffffffffffffffffffffffffffff1673ffffffffffffffffffffffffffffffffffffffff16141580156101285750600060050160010160008273ffffffffffffffffffffffffffffffffffffffff1673ffffffffffffffffffffffffffffffffffffffff16815260200190815260200160002060009054906101000a900460ff16155b15610225576000600501600101600061019d6101538880360381019061014e9190612949565b61023d565b87878080601f016020809104026020016040519081016040528093929190818152602001838380828437600081840152601f19601f8201169050808301925050505050505061027b565b73ffffffffffffffffffffffffffffffffffffffff1673ffffffffffffffffffffffffffffffffffffffff16815260200190815260200160002060009054906101000a900460ff16610224576040517f08c379a000000000000000000000000000000000000000000000000000000000815260040161021b906129f9565b60405180910390fd5b5b61022e856102a2565b5050505050565b600033905090565b6000610274826000015146604051602001610259929190612a3a565b60405160208183030381529060405280519060200120610642565b9050919050565b600080600061028a8585610672565b91509150610297816106f5565b819250505092915050565b60006102ac6108ca565b90506000816003016001016000846000013581526020019081526020016000209050600260038111156102e2576102e1612a66565b5b81600a0160019054906101000a900460ff16600381111561030657610305612a66565b5b148061034657506003808111156103205761031f612a66565b5b81600a0160019054906101000a900460ff16600381111561034457610343612a66565b5b145b610385576040517f08c379a000000000000000000000000000000000000000000000000000000000815260040161037c90612b07565b60405180910390fd5b6001600281111561039957610398612a66565b5b81600a0160009054906101000a900460ff1660028111156103bd576103bc612a66565b5b14806103fd57506002808111156103d7576103d6612a66565b5b81600a0160009054906101000a900460ff1660028111156103fb576103fa612a66565b5b145b61043c576040517f08c379a000000000000000000000000000000000000000000000000000000000815260040161043390612b99565b60405180910390fd5b60008060038081111561045257610451612a66565b5b83600a0160019054906101000a900460ff16600381111561047657610475612a66565b5b1461048257600061049f565b8360050160110160089054906101000a900467ffffffffffffffff165b67ffffffffffffffff1690508260000160009054906101000a900473ffffffffffffffffffffffffffffffffffffffff1673ffffffffffffffffffffffffffffffffffffffff166104ee610235565b73ffffffffffffffffffffffffffffffffffffffff1614156105315761052a85600001358660200160208101906105259190612bb9565b6108cf565b91506105ed565b808360060160089054906101000a900467ffffffffffffffff168460060160009054906101000a900467ffffffffffffffff1661056e9190612c29565b67ffffffffffffffff166105829190612c67565b4211156105ec576105e985600001356003808111156105a4576105a3612a66565b5b85600a0160019054906101000a900460ff1660038111156105c8576105c7612a66565b5b146105e1578460050154856007016001015410156105e4565b60005b6108cf565b91505b5b84600001357f3844e39df5e3db8bfa9a7e5f610bf165e68a8a4513647dca1056c2fa853ce17783600281111561062657610625612a66565b5b6040516106339190612cd9565b60405180910390a25050505050565b6000816040516020016106559190612d76565b604051602081830303815290604052805190602001209050919050565b6000806041835114156106b45760008060006020860151925060408601519150606086015160001a90506106a887828585610f89565b945094505050506106ee565b6040835114156106e55760008060208501519150604085015190506106da868383611096565b9350935050506106ee565b60006002915091505b9250929050565b6000600481111561070957610708612a66565b5b81600481111561071c5761071b612a66565b5b1415610727576108c7565b6001600481111561073b5761073a612a66565b5b81600481111561074e5761074d612a66565b5b141561078f576040517f08c379a000000000000000000000000000000000000000000000000000000000815260040161078690612de8565b60405180910390fd5b600260048111156107a3576107a2612a66565b5b8160048111156107b6576107b5612a66565b5b14156107f7576040517f08c379a00000000000000000000000000000000000000000000000000000000081526004016107ee90612e54565b60405180910390fd5b6003600481111561080b5761080a612a66565b5b81600481111561081e5761081d612a66565b5b141561085f576040517f08c379a000000000000000000000000000000000000000000000000000000000815260040161085690612ee6565b60405180910390fd5b60048081111561087257610871612a66565b5b81600481111561088557610884612a66565b5b14156108c6576040517f08c379a00000000000000000000000000000000000000000000000000000000081526004016108bd90612f78565b60405180910390fd5b5b50565b600090565b6000806108da6108ca565b9050600081600301600101600086815260200190815260200160002090506000808260070190508060020160009054906101000a900460ff16801561091c5750855b801561095d57506001600281111561093757610936612a66565b5b83600a0160009054906101000a900460ff16600281111561095b5761095a612a66565b5b145b15610ddf57600083600401805490509050600080600090505b82811015610ce357600086600301828154811061099657610995612f98565b5b9060005260206000200160009054906101000a900473ffffffffffffffffffffffffffffffffffffffff16905060008760040183815481106109db576109da612f98565b5b9060005260206000200154905060008960030160000160008a60000160009054906101000a900473ffffffffffffffffffffffffffffffffffffffff1673ffffffffffffffffffffffffffffffffffffffff1673ffffffffffffffffffffffffffffffffffffffff16815260200190815260200160002060008473ffffffffffffffffffffffffffffffffffffffff1673ffffffffffffffffffffffffffffffffffffffff168152602001908152602001600020600083815260200190815260200160002090506000610b09848b60010160009054906101000a900473ffffffffffffffffffffffffffffffffffffffff16308b60000160009054906101000a900473ffffffffffffffffffffffffffffffffffffffff16878c8e60010154610b049190612ff6565b6110e4565b905060006001811115610b1f57610b1e612a66565b5b8260040160009054906101000a900460ff166001811115610b4357610b42612a66565b5b1415610bdd578373ffffffffffffffffffffffffffffffffffffffff1663b88d4fde308a60000160009054906101000a900473ffffffffffffffffffffffffffffffffffffffff16866040518463ffffffff1660e01b8152600401610baa939291906130ae565b600060405180830381600087803b158015610bc457600080fd5b505af1158015610bd8573d6000803e3d6000fd5b505050505b600180811115610bf057610bef612a66565b5b8260040160009054906101000a900460ff166001811115610c1457610c13612a66565b5b1415610cb4578373ffffffffffffffffffffffffffffffffffffffff1663f242432a308a60000160009054906101000a900473ffffffffffffffffffffffffffffffffffffffff168686600101546040518563ffffffff1660e01b8152600401610c8194939291906130f8565b600060405180830381600087803b158015610c9b57600080fd5b505af1158015610caf573d6000803e3d6000fd5b505050505b8086610cc09190612c67565b955060008260000181905550505050508080610cdb90613150565b915050610976565b506000610d3e8660010160009054906101000a900473ffffffffffffffffffffffffffffffffffffffff16308660000160009054906101000a900473ffffffffffffffffffffffffffffffffffffffff1687600101546112ce565b9050610dd38660010160009054906101000a900473ffffffffffffffffffffffffffffffffffffffff168760020160009054906101000a900473ffffffffffffffffffffffffffffffffffffffff16308960000160009054906101000a900473ffffffffffffffffffffffffffffffffffffffff1685878a60010154610dc49190613199565b610dce9190613199565b6115af565b60029450505050610f32565b8060020160009054906101000a900460ff1615610ee557610e6d8160000160009054906101000a900473ffffffffffffffffffffffffffffffffffffffff1682600101548560010160009054906101000a900473ffffffffffffffffffffffffffffffffffffffff1673ffffffffffffffffffffffffffffffffffffffff16611dad9092919063ffffffff16565b8060000160009054906101000a900473ffffffffffffffffffffffffffffffffffffffff1673ffffffffffffffffffffffffffffffffffffffff16877f27acfde09535e77aaed9ad1e458812d621dc770dc0683e7d43f57615119e24748360010154604051610edc91906131cd565b60405180910390a35b60016002811115610ef957610ef8612a66565b5b83600a0160009054906101000a900460ff166002811115610f1d57610f1c612a66565b5b1415610f2d57610f2c83611e33565b5b600191505b60008160020160006101000a81548160ff021916908315150217905550600083600a0160006101000a81548160ff02191690836002811115610f7757610f76612a66565b5b02179055508194505050505092915050565b6000807f7fffffffffffffffffffffffffffffff5d576e7357a4501ddfe92f46681b20a08360001c1115610fc457600060039150915061108d565b601b8560ff1614158015610fdc5750601c8560ff1614155b15610fee57600060049150915061108d565b60006001878787876040516000815260200160405260405161101394939291906131f7565b6020604051602081039080840390855afa158015611035573d6000803e3d6000fd5b505050602060405103519050600073ffffffffffffffffffffffffffffffffffffffff168173ffffffffffffffffffffffffffffffffffffffff1614156110845760006001925092505061108d565b80600092509250505b94509492505050565b6000806000807f7fffffffffffffffffffffffffffffffffffffffffffffffffffffffffffffff85169150601b8560ff1c0190506110d687828885610f89565b935093505050935093915050565b6000808214156110f757600090506112c4565b600061110a88632a55205a60e01b612149565b156112bf5760008873ffffffffffffffffffffffffffffffffffffffff16632a55205a86866040518363ffffffff1660e01b815260040161114c92919061323c565b604080518083038186803b15801561116357600080fd5b505afa158015611177573d6000803e3d6000fd5b505050506040513d601f19601f8201168201806040525081019061119b91906132a6565b80935081925050506000821180156111b257508382105b156112b8573073ffffffffffffffffffffffffffffffffffffffff168773ffffffffffffffffffffffffffffffffffffffff16141561121b5761121681838a73ffffffffffffffffffffffffffffffffffffffff16611dad9092919063ffffffff16565b611249565b6112488782848b73ffffffffffffffffffffffffffffffffffffffff1661216e909392919063ffffffff16565b5b848173ffffffffffffffffffffffffffffffffffffffff168a73ffffffffffffffffffffffffffffffffffffffff167fc12e0ad04220866b41089cc4006c59d73fdfd790857e121651c1b55e7a872aeb8b8a876040516112ab939291906132e6565b60405180910390a46112bd565b600091505b505b809150505b9695505050505050565b6000808214156112e157600090506115a7565b60006112eb6108ca565b905060008160050160060160008873ffffffffffffffffffffffffffffffffffffffff1673ffffffffffffffffffffffffffffffffffffffff1681526020019081526020016000208054905090506000805b8281101561144c57858460050160060160008b73ffffffffffffffffffffffffffffffffffffffff1673ffffffffffffffffffffffffffffffffffffffff168152602001908152602001600020828154811061139c5761139b612f98565b5b90600052602060002001541015611434578360050160070160008a73ffffffffffffffffffffffffffffffffffffffff1673ffffffffffffffffffffffffffffffffffffffff168152602001908152602001600020818154811061140357611402612f98565b5b90600052602060002090600a91828204019190066003029054906101000a900462ffffff1662ffffff169150611439565b61144c565b808061144490613150565b91505061133d565b506000612710828761145e919061331d565b6114689190612ff6565b9050600081111561159f573073ffffffffffffffffffffffffffffffffffffffff168873ffffffffffffffffffffffffffffffffffffffff1614611537578873ffffffffffffffffffffffffffffffffffffffff166323b872dd8930846040518463ffffffff1660e01b81526004016114e3939291906132e6565b602060405180830381600087803b1580156114fd57600080fd5b505af1158015611511573d6000803e3d6000fd5b505050506040513d601f19601f82011682018060405250810190611535919061338c565b505b3073ffffffffffffffffffffffffffffffffffffffff168773ffffffffffffffffffffffffffffffffffffffff167f3d1fa10df804e58804446516af66e1a441d99b35693f686142946525683247598b846040516115969291906133b9565b60405180910390a35b809450505050505b949350505050565b60006115b96108ca565b90503073ffffffffffffffffffffffffffffffffffffffff168473ffffffffffffffffffffffffffffffffffffffff16146116bc57818673ffffffffffffffffffffffffffffffffffffffff1663dd62ed3e86306040518363ffffffff1660e01b815260040161162a9291906133e2565b60206040518083038186803b15801561164257600080fd5b505afa158015611656573d6000803e3d6000fd5b505050506040513d601f19601f8201168201806040525081019061167a919061340b565b10156116bb576040517f08c379a00000000000000000000000000000000000000000000000000000000081526004016116b2906134aa565b60405180910390fd5b5b600082905060008083600501600b0160009054906101000a900473ffffffffffffffffffffffffffffffffffffffff1673ffffffffffffffffffffffffffffffffffffffff168973ffffffffffffffffffffffffffffffffffffffff16149050600084600501600b0160009054906101000a900473ffffffffffffffffffffffffffffffffffffffff1673ffffffffffffffffffffffffffffffffffffffff168973ffffffffffffffffffffffffffffffffffffffff161490508180156117805750805b8061179c57508460050160110160109054906101000a900460ff165b1561183c573073ffffffffffffffffffffffffffffffffffffffff168873ffffffffffffffffffffffffffffffffffffffff1614611806576118018888868d73ffffffffffffffffffffffffffffffffffffffff1661216e909392919063ffffffff16565b611832565b61183187858c73ffffffffffffffffffffffffffffffffffffffff16611dad9092919063ffffffff16565b5b5050505050611da6565b3073ffffffffffffffffffffffffffffffffffffffff168873ffffffffffffffffffffffffffffffffffffffff161461189d5761189c8830868d73ffffffffffffffffffffffffffffffffffffffff1661216e909392919063ffffffff16565b5b81611b36576000600267ffffffffffffffff8111156118bf576118be612810565b5b6040519080825280602002602001820160405280156118ed5781602001602082028036833780820191505090505b5090508a8160008151811061190557611904612f98565b5b602002602001019073ffffffffffffffffffffffffffffffffffffffff16908173ffffffffffffffffffffffffffffffffffffffff168152505085600501600b0160009054906101000a900473ffffffffffffffffffffffffffffffffffffffff168160018151811061197b5761197a612f98565b5b602002602001019073ffffffffffffffffffffffffffffffffffffffff16908173ffffffffffffffffffffffffffffffffffffffff1681525050611a078660180160000160009054906101000a900473ffffffffffffffffffffffffffffffffffffffff16868d73ffffffffffffffffffffffffffffffffffffffff166121f79092919063ffffffff16565b60008215611a1757889050611a1b565b3090505b60008760180160000160009054906101000a900473ffffffffffffffffffffffffffffffffffffffff1673ffffffffffffffffffffffffffffffffffffffff166338ed173988600086868d6018016001015442611a789190612c67565b6040518663ffffffff1660e01b8152600401611a989594939291906135cd565b600060405180830381600087803b158015611ab257600080fd5b505af1158015611ac6573d6000803e3d6000fd5b505050506040513d6000823e3d601f19601f82011682018060405250810190611aef91906136ea565b90508315611b04575050505050505050611da6565b8060018251611b139190613199565b81518110611b2457611b23612f98565b5b60200260200101519550505050611b3a565b8392505b80611da0576000600267ffffffffffffffff811115611b5c57611b5b612810565b5b604051908082528060200260200182016040528015611b8a5781602001602082028036833780820191505090505b50905085600501600b0160009054906101000a900473ffffffffffffffffffffffffffffffffffffffff1681600081518110611bc957611bc8612f98565b5b602002602001019073ffffffffffffffffffffffffffffffffffffffff16908173ffffffffffffffffffffffffffffffffffffffff16815250508981600181518110611c1857611c17612f98565b5b602002602001019073ffffffffffffffffffffffffffffffffffffffff16908173ffffffffffffffffffffffffffffffffffffffff1681525050611ccb8660180160000160009054906101000a900473ffffffffffffffffffffffffffffffffffffffff168588600501600b0160009054906101000a900473ffffffffffffffffffffffffffffffffffffffff1673ffffffffffffffffffffffffffffffffffffffff166121f79092919063ffffffff16565b8560180160000160009054906101000a900473ffffffffffffffffffffffffffffffffffffffff1673ffffffffffffffffffffffffffffffffffffffff166338ed1739856000848c8b6018016001015442611d269190612c67565b6040518663ffffffff1660e01b8152600401611d469594939291906135cd565b600060405180830381600087803b158015611d6057600080fd5b505af1158015611d74573d6000803e3d6000fd5b505050506040513d6000823e3d601f19601f82011682018060405250810190611d9d91906136ea565b50505b50505050505b5050505050565b611e2e8363a9059cbb60e01b8484604051602401611dcc9291906133b9565b604051602081830303815290604052907bffffffffffffffffffffffffffffffffffffffffffffffffffffffff19166020820180517bffffffffffffffffffffffffffffffffffffffffffffffffffffffff8381831617835250505050612318565b505050565b6000611e3d6108ca565b905060008260040180549050905060005b81811015612143576000846003018281548110611e6e57611e6d612f98565b5b9060005260206000200160009054906101000a900473ffffffffffffffffffffffffffffffffffffffff1690506000856004018381548110611eb357611eb2612f98565b5b9060005260206000200154905060008560030160000160008860000160009054906101000a900473ffffffffffffffffffffffffffffffffffffffff1673ffffffffffffffffffffffffffffffffffffffff1673ffffffffffffffffffffffffffffffffffffffff16815260200190815260200160002060008473ffffffffffffffffffffffffffffffffffffffff1673ffffffffffffffffffffffffffffffffffffffff1681526020019081526020016000206000838152602001908152602001600020905060006001811115611f8e57611f8d612a66565b5b8160040160009054906101000a900460ff166001811115611fb257611fb1612a66565b5b141561204c578273ffffffffffffffffffffffffffffffffffffffff1663b88d4fde308960000160009054906101000a900473ffffffffffffffffffffffffffffffffffffffff16856040518463ffffffff1660e01b8152600401612019939291906130ae565b600060405180830381600087803b15801561203357600080fd5b505af1158015612047573d6000803e3d6000fd5b505050505b60018081111561205f5761205e612a66565b5b8160040160009054906101000a900460ff16600181111561208357612082612a66565b5b1415612123578273ffffffffffffffffffffffffffffffffffffffff1663f242432a308960000160009054906101000a900473ffffffffffffffffffffffffffffffffffffffff168585600101546040518563ffffffff1660e01b81526004016120f094939291906130f8565b600060405180830381600087803b15801561210a57600080fd5b505af115801561211e573d6000803e3d6000fd5b505050505b60008160000181905550505050808061213b90613150565b915050611e4e565b50505050565b6000612154836123df565b80156121665750612165838361242c565b5b905092915050565b6121f1846323b872dd60e01b85858560405160240161218f939291906132e6565b604051602081830303815290604052907bffffffffffffffffffffffffffffffffffffffffffffffffffffffff19166020820180517bffffffffffffffffffffffffffffffffffffffffffffffffffffffff8381831617835250505050612318565b50505050565b6000818473ffffffffffffffffffffffffffffffffffffffff1663dd62ed3e30866040518363ffffffff1660e01b81526004016122359291906133e2565b60206040518083038186803b15801561224d57600080fd5b505afa158015612261573d6000803e3d6000fd5b505050506040513d601f19601f82011682018060405250810190612285919061340b565b61228f9190612c67565b90506123128463095ea7b360e01b85846040516024016122b09291906133b9565b604051602081830303815290604052907bffffffffffffffffffffffffffffffffffffffffffffffffffffffff19166020820180517bffffffffffffffffffffffffffffffffffffffffffffffffffffffff8381831617835250505050612318565b50505050565b600061237a826040518060400160405280602081526020017f5361666545524332303a206c6f772d6c6576656c2063616c6c206661696c65648152508573ffffffffffffffffffffffffffffffffffffffff166125579092919063ffffffff16565b90506000815111156123da578080602001905181019061239a919061338c565b6123d9576040517f08c379a00000000000000000000000000000000000000000000000000000000081526004016123d0906137a5565b60405180910390fd5b5b505050565b600061240b827f01ffc9a70000000000000000000000000000000000000000000000000000000061242c565b801561242557506124238263ffffffff60e01b61242c565b155b9050919050565b6000806301ffc9a760e01b836040516024016124489190613800565b604051602081830303815290604052907bffffffffffffffffffffffffffffffffffffffffffffffffffffffff19166020820180517bffffffffffffffffffffffffffffffffffffffffffffffffffffffff838183161783525050505090506000808573ffffffffffffffffffffffffffffffffffffffff16617530846040516124d29190613895565b6000604051808303818686fa925050503d806000811461250e576040519150601f19603f3d011682016040523d82523d6000602084013e612513565b606091505b509150915060208151101561252e5760009350505050612551565b81801561254b57508080602001905181019061254a919061338c565b5b93505050505b92915050565b6060612566848460008561256f565b90509392505050565b6060824710156125b4576040517f08c379a00000000000000000000000000000000000000000000000000000000081526004016125ab9061391e565b60405180910390fd5b6125bd85612683565b6125fc576040517f08c379a00000000000000000000000000000000000000000000000000000000081526004016125f39061398a565b60405180910390fd5b6000808673ffffffffffffffffffffffffffffffffffffffff1685876040516126259190613895565b60006040518083038185875af1925050503d8060008114612662576040519150601f19603f3d011682016040523d82523d6000602084013e612667565b606091505b5091509150612677828286612696565b92505050949350505050565b600080823b905060008111915050919050565b606083156126a6578290506126f6565b6000835111156126b95782518084602001fd5b816040517f08c379a00000000000000000000000000000000000000000000000000000000081526004016126ed91906139ee565b60405180910390fd5b9392505050565b6000604051905090565b600080fd5b600080fd5b600080fd5b60006040828403121561272c5761272b612711565b5b81905092915050565b600080fd5b600080fd5b600080fd5b60008083601f84011261275a57612759612735565b5b8235905067ffffffffffffffff8111156127775761277661273a565b5b6020830191508360018202830111156127935761279261273f565b5b9250929050565b6000806000606084860312156127b3576127b2612707565b5b60006127c186828701612716565b935050604084013567ffffffffffffffff8111156127e2576127e161270c565b5b6127ee86828701612744565b92509250509250925092565b600080fd5b6000601f19601f8301169050919050565b7f4e487b7100000000000000000000000000000000000000000000000000000000600052604160045260246000fd5b612848826127ff565b810181811067ffffffffffffffff8211171561286757612866612810565b5b80604052505050565b600061287a6126fd565b9050612886828261283f565b919050565b6000819050919050565b61289e8161288b565b81146128a957600080fd5b50565b6000813590506128bb81612895565b92915050565b60008115159050919050565b6128d6816128c1565b81146128e157600080fd5b50565b6000813590506128f3816128cd565b92915050565b60006040828403121561290f5761290e6127fa565b5b6129196040612870565b90506000612929848285016128ac565b600083015250602061293d848285016128e4565b60208301525092915050565b60006040828403121561295f5761295e612707565b5b600061296d848285016128f9565b91505092915050565b600082825260208201905092915050565b7f61756374696f6e5265736f6c76653a20494e56414c49445f5245534f4c56455f60008201527f5349474e41545552450000000000000000000000000000000000000000000000602082015250565b60006129e3602983612976565b91506129ee82612987565b604082019050919050565b60006020820190508181036000830152612a12816129d6565b9050919050565b6000819050919050565b612a34612a2f8261288b565b612a19565b82525050565b6000612a468285612a23565b602082019150612a568284612a23565b6020820191508190509392505050565b7f4e487b7100000000000000000000000000000000000000000000000000000000600052602160045260246000fd5b7f7265736f6c766541756374696f6e3a2057524f4e475f4c495354494e475f545960008201527f5045000000000000000000000000000000000000000000000000000000000000602082015250565b6000612af1602283612976565b9150612afc82612a95565b604082019050919050565b60006020820190508181036000830152612b2081612ae4565b9050919050565b7f7265736f6c766541756374696f6e3a2057524f4e475f42554e444c455f53544160008201527f5445000000000000000000000000000000000000000000000000000000000000602082015250565b6000612b83602283612976565b9150612b8e82612b27565b604082019050919050565b60006020820190508181036000830152612bb281612b76565b9050919050565b600060208284031215612bcf57612bce612707565b5b6000612bdd848285016128e4565b91505092915050565b600067ffffffffffffffff82169050919050565b7f4e487b7100000000000000000000000000000000000000000000000000000000600052601160045260246000fd5b6000612c3482612be6565b9150612c3f83612be6565b92508267ffffffffffffffff03821115612c5c57612c5b612bfa565b5b828201905092915050565b6000612c728261288b565b9150612c7d8361288b565b9250827fffffffffffffffffffffffffffffffffffffffffffffffffffffffffffffffff03821115612cb257612cb1612bfa565b5b828201905092915050565b600060ff82169050919050565b612cd381612cbd565b82525050565b6000602082019050612cee6000830184612cca565b92915050565b600081905092915050565b7f19457468657265756d205369676e6564204d6573736167653a0a333200000000600082015250565b6000612d35601c83612cf4565b9150612d4082612cff565b601c82019050919050565b6000819050919050565b6000819050919050565b612d70612d6b82612d4b565b612d55565b82525050565b6000612d8182612d28565b9150612d8d8284612d5f565b60208201915081905092915050565b7f45434453413a20696e76616c6964207369676e61747572650000000000000000600082015250565b6000612dd2601883612976565b9150612ddd82612d9c565b602082019050919050565b60006020820190508181036000830152612e0181612dc5565b9050919050565b7f45434453413a20696e76616c6964207369676e6174757265206c656e67746800600082015250565b6000612e3e601f83612976565b9150612e4982612e08565b602082019050919050565b60006020820190508181036000830152612e6d81612e31565b9050919050565b7f45434453413a20696e76616c6964207369676e6174757265202773272076616c60008201527f7565000000000000000000000000000000000000000000000000000000000000602082015250565b6000612ed0602283612976565b9150612edb82612e74565b604082019050919050565b60006020820190508181036000830152612eff81612ec3565b9050919050565b7f45434453413a20696e76616c6964207369676e6174757265202776272076616c60008201527f7565000000000000000000000000000000000000000000000000000000000000602082015250565b6000612f62602283612976565b9150612f6d82612f06565b604082019050919050565b60006020820190508181036000830152612f9181612f55565b9050919050565b7f4e487b7100000000000000000000000000000000000000000000000000000000600052603260045260246000fd5b7f4e487b7100000000000000000000000000000000000000000000000000000000600052601260045260246000fd5b60006130018261288b565b915061300c8361288b565b92508261301c5761301b612fc7565b5b828204905092915050565b600073ffffffffffffffffffffffffffffffffffffffff82169050919050565b600061305282613027565b9050919050565b61306281613047565b82525050565b6130718161288b565b82525050565b600082825260208201905092915050565b50565b6000613098600083613077565b91506130a382613088565b600082019050919050565b60006080820190506130c36000830186613059565b6130d06020830185613059565b6130dd6040830184613068565b81810360608301526130ee8161308b565b9050949350505050565b600060a08201905061310d6000830187613059565b61311a6020830186613059565b6131276040830185613068565b6131346060830184613068565b81810360808301526131458161308b565b905095945050505050565b600061315b8261288b565b91507fffffffffffffffffffffffffffffffffffffffffffffffffffffffffffffffff82141561318e5761318d612bfa565b5b600182019050919050565b60006131a48261288b565b91506131af8361288b565b9250828210156131c2576131c1612bfa565b5b828203905092915050565b60006020820190506131e26000830184613068565b92915050565b6131f181612d4b565b82525050565b600060808201905061320c60008301876131e8565b6132196020830186612cca565b61322660408301856131e8565b61323360608301846131e8565b95945050505050565b60006040820190506132516000830185613068565b61325e6020830184613068565b9392505050565b61326e81613047565b811461327957600080fd5b50565b60008151905061328b81613265565b92915050565b6000815190506132a081612895565b92915050565b600080604083850312156132bd576132bc612707565b5b60006132cb8582860161327c565b92505060206132dc85828601613291565b9150509250929050565b60006060820190506132fb6000830186613059565b6133086020830185613059565b6133156040830184613068565b949350505050565b60006133288261288b565b91506133338361288b565b9250817fffffffffffffffffffffffffffffffffffffffffffffffffffffffffffffffff048311821515161561336c5761336b612bfa565b5b828202905092915050565b600081519050613386816128cd565b92915050565b6000602082840312156133a2576133a1612707565b5b60006133b084828501613377565b91505092915050565b60006040820190506133ce6000830185613059565b6133db6020830184613068565b9392505050565b60006040820190506133f76000830185613059565b6134046020830184613059565b9392505050565b60006020828403121561342157613420612707565b5b600061342f84828501613291565b91505092915050565b7f657865637574655061796d656e743a20494e53554646494349454e545f414c4c60008201527f4f57414e43450000000000000000000000000000000000000000000000000000602082015250565b6000613494602683612976565b915061349f82613438565b604082019050919050565b600060208201905081810360008301526134c381613487565b9050919050565b6000819050919050565b6000819050919050565b60006134f96134f46134ef846134ca565b6134d4565b61288b565b9050919050565b613509816134de565b82525050565b600081519050919050565b600082825260208201905092915050565b6000819050602082019050919050565b61354481613047565b82525050565b6000613556838361353b565b60208301905092915050565b6000602082019050919050565b600061357a8261350f565b613584818561351a565b935061358f8361352b565b8060005b838110156135c05781516135a7888261354a565b97506135b283613562565b925050600181019050613593565b5085935050505092915050565b600060a0820190506135e26000830188613068565b6135ef6020830187613500565b8181036040830152613601818661356f565b90506136106060830185613059565b61361d6080830184613068565b9695505050505050565b600067ffffffffffffffff82111561364257613641612810565b5b602082029050602081019050919050565b600061366661366184613627565b612870565b905080838252602082019050602084028301858111156136895761368861273f565b5b835b818110156136b2578061369e8882613291565b84526020840193505060208101905061368b565b5050509392505050565b600082601f8301126136d1576136d0612735565b5b81516136e1848260208601613653565b91505092915050565b600060208284031215613700576136ff612707565b5b600082015167ffffffffffffffff81111561371e5761371d61270c565b5b61372a848285016136bc565b91505092915050565b7f5361666545524332303a204552433230206f7065726174696f6e20646964206e60008201527f6f74207375636365656400000000000000000000000000000000000000000000602082015250565b600061378f602a83612976565b915061379a82613733565b604082019050919050565b600060208201905081810360008301526137be81613782565b9050919050565b60007fffffffff0000000000000000000000000000000000000000000000000000000082169050919050565b6137fa816137c5565b82525050565b600060208201905061381560008301846137f1565b92915050565b600081519050919050565b600081905092915050565b60005b8381101561384f578082015181840152602081019050613834565b8381111561385e576000848401525b50505050565b600061386f8261381b565b6138798185613826565b9350613889818560208601613831565b80840191505092915050565b60006138a18284613864565b915081905092915050565b7f416464726573733a20696e73756666696369656e742062616c616e636520666f60008201527f722063616c6c0000000000000000000000000000000000000000000000000000602082015250565b6000613908602683612976565b9150613913826138ac565b604082019050919050565b60006020820190508181036000830152613937816138fb565b9050919050565b7f416464726573733a2063616c6c20746f206e6f6e2d636f6e7472616374000000600082015250565b6000613974601d83612976565b915061397f8261393e565b602082019050919050565b600060208201905081810360008301526139a381613967565b9050919050565b600081519050919050565b60006139c0826139aa565b6139ca8185612976565b93506139da818560208601613831565b6139e3816127ff565b840191505092915050565b60006020820190508181036000830152613a0881846139b5565b90509291505056fea264697066735822122080364ecb0d647c8deaaca3402ee560ca4d7961b92b5e1892161863129a8e028c64736f6c63430008090033",
  "linkReferences": {},
  "deployedLinkReferences": {}
}