{
  "_format": "hh-sol-artifact-1",
  "contractName": "AuctionBidFacet",
  "sourceName": "contracts/marketplace/facets/AuctionBidFacet.sol",
  "abi": [
    {
      "anonymous": false,
      "inputs": [
        {
          "indexed": true,
          "internalType": "uint256",
          "name": "bundleId",
          "type": "uint256"
        },
        {
          "indexed": true,
          "internalType": "address",
          "name": "bidder",
          "type": "address"
        },
        {
          "indexed": false,
          "internalType": "uint256",
          "name": "value",
          "type": "uint256"
        },
        {
          "indexed": false,
          "internalType": "uint64",
          "name": "newDuration",
          "type": "uint64"
        }
      ],
      "name": "AuctionBidMade",
      "type": "event"
    },
    {
      "anonymous": false,
      "inputs": [
        {
          "indexed": true,
          "internalType": "uint256",
          "name": "bundleId",
          "type": "uint256"
        },
        {
          "indexed": true,
          "internalType": "address",
          "name": "bidder",
          "type": "address"
        },
        {
          "indexed": false,
          "internalType": "uint256",
          "name": "value",
          "type": "uint256"
        }
      ],
      "name": "AuctionBidReturned",
      "type": "event"
    },
    {
      "inputs": [
        {
          "components": [
            {
              "internalType": "address",
              "name": "bidder",
              "type": "address"
            },
            {
              "internalType": "uint256",
              "name": "bundleId",
              "type": "uint256"
            },
            {
              "internalType": "uint256",
              "name": "value",
              "type": "uint256"
            }
          ],
          "internalType": "struct AuctionBidOrder",
          "name": "order",
          "type": "tuple"
        }
      ],
      "name": "auctionMakeBid",
      "outputs": [],
      "stateMutability": "nonpayable",
      "type": "function"
    }
  ],
  "bytecode": "0x608060405234801561001057600080fd5b50612612806100206000396000f3fe608060405234801561001057600080fd5b506004361061002b5760003560e01c80639f7ac85e14610030575b600080fd5b61004a600480360381019061004591906117ec565b61004c565b005b80600001602081019061005f9190611877565b6100676100ea565b73ffffffffffffffffffffffffffffffffffffffff168173ffffffffffffffffffffffffffffffffffffffff16146100d4576040517f08c379a00000000000000000000000000000000000000000000000000000000081526004016100cb90611901565b60405180910390fd5b6100dd826100f2565b6100e6826104f0565b5050565b600033905090565b60006100fc61091e565b905060008160030160010160008460200135815260200190815260200160002090506002600381111561013257610131611921565b5b81600a0160019054906101000a900460ff16600381111561015657610155611921565b5b148061019657506003808111156101705761016f611921565b5b81600a0160019054906101000a900460ff16600381111561019457610193611921565b5b145b6101d5576040517f08c379a00000000000000000000000000000000000000000000000000000000081526004016101cc906119c2565b60405180910390fd5b600160028111156101e9576101e8611921565b5b81600a0160009054906101000a900460ff16600281111561020d5761020c611921565b5b148061024d575060028081111561022757610226611921565b5b81600a0160009054906101000a900460ff16600281111561024b5761024a611921565b5b145b61028c576040517f08c379a000000000000000000000000000000000000000000000000000000000815260040161028390611a54565b60405180910390fd5b428160060160089054906101000a900467ffffffffffffffff168260060160009054906101000a900467ffffffffffffffff166102c99190611ab7565b67ffffffffffffffff1611610313576040517f08c379a000000000000000000000000000000000000000000000000000000000815260040161030a90611b67565b60405180910390fd5b8060070160020160009054906101000a900460ff161561049b578260000160208101906103409190611877565b73ffffffffffffffffffffffffffffffffffffffff168160070160000160009054906101000a900473ffffffffffffffffffffffffffffffffffffffff1673ffffffffffffffffffffffffffffffffffffffff1614156103d5576040517f08c379a00000000000000000000000000000000000000000000000000000000081526004016103cc90611bf9565b60405180910390fd5b826040013582600501600d0160008360010160009054906101000a900473ffffffffffffffffffffffffffffffffffffffff1673ffffffffffffffffffffffffffffffffffffffff1673ffffffffffffffffffffffffffffffffffffffff1681526020019081526020016000205482600701600101546104559190611c23565b1115610496576040517f08c379a000000000000000000000000000000000000000000000000000000000815260040161048d90611ceb565b60405180910390fd5b6104eb565b82604001356104a982610923565b11156104ea576040517f08c379a00000000000000000000000000000000000000000000000000000000081526004016104e190611d7d565b60405180910390fd5b5b505050565b60006104fa61091e565b9050600081600301600101600084602001358152602001908152602001600020905060028081111561052f5761052e611921565b5b81600a0160009054906101000a900460ff16600281111561055357610552611921565b5b14801561059557506002600381111561056f5761056e611921565b5b81600a0160019054906101000a900460ff16600381111561059357610592611921565b5b145b156105d1576105a381610aa7565b600181600a0160006101000a81548160ff021916908360028111156105cb576105ca611921565b5b02179055505b8060010160009054906101000a900473ffffffffffffffffffffffffffffffffffffffff1673ffffffffffffffffffffffffffffffffffffffff166323b872dd8460000160208101906106249190611877565b3086604001356040518463ffffffff1660e01b815260040161064893929190611dbb565b602060405180830381600087803b15801561066257600080fd5b505af1158015610676573d6000803e3d6000fd5b505050506040513d601f19601f8201168201806040525081019061069a9190611e2a565b5060008160070190508060020160009054906101000a900460ff1615610816576107318160000160009054906101000a900473ffffffffffffffffffffffffffffffffffffffff1682600101548460010160009054906101000a900473ffffffffffffffffffffffffffffffffffffffff1673ffffffffffffffffffffffffffffffffffffffff166112199092919063ffffffff16565b8260050160110160009054906101000a900467ffffffffffffffff168260060160089054906101000a900467ffffffffffffffff166107709190611ab7565b8260060160086101000a81548167ffffffffffffffff021916908367ffffffffffffffff1602179055508060000160009054906101000a900473ffffffffffffffffffffffffffffffffffffffff1673ffffffffffffffffffffffffffffffffffffffff1684602001357f27acfde09535e77aaed9ad1e458812d621dc770dc0683e7d43f57615119e2474836001015460405161080d9190611e57565b60405180910390a35b8360000160208101906108299190611877565b8160000160006101000a81548173ffffffffffffffffffffffffffffffffffffffff021916908373ffffffffffffffffffffffffffffffffffffffff1602179055508360400135816001018190555060018160020160006101000a81548160ff0219169083151502179055508360000160208101906108a89190611877565b73ffffffffffffffffffffffffffffffffffffffff1684602001357fc4169ebef6434d7650022c0a9f5ffcd583e8f15f11268a2ae01a7922d6eab63386604001358560060160089054906101000a900467ffffffffffffffff16604051610910929190611e81565b60405180910390a350505050565b600090565b60008061092e61091e565b9050600083600301805490509050600080600090505b82811015610a9b5760008460030160000160008860000160009054906101000a900473ffffffffffffffffffffffffffffffffffffffff1673ffffffffffffffffffffffffffffffffffffffff1673ffffffffffffffffffffffffffffffffffffffff16815260200190815260200160002060008860030184815481106109ce576109cd611eaa565b5b9060005260206000200160009054906101000a900473ffffffffffffffffffffffffffffffffffffffff1673ffffffffffffffffffffffffffffffffffffffff1673ffffffffffffffffffffffffffffffffffffffff1681526020019081526020016000206000886004018481548110610a4b57610a4a611eaa565b5b90600052602060002001548152602001908152602001600020905080600101548160020154610a7a9190611ed9565b83610a859190611c23565b9250508080610a9390611f33565b915050610944565b50809350505050919050565b6000610ab161091e565b905060008260040180549050905060005b818110156112135760008360030160000160008660000160009054906101000a900473ffffffffffffffffffffffffffffffffffffffff1673ffffffffffffffffffffffffffffffffffffffff1673ffffffffffffffffffffffffffffffffffffffff1681526020019081526020016000206000866003018481548110610b4c57610b4b611eaa565b5b9060005260206000200160009054906101000a900473ffffffffffffffffffffffffffffffffffffffff1673ffffffffffffffffffffffffffffffffffffffff1673ffffffffffffffffffffffffffffffffffffffff1681526020019081526020016000206000866004018481548110610bc957610bc8611eaa565b5b90600052602060002001548152602001908152602001600020905060006001811115610bf857610bf7611921565b5b8160040160009054906101000a900460ff166001811115610c1c57610c1b611921565b5b1415610ee857610c2a6116c5565b856003018381548110610c4057610c3f611eaa565b5b9060005260206000200160009054906101000a900473ffffffffffffffffffffffffffffffffffffffff16816000019073ffffffffffffffffffffffffffffffffffffffff16908173ffffffffffffffffffffffffffffffffffffffff16815250508560000160009054906101000a900473ffffffffffffffffffffffffffffffffffffffff16816020019073ffffffffffffffffffffffffffffffffffffffff16908173ffffffffffffffffffffffffffffffffffffffff1681525050856004018381548110610d1457610d13611eaa565b5b9060005260206000200154816040018181525050816003018054610d3790611fab565b80601f0160208091040260200160405190810160405280929190818152602001828054610d6390611fab565b8015610db05780601f10610d8557610100808354040283529160200191610db0565b820191906000526020600020905b815481529060010190602001808311610d9357829003601f168201915b50505050508160600181905250816005016040518060400160405290816000820160009054906101000a900473ffffffffffffffffffffffffffffffffffffffff1673ffffffffffffffffffffffffffffffffffffffff1673ffffffffffffffffffffffffffffffffffffffff1681526020016000820160149054906101000a900462ffffff1662ffffff1662ffffff168152505081608001819052506000610e5c826000015161129f565b9050610e6a8282600061130c565b816000015173ffffffffffffffffffffffffffffffffffffffff1663b88d4fde83602001513085604001516040518463ffffffff1660e01b8152600401610eb393929190612014565b600060405180830381600087803b158015610ecd57600080fd5b505af1158015610ee1573d6000803e3d6000fd5b5050505050505b600180811115610efb57610efa611921565b5b8160040160009054906101000a900460ff166001811115610f1f57610f1e611921565b5b14156111ff57610f2d611726565b856003018381548110610f4357610f42611eaa565b5b9060005260206000200160009054906101000a900473ffffffffffffffffffffffffffffffffffffffff16816000019073ffffffffffffffffffffffffffffffffffffffff16908173ffffffffffffffffffffffffffffffffffffffff16815250508560000160009054906101000a900473ffffffffffffffffffffffffffffffffffffffff16816020019073ffffffffffffffffffffffffffffffffffffffff16908173ffffffffffffffffffffffffffffffffffffffff168152505085600401838154811061101757611016611eaa565b5b9060005260206000200154816040018181525050816001015481606001818152505081600301805461104890611fab565b80601f016020809104026020016040519081016040528092919081815260200182805461107490611fab565b80156110c15780601f10611096576101008083540402835291602001916110c1565b820191906000526020600020905b8154815290600101906020018083116110a457829003601f168201915b50505050508160800181905250816005016040518060400160405290816000820160009054906101000a900473ffffffffffffffffffffffffffffffffffffffff1673ffffffffffffffffffffffffffffffffffffffff1673ffffffffffffffffffffffffffffffffffffffff1681526020016000820160149054906101000a900462ffffff1662ffffff1662ffffff16815250508160a00181905250600061116d826000015161129f565b905061117b828260006113b2565b816000015173ffffffffffffffffffffffffffffffffffffffff1663f242432a836020015130856040015186606001516040518563ffffffff1660e01b81526004016111ca949392919061205e565b600060405180830381600087803b1580156111e457600080fd5b505af11580156111f8573d6000803e3d6000fd5b5050505050505b50808061120b90611f33565b915050610ac2565b50505050565b61129a8363a9059cbb60e01b84846040516024016112389291906120b6565b604051602081830303815290604052907bffffffffffffffffffffffffffffffffffffffffffffffffffffffff19166020820180517bffffffffffffffffffffffffffffffffffffffffffffffffffffffff8381831617835250505050611458565b505050565b6000806112aa61091e565b905060008160050160050160008573ffffffffffffffffffffffffffffffffffffffff1673ffffffffffffffffffffffffffffffffffffffff16815260200190815260200160002060009054906101000a900460ff1690508092505050919050565b60018081111561131f5761131e611921565b5b82600181111561133257611331611921565b5b14156113ad57826000015173ffffffffffffffffffffffffffffffffffffffff1663dece1b10848360006040518463ffffffff1660e01b815260040161137a93929190612268565b600060405180830381600087803b15801561139457600080fd5b505af11580156113a8573d6000803e3d6000fd5b505050505b505050565b6001808111156113c5576113c4611921565b5b8260018111156113d8576113d7611921565b5b141561145357826000015173ffffffffffffffffffffffffffffffffffffffff1663b841bb89848360006040518463ffffffff1660e01b815260040161142093929190612342565b600060405180830381600087803b15801561143a57600080fd5b505af115801561144e573d6000803e3d6000fd5b505050505b505050565b60006114ba826040518060400160405280602081526020017f5361666545524332303a206c6f772d6c6576656c2063616c6c206661696c65648152508573ffffffffffffffffffffffffffffffffffffffff1661151f9092919063ffffffff16565b905060008151111561151a57808060200190518101906114da9190611e2a565b611519576040517f08c379a000000000000000000000000000000000000000000000000000000000815260040161151090612405565b60405180910390fd5b5b505050565b606061152e8484600085611537565b90509392505050565b60608247101561157c576040517f08c379a000000000000000000000000000000000000000000000000000000000815260040161157390612497565b60405180910390fd5b6115858561164b565b6115c4576040517f08c379a00000000000000000000000000000000000000000000000000000000081526004016115bb90612503565b60405180910390fd5b6000808673ffffffffffffffffffffffffffffffffffffffff1685876040516115ed919061256a565b60006040518083038185875af1925050503d806000811461162a576040519150601f19603f3d011682016040523d82523d6000602084013e61162f565b606091505b509150915061163f82828661165e565b92505050949350505050565b600080823b905060008111915050919050565b6060831561166e578290506116be565b6000835111156116815782518084602001fd5b816040517f08c379a00000000000000000000000000000000000000000000000000000000081526004016116b591906125ba565b60405180910390fd5b9392505050565b6040518060a00160405280600073ffffffffffffffffffffffffffffffffffffffff168152602001600073ffffffffffffffffffffffffffffffffffffffff168152602001600081526020016060815260200161172061178e565b81525090565b6040518060c00160405280600073ffffffffffffffffffffffffffffffffffffffff168152602001600073ffffffffffffffffffffffffffffffffffffffff16815260200160008152602001600081526020016060815260200161178861178e565b81525090565b6040518060400160405280600073ffffffffffffffffffffffffffffffffffffffff168152602001600062ffffff1681525090565b600080fd5b600080fd5b6000606082840312156117e3576117e26117c8565b5b81905092915050565b600060608284031215611802576118016117c3565b5b6000611810848285016117cd565b91505092915050565b600073ffffffffffffffffffffffffffffffffffffffff82169050919050565b600061184482611819565b9050919050565b61185481611839565b811461185f57600080fd5b50565b6000813590506118718161184b565b92915050565b60006020828403121561188d5761188c6117c3565b5b600061189b84828501611862565b91505092915050565b600082825260208201905092915050565b7f4e4f545f53454e44455200000000000000000000000000000000000000000000600082015250565b60006118eb600a836118a4565b91506118f6826118b5565b602082019050919050565b6000602082019050818103600083015261191a816118de565b9050919050565b7f4e487b7100000000000000000000000000000000000000000000000000000000600052602160045260246000fd5b7f636865636b41756374696f6e4269644f726465723a2057524f4e475f4c49535460008201527f494e475f54595045000000000000000000000000000000000000000000000000602082015250565b60006119ac6028836118a4565b91506119b782611950565b604082019050919050565b600060208201905081810360008301526119db8161199f565b9050919050565b7f636865636b41756374696f6e4269644f726465723a2057524f4e475f42554e4460008201527f4c455f5354415445000000000000000000000000000000000000000000000000602082015250565b6000611a3e6028836118a4565b9150611a49826119e2565b604082019050919050565b60006020820190508181036000830152611a6d81611a31565b9050919050565b600067ffffffffffffffff82169050919050565b7f4e487b7100000000000000000000000000000000000000000000000000000000600052601160045260246000fd5b6000611ac282611a74565b9150611acd83611a74565b92508267ffffffffffffffff03821115611aea57611ae9611a88565b5b828201905092915050565b7f636865636b41756374696f6e4269644f726465723a2041554354494f4e5f455860008201527f5049524544000000000000000000000000000000000000000000000000000000602082015250565b6000611b516025836118a4565b9150611b5c82611af5565b604082019050919050565b60006020820190508181036000830152611b8081611b44565b9050919050565b7f636865636b41756374696f6e4269644f726465723a204249445f49535f41435460008201527f4956450000000000000000000000000000000000000000000000000000000000602082015250565b6000611be36023836118a4565b9150611bee82611b87565b604082019050919050565b60006020820190508181036000830152611c1281611bd6565b9050919050565b6000819050919050565b6000611c2e82611c19565b9150611c3983611c19565b9250827fffffffffffffffffffffffffffffffffffffffffffffffffffffffffffffffff03821115611c6e57611c6d611a88565b5b828201905092915050565b7f636865636b41756374696f6e4269644f726465723a204c4f575f4249445f564160008201527f4c55450000000000000000000000000000000000000000000000000000000000602082015250565b6000611cd56023836118a4565b9150611ce082611c79565b604082019050919050565b60006020820190508181036000830152611d0481611cc8565b9050919050565b7f636865636b41756374696f6e4269644f726465723a204249445f49535f42454c60008201527f4f575f5354415254494e475f5052494345000000000000000000000000000000602082015250565b6000611d676031836118a4565b9150611d7282611d0b565b604082019050919050565b60006020820190508181036000830152611d9681611d5a565b9050919050565b611da681611839565b82525050565b611db581611c19565b82525050565b6000606082019050611dd06000830186611d9d565b611ddd6020830185611d9d565b611dea6040830184611dac565b949350505050565b60008115159050919050565b611e0781611df2565b8114611e1257600080fd5b50565b600081519050611e2481611dfe565b92915050565b600060208284031215611e4057611e3f6117c3565b5b6000611e4e84828501611e15565b91505092915050565b6000602082019050611e6c6000830184611dac565b92915050565b611e7b81611a74565b82525050565b6000604082019050611e966000830185611dac565b611ea36020830184611e72565b9392505050565b7f4e487b7100000000000000000000000000000000000000000000000000000000600052603260045260246000fd5b6000611ee482611c19565b9150611eef83611c19565b9250817fffffffffffffffffffffffffffffffffffffffffffffffffffffffffffffffff0483118215151615611f2857611f27611a88565b5b828202905092915050565b6000611f3e82611c19565b91507fffffffffffffffffffffffffffffffffffffffffffffffffffffffffffffffff821415611f7157611f70611a88565b5b600182019050919050565b7f4e487b7100000000000000000000000000000000000000000000000000000000600052602260045260246000fd5b60006002820490506001821680611fc357607f821691505b60208210811415611fd757611fd6611f7c565b5b50919050565b600082825260208201905092915050565b50565b6000611ffe600083611fdd565b915061200982611fee565b600082019050919050565b60006080820190506120296000830186611d9d565b6120366020830185611d9d565b6120436040830184611dac565b818103606083015261205481611ff1565b9050949350505050565b600060a0820190506120736000830187611d9d565b6120806020830186611d9d565b61208d6040830185611dac565b61209a6060830184611dac565b81810360808301526120ab81611ff1565b905095945050505050565b60006040820190506120cb6000830185611d9d565b6120d86020830184611dac565b9392505050565b6120e881611839565b82525050565b6120f781611c19565b82525050565b600081519050919050565b600082825260208201905092915050565b60005b8381101561213757808201518184015260208101905061211c565b83811115612146576000848401525b50505050565b6000601f19601f8301169050919050565b6000612168826120fd565b6121728185612108565b9350612182818560208601612119565b61218b8161214c565b840191505092915050565b600062ffffff82169050919050565b6121ae81612196565b82525050565b6040820160008201516121ca60008501826120df565b5060208201516121dd60208501826121a5565b50505050565b600060c0830160008301516121fb60008601826120df565b50602083015161220e60208601826120df565b50604083015161222160408601826120ee565b5060608301518482036060860152612239828261215d565b915050608083015161224e60808601826121b4565b508091505092915050565b61226281611df2565b82525050565b6000608082019050818103600083015261228281866121e3565b90506122916020830185612259565b61229e6040830184612259565b81810360608301526122af81611ff1565b9050949350505050565b600060e0830160008301516122d160008601826120df565b5060208301516122e460208601826120df565b5060408301516122f760408601826120ee565b50606083015161230a60608601826120ee565b5060808301518482036080860152612322828261215d565b91505060a083015161233760a08601826121b4565b508091505092915050565b6000608082019050818103600083015261235c81866122b9565b905061236b6020830185612259565b6123786040830184612259565b818103606083015261238981611ff1565b9050949350505050565b7f5361666545524332303a204552433230206f7065726174696f6e20646964206e60008201527f6f74207375636365656400000000000000000000000000000000000000000000602082015250565b60006123ef602a836118a4565b91506123fa82612393565b604082019050919050565b6000602082019050818103600083015261241e816123e2565b9050919050565b7f416464726573733a20696e73756666696369656e742062616c616e636520666f60008201527f722063616c6c0000000000000000000000000000000000000000000000000000602082015250565b60006124816026836118a4565b915061248c82612425565b604082019050919050565b600060208201905081810360008301526124b081612474565b9050919050565b7f416464726573733a2063616c6c20746f206e6f6e2d636f6e7472616374000000600082015250565b60006124ed601d836118a4565b91506124f8826124b7565b602082019050919050565b6000602082019050818103600083015261251c816124e0565b9050919050565b600081519050919050565b600081905092915050565b600061254482612523565b61254e818561252e565b935061255e818560208601612119565b80840191505092915050565b60006125768284612539565b915081905092915050565b600061258c826120fd565b61259681856118a4565b93506125a6818560208601612119565b6125af8161214c565b840191505092915050565b600060208201905081810360008301526125d48184612581565b90509291505056fea26469706673582212200256673e2b5a4eaf31164771bafb3549a9257e2ff480de9a4e8849deeb6f1c8c64736f6c63430008090033",
  "linkReferences": {},
  "deployedLinkReferences": {}
}