{
  "_format": "hh-sol-artifact-1",
  "contractName": "AuctionListFacet",
  "sourceName": "contracts/marketplace/facets/AuctionListFacet.sol",
  "abi": [
    {
      "anonymous": false,
      "inputs": [
        {
          "indexed": true,
          "internalType": "uint256",
          "name": "bundleId",
          "type": "uint256"
        },
        {
          "indexed": true,
          "internalType": "address",
          "name": "owner",
          "type": "address"
        },
        {
          "indexed": false,
          "internalType": "address",
          "name": "paymentToken",
          "type": "address"
        },
        {
          "indexed": false,
          "internalType": "address[]",
          "name": "tokens",
          "type": "address[]"
        },
        {
          "indexed": false,
          "internalType": "uint256[]",
          "name": "ids",
          "type": "uint256[]"
        },
        {
          "indexed": false,
          "internalType": "uint256[]",
          "name": "amounts",
          "type": "uint256[]"
        },
        {
          "indexed": false,
          "internalType": "uint256[]",
          "name": "prices",
          "type": "uint256[]"
        },
        {
          "indexed": false,
          "internalType": "uint8[]",
          "name": "standards",
          "type": "uint8[]"
        }
      ],
      "name": "AuctionBundleListed1",
      "type": "event"
    },
    {
      "anonymous": false,
      "inputs": [
        {
          "indexed": true,
          "internalType": "uint256",
          "name": "bundleId",
          "type": "uint256"
        },
        {
          "indexed": false,
          "internalType": "uint256",
          "name": "reservePrice",
          "type": "uint256"
        },
        {
          "indexed": false,
          "internalType": "uint64",
          "name": "duration",
          "type": "uint64"
        },
        {
          "indexed": false,
          "internalType": "uint8",
          "name": "state",
          "type": "uint8"
        },
        {
          "indexed": false,
          "internalType": "bool",
          "name": "isVirtual",
          "type": "bool"
        }
      ],
      "name": "AuctionBundleListed2",
      "type": "event"
    },
    {
      "inputs": [
        {
          "components": [
            {
              "internalType": "address",
              "name": "owner",
              "type": "address"
            },
            {
              "internalType": "address",
              "name": "paymentToken",
              "type": "address"
            },
            {
              "internalType": "address",
              "name": "targetToken",
              "type": "address"
            },
            {
              "internalType": "uint256",
              "name": "bundleId",
              "type": "uint256"
            },
            {
              "internalType": "address[]",
              "name": "tokens",
              "type": "address[]"
            },
            {
              "internalType": "uint256[]",
              "name": "ids",
              "type": "uint256[]"
            },
            {
              "internalType": "uint256[]",
              "name": "amounts",
              "type": "uint256[]"
            },
            {
              "internalType": "uint256[]",
              "name": "startingPrices",
              "type": "uint256[]"
            },
            {
              "internalType": "uint256",
              "name": "reservePrice",
              "type": "uint256"
            },
            {
              "internalType": "uint64",
              "name": "duration",
              "type": "uint64"
            },
            {
              "internalType": "string[]",
              "name": "uris",
              "type": "string[]"
            },
            {
              "internalType": "enum AssetStandard[]",
              "name": "standards",
              "type": "uint8[]"
            },
            {
              "components": [
                {
                  "internalType": "address",
                  "name": "recipient",
                  "type": "address"
                },
                {
                  "internalType": "uint24",
                  "name": "amount",
                  "type": "uint24"
                }
              ],
              "internalType": "struct ERC2981Base.RoyaltyInfo[]",
              "name": "royalties",
              "type": "tuple[]"
            },
            {
              "internalType": "bool",
              "name": "minted",
              "type": "bool"
            },
            {
              "internalType": "bool",
              "name": "deferred",
              "type": "bool"
            }
          ],
          "internalType": "struct AuctionListOrder",
          "name": "order",
          "type": "tuple"
        }
      ],
      "name": "auctionListBundle",
      "outputs": [],
      "stateMutability": "nonpayable",
      "type": "function"
    }
  ],
  "bytecode": "0x608060405234801561001057600080fd5b5061355e806100206000396000f3fe608060405234801561001057600080fd5b506004361061002b5760003560e01c80635099d55714610030575b600080fd5b61004a60048036038101906100459190611e48565b61004c565b005b806101c00160208101906100609190611ec9565b6100f05761006c610187565b73ffffffffffffffffffffffffffffffffffffffff168160000160208101906100959190611f54565b73ffffffffffffffffffffffffffffffffffffffff16146100eb576040517f08c379a00000000000000000000000000000000000000000000000000000000081526004016100e290612004565b60405180910390fd5b610172565b600073ffffffffffffffffffffffffffffffffffffffff1681600001602081019061011b9190611f54565b73ffffffffffffffffffffffffffffffffffffffff1614610171576040517f08c379a000000000000000000000000000000000000000000000000000000000815260040161016890612096565b60405180910390fd5b5b61017b8161018f565b61018481610dd0565b50565b600033905090565b60006101996118ee565b905060008280608001906101ad91906120c5565b9050905081600501600c01548111156101fb576040517f08c379a00000000000000000000000000000000000000000000000000000000081526004016101f29061219a565b60405180910390fd5b6000811161023e576040517f08c379a000000000000000000000000000000000000000000000000000000000815260040161023590612206565b60405180910390fd5b80838060a0019061024f9190612226565b905014801561026e575080838060c0019061026a9190612226565b9050145b801561028a575080838060e001906102869190612226565b9050145b6102c9576040517f08c379a00000000000000000000000000000000000000000000000000000000081526004016102c0906122fb565b60405180910390fd5b826101c00160208101906102dd9190611ec9565b61037f5781600501600e0160008460200160208101906102fd9190611f54565b73ffffffffffffffffffffffffffffffffffffffff1673ffffffffffffffffffffffffffffffffffffffff168152602001908152602001600020548361010001351161037e576040517f08c379a00000000000000000000000000000000000000000000000000000000081526004016103759061238d565b60405180910390fd5b5b81600501600f01548361012001602081019061039b91906123ed565b67ffffffffffffffff161180156103d557508160050160100154836101200160208101906103c991906123ed565b67ffffffffffffffff16105b610414576040517f08c379a000000000000000000000000000000000000000000000000000000000815260040161040b9061248c565b60405180910390fd5b826101c00160208101906104289190611ec9565b80156104445750826101a00160208101906104439190611ec9565b5b15610484576040517f08c379a000000000000000000000000000000000000000000000000000000000815260040161047b9061251e565b60405180910390fd5b61049f83602001602081019061049a9190611f54565b6118f3565b6104ba8360400160208101906104b59190611f54565b611984565b6000836101a00160208101906104d09190611ec9565b15806104ec5750836101c00160208101906104eb9190611ec9565b5b905060005b82811015610dc95760008460030160000160008760000160208101906105179190611f54565b73ffffffffffffffffffffffffffffffffffffffff1673ffffffffffffffffffffffffffffffffffffffff168152602001908152602001600020600087806080019061056391906120c5565b858181106105745761057361253e565b5b90506020020160208101906105899190611f54565b73ffffffffffffffffffffffffffffffffffffffff1673ffffffffffffffffffffffffffffffffffffffff1681526020019081526020016000206000878060a001906105d59190612226565b858181106105e6576105e561253e565b5b905060200201358152602001908152602001600020905061060681611a1f565b6000868060c001906106189190612226565b848181106106295761062861253e565b5b9050602002013511610670576040517f08c379a0000000000000000000000000000000000000000000000000000000008152600401610667906125df565b60405180910390fd5b84600501600801600087602001602081019061068c9190611f54565b73ffffffffffffffffffffffffffffffffffffffff1673ffffffffffffffffffffffffffffffffffffffff16815260200190815260200160002054868060e001906106d79190612226565b848181106106e8576106e761253e565b5b905060200201351015610730576040517f08c379a000000000000000000000000000000000000000000000000000000000815260040161072790612671565b60405180910390fd5b6000600181111561074457610743612691565b5b8680610160019061075591906126c0565b848181106107665761076561253e565b5b905060200201602081019061077b9190612748565b600181111561078d5761078c612691565b5b14806107f257506001808111156107a7576107a6612691565b5b868061016001906107b891906126c0565b848181106107c9576107c861253e565b5b90506020020160208101906107de9190612748565b60018111156107f0576107ef612691565b5b145b610831576040517f08c379a0000000000000000000000000000000000000000000000000000000008152600401610828906127e7565b60405180910390fd5b856101a00160208101906108459190611ec9565b1580156108635750856101c00160208101906108619190611ec9565b155b156109565760008680610140019061087b9190612807565b8481811061088c5761088b61253e565b5b905060200281019061089e919061286a565b905014156108e1576040517f08c379a00000000000000000000000000000000000000000000000000000000081526004016108d89061293f565b60405180910390fd5b6000868061018001906108f4919061295f565b905011801561091557508386806101800190610910919061295f565b905014155b15610955576040517f08c379a000000000000000000000000000000000000000000000000000000000815260040161094c90612a34565b60405180910390fd5b5b8215610db557600085600501600501600088806080019061097791906120c5565b868181106109885761098761253e565b5b905060200201602081019061099d9190611f54565b73ffffffffffffffffffffffffffffffffffffffff1673ffffffffffffffffffffffffffffffffffffffff16815260200190815260200160002060009054906101000a900460ff169050610a27878061016001906109fb91906126c0565b85818110610a0c57610a0b61253e565b5b9050602002016020810190610a219190612748565b82611a69565b866101c0016020810190610a3b9190611ec9565b15610db35760006001811115610a5457610a53612691565b5b87806101600190610a6591906126c0565b85818110610a7657610a7561253e565b5b9050602002016020810190610a8b9190612748565b6001811115610a9d57610a9c612691565b5b1415610bfb57600073ffffffffffffffffffffffffffffffffffffffff16878060800190610acb91906120c5565b85818110610adc57610adb61253e565b5b9050602002016020810190610af19190611f54565b73ffffffffffffffffffffffffffffffffffffffff1663589a1743898060a00190610b1c9190612226565b87818110610b2d57610b2c61253e565b5b905060200201356040518263ffffffff1660e01b8152600401610b509190612a6d565b60206040518083038186803b158015610b6857600080fd5b505afa158015610b7c573d6000803e3d6000fd5b505050506040513d601f19601f82011682018060405250810190610ba09190612a9d565b73ffffffffffffffffffffffffffffffffffffffff1614610bf6576040517f08c379a0000000000000000000000000000000000000000000000000000000008152600401610bed90612b3c565b60405180910390fd5b610db2565b600180811115610c0e57610c0d612691565b5b87806101600190610c1f91906126c0565b85818110610c3057610c2f61253e565b5b9050602002016020810190610c459190612748565b6001811115610c5757610c56612691565b5b1415610db157600073ffffffffffffffffffffffffffffffffffffffff16878060800190610c8591906120c5565b85818110610c9657610c9561253e565b5b9050602002016020810190610cab9190611f54565b73ffffffffffffffffffffffffffffffffffffffff1663589a1743898060a00190610cd69190612226565b87818110610ce757610ce661253e565b5b905060200201356040518263ffffffff1660e01b8152600401610d0a9190612a6d565b60206040518083038186803b158015610d2257600080fd5b505afa158015610d36573d6000803e3d6000fd5b505050506040513d601f19601f82011682018060405250810190610d5a9190612a9d565b73ffffffffffffffffffffffffffffffffffffffff1614610db0576040517f08c379a0000000000000000000000000000000000000000000000000000000008152600401610da790612b3c565b60405180910390fd5b5b5b5b505b508080610dc190612b8b565b9150506104f1565b5050505050565b6000610dda6118ee565b9050600081600301600101600084606001358152602001908152602001600020905060006003811115610e1057610e0f612691565b5b81600a0160019054906101000a900460ff166003811115610e3457610e33612691565b5b14610e74576040517f08c379a0000000000000000000000000000000000000000000000000000000008152600401610e6b90612c20565b60405180910390fd5b6000838060800190610e8691906120c5565b90509050836000016020810190610e9d9190611f54565b8260000160006101000a81548173ffffffffffffffffffffffffffffffffffffffff021916908373ffffffffffffffffffffffffffffffffffffffff160217905550836020016020810190610ef29190611f54565b8260010160006101000a81548173ffffffffffffffffffffffffffffffffffffffff021916908373ffffffffffffffffffffffffffffffffffffffff160217905550836040016020810190610f479190611f54565b8260020160006101000a81548173ffffffffffffffffffffffffffffffffffffffff021916908373ffffffffffffffffffffffffffffffffffffffff160217905550836101c0016020810190610f9d9190611ec9565b610fb05783610100013582600501819055505b428260060160006101000a81548167ffffffffffffffff021916908367ffffffffffffffff16021790555083610120016020810190610fef91906123ed565b8260060160086101000a81548167ffffffffffffffff021916908367ffffffffffffffff160217905550836101a001602081019061102d9190611ec9565b61103857600261103b565b60015b82600a0160006101000a81548160ff0219169083600281111561106157611060612691565b5b0217905550836101c001602081019061107a9190611ec9565b611085576002611088565b60035b82600a0160016101000a81548160ff021916908360038111156110ae576110ad612691565b5b02179055506000846101a00160208101906110c99190611ec9565b15806110e55750846101c00160208101906110e49190611ec9565b5b905060008180156111075750856101c00160208101906111059190611ec9565b155b80156111255750600086806101800190611121919061295f565b9050115b905060008367ffffffffffffffff81111561114357611142612c40565b5b6040519080825280602002602001820160405280156111715781602001602082028036833780820191505090505b50905060005b848110156118d55760008760030160000160008a600001602081019061119d9190611f54565b73ffffffffffffffffffffffffffffffffffffffff1673ffffffffffffffffffffffffffffffffffffffff16815260200190815260200160002060008a80608001906111e991906120c5565b858181106111fa576111f961253e565b5b905060200201602081019061120f9190611f54565b73ffffffffffffffffffffffffffffffffffffffff1673ffffffffffffffffffffffffffffffffffffffff16815260200190815260200160002060008a8060a0019061125b9190612226565b8581811061126c5761126b61253e565b5b905060200201358152602001908152602001600020905088606001358160000181905550888060e001906112a09190612226565b838181106112b1576112b061253e565b5b905060200201358160020181905550888061016001906112d191906126c0565b838181106112e2576112e161253e565b5b90506020020160208101906112f79190612748565b8160040160006101000a81548160ff0219169083600181111561131d5761131c612691565b5b02179055508760050160030160008260040160009054906101000a900460ff16600181111561134f5761134e612691565b5b600181111561136157611360612691565b5b815260200190815260200160002060009054906101000a900460ff168160040160016101000a81548160ff021916908360018111156113a3576113a2612691565b5b02179055508480156113c65750886101c00160208101906113c49190611ec9565b155b156114e457888061014001906113dc9190612807565b838181106113ed576113ec61253e565b5b90506020028101906113ff919061286a565b826003019190611410929190611d76565b5083156114e35788806101800190611428919061295f565b838181106114395761143861253e565b5b90506040020181600501818161144f9190612e5c565b9050506114e2816005016040518060400160405290816000820160009054906101000a900473ffffffffffffffffffffffffffffffffffffffff1673ffffffffffffffffffffffffffffffffffffffff1673ffffffffffffffffffffffffffffffffffffffff1681526020016000820160149054906101000a900462ffffff1662ffffff1662ffffff1681525050611b29565b5b5b600060018111156114f8576114f7612691565b5b8160040160009054906101000a900460ff16600181111561151c5761151b612691565b5b141561161057846116055788806080019061153791906120c5565b838181106115485761154761253e565b5b905060200201602081019061155d9190611f54565b73ffffffffffffffffffffffffffffffffffffffff1663b88d4fde8a600001602081019061158b9190611f54565b308c8060a0019061159c9190612226565b878181106115ad576115ac61253e565b5b905060200201356040518463ffffffff1660e01b81526004016115d293929190612eb0565b600060405180830381600087803b1580156115ec57600080fd5b505af1158015611600573d6000803e3d6000fd5b505050505b600181600101819055505b60018081111561162357611622612691565b5b8160040160009054906101000a900460ff16600181111561164757611646612691565b5b141561178a57846117595788806080019061166291906120c5565b838181106116735761167261253e565b5b90506020020160208101906116889190611f54565b73ffffffffffffffffffffffffffffffffffffffff1663f242432a8a60000160208101906116b69190611f54565b308c8060a001906116c79190612226565b878181106116d8576116d761253e565b5b905060200201358d8060c001906116ef9190612226565b88818110611700576116ff61253e565b5b905060200201356040518563ffffffff1660e01b81526004016117269493929190612efa565b600060405180830381600087803b15801561174057600080fd5b505af1158015611754573d6000803e3d6000fd5b505050505b888060c001906117699190612226565b8381811061177a5761177961253e565b5b9050602002013581600101819055505b8660030189806080019061179e91906120c5565b848181106117af576117ae61253e565b5b90506020020160208101906117c49190611f54565b9080600181540180825580915050600190039060005260206000200160009091909190916101000a81548173ffffffffffffffffffffffffffffffffffffffff021916908373ffffffffffffffffffffffffffffffffffffffff16021790555086600401898060a001906118389190612226565b848181106118495761184861253e565b5b9050602002013590806001815401808255809150506001900390600052602060002001600090919091909150558060040160009054906101000a900460ff16600181111561189a57611899612691565b5b8383815181106118ad576118ac61253e565b5b602002602001019060ff16908160ff16815250505080806118cd90612b8b565b915050611177565b506118e587606001358289611bef565b50505050505050565b600090565b60006118fd6118ee565b60050160080160008373ffffffffffffffffffffffffffffffffffffffff1673ffffffffffffffffffffffffffffffffffffffff1681526020019081526020016000205411611981576040517f08c379a000000000000000000000000000000000000000000000000000000000815260040161197890612fc4565b60405180910390fd5b50565b61198c6118ee565b60050160090160008273ffffffffffffffffffffffffffffffffffffffff1673ffffffffffffffffffffffffffffffffffffffff16815260200190815260200160002060009054906101000a900460ff16611a1c576040517f08c379a0000000000000000000000000000000000000000000000000000000008152600401611a1390613030565b60405180910390fd5b50565b6000816000015414611a66576040517f08c379a0000000000000000000000000000000000000000000000000000000008152600401611a5d9061309c565b60405180910390fd5b50565b6000611a736118ee565b9050806005016003016000846001811115611a9157611a90612691565b5b6001811115611aa357611aa2612691565b5b815260200190815260200160002060009054906101000a900460ff166001811115611ad157611ad0612691565b5b826001811115611ae457611ae3612691565b5b14611b24576040517f08c379a0000000000000000000000000000000000000000000000000000000008152600401611b1b9061312e565b60405180910390fd5b505050565b6000611b336118ee565b90506000826020015162ffffff161115611beb5780600501600b0160149054906101000a900462ffffff1662ffffff16826020015162ffffff16108015611bab5750600073ffffffffffffffffffffffffffffffffffffffff16826000015173ffffffffffffffffffffffffffffffffffffffff1614155b611bea576040517f08c379a0000000000000000000000000000000000000000000000000000000008152600401611be19061319a565b60405180910390fd5b5b5050565b6000611bf96118ee565b60030160010160008360600135815260200190815260200160002090508060000160009054906101000a900473ffffffffffffffffffffffffffffffffffffffff1673ffffffffffffffffffffffffffffffffffffffff16847f28b306541e7f90668c5305a9b7994dac99ac298dff48f2a6b9d8d2befe1ec15f846020016020810190611c869190611f54565b858060800190611c9691906120c5565b878060a00190611ca69190612226565b898060c00190611cb69190612226565b8b8060e00190611cc69190612226565b8e604051611cdd9a999897969594939291906133c9565b60405180910390a3837fc1c15207fa202623fb9d1c28265a72f5a9f77c3b08362ff88cb8500fc5b561ae826005015484610120016020810190611d2091906123ed565b84600a0160009054906101000a900460ff166002811115611d4457611d43612691565b5b866101c0016020810190611d589190611ec9565b604051611d689493929190613482565b60405180910390a250505050565b828054611d82906134f6565b90600052602060002090601f016020900481019282611da45760008555611deb565b82601f10611dbd57803560ff1916838001178555611deb565b82800160010185558215611deb579182015b82811115611dea578235825591602001919060010190611dcf565b5b509050611df89190611dfc565b5090565b5b80821115611e15576000816000905550600101611dfd565b5090565b600080fd5b600080fd5b600080fd5b60006101e08284031215611e3f57611e3e611e23565b5b81905092915050565b600060208284031215611e5e57611e5d611e19565b5b600082013567ffffffffffffffff811115611e7c57611e7b611e1e565b5b611e8884828501611e28565b91505092915050565b60008115159050919050565b611ea681611e91565b8114611eb157600080fd5b50565b600081359050611ec381611e9d565b92915050565b600060208284031215611edf57611ede611e19565b5b6000611eed84828501611eb4565b91505092915050565b600073ffffffffffffffffffffffffffffffffffffffff82169050919050565b6000611f2182611ef6565b9050919050565b611f3181611f16565b8114611f3c57600080fd5b50565b600081359050611f4e81611f28565b92915050565b600060208284031215611f6a57611f69611e19565b5b6000611f7884828501611f3f565b91505092915050565b600082825260208201905092915050565b7f61756374696f6e4c69737442756e646c653a2053454e4445525f4d5553545f4260008201527f455f4f574e455200000000000000000000000000000000000000000000000000602082015250565b6000611fee602783611f81565b9150611ff982611f92565b604082019050919050565b6000602082019050818103600083015261201d81611fe1565b9050919050565b7f61756374696f6e4c69737442756e646c653a205649525455414c5f4f574e455260008201527f5f4d5553545f42455f3078300000000000000000000000000000000000000000602082015250565b6000612080602c83611f81565b915061208b82612024565b604082019050919050565b600060208201905081810360008301526120af81612073565b9050919050565b600080fd5b600080fd5b600080fd5b600080833560016020038436030381126120e2576120e16120b6565b5b80840192508235915067ffffffffffffffff821115612104576121036120bb565b5b6020830192506020820236038313156121205761211f6120c0565b5b509250929050565b7f636865636b41756374696f6e4c6973744f726465723a20494e56414c49445f4260008201527f554e444c455f53495a4500000000000000000000000000000000000000000000602082015250565b6000612184602a83611f81565b915061218f82612128565b604082019050919050565b600060208201905081810360008301526121b381612177565b9050919050565b7f636865636b41756374696f6e4c6973744f726465723a205a45524f5f53495a45600082015250565b60006121f0602083611f81565b91506121fb826121ba565b602082019050919050565b6000602082019050818103600083015261221f816121e3565b9050919050565b60008083356001602003843603038112612243576122426120b6565b5b80840192508235915067ffffffffffffffff821115612265576122646120bb565b5b602083019250602082023603831315612281576122806120c0565b5b509250929050565b7f636865636b41756374696f6e4c6973744f726465723a2053495a455f4d49534d60008201527f4154434800000000000000000000000000000000000000000000000000000000602082015250565b60006122e5602483611f81565b91506122f082612289565b604082019050919050565b60006020820190508181036000830152612314816122d8565b9050919050565b7f636865636b41756374696f6e4c6973744f726465723a20494e56414c49445f5260008201527f4553455256455f50524943450000000000000000000000000000000000000000602082015250565b6000612377602c83611f81565b91506123828261231b565b604082019050919050565b600060208201905081810360008301526123a68161236a565b9050919050565b600067ffffffffffffffff82169050919050565b6123ca816123ad565b81146123d557600080fd5b50565b6000813590506123e7816123c1565b92915050565b60006020828403121561240357612402611e19565b5b6000612411848285016123d8565b91505092915050565b7f636865636b41756374696f6e4c6973744f726465723a20494e56414c49445f4460008201527f55524154494f4e00000000000000000000000000000000000000000000000000602082015250565b6000612476602783611f81565b91506124818261241a565b604082019050919050565b600060208201905081810360008301526124a581612469565b9050919050565b7f636865636b41756374696f6e4c6973744f726465723a205649525455414c5f4260008201527f55545f4d494e5445440000000000000000000000000000000000000000000000602082015250565b6000612508602983611f81565b9150612513826124ac565b604082019050919050565b60006020820190508181036000830152612537816124fb565b9050919050565b7f4e487b7100000000000000000000000000000000000000000000000000000000600052603260045260246000fd5b7f636865636b41756374696f6e4c6973744f726465723a205a45524f5f414d4f5560008201527f4e54000000000000000000000000000000000000000000000000000000000000602082015250565b60006125c9602283611f81565b91506125d48261256d565b604082019050919050565b600060208201905081810360008301526125f8816125bc565b9050919050565b7f636865636b41756374696f6e4c6973744f726465723a20494e56414c49445f5060008201527f5249434500000000000000000000000000000000000000000000000000000000602082015250565b600061265b602483611f81565b9150612666826125ff565b604082019050919050565b6000602082019050818103600083015261268a8161264e565b9050919050565b7f4e487b7100000000000000000000000000000000000000000000000000000000600052602160045260246000fd5b600080833560016020038436030381126126dd576126dc6120b6565b5b80840192508235915067ffffffffffffffff8211156126ff576126fe6120bb565b5b60208301925060208202360383131561271b5761271a6120c0565b5b509250929050565b6002811061273057600080fd5b50565b60008135905061274281612723565b92915050565b60006020828403121561275e5761275d611e19565b5b600061276c84828501612733565b91505092915050565b7f636865636b41756374696f6e4c6973744f726465723a20494e56414c49445f5360008201527f54414e4441524400000000000000000000000000000000000000000000000000602082015250565b60006127d1602783611f81565b91506127dc82612775565b604082019050919050565b60006020820190508181036000830152612800816127c4565b9050919050565b60008083356001602003843603038112612824576128236120b6565b5b80840192508235915067ffffffffffffffff821115612846576128456120bb565b5b602083019250602082023603831315612862576128616120c0565b5b509250929050565b60008083356001602003843603038112612887576128866120b6565b5b80840192508235915067ffffffffffffffff8211156128a9576128a86120bb565b5b6020830192506001820236038313156128c5576128c46120c0565b5b509250929050565b7f636865636b41756374696f6e4c6973744f726465723a204d495353494e475f5460008201527f4f4b454e5f555249000000000000000000000000000000000000000000000000602082015250565b6000612929602883611f81565b9150612934826128cd565b604082019050919050565b600060208201905081810360008301526129588161291c565b9050919050565b6000808335600160200384360303811261297c5761297b6120b6565b5b80840192508235915067ffffffffffffffff82111561299e5761299d6120bb565b5b6020830192506040820236038313156129ba576129b96120c0565b5b509250929050565b7f636865636b41756374696f6e4c6973744f726465723a20494e56414c49445f5260008201527f4f59414c54494553000000000000000000000000000000000000000000000000602082015250565b6000612a1e602883611f81565b9150612a29826129c2565b604082019050919050565b60006020820190508181036000830152612a4d81612a11565b9050919050565b6000819050919050565b612a6781612a54565b82525050565b6000602082019050612a826000830184612a5e565b92915050565b600081519050612a9781611f28565b92915050565b600060208284031215612ab357612ab2611e19565b5b6000612ac184828501612a88565b91505092915050565b7f636865636b41756374696f6e4c6973744f726465723a20544f4b454e5f49445f60008201527f4558495354530000000000000000000000000000000000000000000000000000602082015250565b6000612b26602683611f81565b9150612b3182612aca565b604082019050919050565b60006020820190508181036000830152612b5581612b19565b9050919050565b7f4e487b7100000000000000000000000000000000000000000000000000000000600052601160045260246000fd5b6000612b9682612a54565b91507fffffffffffffffffffffffffffffffffffffffffffffffffffffffffffffffff821415612bc957612bc8612b5c565b5b600182019050919050565b7f666978656450726963654c6973743a2042554e444c455f455849535453000000600082015250565b6000612c0a601d83611f81565b9150612c1582612bd4565b602082019050919050565b60006020820190508181036000830152612c3981612bfd565b9050919050565b7f4e487b7100000000000000000000000000000000000000000000000000000000600052604160045260246000fd5b60008135612c7c81611f28565b80915050919050565b60008160001b9050919050565b600073ffffffffffffffffffffffffffffffffffffffff612cb284612c85565b9350801983169250808416831791505092915050565b6000819050919050565b6000612ced612ce8612ce384611ef6565b612cc8565b611ef6565b9050919050565b6000612cff82612cd2565b9050919050565b6000612d1182612cf4565b9050919050565b6000819050919050565b612d2b82612d06565b612d3e612d3782612d18565b8354612c92565b8255505050565b600062ffffff82169050919050565b612d5d81612d45565b8114612d6857600080fd5b50565b60008135612d7881612d54565b80915050919050565b60008160a01b9050919050565b600076ffffff0000000000000000000000000000000000000000612db184612d81565b9350801983169250808416831791505092915050565b6000612de2612ddd612dd884612d45565b612cc8565b612d45565b9050919050565b6000819050919050565b612dfc82612dc7565b612e0f612e0882612de9565b8354612d8e565b8255505050565b600081016000830180612e2881612c6f565b9050612e348184612d22565b505050600081016020830180612e4981612d6b565b9050612e558184612df3565b5050505050565b612e668282612e16565b5050565b612e7381611f16565b82525050565b600082825260208201905092915050565b50565b6000612e9a600083612e79565b9150612ea582612e8a565b600082019050919050565b6000608082019050612ec56000830186612e6a565b612ed26020830185612e6a565b612edf6040830184612a5e565b8181036060830152612ef081612e8d565b9050949350505050565b600060a082019050612f0f6000830187612e6a565b612f1c6020830186612e6a565b612f296040830185612a5e565b612f366060830184612a5e565b8181036080830152612f4781612e8d565b905095945050505050565b7f4d61726b6574706c6163653a205041594d454e545f4e4f545f535550504f524560008201527f4400000000000000000000000000000000000000000000000000000000000000602082015250565b6000612fae602183611f81565b9150612fb982612f52565b604082019050919050565b60006020820190508181036000830152612fdd81612fa1565b9050919050565b7f4d61726b6574706c6163653a205441524745545f4e4f545f535550504f524544600082015250565b600061301a602083611f81565b915061302582612fe4565b602082019050919050565b600060208201905081810360008301526130498161300d565b9050919050565b7f4d61726b6574706c6163653a2042554e444c455f455849535453000000000000600082015250565b6000613086601a83611f81565b915061309182613050565b602082019050919050565b600060208201905081810360008301526130b581613079565b9050919050565b7f636865636b417373657456657273696f6e497344656661756c743a20494e564160008201527f4c49445f544f4b454e5f56455253494f4e000000000000000000000000000000602082015250565b6000613118603183611f81565b9150613123826130bc565b604082019050919050565b600060208201905081810360008301526131478161310b565b9050919050565b7f76616c6964617465526f79616c74793a20494e56414c49445f524f59414c5459600082015250565b6000613184602083611f81565b915061318f8261314e565b602082019050919050565b600060208201905081810360008301526131b381613177565b9050919050565b600082825260208201905092915050565b6000819050919050565b6131de81611f16565b82525050565b60006131f083836131d5565b60208301905092915050565b600061320b6020840184611f3f565b905092915050565b6000602082019050919050565b600061322c83856131ba565b9350613237826131cb565b8060005b858110156132705761324d82846131fc565b61325788826131e4565b975061326283613213565b92505060018101905061323b565b5085925050509392505050565b600082825260208201905092915050565b600080fd5b82818337600083830152505050565b60006132ae838561327d565b93507f07ffffffffffffffffffffffffffffffffffffffffffffffffffffffffffffff8311156132e1576132e061328e565b5b6020830292506132f2838584613293565b82840190509392505050565b600081519050919050565b600082825260208201905092915050565b6000819050602082019050919050565b600060ff82169050919050565b6133408161332a565b82525050565b60006133528383613337565b60208301905092915050565b6000602082019050919050565b6000613376826132fe565b6133808185613309565b935061338b8361331a565b8060005b838110156133bc5781516133a38882613346565b97506133ae8361335e565b92505060018101905061338f565b5085935050505092915050565b600060c0820190506133de600083018d612e6a565b81810360208301526133f1818b8d613220565b9050818103604083015261340681898b6132a2565b9050818103606083015261341b8187896132a2565b905081810360808301526134308185876132a2565b905081810360a0830152613444818461336b565b90509b9a5050505050505050505050565b61345e816123ad565b82525050565b61346d8161332a565b82525050565b61347c81611e91565b82525050565b60006080820190506134976000830187612a5e565b6134a46020830186613455565b6134b16040830185613464565b6134be6060830184613473565b95945050505050565b7f4e487b7100000000000000000000000000000000000000000000000000000000600052602260045260246000fd5b6000600282049050600182168061350e57607f821691505b60208210811415613522576135216134c7565b5b5091905056fea26469706673582212209fcd6913f9cf3d18e53045fb6301ec7ac40b6b5fb626d1fb1116073b63f9ffeb64736f6c63430008090033",
  "linkReferences": {},
  "deployedLinkReferences": {}
}