{
  "_format": "hh-sol-artifact-1",
  "contractName": "AuctionOwnershipFacet",
  "sourceName": "contracts/marketplace/facets/AuctionOwnershipFacet.sol",
  "abi": [
    {
      "anonymous": false,
      "inputs": [
        {
          "indexed": true,
          "internalType": "uint256",
          "name": "bundleId",
          "type": "uint256"
        },
        {
          "indexed": true,
          "internalType": "address",
          "name": "owner",
          "type": "address"
        }
      ],
      "name": "AuctionOwnerSet",
      "type": "event"
    },
    {
      "inputs": [
        {
          "components": [
            {
              "internalType": "address",
              "name": "owner",
              "type": "address"
            },
            {
              "internalType": "address",
              "name": "targetToken",
              "type": "address"
            },
            {
              "internalType": "uint256",
              "name": "bundleId",
              "type": "uint256"
            },
            {
              "internalType": "string[]",
              "name": "uris",
              "type": "string[]"
            },
            {
              "components": [
                {
                  "internalType": "address",
                  "name": "recipient",
                  "type": "address"
                },
                {
                  "internalType": "uint24",
                  "name": "amount",
                  "type": "uint24"
                }
              ],
              "internalType": "struct ERC2981Base.RoyaltyInfo",
              "name": "royalty",
              "type": "tuple"
            }
          ],
          "internalType": "struct AuctionSetOwnerOrder",
          "name": "order",
          "type": "tuple"
        },
        {
          "internalType": "bytes",
          "name": "signature",
          "type": "bytes"
        }
      ],
      "name": "auctionSetOwner",
      "outputs": [],
      "stateMutability": "nonpayable",
      "type": "function"
    }
  ],
  "bytecode": "0x608060405234801561001057600080fd5b50612f1a806100206000396000f3fe608060405234801561001057600080fd5b506004361061002b5760003560e01c806385b4b50f14610030575b600080fd5b61004a60048036038101906100459190611a27565b61004c565b005b600080600301600101600085604001358152602001908152602001600020905060038081111561007f5761007e611aa3565b5b81600a0160019054906101000a900460ff1660038111156100a3576100a2611aa3565b5b146100e3576040517f08c379a00000000000000000000000000000000000000000000000000000000081526004016100da90611b55565b60405180910390fd5b6002808111156100f6576100f5611aa3565b5b81600a0160009054906101000a900460ff16600281111561011a57610119611aa3565b5b1461015a576040517f08c379a000000000000000000000000000000000000000000000000000000000815260040161015190611be7565b60405180910390fd5b8060070160000160009054906101000a900473ffffffffffffffffffffffffffffffffffffffff1673ffffffffffffffffffffffffffffffffffffffff168460000160208101906101ab9190611c65565b73ffffffffffffffffffffffffffffffffffffffff161415610202576040517f08c379a00000000000000000000000000000000000000000000000000000000081526004016101f990611cde565b60405180910390fd5b6000600501600101600061021461037b565b73ffffffffffffffffffffffffffffffffffffffff1673ffffffffffffffffffffffffffffffffffffffff16815260200190815260200160002060009054906101000a900460ff1661035157600060050160010160006102c961027f8761027a90612093565b610383565b86868080601f016020809104026020016040519081016040528093929190818152602001838380828437600081840152601f19601f8201169050808301925050505050505061044c565b73ffffffffffffffffffffffffffffffffffffffff1673ffffffffffffffffffffffffffffffffffffffff16815260200190815260200160002060009054906101000a900460ff16610350576040517f08c379a000000000000000000000000000000000000000000000000000000000815260040161034790612118565b60405180910390fd5b5b61036c8460200160208101906103679190611c65565b610473565b6103758461050e565b50505050565b600033905090565b6000606060005b8360600151518110156103ec5781846060015182815181106103af576103ae612138565b5b60200260200101516040516020016103c8929190612228565b604051602081830303815290604052915080806103e49061227b565b91505061038a565b5061044483600001518460200151856040015184876080015160000151886080015160200151466040516020016104299796959493929190612363565b60405160208183030381529060405280519060200120610a10565b915050919050565b600080600061045b8585610a40565b9150915061046881610ac3565b819250505092915050565b61047b610c98565b60050160090160008273ffffffffffffffffffffffffffffffffffffffff1673ffffffffffffffffffffffffffffffffffffffff16815260200190815260200160002060009054906101000a900460ff1661050b576040517f08c379a00000000000000000000000000000000000000000000000000000000081526004016105029061242c565b60405180910390fd5b50565b6000610518610c98565b905060008160030160010160008460400135815260200190815260200160002090506000816004018054905090506105628460800180360381019061055d919061244c565b610c9d565b60005b818110156108cf57600085806060019061057f9190612488565b838181106105905761058f612138565b5b90506020028101906105a291906124eb565b905014156105e5576040517f08c379a00000000000000000000000000000000000000000000000000000000081526004016105dc906125c0565b60405180910390fd5b60008360030182815481106105fd576105fc612138565b5b9060005260206000200160009054906101000a900473ffffffffffffffffffffffffffffffffffffffff169050600084600401838154811061064257610641612138565b5b9060005260206000200154905060008660030160000160008760000160009054906101000a900473ffffffffffffffffffffffffffffffffffffffff1673ffffffffffffffffffffffffffffffffffffffff1673ffffffffffffffffffffffffffffffffffffffff16815260200190815260200160002060008473ffffffffffffffffffffffffffffffffffffffff1673ffffffffffffffffffffffffffffffffffffffff1681526020019081526020016000206000838152602001908152602001600020905060008760030160000160008a60000160208101906107279190611c65565b73ffffffffffffffffffffffffffffffffffffffff1673ffffffffffffffffffffffffffffffffffffffff16815260200190815260200160002060008573ffffffffffffffffffffffffffffffffffffffff1673ffffffffffffffffffffffffffffffffffffffff168152602001908152602001600020600084815260200190815260200160002090508160000154816000018190555081600101548160010181905550816002015481600201819055508880606001906107e89190612488565b868181106107f9576107f8612138565b5b905060200281019061080b91906124eb565b82600301919061081c9291906117e9565b508160040160009054906101000a900460ff168160040160006101000a81548160ff0219169083600181111561085557610854611aa3565b5b02179055508160040160019054906101000a900460ff168160040160016101000a81548160ff0219169083600181111561089257610891611aa3565b5b0217905550886080018160050181816108ab91906127a7565b905050600082600001819055505050505080806108c79061227b565b915050610565565b508360000160208101906108e39190611c65565b8260000160006101000a81548173ffffffffffffffffffffffffffffffffffffffff021916908373ffffffffffffffffffffffffffffffffffffffff1602179055508360200160208101906109389190611c65565b8260020160006101000a81548173ffffffffffffffffffffffffffffffffffffffff021916908373ffffffffffffffffffffffffffffffffffffffff16021790555061098382610d63565b600182600a0160006101000a81548160ff021916908360028111156109ab576109aa611aa3565b5b02179055508360000160208101906109c39190611c65565b73ffffffffffffffffffffffffffffffffffffffff1684604001357f9547abe3d02afb85169146247851b8885a7472b8af681133ca68d1294ed4783360405160405180910390a350505050565b600081604051602001610a23919061282c565b604051602081830303815290604052805190602001209050919050565b600080604183511415610a825760008060006020860151925060408601519150606086015160001a9050610a76878285856114d5565b94509450505050610abc565b604083511415610ab3576000806020850151915060408501519050610aa88683836115e2565b935093505050610abc565b60006002915091505b9250929050565b60006004811115610ad757610ad6611aa3565b5b816004811115610aea57610ae9611aa3565b5b1415610af557610c95565b60016004811115610b0957610b08611aa3565b5b816004811115610b1c57610b1b611aa3565b5b1415610b5d576040517f08c379a0000000000000000000000000000000000000000000000000000000008152600401610b549061289e565b60405180910390fd5b60026004811115610b7157610b70611aa3565b5b816004811115610b8457610b83611aa3565b5b1415610bc5576040517f08c379a0000000000000000000000000000000000000000000000000000000008152600401610bbc9061290a565b60405180910390fd5b60036004811115610bd957610bd8611aa3565b5b816004811115610bec57610beb611aa3565b5b1415610c2d576040517f08c379a0000000000000000000000000000000000000000000000000000000008152600401610c249061299c565b60405180910390fd5b600480811115610c4057610c3f611aa3565b5b816004811115610c5357610c52611aa3565b5b1415610c94576040517f08c379a0000000000000000000000000000000000000000000000000000000008152600401610c8b90612a2e565b60405180910390fd5b5b50565b600090565b6000610ca7610c98565b90506000826020015162ffffff161115610d5f5780600501600b0160149054906101000a900462ffffff1662ffffff16826020015162ffffff16108015610d1f5750600073ffffffffffffffffffffffffffffffffffffffff16826000015173ffffffffffffffffffffffffffffffffffffffff1614155b610d5e576040517f08c379a0000000000000000000000000000000000000000000000000000000008152600401610d5590612a9a565b60405180910390fd5b5b5050565b6000610d6d610c98565b905060008260040180549050905060005b818110156114cf5760008360030160000160008660000160009054906101000a900473ffffffffffffffffffffffffffffffffffffffff1673ffffffffffffffffffffffffffffffffffffffff1673ffffffffffffffffffffffffffffffffffffffff1681526020019081526020016000206000866003018481548110610e0857610e07612138565b5b9060005260206000200160009054906101000a900473ffffffffffffffffffffffffffffffffffffffff1673ffffffffffffffffffffffffffffffffffffffff1673ffffffffffffffffffffffffffffffffffffffff1681526020019081526020016000206000866004018481548110610e8557610e84612138565b5b90600052602060002001548152602001908152602001600020905060006001811115610eb457610eb3611aa3565b5b8160040160009054906101000a900460ff166001811115610ed857610ed7611aa3565b5b14156111a457610ee661186f565b856003018381548110610efc57610efb612138565b5b9060005260206000200160009054906101000a900473ffffffffffffffffffffffffffffffffffffffff16816000019073ffffffffffffffffffffffffffffffffffffffff16908173ffffffffffffffffffffffffffffffffffffffff16815250508560000160009054906101000a900473ffffffffffffffffffffffffffffffffffffffff16816020019073ffffffffffffffffffffffffffffffffffffffff16908173ffffffffffffffffffffffffffffffffffffffff1681525050856004018381548110610fd057610fcf612138565b5b9060005260206000200154816040018181525050816003018054610ff390612ae9565b80601f016020809104026020016040519081016040528092919081815260200182805461101f90612ae9565b801561106c5780601f106110415761010080835404028352916020019161106c565b820191906000526020600020905b81548152906001019060200180831161104f57829003601f168201915b50505050508160600181905250816005016040518060400160405290816000820160009054906101000a900473ffffffffffffffffffffffffffffffffffffffff1673ffffffffffffffffffffffffffffffffffffffff1673ffffffffffffffffffffffffffffffffffffffff1681526020016000820160149054906101000a900462ffffff1662ffffff1662ffffff1681525050816080018190525060006111188260000151611630565b90506111268282600061169d565b816000015173ffffffffffffffffffffffffffffffffffffffff1663b88d4fde83602001513085604001516040518463ffffffff1660e01b815260040161116f93929190612b70565b600060405180830381600087803b15801561118957600080fd5b505af115801561119d573d6000803e3d6000fd5b5050505050505b6001808111156111b7576111b6611aa3565b5b8160040160009054906101000a900460ff1660018111156111db576111da611aa3565b5b14156114bb576111e96118d0565b8560030183815481106111ff576111fe612138565b5b9060005260206000200160009054906101000a900473ffffffffffffffffffffffffffffffffffffffff16816000019073ffffffffffffffffffffffffffffffffffffffff16908173ffffffffffffffffffffffffffffffffffffffff16815250508560000160009054906101000a900473ffffffffffffffffffffffffffffffffffffffff16816020019073ffffffffffffffffffffffffffffffffffffffff16908173ffffffffffffffffffffffffffffffffffffffff16815250508560040183815481106112d3576112d2612138565b5b9060005260206000200154816040018181525050816001015481606001818152505081600301805461130490612ae9565b80601f016020809104026020016040519081016040528092919081815260200182805461133090612ae9565b801561137d5780601f106113525761010080835404028352916020019161137d565b820191906000526020600020905b81548152906001019060200180831161136057829003601f168201915b50505050508160800181905250816005016040518060400160405290816000820160009054906101000a900473ffffffffffffffffffffffffffffffffffffffff1673ffffffffffffffffffffffffffffffffffffffff1673ffffffffffffffffffffffffffffffffffffffff1681526020016000820160149054906101000a900462ffffff1662ffffff1662ffffff16815250508160a0018190525060006114298260000151611630565b905061143782826000611743565b816000015173ffffffffffffffffffffffffffffffffffffffff1663f242432a836020015130856040015186606001516040518563ffffffff1660e01b81526004016114869493929190612bba565b600060405180830381600087803b1580156114a057600080fd5b505af11580156114b4573d6000803e3d6000fd5b5050505050505b5080806114c79061227b565b915050610d7e565b50505050565b6000807f7fffffffffffffffffffffffffffffff5d576e7357a4501ddfe92f46681b20a08360001c11156115105760006003915091506115d9565b601b8560ff16141580156115285750601c8560ff1614155b1561153a5760006004915091506115d9565b60006001878787876040516000815260200160405260405161155f9493929190612c3d565b6020604051602081039080840390855afa158015611581573d6000803e3d6000fd5b505050602060405103519050600073ffffffffffffffffffffffffffffffffffffffff168173ffffffffffffffffffffffffffffffffffffffff1614156115d0576000600192509250506115d9565b80600092509250505b94509492505050565b6000806000807f7fffffffffffffffffffffffffffffffffffffffffffffffffffffffffffffff85169150601b8560ff1c019050611622878288856114d5565b935093505050935093915050565b60008061163b610c98565b905060008160050160050160008573ffffffffffffffffffffffffffffffffffffffff1673ffffffffffffffffffffffffffffffffffffffff16815260200190815260200160002060009054906101000a900460ff1690508092505050919050565b6001808111156116b0576116af611aa3565b5b8260018111156116c3576116c2611aa3565b5b141561173e57826000015173ffffffffffffffffffffffffffffffffffffffff1663dece1b10848360006040518463ffffffff1660e01b815260040161170b93929190612db9565b600060405180830381600087803b15801561172557600080fd5b505af1158015611739573d6000803e3d6000fd5b505050505b505050565b60018081111561175657611755611aa3565b5b82600181111561176957611768611aa3565b5b14156117e457826000015173ffffffffffffffffffffffffffffffffffffffff1663b841bb89848360006040518463ffffffff1660e01b81526004016117b193929190612e93565b600060405180830381600087803b1580156117cb57600080fd5b505af11580156117df573d6000803e3d6000fd5b505050505b505050565b8280546117f590612ae9565b90600052602060002090601f016020900481019282611817576000855561185e565b82601f1061183057803560ff191683800117855561185e565b8280016001018555821561185e579182015b8281111561185d578235825591602001919060010190611842565b5b50905061186b9190611938565b5090565b6040518060a00160405280600073ffffffffffffffffffffffffffffffffffffffff168152602001600073ffffffffffffffffffffffffffffffffffffffff16815260200160008152602001606081526020016118ca611955565b81525090565b6040518060c00160405280600073ffffffffffffffffffffffffffffffffffffffff168152602001600073ffffffffffffffffffffffffffffffffffffffff168152602001600081526020016000815260200160608152602001611932611955565b81525090565b5b80821115611951576000816000905550600101611939565b5090565b6040518060400160405280600073ffffffffffffffffffffffffffffffffffffffff168152602001600062ffffff1681525090565b6000604051905090565b600080fd5b600080fd5b600080fd5b600060c082840312156119b9576119b861199e565b5b81905092915050565b600080fd5b600080fd5b600080fd5b60008083601f8401126119e7576119e66119c2565b5b8235905067ffffffffffffffff811115611a0457611a036119c7565b5b602083019150836001820283011115611a2057611a1f6119cc565b5b9250929050565b600080600060408486031215611a4057611a3f611994565b5b600084013567ffffffffffffffff811115611a5e57611a5d611999565b5b611a6a868287016119a3565b935050602084013567ffffffffffffffff811115611a8b57611a8a611999565b5b611a97868287016119d1565b92509250509250925092565b7f4e487b7100000000000000000000000000000000000000000000000000000000600052602160045260246000fd5b600082825260208201905092915050565b7f61756374696f6e5365744f776e65723a2057524f4e475f4c495354494e475f5460008201527f5950450000000000000000000000000000000000000000000000000000000000602082015250565b6000611b3f602383611ad2565b9150611b4a82611ae3565b604082019050919050565b60006020820190508181036000830152611b6e81611b32565b9050919050565b7f61756374696f6e5365744f776e65723a2057524f4e475f42554e444c455f535460008201527f4154450000000000000000000000000000000000000000000000000000000000602082015250565b6000611bd1602383611ad2565b9150611bdc82611b75565b604082019050919050565b60006020820190508181036000830152611c0081611bc4565b9050919050565b600073ffffffffffffffffffffffffffffffffffffffff82169050919050565b6000611c3282611c07565b9050919050565b611c4281611c27565b8114611c4d57600080fd5b50565b600081359050611c5f81611c39565b92915050565b600060208284031215611c7b57611c7a611994565b5b6000611c8984828501611c50565b91505092915050565b7f61756374696f6e5365744f776e65723a204f574e45525f49535f424944444552600082015250565b6000611cc8602083611ad2565b9150611cd382611c92565b602082019050919050565b60006020820190508181036000830152611cf781611cbb565b9050919050565b600080fd5b6000601f19601f8301169050919050565b7f4e487b7100000000000000000000000000000000000000000000000000000000600052604160045260246000fd5b611d4c82611d03565b810181811067ffffffffffffffff82111715611d6b57611d6a611d14565b5b80604052505050565b6000611d7e61198a565b9050611d8a8282611d43565b919050565b600080fd5b6000819050919050565b611da781611d94565b8114611db257600080fd5b50565b600081359050611dc481611d9e565b92915050565b600067ffffffffffffffff821115611de557611de4611d14565b5b602082029050602081019050919050565b600080fd5b600067ffffffffffffffff821115611e1657611e15611d14565b5b611e1f82611d03565b9050602081019050919050565b82818337600083830152505050565b6000611e4e611e4984611dfb565b611d74565b905082815260208101848484011115611e6a57611e69611df6565b5b611e75848285611e2c565b509392505050565b600082601f830112611e9257611e916119c2565b5b8135611ea2848260208601611e3b565b91505092915050565b6000611ebe611eb984611dca565b611d74565b90508083825260208201905060208402830185811115611ee157611ee06119cc565b5b835b81811015611f2857803567ffffffffffffffff811115611f0657611f056119c2565b5b808601611f138982611e7d565b85526020850194505050602081019050611ee3565b5050509392505050565b600082601f830112611f4757611f466119c2565b5b8135611f57848260208601611eab565b91505092915050565b600062ffffff82169050919050565b611f7881611f60565b8114611f8357600080fd5b50565b600081359050611f9581611f6f565b92915050565b600060408284031215611fb157611fb0611cfe565b5b611fbb6040611d74565b90506000611fcb84828501611c50565b6000830152506020611fdf84828501611f86565b60208301525092915050565b600060c0828403121561200157612000611cfe565b5b61200b60a0611d74565b9050600061201b84828501611c50565b600083015250602061202f84828501611c50565b602083015250604061204384828501611db5565b604083015250606082013567ffffffffffffffff81111561206757612066611d8f565b5b61207384828501611f32565b606083015250608061208784828501611f9b565b60808301525092915050565b600061209f3683611feb565b9050919050565b7f61756374696f6e5365744f776e65723a20494e56414c49445f5245534f4c564560008201527f525f5349474e4154555245000000000000000000000000000000000000000000602082015250565b6000612102602b83611ad2565b915061210d826120a6565b604082019050919050565b60006020820190508181036000830152612131816120f5565b9050919050565b7f4e487b7100000000000000000000000000000000000000000000000000000000600052603260045260246000fd5b600081519050919050565b600081905092915050565b60005b8381101561219b578082015181840152602081019050612180565b838111156121aa576000848401525b50505050565b60006121bb82612167565b6121c58185612172565b93506121d581856020860161217d565b80840191505092915050565b600081519050919050565b600081905092915050565b6000612202826121e1565b61220c81856121ec565b935061221c81856020860161217d565b80840191505092915050565b600061223482856121b0565b915061224082846121f7565b91508190509392505050565b7f4e487b7100000000000000000000000000000000000000000000000000000000600052601160045260246000fd5b600061228682611d94565b91507fffffffffffffffffffffffffffffffffffffffffffffffffffffffffffffffff8214156122b9576122b861224c565b5b600182019050919050565b60008160601b9050919050565b60006122dc826122c4565b9050919050565b60006122ee826122d1565b9050919050565b61230661230182611c27565b6122e3565b82525050565b6000819050919050565b61232761232282611d94565b61230c565b82525050565b60008160e81b9050919050565b60006123458261232d565b9050919050565b61235d61235882611f60565b61233a565b82525050565b600061236f828a6122f5565b60148201915061237f82896122f5565b60148201915061238f8288612316565b60208201915061239f82876121b0565b91506123ab82866122f5565b6014820191506123bb828561234c565b6003820191506123cb8284612316565b60208201915081905098975050505050505050565b7f4d61726b6574706c6163653a205441524745545f4e4f545f535550504f524544600082015250565b6000612416602083611ad2565b9150612421826123e0565b602082019050919050565b6000602082019050818103600083015261244581612409565b9050919050565b60006040828403121561246257612461611994565b5b600061247084828501611f9b565b91505092915050565b600080fd5b600080fd5b600080fd5b600080833560016020038436030381126124a5576124a4612479565b5b80840192508235915067ffffffffffffffff8211156124c7576124c661247e565b5b6020830192506020820236038313156124e3576124e2612483565b5b509250929050565b6000808335600160200384360303811261250857612507612479565b5b80840192508235915067ffffffffffffffff82111561252a5761252961247e565b5b60208301925060018202360383131561254657612545612483565b5b509250929050565b7f61756374696f6e5365744f776e65723a204d495353494e475f544f4b454e5f5560008201527f5249000000000000000000000000000000000000000000000000000000000000602082015250565b60006125aa602283611ad2565b91506125b58261254e565b604082019050919050565b600060208201905081810360008301526125d98161259d565b9050919050565b600081356125ed81611c39565b80915050919050565b60008160001b9050919050565b600073ffffffffffffffffffffffffffffffffffffffff612623846125f6565b9350801983169250808416831791505092915050565b6000819050919050565b600061265e61265961265484611c07565b612639565b611c07565b9050919050565b600061267082612643565b9050919050565b600061268282612665565b9050919050565b6000819050919050565b61269c82612677565b6126af6126a882612689565b8354612603565b8255505050565b600081356126c381611f6f565b80915050919050565b60008160a01b9050919050565b600076ffffff00000000000000000000000000000000000000006126fc846126cc565b9350801983169250808416831791505092915050565b600061272d61272861272384611f60565b612639565b611f60565b9050919050565b6000819050919050565b61274782612712565b61275a61275382612734565b83546126d9565b8255505050565b600081016000830180612773816125e0565b905061277f8184612693565b505050600081016020830180612794816126b6565b90506127a0818461273e565b5050505050565b6127b18282612761565b5050565b7f19457468657265756d205369676e6564204d6573736167653a0a333200000000600082015250565b60006127eb601c836121ec565b91506127f6826127b5565b601c82019050919050565b6000819050919050565b6000819050919050565b61282661282182612801565b61280b565b82525050565b6000612837826127de565b91506128438284612815565b60208201915081905092915050565b7f45434453413a20696e76616c6964207369676e61747572650000000000000000600082015250565b6000612888601883611ad2565b915061289382612852565b602082019050919050565b600060208201905081810360008301526128b78161287b565b9050919050565b7f45434453413a20696e76616c6964207369676e6174757265206c656e67746800600082015250565b60006128f4601f83611ad2565b91506128ff826128be565b602082019050919050565b60006020820190508181036000830152612923816128e7565b9050919050565b7f45434453413a20696e76616c6964207369676e6174757265202773272076616c60008201527f7565000000000000000000000000000000000000000000000000000000000000602082015250565b6000612986602283611ad2565b91506129918261292a565b604082019050919050565b600060208201905081810360008301526129b581612979565b9050919050565b7f45434453413a20696e76616c6964207369676e6174757265202776272076616c60008201527f7565000000000000000000000000000000000000000000000000000000000000602082015250565b6000612a18602283611ad2565b9150612a23826129bc565b604082019050919050565b60006020820190508181036000830152612a4781612a0b565b9050919050565b7f76616c6964617465526f79616c74793a20494e56414c49445f524f59414c5459600082015250565b6000612a84602083611ad2565b9150612a8f82612a4e565b602082019050919050565b60006020820190508181036000830152612ab381612a77565b9050919050565b7f4e487b7100000000000000000000000000000000000000000000000000000000600052602260045260246000fd5b60006002820490506001821680612b0157607f821691505b60208210811415612b1557612b14612aba565b5b50919050565b612b2481611c27565b82525050565b612b3381611d94565b82525050565b600082825260208201905092915050565b50565b6000612b5a600083612b39565b9150612b6582612b4a565b600082019050919050565b6000608082019050612b856000830186612b1b565b612b926020830185612b1b565b612b9f6040830184612b2a565b8181036060830152612bb081612b4d565b9050949350505050565b600060a082019050612bcf6000830187612b1b565b612bdc6020830186612b1b565b612be96040830185612b2a565b612bf66060830184612b2a565b8181036080830152612c0781612b4d565b905095945050505050565b612c1b81612801565b82525050565b600060ff82169050919050565b612c3781612c21565b82525050565b6000608082019050612c526000830187612c12565b612c5f6020830186612c2e565b612c6c6040830185612c12565b612c796060830184612c12565b95945050505050565b612c8b81611c27565b82525050565b612c9a81611d94565b82525050565b600082825260208201905092915050565b6000612cbc826121e1565b612cc68185612ca0565b9350612cd681856020860161217d565b612cdf81611d03565b840191505092915050565b612cf381611f60565b82525050565b604082016000820151612d0f6000850182612c82565b506020820151612d226020850182612cea565b50505050565b600060c083016000830151612d406000860182612c82565b506020830151612d536020860182612c82565b506040830151612d666040860182612c91565b5060608301518482036060860152612d7e8282612cb1565b9150506080830151612d936080860182612cf9565b508091505092915050565b60008115159050919050565b612db381612d9e565b82525050565b60006080820190508181036000830152612dd38186612d28565b9050612de26020830185612daa565b612def6040830184612daa565b8181036060830152612e0081612b4d565b9050949350505050565b600060e083016000830151612e226000860182612c82565b506020830151612e356020860182612c82565b506040830151612e486040860182612c91565b506060830151612e5b6060860182612c91565b5060808301518482036080860152612e738282612cb1565b91505060a0830151612e8860a0860182612cf9565b508091505092915050565b60006080820190508181036000830152612ead8186612e0a565b9050612ebc6020830185612daa565b612ec96040830184612daa565b8181036060830152612eda81612b4d565b905094935050505056fea2646970667358221220cae0ae9df5cc3cbdbfa34d43cbbf77839b0772d68203dc55bfa5668b8744229464736f6c63430008090033",
  "linkReferences": {},
  "deployedLinkReferences": {}
}