{
  "_format": "hh-sol-artifact-1",
  "contractName": "ERC1155RedeemFacet",
  "sourceName": "contracts/marketplace/facets/ERC1155RedeemFacet.sol",
  "abi": [
    {
      "anonymous": false,
      "inputs": [
        {
          "indexed": false,
          "internalType": "address",
          "name": "paymentToken",
          "type": "address"
        },
        {
          "indexed": true,
          "internalType": "address",
          "name": "buyer",
          "type": "address"
        },
        {
          "indexed": true,
          "internalType": "address",
          "name": "receiver",
          "type": "address"
        },
        {
          "indexed": false,
          "internalType": "uint256",
          "name": "value",
          "type": "uint256"
        }
      ],
      "name": "ComissionPayed",
      "type": "event"
    },
    {
      "anonymous": false,
      "inputs": [
        {
          "indexed": false,
          "internalType": "address[]",
          "name": "tokens",
          "type": "address[]"
        },
        {
          "indexed": false,
          "internalType": "address",
          "name": "paymentToken",
          "type": "address"
        },
        {
          "indexed": false,
          "internalType": "address",
          "name": "from",
          "type": "address"
        },
        {
          "indexed": false,
          "internalType": "address",
          "name": "to",
          "type": "address"
        },
        {
          "indexed": false,
          "internalType": "uint256[]",
          "name": "ids",
          "type": "uint256[]"
        },
        {
          "indexed": false,
          "internalType": "uint256[]",
          "name": "amounts",
          "type": "uint256[]"
        },
        {
          "indexed": false,
          "internalType": "uint256[]",
          "name": "prices",
          "type": "uint256[]"
        }
      ],
      "name": "FixedPriceERC1155BundleRedeemed",
      "type": "event"
    },
    {
      "anonymous": false,
      "inputs": [
        {
          "indexed": false,
          "internalType": "address",
          "name": "token",
          "type": "address"
        },
        {
          "indexed": false,
          "internalType": "address",
          "name": "paymentToken",
          "type": "address"
        },
        {
          "indexed": false,
          "internalType": "address",
          "name": "from",
          "type": "address"
        },
        {
          "indexed": false,
          "internalType": "address",
          "name": "to",
          "type": "address"
        },
        {
          "indexed": false,
          "internalType": "uint256",
          "name": "id",
          "type": "uint256"
        },
        {
          "indexed": false,
          "internalType": "uint256",
          "name": "amount",
          "type": "uint256"
        },
        {
          "indexed": false,
          "internalType": "uint256",
          "name": "price",
          "type": "uint256"
        }
      ],
      "name": "FixedPriceERC1155Redeemed",
      "type": "event"
    },
    {
      "anonymous": false,
      "inputs": [
        {
          "indexed": true,
          "internalType": "address",
          "name": "token",
          "type": "address"
        },
        {
          "indexed": false,
          "internalType": "address",
          "name": "paymentToken",
          "type": "address"
        },
        {
          "indexed": false,
          "internalType": "address",
          "name": "buyer",
          "type": "address"
        },
        {
          "indexed": true,
          "internalType": "address",
          "name": "receiver",
          "type": "address"
        },
        {
          "indexed": true,
          "internalType": "uint256",
          "name": "tokenId",
          "type": "uint256"
        },
        {
          "indexed": false,
          "internalType": "uint256",
          "name": "value",
          "type": "uint256"
        }
      ],
      "name": "RoyaltyPayed",
      "type": "event"
    },
    {
      "inputs": [
        {
          "components": [
            {
              "internalType": "address",
              "name": "token",
              "type": "address"
            },
            {
              "internalType": "address",
              "name": "to",
              "type": "address"
            },
            {
              "internalType": "uint256",
              "name": "id",
              "type": "uint256"
            },
            {
              "internalType": "uint256",
              "name": "amount",
              "type": "uint256"
            },
            {
              "internalType": "string",
              "name": "uri",
              "type": "string"
            },
            {
              "components": [
                {
                  "internalType": "address",
                  "name": "recipient",
                  "type": "address"
                },
                {
                  "internalType": "uint24",
                  "name": "amount",
                  "type": "uint24"
                }
              ],
              "internalType": "struct ERC2981Base.RoyaltyInfo",
              "name": "royalty",
              "type": "tuple"
            }
          ],
          "internalType": "struct MintERC1155Order",
          "name": "mintOrder",
          "type": "tuple"
        },
        {
          "components": [
            {
              "internalType": "address",
              "name": "token",
              "type": "address"
            },
            {
              "internalType": "address",
              "name": "paymentToken",
              "type": "address"
            },
            {
              "internalType": "address",
              "name": "targetToken",
              "type": "address"
            },
            {
              "internalType": "address",
              "name": "from",
              "type": "address"
            },
            {
              "internalType": "address",
              "name": "to",
              "type": "address"
            },
            {
              "internalType": "uint256",
              "name": "id",
              "type": "uint256"
            },
            {
              "internalType": "uint256",
              "name": "amount",
              "type": "uint256"
            },
            {
              "internalType": "uint256",
              "name": "price",
              "type": "uint256"
            }
          ],
          "internalType": "struct RedeemERC1155Order",
          "name": "redeemOrder",
          "type": "tuple"
        },
        {
          "internalType": "bytes",
          "name": "mintSignature",
          "type": "bytes"
        },
        {
          "internalType": "bytes",
          "name": "marketSignature",
          "type": "bytes"
        },
        {
          "internalType": "bytes",
          "name": "redeemSignature",
          "type": "bytes"
        },
        {
          "internalType": "uint32",
          "name": "nonce",
          "type": "uint32"
        }
      ],
      "name": "ERC1155MintRedeem",
      "outputs": [],
      "stateMutability": "nonpayable",
      "type": "function"
    },
    {
      "inputs": [
        {
          "components": [
            {
              "internalType": "address",
              "name": "token",
              "type": "address"
            },
            {
              "internalType": "address",
              "name": "paymentToken",
              "type": "address"
            },
            {
              "internalType": "address",
              "name": "targetToken",
              "type": "address"
            },
            {
              "internalType": "address",
              "name": "from",
              "type": "address"
            },
            {
              "internalType": "address",
              "name": "to",
              "type": "address"
            },
            {
              "internalType": "uint256",
              "name": "id",
              "type": "uint256"
            },
            {
              "internalType": "uint256",
              "name": "amount",
              "type": "uint256"
            },
            {
              "internalType": "uint256",
              "name": "price",
              "type": "uint256"
            }
          ],
          "internalType": "struct RedeemERC1155Order",
          "name": "order",
          "type": "tuple"
        },
        {
          "internalType": "bytes",
          "name": "signature",
          "type": "bytes"
        },
        {
          "internalType": "uint32",
          "name": "nonce",
          "type": "uint32"
        }
      ],
      "name": "ERC1155Redeem",
      "outputs": [],
      "stateMutability": "nonpayable",
      "type": "function"
    },
    {
      "inputs": [
        {
          "components": [
            {
              "internalType": "address[]",
              "name": "tokens",
              "type": "address[]"
            },
            {
              "internalType": "address",
              "name": "paymentToken",
              "type": "address"
            },
            {
              "internalType": "address",
              "name": "targetToken",
              "type": "address"
            },
            {
              "internalType": "address",
              "name": "from",
              "type": "address"
            },
            {
              "internalType": "address",
              "name": "to",
              "type": "address"
            },
            {
              "internalType": "uint256[]",
              "name": "ids",
              "type": "uint256[]"
            },
            {
              "internalType": "uint256[]",
              "name": "amounts",
              "type": "uint256[]"
            },
            {
              "internalType": "uint256[]",
              "name": "prices",
              "type": "uint256[]"
            }
          ],
          "internalType": "struct RedeemERC1155BundleOrder",
          "name": "order",
          "type": "tuple"
        },
        {
          "internalType": "bytes",
          "name": "signature",
          "type": "bytes"
        },
        {
          "internalType": "uint32",
          "name": "nonce",
          "type": "uint32"
        }
      ],
      "name": "ERC1155RedeemBundle",
      "outputs": [],
      "stateMutability": "nonpayable",
      "type": "function"
    }
  ],
  "bytecode": "0x608060405234801561001057600080fd5b5061583680620000216000396000f3fe608060405234801561001057600080fd5b50600436106100415760003560e01c80630e002247146100465780639a086b0c14610062578063d97f15f31461007e575b600080fd5b610060600480360381019061005b91906133a0565b61009a565b005b61007c600480360381019061007791906134cc565b610792565b005b6100986004803603810190610093919061355c565b610b44565b005b6100a2610f86565b73ffffffffffffffffffffffffffffffffffffffff168860200160208101906100cb9190613631565b73ffffffffffffffffffffffffffffffffffffffff161415610122576040517f08c379a0000000000000000000000000000000000000000000000000000000008152600401610119906136bb565b60405180910390fd5b8660600160208101906101359190613631565b73ffffffffffffffffffffffffffffffffffffffff1688602001602081019061015e9190613631565b73ffffffffffffffffffffffffffffffffffffffff1614801561018857508660a001358860400135145b80156101e357508660000160208101906101a29190613631565b73ffffffffffffffffffffffffffffffffffffffff168860000160208101906101cb9190613631565b73ffffffffffffffffffffffffffffffffffffffff16145b610222576040517f08c379a000000000000000000000000000000000000000000000000000000000815260040161021990613727565b60405180910390fd5b60008760e0013511156102cd576000600501600801600088602001602081019061024c9190613631565b73ffffffffffffffffffffffffffffffffffffffff1673ffffffffffffffffffffffffffffffffffffffff168152602001908152602001600020548760e00135116102cc576040517f08c379a00000000000000000000000000000000000000000000000000000000081526004016102c390613793565b60405180910390fd5b5b600060050160000160006103446102fa8b60000160208101906102f09190613631565b8c60400135610f8e565b87878080601f016020809104026020016040519081016040528093929190818152602001838380828437600081840152601f19601f82011690508083019250505050505050610fcb565b73ffffffffffffffffffffffffffffffffffffffff1673ffffffffffffffffffffffffffffffffffffffff16815260200190815260200160002060009054906101000a900460ff166103cb576040517f08c379a00000000000000000000000000000000000000000000000000000000081526004016103c2906137ff565b60405180910390fd5b60006104236103d98a610ff2565b88888080601f016020809104026020016040519081016040528093929190818152602001838380828437600081840152601f19601f82011690508083019250505050505050610fcb565b90508073ffffffffffffffffffffffffffffffffffffffff1689602001602081019061044f9190613631565b73ffffffffffffffffffffffffffffffffffffffff16148061048957506104888960200160208101906104829190613631565b8261109e565b5b6104c8576040517f08c379a00000000000000000000000000000000000000000000000000000000081526004016104bf9061386b565b60405180910390fd5b6104db6104d589846111c3565b84610fcb565b73ffffffffffffffffffffffffffffffffffffffff168173ffffffffffffffffffffffffffffffffffffffff1614610548576040517f08c379a000000000000000000000000000000000000000000000000000000000815260040161053f906138d7565b60405180910390fd5b600060050160120160008960600160208101906105659190613631565b73ffffffffffffffffffffffffffffffffffffffff1673ffffffffffffffffffffffffffffffffffffffff16815260200190815260200160002060008363ffffffff1663ffffffff16815260200190815260200160002060009054906101000a900460ff161561060a576040517f08c379a000000000000000000000000000000000000000000000000000000000815260040161060190613943565b60405180910390fd5b6001600060050160120160008a60600160208101906106299190613631565b73ffffffffffffffffffffffffffffffffffffffff1673ffffffffffffffffffffffffffffffffffffffff16815260200190815260200160002060008463ffffffff1663ffffffff16815260200190815260200160002060006101000a81548160ff02191690831515021790555060006106b48a60000160208101906106af9190613631565b611274565b90506106c16001826112e1565b6106d68a6106ce90613b8b565b8260016113a1565b6106ef898036038101906106ea9190613c68565b611447565b7fa0f3a1795bd44d5151b44f5b65152bdadf123e3f07fe5958e973fa1f4533848a8960000160208101906107239190613631565b8a60200160208101906107369190613631565b8b60600160208101906107499190613631565b8c608001602081019061075c9190613631565b8d60a001358e60c001358f60e0013560405161077e9796959493929190613cb4565b60405180910390a150505050505050505050565b8360600160208101906107a59190613631565b73ffffffffffffffffffffffffffffffffffffffff168460800160208101906107ce9190613631565b73ffffffffffffffffffffffffffffffffffffffff161415610825576040517f08c379a000000000000000000000000000000000000000000000000000000000815260040161081c90613d6f565b60405180910390fd5b600061088761083d866108379061404f565b846115b1565b85858080601f016020809104026020016040519081016040528093929190818152602001838380828437600081840152601f19601f82011690508083019250505050505050610fcb565b90508073ffffffffffffffffffffffffffffffffffffffff168560600160208101906108b39190613631565b73ffffffffffffffffffffffffffffffffffffffff1614806108ed57506108ec8560600160208101906108e69190613631565b8261109e565b5b61092c576040517f08c379a0000000000000000000000000000000000000000000000000000000008152600401610923906138d7565b60405180910390fd5b600060050160120160008660600160208101906109499190613631565b73ffffffffffffffffffffffffffffffffffffffff1673ffffffffffffffffffffffffffffffffffffffff16815260200190815260200160002060008363ffffffff1663ffffffff16815260200190815260200160002060009054906101000a900460ff16156109ee576040517f08c379a00000000000000000000000000000000000000000000000000000000081526004016109e590613943565b60405180910390fd5b600160006005016012016000876060016020810190610a0d9190613631565b73ffffffffffffffffffffffffffffffffffffffff1673ffffffffffffffffffffffffffffffffffffffff16815260200190815260200160002060008463ffffffff1663ffffffff16815260200190815260200160002060006101000a81548160ff021916908315150217905550610a848561161c565b7f66d11040972cb56e258b069263badbcff4b0ce3ac71926d31e50b578e779b227858060000190610ab59190614071565b876020016020810190610ac89190613631565b886060016020810190610adb9190613631565b896080016020810190610aee9190613631565b8a8060a00190610afe91906140d4565b8c8060c00190610b0e91906140d4565b8e8060e00190610b1e91906140d4565b604051610b359b9a9998979695949392919061426c565b60405180910390a15050505050565b836060016020810190610b579190613631565b73ffffffffffffffffffffffffffffffffffffffff16846080016020810190610b809190613631565b73ffffffffffffffffffffffffffffffffffffffff161415610bd7576040517f08c379a0000000000000000000000000000000000000000000000000000000008152600401610bce90613d6f565b60405180910390fd5b60008460e001351115610c825760006005016008016000856020016020810190610c019190613631565b73ffffffffffffffffffffffffffffffffffffffff1673ffffffffffffffffffffffffffffffffffffffff168152602001908152602001600020548460e0013511610c81576040517f08c379a0000000000000000000000000000000000000000000000000000000008152600401610c7890613793565b60405180910390fd5b5b6000610cdb610c9186846111c3565b85858080601f016020809104026020016040519081016040528093929190818152602001838380828437600081840152601f19601f82011690508083019250505050505050610fcb565b90508073ffffffffffffffffffffffffffffffffffffffff16856060016020810190610d079190613631565b73ffffffffffffffffffffffffffffffffffffffff161480610d415750610d40856060016020810190610d3a9190613631565b8261109e565b5b610d80576040517f08c379a0000000000000000000000000000000000000000000000000000000008152600401610d77906138d7565b60405180910390fd5b60006005016012016000866060016020810190610d9d9190613631565b73ffffffffffffffffffffffffffffffffffffffff1673ffffffffffffffffffffffffffffffffffffffff16815260200190815260200160002060008363ffffffff1663ffffffff16815260200190815260200160002060009054906101000a900460ff1615610e42576040517f08c379a0000000000000000000000000000000000000000000000000000000008152600401610e3990613943565b60405180910390fd5b600160006005016012016000876060016020810190610e619190613631565b73ffffffffffffffffffffffffffffffffffffffff1673ffffffffffffffffffffffffffffffffffffffff16815260200190815260200160002060008463ffffffff1663ffffffff16815260200190815260200160002060006101000a81548160ff021916908315150217905550610ee885803603810190610ee39190613c68565b611447565b7fa0f3a1795bd44d5151b44f5b65152bdadf123e3f07fe5958e973fa1f4533848a856000016020810190610f1c9190613631565b866020016020810190610f2f9190613631565b876060016020810190610f429190613631565b886080016020810190610f559190613631565b8960a001358a60c001358b60e00135604051610f779796959493929190613cb4565b60405180910390a15050505050565b600033905090565b6000610fc3838346604051602001610fa893929190614368565b60405160208183030381529060405280519060200120611a7b565b905092915050565b6000806000610fda8585611aab565b91509150610fe781611b2e565b819250505092915050565b600061109782600001602081019061100a9190613631565b83602001602081019061101d9190613631565b8460400135856060013586806080019061103791906143a5565b8860a001600001602081019061104d9190613631565b8960a00160200160208101906110639190614408565b4660405160200161107c9998979695949392919061449b565b60405160208183030381529060405280519060200120611a7b565b9050919050565b60008060008473ffffffffffffffffffffffffffffffffffffffff16846040516024016110cb919061452b565b6040516020818303038152906040527f2f54bf6e000000000000000000000000000000000000000000000000000000007bffffffffffffffffffffffffffffffffffffffffffffffffffffffff19166020820180517bffffffffffffffffffffffffffffffffffffffffffffffffffffffff838183161783525050505060405161115591906145c0565b6000604051808303816000865af19150503d8060008114611192576040519150601f19603f3d011682016040523d82523d6000602084013e611197565b606091505b50915091508180156111b95750808060200190518101906111b8919061460f565b5b9250505092915050565b600061126c8360000160208101906111db9190613631565b8460600160208101906111ee9190613631565b8560800160208101906112019190613631565b8660a001358760200160208101906112199190613631565b88604001602081019061122c9190613631565b8960e00135468a8c60c001356040516020016112519a99989796959493929190614672565b60405160208183030381529060405280519060200120611a7b565b905092915050565b60008061127f611d03565b905060008160050160050160008573ffffffffffffffffffffffffffffffffffffffff1673ffffffffffffffffffffffffffffffffffffffff16815260200190815260200160002060009054906101000a900460ff1690508092505050919050565b60006112eb611d03565b905080600501600301600084600181111561130957611308614726565b5b600181111561131b5761131a614726565b5b815260200190815260200160002060009054906101000a900460ff16600181111561134957611348614726565b5b82600181111561135c5761135b614726565b5b1461139c576040517f08c379a0000000000000000000000000000000000000000000000000000000008152600401611393906147c7565b60405180910390fd5b505050565b6001808111156113b4576113b3614726565b5b8260018111156113c7576113c6614726565b5b141561144257826000015173ffffffffffffffffffffffffffffffffffffffff1663b841bb89848360006040518463ffffffff1660e01b815260040161140f93929190614958565b600060405180830381600087803b15801561142957600080fd5b505af115801561143d573d6000803e3d6000fd5b505050505b505050565b60008160e0015111156115295760008160c001518260e0015161146a91906149d8565b905060008114156114b0576040517f08c379a00000000000000000000000000000000000000000000000000000000081526004016114a790614a7e565b60405180910390fd5b60006114d483600001518460200151856080015186608001518760a0015187611d08565b905060006114f084602001518560800151866080015186611ef2565b905061152584602001518560400151866080015187606001518587896115169190614a9e565b6115209190614a9e565b6121d3565b5050505b806000015173ffffffffffffffffffffffffffffffffffffffff1663f242432a826060015183608001518460a001518560c001516040518563ffffffff1660e01b815260040161157c9493929190614ad2565b600060405180830381600087803b15801561159657600080fd5b505af11580156115aa573d6000803e3d6000fd5b5050505050565b60006116148360000151846060015185608001518660a00151876020015188604001518960e00151468a8c60c001516040516020016115f99a99989796959493929190614c9a565b60405160208183030381529060405280519060200120611a7b565b905092915050565b6000611626611d03565b905060008060008360050160080160008660200160208101906116499190613631565b73ffffffffffffffffffffffffffffffffffffffff1673ffffffffffffffffffffffffffffffffffffffff16815260200190815260200160002054905060005b858060a0019061169991906140d4565b905081101561186f576000868060e001906116b491906140d4565b838181106116c5576116c4614d3e565b5b90506020020135111561185c5781868060e001906116e391906140d4565b838181106116f4576116f3614d3e565b5b905060200201351161173b576040517f08c379a000000000000000000000000000000000000000000000000000000000815260040161173290614ddf565b60405180910390fd5b6000868060c0019061174d91906140d4565b8381811061175e5761175d614d3e565b5b90506020020135878060e0019061177591906140d4565b8481811061178657611785614d3e565b5b9050602002013561179791906149d8565b9050600061183b8880600001906117ae9190614071565b858181106117bf576117be614d3e565b5b90506020020160208101906117d49190613631565b8960200160208101906117e79190613631565b8a60800160208101906117fa9190613631565b8b608001602081019061180d9190613631565b8c8060a0019061181d91906140d4565b8981811061182e5761182d614d3e565b5b9050602002013587611d08565b905081866118499190614dff565b955080856118579190614dff565b945050505b808061186790614e55565b915050611689565b50600083111561192c5760006118bd8660200160208101906118919190613631565b8760800160208101906118a49190613631565b8860800160208101906118b79190613631565b87611ef2565b905061192a8660200160208101906118d59190613631565b8760400160208101906118e89190613631565b8860800160208101906118fb9190613631565b89606001602081019061190e9190613631565b85888a61191b9190614a9e565b6119259190614a9e565b6121d3565b505b60005b858060a0019061193f91906140d4565b9050811015611a73578580600001906119589190614071565b8281811061196957611968614d3e565b5b905060200201602081019061197e9190613631565b73ffffffffffffffffffffffffffffffffffffffff1663f242432a8760600160208101906119ac9190613631565b8860800160208101906119bf9190613631565b898060a001906119cf91906140d4565b868181106119e0576119df614d3e565b5b905060200201358a8060c001906119f791906140d4565b87818110611a0857611a07614d3e565b5b905060200201356040518563ffffffff1660e01b8152600401611a2e9493929190614ad2565b600060405180830381600087803b158015611a4857600080fd5b505af1158015611a5c573d6000803e3d6000fd5b505050508080611a6b90614e55565b91505061192f565b505050505050565b600081604051602001611a8e9190614f15565b604051602081830303815290604052805190602001209050919050565b600080604183511415611aed5760008060006020860151925060408601519150606086015160001a9050611ae1878285856129d1565b94509450505050611b27565b604083511415611b1e576000806020850151915060408501519050611b13868383612ade565b935093505050611b27565b60006002915091505b9250929050565b60006004811115611b4257611b41614726565b5b816004811115611b5557611b54614726565b5b1415611b6057611d00565b60016004811115611b7457611b73614726565b5b816004811115611b8757611b86614726565b5b1415611bc8576040517f08c379a0000000000000000000000000000000000000000000000000000000008152600401611bbf90614f87565b60405180910390fd5b60026004811115611bdc57611bdb614726565b5b816004811115611bef57611bee614726565b5b1415611c30576040517f08c379a0000000000000000000000000000000000000000000000000000000008152600401611c2790614ff3565b60405180910390fd5b60036004811115611c4457611c43614726565b5b816004811115611c5757611c56614726565b5b1415611c98576040517f08c379a0000000000000000000000000000000000000000000000000000000008152600401611c8f90615085565b60405180910390fd5b600480811115611cab57611caa614726565b5b816004811115611cbe57611cbd614726565b5b1415611cff576040517f08c379a0000000000000000000000000000000000000000000000000000000008152600401611cf690615117565b60405180910390fd5b5b50565b600090565b600080821415611d1b5760009050611ee8565b6000611d2e88632a55205a60e01b612b2c565b15611ee35760008873ffffffffffffffffffffffffffffffffffffffff16632a55205a86866040518363ffffffff1660e01b8152600401611d70929190615137565b604080518083038186803b158015611d8757600080fd5b505afa158015611d9b573d6000803e3d6000fd5b505050506040513d601f19601f82011682018060405250810190611dbf919061518a565b8093508192505050600082118015611dd657508382105b15611edc573073ffffffffffffffffffffffffffffffffffffffff168773ffffffffffffffffffffffffffffffffffffffff161415611e3f57611e3a81838a73ffffffffffffffffffffffffffffffffffffffff16612b519092919063ffffffff16565b611e6d565b611e6c8782848b73ffffffffffffffffffffffffffffffffffffffff16612bd7909392919063ffffffff16565b5b848173ffffffffffffffffffffffffffffffffffffffff168a73ffffffffffffffffffffffffffffffffffffffff167fc12e0ad04220866b41089cc4006c59d73fdfd790857e121651c1b55e7a872aeb8b8a87604051611ecf939291906151ca565b60405180910390a4611ee1565b600091505b505b809150505b9695505050505050565b600080821415611f0557600090506121cb565b6000611f0f611d03565b905060008160050160060160008873ffffffffffffffffffffffffffffffffffffffff1673ffffffffffffffffffffffffffffffffffffffff1681526020019081526020016000208054905090506000805b8281101561207057858460050160060160008b73ffffffffffffffffffffffffffffffffffffffff1673ffffffffffffffffffffffffffffffffffffffff1681526020019081526020016000208281548110611fc057611fbf614d3e565b5b90600052602060002001541015612058578360050160070160008a73ffffffffffffffffffffffffffffffffffffffff1673ffffffffffffffffffffffffffffffffffffffff168152602001908152602001600020818154811061202757612026614d3e565b5b90600052602060002090600a91828204019190066003029054906101000a900462ffffff1662ffffff16915061205d565b612070565b808061206890614e55565b915050611f61565b506000612710828761208291906149d8565b61208c9190615230565b905060008111156121c3573073ffffffffffffffffffffffffffffffffffffffff168873ffffffffffffffffffffffffffffffffffffffff161461215b578873ffffffffffffffffffffffffffffffffffffffff166323b872dd8930846040518463ffffffff1660e01b8152600401612107939291906151ca565b602060405180830381600087803b15801561212157600080fd5b505af1158015612135573d6000803e3d6000fd5b505050506040513d601f19601f82011682018060405250810190612159919061460f565b505b3073ffffffffffffffffffffffffffffffffffffffff168773ffffffffffffffffffffffffffffffffffffffff167f3d1fa10df804e58804446516af66e1a441d99b35693f686142946525683247598b846040516121ba929190615261565b60405180910390a35b809450505050505b949350505050565b60006121dd611d03565b90503073ffffffffffffffffffffffffffffffffffffffff168473ffffffffffffffffffffffffffffffffffffffff16146122e057818673ffffffffffffffffffffffffffffffffffffffff1663dd62ed3e86306040518363ffffffff1660e01b815260040161224e92919061528a565b60206040518083038186803b15801561226657600080fd5b505afa15801561227a573d6000803e3d6000fd5b505050506040513d601f19601f8201168201806040525081019061229e91906152b3565b10156122df576040517f08c379a00000000000000000000000000000000000000000000000000000000081526004016122d690615352565b60405180910390fd5b5b600082905060008083600501600b0160009054906101000a900473ffffffffffffffffffffffffffffffffffffffff1673ffffffffffffffffffffffffffffffffffffffff168973ffffffffffffffffffffffffffffffffffffffff16149050600084600501600b0160009054906101000a900473ffffffffffffffffffffffffffffffffffffffff1673ffffffffffffffffffffffffffffffffffffffff168973ffffffffffffffffffffffffffffffffffffffff161490508180156123a45750805b806123c057508460050160110160109054906101000a900460ff165b15612460573073ffffffffffffffffffffffffffffffffffffffff168873ffffffffffffffffffffffffffffffffffffffff161461242a576124258888868d73ffffffffffffffffffffffffffffffffffffffff16612bd7909392919063ffffffff16565b612456565b61245587858c73ffffffffffffffffffffffffffffffffffffffff16612b519092919063ffffffff16565b5b50505050506129ca565b3073ffffffffffffffffffffffffffffffffffffffff168873ffffffffffffffffffffffffffffffffffffffff16146124c1576124c08830868d73ffffffffffffffffffffffffffffffffffffffff16612bd7909392919063ffffffff16565b5b8161275a576000600267ffffffffffffffff8111156124e3576124e2613239565b5b6040519080825280602002602001820160405280156125115781602001602082028036833780820191505090505b5090508a8160008151811061252957612528614d3e565b5b602002602001019073ffffffffffffffffffffffffffffffffffffffff16908173ffffffffffffffffffffffffffffffffffffffff168152505085600501600b0160009054906101000a900473ffffffffffffffffffffffffffffffffffffffff168160018151811061259f5761259e614d3e565b5b602002602001019073ffffffffffffffffffffffffffffffffffffffff16908173ffffffffffffffffffffffffffffffffffffffff168152505061262b8660180160000160009054906101000a900473ffffffffffffffffffffffffffffffffffffffff16868d73ffffffffffffffffffffffffffffffffffffffff16612c609092919063ffffffff16565b6000821561263b5788905061263f565b3090505b60008760180160000160009054906101000a900473ffffffffffffffffffffffffffffffffffffffff1673ffffffffffffffffffffffffffffffffffffffff166338ed173988600086868d601801600101544261269c9190614dff565b6040518663ffffffff1660e01b81526004016126bc959493929190615415565b600060405180830381600087803b1580156126d657600080fd5b505af11580156126ea573d6000803e3d6000fd5b505050506040513d6000823e3d601f19601f820116820180604052508101906127139190615506565b905083156127285750505050505050506129ca565b80600182516127379190614a9e565b8151811061274857612747614d3e565b5b6020026020010151955050505061275e565b8392505b806129c4576000600267ffffffffffffffff8111156127805761277f613239565b5b6040519080825280602002602001820160405280156127ae5781602001602082028036833780820191505090505b50905085600501600b0160009054906101000a900473ffffffffffffffffffffffffffffffffffffffff16816000815181106127ed576127ec614d3e565b5b602002602001019073ffffffffffffffffffffffffffffffffffffffff16908173ffffffffffffffffffffffffffffffffffffffff1681525050898160018151811061283c5761283b614d3e565b5b602002602001019073ffffffffffffffffffffffffffffffffffffffff16908173ffffffffffffffffffffffffffffffffffffffff16815250506128ef8660180160000160009054906101000a900473ffffffffffffffffffffffffffffffffffffffff168588600501600b0160009054906101000a900473ffffffffffffffffffffffffffffffffffffffff1673ffffffffffffffffffffffffffffffffffffffff16612c609092919063ffffffff16565b8560180160000160009054906101000a900473ffffffffffffffffffffffffffffffffffffffff1673ffffffffffffffffffffffffffffffffffffffff166338ed1739856000848c8b601801600101544261294a9190614dff565b6040518663ffffffff1660e01b815260040161296a959493929190615415565b600060405180830381600087803b15801561298457600080fd5b505af1158015612998573d6000803e3d6000fd5b505050506040513d6000823e3d601f19601f820116820180604052508101906129c19190615506565b50505b50505050505b5050505050565b6000807f7fffffffffffffffffffffffffffffff5d576e7357a4501ddfe92f46681b20a08360001c1115612a0c576000600391509150612ad5565b601b8560ff1614158015612a245750601c8560ff1614155b15612a36576000600491509150612ad5565b600060018787878760405160008152602001604052604051612a5b949392919061557a565b6020604051602081039080840390855afa158015612a7d573d6000803e3d6000fd5b505050602060405103519050600073ffffffffffffffffffffffffffffffffffffffff168173ffffffffffffffffffffffffffffffffffffffff161415612acc57600060019250925050612ad5565b80600092509250505b94509492505050565b6000806000807f7fffffffffffffffffffffffffffffffffffffffffffffffffffffffffffffff85169150601b8560ff1c019050612b1e878288856129d1565b935093505050935093915050565b6000612b3783612d81565b8015612b495750612b488383612dce565b5b905092915050565b612bd28363a9059cbb60e01b8484604051602401612b70929190615261565b604051602081830303815290604052907bffffffffffffffffffffffffffffffffffffffffffffffffffffffff19166020820180517bffffffffffffffffffffffffffffffffffffffffffffffffffffffff8381831617835250505050612ef9565b505050565b612c5a846323b872dd60e01b858585604051602401612bf8939291906151ca565b604051602081830303815290604052907bffffffffffffffffffffffffffffffffffffffffffffffffffffffff19166020820180517bffffffffffffffffffffffffffffffffffffffffffffffffffffffff8381831617835250505050612ef9565b50505050565b6000818473ffffffffffffffffffffffffffffffffffffffff1663dd62ed3e30866040518363ffffffff1660e01b8152600401612c9e92919061528a565b60206040518083038186803b158015612cb657600080fd5b505afa158015612cca573d6000803e3d6000fd5b505050506040513d601f19601f82011682018060405250810190612cee91906152b3565b612cf89190614dff565b9050612d7b8463095ea7b360e01b8584604051602401612d19929190615261565b604051602081830303815290604052907bffffffffffffffffffffffffffffffffffffffffffffffffffffffff19166020820180517bffffffffffffffffffffffffffffffffffffffffffffffffffffffff8381831617835250505050612ef9565b50505050565b6000612dad827f01ffc9a700000000000000000000000000000000000000000000000000000000612dce565b8015612dc75750612dc58263ffffffff60e01b612dce565b155b9050919050565b6000806301ffc9a760e01b83604051602401612dea91906155fa565b604051602081830303815290604052907bffffffffffffffffffffffffffffffffffffffffffffffffffffffff19166020820180517bffffffffffffffffffffffffffffffffffffffffffffffffffffffff838183161783525050505090506000808573ffffffffffffffffffffffffffffffffffffffff1661753084604051612e7491906145c0565b6000604051808303818686fa925050503d8060008114612eb0576040519150601f19603f3d011682016040523d82523d6000602084013e612eb5565b606091505b5091509150602081511015612ed05760009350505050612ef3565b818015612eed575080806020019051810190612eec919061460f565b5b93505050505b92915050565b6000612f5b826040518060400160405280602081526020017f5361666545524332303a206c6f772d6c6576656c2063616c6c206661696c65648152508573ffffffffffffffffffffffffffffffffffffffff16612fc09092919063ffffffff16565b9050600081511115612fbb5780806020019051810190612f7b919061460f565b612fba576040517f08c379a0000000000000000000000000000000000000000000000000000000008152600401612fb190615687565b60405180910390fd5b5b505050565b6060612fcf8484600085612fd8565b90509392505050565b60608247101561301d576040517f08c379a000000000000000000000000000000000000000000000000000000000815260040161301490615719565b60405180910390fd5b613026856130ec565b613065576040517f08c379a000000000000000000000000000000000000000000000000000000000815260040161305c90615785565b60405180910390fd5b6000808673ffffffffffffffffffffffffffffffffffffffff16858760405161308e91906145c0565b60006040518083038185875af1925050503d80600081146130cb576040519150601f19603f3d011682016040523d82523d6000602084013e6130d0565b606091505b50915091506130e08282866130ff565b92505050949350505050565b600080823b905060008111915050919050565b6060831561310f5782905061315f565b6000835111156131225782518084602001fd5b816040517f08c379a000000000000000000000000000000000000000000000000000000000815260040161315691906157de565b60405180910390fd5b9392505050565b6000604051905090565b600080fd5b600080fd5b600080fd5b600060e082840312156131955761319461317a565b5b81905092915050565b600061010082840312156131b5576131b461317a565b5b81905092915050565b600080fd5b600080fd5b600080fd5b60008083601f8401126131e3576131e26131be565b5b8235905067ffffffffffffffff811115613200576131ff6131c3565b5b60208301915083600182028301111561321c5761321b6131c8565b5b9250929050565b600080fd5b6000601f19601f8301169050919050565b7f4e487b7100000000000000000000000000000000000000000000000000000000600052604160045260246000fd5b61327182613228565b810181811067ffffffffffffffff821117156132905761328f613239565b5b80604052505050565b60006132a3613166565b90506132af8282613268565b919050565b600067ffffffffffffffff8211156132cf576132ce613239565b5b6132d882613228565b9050602081019050919050565b82818337600083830152505050565b6000613307613302846132b4565b613299565b90508281526020810184848401111561332357613322613223565b5b61332e8482856132e5565b509392505050565b600082601f83011261334b5761334a6131be565b5b813561335b8482602086016132f4565b91505092915050565b600063ffffffff82169050919050565b61337d81613364565b811461338857600080fd5b50565b60008135905061339a81613374565b92915050565b6000806000806000806000806101a0898b0312156133c1576133c0613170565b5b600089013567ffffffffffffffff8111156133df576133de613175565b5b6133eb8b828c0161317f565b98505060206133fc8b828c0161319e565b97505061012089013567ffffffffffffffff81111561341e5761341d613175565b5b61342a8b828c016131cd565b965096505061014089013567ffffffffffffffff81111561344e5761344d613175565b5b61345a8b828c016131cd565b945094505061016089013567ffffffffffffffff81111561347e5761347d613175565b5b61348a8b828c01613336565b92505061018061349c8b828c0161338b565b9150509295985092959890939650565b600061010082840312156134c3576134c261317a565b5b81905092915050565b600080600080606085870312156134e6576134e5613170565b5b600085013567ffffffffffffffff81111561350457613503613175565b5b613510878288016134ac565b945050602085013567ffffffffffffffff81111561353157613530613175565b5b61353d878288016131cd565b935093505060406135508782880161338b565b91505092959194509250565b600080600080610140858703121561357757613576613170565b5b60006135858782880161319e565b94505061010085013567ffffffffffffffff8111156135a7576135a6613175565b5b6135b3878288016131cd565b93509350506101206135c78782880161338b565b91505092959194509250565b600073ffffffffffffffffffffffffffffffffffffffff82169050919050565b60006135fe826135d3565b9050919050565b61360e816135f3565b811461361957600080fd5b50565b60008135905061362b81613605565b92915050565b60006020828403121561364757613646613170565b5b60006136558482850161361c565b91505092915050565b600082825260208201905092915050565b7f31313535463a20494e56414c49445f4f574e4552000000000000000000000000600082015250565b60006136a560148361365e565b91506136b08261366f565b602082019050919050565b600060208201905081810360008301526136d481613698565b9050919050565b7f31313535463a204f574e45525f4d49534d415443480000000000000000000000600082015250565b600061371160158361365e565b915061371c826136db565b602082019050919050565b6000602082019050818103600083015261374081613704565b9050919050565b7f31313535463a20494e56414c49445f5052494345000000000000000000000000600082015250565b600061377d60148361365e565b915061378882613747565b602082019050919050565b600060208201905081810360008301526137ac81613770565b9050919050565b7f31313535463a20494e56414c49445f4d41524b45545f5349474e415455524500600082015250565b60006137e9601f8361365e565b91506137f4826137b3565b602082019050919050565b60006020820190508181036000830152613818816137dc565b9050919050565b7f31313535463a20494e56414c49445f4d494e545f5349474e4154555245000000600082015250565b6000613855601d8361365e565b91506138608261381f565b602082019050919050565b6000602082019050818103600083015261388481613848565b9050919050565b7f31313535463a20494e56414c49445f52454445454d5f5349474e415455524500600082015250565b60006138c1601f8361365e565b91506138cc8261388b565b602082019050919050565b600060208201905081810360008301526138f0816138b4565b9050919050565b7f31313535463a204e4f4e43455f414c52454144595f5553454400000000000000600082015250565b600061392d60198361365e565b9150613938826138f7565b602082019050919050565b6000602082019050818103600083015261395c81613920565b9050919050565b600080fd5b600080fd5b6000819050919050565b6139808161396d565b811461398b57600080fd5b50565b60008135905061399d81613977565b92915050565b600067ffffffffffffffff8211156139be576139bd613239565b5b6139c782613228565b9050602081019050919050565b60006139e76139e2846139a3565b613299565b905082815260208101848484011115613a0357613a02613223565b5b613a0e8482856132e5565b509392505050565b600082601f830112613a2b57613a2a6131be565b5b8135613a3b8482602086016139d4565b91505092915050565b600062ffffff82169050919050565b613a5c81613a44565b8114613a6757600080fd5b50565b600081359050613a7981613a53565b92915050565b600060408284031215613a9557613a94613963565b5b613a9f6040613299565b90506000613aaf8482850161361c565b6000830152506020613ac384828501613a6a565b60208301525092915050565b600060e08284031215613ae557613ae4613963565b5b613aef60c0613299565b90506000613aff8482850161361c565b6000830152506020613b138482850161361c565b6020830152506040613b278482850161398e565b6040830152506060613b3b8482850161398e565b606083015250608082013567ffffffffffffffff811115613b5f57613b5e613968565b5b613b6b84828501613a16565b60808301525060a0613b7f84828501613a7f565b60a08301525092915050565b6000613b973683613acf565b9050919050565b60006101008284031215613bb557613bb4613963565b5b613bc0610100613299565b90506000613bd08482850161361c565b6000830152506020613be48482850161361c565b6020830152506040613bf88482850161361c565b6040830152506060613c0c8482850161361c565b6060830152506080613c208482850161361c565b60808301525060a0613c348482850161398e565b60a08301525060c0613c488482850161398e565b60c08301525060e0613c5c8482850161398e565b60e08301525092915050565b60006101008284031215613c7f57613c7e613170565b5b6000613c8d84828501613b9e565b91505092915050565b613c9f816135f3565b82525050565b613cae8161396d565b82525050565b600060e082019050613cc9600083018a613c96565b613cd66020830189613c96565b613ce36040830188613c96565b613cf06060830187613c96565b613cfd6080830186613ca5565b613d0a60a0830185613ca5565b613d1760c0830184613ca5565b98975050505050505050565b7f31313535463a2042555945525f49535f4f574e45520000000000000000000000600082015250565b6000613d5960158361365e565b9150613d6482613d23565b602082019050919050565b60006020820190508181036000830152613d8881613d4c565b9050919050565b600067ffffffffffffffff821115613daa57613da9613239565b5b602082029050602081019050919050565b6000613dce613dc984613d8f565b613299565b90508083825260208201905060208402830185811115613df157613df06131c8565b5b835b81811015613e1a5780613e06888261361c565b845260208401935050602081019050613df3565b5050509392505050565b600082601f830112613e3957613e386131be565b5b8135613e49848260208601613dbb565b91505092915050565b600067ffffffffffffffff821115613e6d57613e6c613239565b5b602082029050602081019050919050565b6000613e91613e8c84613e52565b613299565b90508083825260208201905060208402830185811115613eb457613eb36131c8565b5b835b81811015613edd5780613ec9888261398e565b845260208401935050602081019050613eb6565b5050509392505050565b600082601f830112613efc57613efb6131be565b5b8135613f0c848260208601613e7e565b91505092915050565b60006101008284031215613f2c57613f2b613963565b5b613f37610100613299565b9050600082013567ffffffffffffffff811115613f5757613f56613968565b5b613f6384828501613e24565b6000830152506020613f778482850161361c565b6020830152506040613f8b8482850161361c565b6040830152506060613f9f8482850161361c565b6060830152506080613fb38482850161361c565b60808301525060a082013567ffffffffffffffff811115613fd757613fd6613968565b5b613fe384828501613ee7565b60a08301525060c082013567ffffffffffffffff81111561400757614006613968565b5b61401384828501613ee7565b60c08301525060e082013567ffffffffffffffff81111561403757614036613968565b5b61404384828501613ee7565b60e08301525092915050565b600061405b3683613f15565b9050919050565b600080fd5b600080fd5b600080fd5b6000808335600160200384360303811261408e5761408d614062565b5b80840192508235915067ffffffffffffffff8211156140b0576140af614067565b5b6020830192506020820236038313156140cc576140cb61406c565b5b509250929050565b600080833560016020038436030381126140f1576140f0614062565b5b80840192508235915067ffffffffffffffff82111561411357614112614067565b5b60208301925060208202360383131561412f5761412e61406c565b5b509250929050565b600082825260208201905092915050565b6000819050919050565b61415b816135f3565b82525050565b600061416d8383614152565b60208301905092915050565b6000614188602084018461361c565b905092915050565b6000602082019050919050565b60006141a98385614137565b93506141b482614148565b8060005b858110156141ed576141ca8284614179565b6141d48882614161565b97506141df83614190565b9250506001810190506141b8565b5085925050509392505050565b600082825260208201905092915050565b600080fd5b600061421c83856141fa565b93507f07ffffffffffffffffffffffffffffffffffffffffffffffffffffffffffffff83111561424f5761424e61420b565b5b6020830292506142608385846132e5565b82840190509392505050565b600060e0820190508181036000830152614287818d8f61419d565b9050614296602083018c613c96565b6142a3604083018b613c96565b6142b0606083018a613c96565b81810360808301526142c381888a614210565b905081810360a08301526142d8818688614210565b905081810360c08301526142ed818486614210565b90509c9b505050505050505050505050565b60008160601b9050919050565b6000614317826142ff565b9050919050565b60006143298261430c565b9050919050565b61434161433c826135f3565b61431e565b82525050565b6000819050919050565b61436261435d8261396d565b614347565b82525050565b60006143748286614330565b6014820191506143848285614351565b6020820191506143948284614351565b602082019150819050949350505050565b600080833560016020038436030381126143c2576143c1614062565b5b80840192508235915067ffffffffffffffff8211156143e4576143e3614067565b5b602083019250600182023603831315614400576143ff61406c565b5b509250929050565b60006020828403121561441e5761441d613170565b5b600061442c84828501613a6a565b91505092915050565b600081905092915050565b600061444c8385614435565b93506144598385846132e5565b82840190509392505050565b60008160e81b9050919050565b600061447d82614465565b9050919050565b61449561449082613a44565b614472565b82525050565b60006144a7828c614330565b6014820191506144b7828b614330565b6014820191506144c7828a614351565b6020820191506144d78289614351565b6020820191506144e8828789614440565b91506144f48286614330565b6014820191506145048285614484565b6003820191506145148284614351565b6020820191508190509a9950505050505050505050565b60006020820190506145406000830184613c96565b92915050565b600081519050919050565b600081905092915050565b60005b8381101561457a57808201518184015260208101905061455f565b83811115614589576000848401525b50505050565b600061459a82614546565b6145a48185614551565b93506145b481856020860161455c565b80840191505092915050565b60006145cc828461458f565b915081905092915050565b60008115159050919050565b6145ec816145d7565b81146145f757600080fd5b50565b600081519050614609816145e3565b92915050565b60006020828403121561462557614624613170565b5b6000614633848285016145fa565b91505092915050565b60008160e01b9050919050565b60006146548261463c565b9050919050565b61466c61466782613364565b614649565b82525050565b600061467e828d614330565b60148201915061468e828c614330565b60148201915061469e828b614330565b6014820191506146ae828a614351565b6020820191506146be8289614330565b6014820191506146ce8288614330565b6014820191506146de8287614351565b6020820191506146ee8286614351565b6020820191506146fe828561465b565b60048201915061470e8284614351565b6020820191508190509b9a5050505050505050505050565b7f4e487b7100000000000000000000000000000000000000000000000000000000600052602160045260246000fd5b7f636865636b417373657456657273696f6e497344656661756c743a20494e564160008201527f4c49445f544f4b454e5f56455253494f4e000000000000000000000000000000602082015250565b60006147b160318361365e565b91506147bc82614755565b604082019050919050565b600060208201905081810360008301526147e0816147a4565b9050919050565b6147f08161396d565b82525050565b600081519050919050565b600082825260208201905092915050565b600061481d826147f6565b6148278185614801565b935061483781856020860161455c565b61484081613228565b840191505092915050565b61485481613a44565b82525050565b6040820160008201516148706000850182614152565b506020820151614883602085018261484b565b50505050565b600060e0830160008301516148a16000860182614152565b5060208301516148b46020860182614152565b5060408301516148c760408601826147e7565b5060608301516148da60608601826147e7565b50608083015184820360808601526148f28282614812565b91505060a083015161490760a086018261485a565b508091505092915050565b61491b816145d7565b82525050565b600082825260208201905092915050565b50565b6000614942600083614921565b915061494d82614932565b600082019050919050565b600060808201905081810360008301526149728186614889565b90506149816020830185614912565b61498e6040830184614912565b818103606083015261499f81614935565b9050949350505050565b7f4e487b7100000000000000000000000000000000000000000000000000000000600052601160045260246000fd5b60006149e38261396d565b91506149ee8361396d565b9250817fffffffffffffffffffffffffffffffffffffffffffffffffffffffffffffffff0483118215151615614a2757614a266149a9565b5b828202905092915050565b7f72656465656d455243313135353a205a45524f5f414d4f554e54000000000000600082015250565b6000614a68601a8361365e565b9150614a7382614a32565b602082019050919050565b60006020820190508181036000830152614a9781614a5b565b9050919050565b6000614aa98261396d565b9150614ab48361396d565b925082821015614ac757614ac66149a9565b5b828203905092915050565b600060a082019050614ae76000830187613c96565b614af46020830186613c96565b614b016040830185613ca5565b614b0e6060830184613ca5565b8181036080830152614b1f81614935565b905095945050505050565b600081519050919050565b600081905092915050565b6000819050602082019050919050565b614b59816135f3565b82525050565b6000614b6b8383614b50565b60208301905092915050565b6000602082019050919050565b6000614b8f82614b2a565b614b998185614b35565b9350614ba483614b40565b8060005b83811015614bd5578151614bbc8882614b5f565b9750614bc783614b77565b925050600181019050614ba8565b5085935050505092915050565b600081519050919050565b600081905092915050565b6000819050602082019050919050565b614c118161396d565b82525050565b6000614c238383614c08565b60208301905092915050565b6000602082019050919050565b6000614c4782614be2565b614c518185614bed565b9350614c5c83614bf8565b8060005b83811015614c8d578151614c748882614c17565b9750614c7f83614c2f565b925050600181019050614c60565b5085935050505092915050565b6000614ca6828d614b84565b9150614cb2828c614330565b601482019150614cc2828b614330565b601482019150614cd2828a614c3c565b9150614cde8289614330565b601482019150614cee8288614330565b601482019150614cfe8287614c3c565b9150614d0a8286614351565b602082019150614d1a828561465b565b600482019150614d2a8284614c3c565b91508190509b9a5050505050505050505050565b7f4e487b7100000000000000000000000000000000000000000000000000000000600052603260045260246000fd5b7f72656465656d4552433131353542756e646c653a20494e56414c49445f50524960008201527f4345000000000000000000000000000000000000000000000000000000000000602082015250565b6000614dc960228361365e565b9150614dd482614d6d565b604082019050919050565b60006020820190508181036000830152614df881614dbc565b9050919050565b6000614e0a8261396d565b9150614e158361396d565b9250827fffffffffffffffffffffffffffffffffffffffffffffffffffffffffffffffff03821115614e4a57614e496149a9565b5b828201905092915050565b6000614e608261396d565b91507fffffffffffffffffffffffffffffffffffffffffffffffffffffffffffffffff821415614e9357614e926149a9565b5b600182019050919050565b7f19457468657265756d205369676e6564204d6573736167653a0a333200000000600082015250565b6000614ed4601c83614435565b9150614edf82614e9e565b601c82019050919050565b6000819050919050565b6000819050919050565b614f0f614f0a82614eea565b614ef4565b82525050565b6000614f2082614ec7565b9150614f2c8284614efe565b60208201915081905092915050565b7f45434453413a20696e76616c6964207369676e61747572650000000000000000600082015250565b6000614f7160188361365e565b9150614f7c82614f3b565b602082019050919050565b60006020820190508181036000830152614fa081614f64565b9050919050565b7f45434453413a20696e76616c6964207369676e6174757265206c656e67746800600082015250565b6000614fdd601f8361365e565b9150614fe882614fa7565b602082019050919050565b6000602082019050818103600083015261500c81614fd0565b9050919050565b7f45434453413a20696e76616c6964207369676e6174757265202773272076616c60008201527f7565000000000000000000000000000000000000000000000000000000000000602082015250565b600061506f60228361365e565b915061507a82615013565b604082019050919050565b6000602082019050818103600083015261509e81615062565b9050919050565b7f45434453413a20696e76616c6964207369676e6174757265202776272076616c60008201527f7565000000000000000000000000000000000000000000000000000000000000602082015250565b600061510160228361365e565b915061510c826150a5565b604082019050919050565b60006020820190508181036000830152615130816150f4565b9050919050565b600060408201905061514c6000830185613ca5565b6151596020830184613ca5565b9392505050565b60008151905061516f81613605565b92915050565b60008151905061518481613977565b92915050565b600080604083850312156151a1576151a0613170565b5b60006151af85828601615160565b92505060206151c085828601615175565b9150509250929050565b60006060820190506151df6000830186613c96565b6151ec6020830185613c96565b6151f96040830184613ca5565b949350505050565b7f4e487b7100000000000000000000000000000000000000000000000000000000600052601260045260246000fd5b600061523b8261396d565b91506152468361396d565b92508261525657615255615201565b5b828204905092915050565b60006040820190506152766000830185613c96565b6152836020830184613ca5565b9392505050565b600060408201905061529f6000830185613c96565b6152ac6020830184613c96565b9392505050565b6000602082840312156152c9576152c8613170565b5b60006152d784828501615175565b91505092915050565b7f657865637574655061796d656e743a20494e53554646494349454e545f414c4c60008201527f4f57414e43450000000000000000000000000000000000000000000000000000602082015250565b600061533c60268361365e565b9150615347826152e0565b604082019050919050565b6000602082019050818103600083015261536b8161532f565b9050919050565b6000819050919050565b6000819050919050565b60006153a161539c61539784615372565b61537c565b61396d565b9050919050565b6153b181615386565b82525050565b60006153c282614b2a565b6153cc8185614137565b93506153d783614b40565b8060005b838110156154085781516153ef8882614161565b97506153fa83614b77565b9250506001810190506153db565b5085935050505092915050565b600060a08201905061542a6000830188613ca5565b61543760208301876153a8565b818103604083015261544981866153b7565b90506154586060830185613c96565b6154656080830184613ca5565b9695505050505050565b600061548261547d84613e52565b613299565b905080838252602082019050602084028301858111156154a5576154a46131c8565b5b835b818110156154ce57806154ba8882615175565b8452602084019350506020810190506154a7565b5050509392505050565b600082601f8301126154ed576154ec6131be565b5b81516154fd84826020860161546f565b91505092915050565b60006020828403121561551c5761551b613170565b5b600082015167ffffffffffffffff81111561553a57615539613175565b5b615546848285016154d8565b91505092915050565b61555881614eea565b82525050565b600060ff82169050919050565b6155748161555e565b82525050565b600060808201905061558f600083018761554f565b61559c602083018661556b565b6155a9604083018561554f565b6155b6606083018461554f565b95945050505050565b60007fffffffff0000000000000000000000000000000000000000000000000000000082169050919050565b6155f4816155bf565b82525050565b600060208201905061560f60008301846155eb565b92915050565b7f5361666545524332303a204552433230206f7065726174696f6e20646964206e60008201527f6f74207375636365656400000000000000000000000000000000000000000000602082015250565b6000615671602a8361365e565b915061567c82615615565b604082019050919050565b600060208201905081810360008301526156a081615664565b9050919050565b7f416464726573733a20696e73756666696369656e742062616c616e636520666f60008201527f722063616c6c0000000000000000000000000000000000000000000000000000602082015250565b600061570360268361365e565b915061570e826156a7565b604082019050919050565b60006020820190508181036000830152615732816156f6565b9050919050565b7f416464726573733a2063616c6c20746f206e6f6e2d636f6e7472616374000000600082015250565b600061576f601d8361365e565b915061577a82615739565b602082019050919050565b6000602082019050818103600083015261579e81615762565b9050919050565b60006157b0826147f6565b6157ba818561365e565b93506157ca81856020860161455c565b6157d381613228565b840191505092915050565b600060208201905081810360008301526157f881846157a5565b90509291505056fea2646970667358221220d5298d9aea062b378555aafaccdb143df00a9a1ce71edf24b01b53d7513f9ca764736f6c63430008090033",
  "linkReferences": {},
  "deployedLinkReferences": {}
}