{
  "_format": "hh-sol-artifact-1",
  "contractName": "ERC1155MintFacet",
  "sourceName": "contracts/marketplace/facets/ERC1155MintFacet.sol",
  "abi": [
    {
      "anonymous": false,
      "inputs": [
        {
          "indexed": false,
          "internalType": "address",
          "name": "paymentToken",
          "type": "address"
        },
        {
          "indexed": true,
          "internalType": "address",
          "name": "buyer",
          "type": "address"
        },
        {
          "indexed": true,
          "internalType": "address",
          "name": "receiver",
          "type": "address"
        },
        {
          "indexed": false,
          "internalType": "uint256",
          "name": "value",
          "type": "uint256"
        }
      ],
      "name": "ComissionPayed",
      "type": "event"
    },
    {
      "anonymous": false,
      "inputs": [
        {
          "indexed": true,
          "internalType": "address",
          "name": "token",
          "type": "address"
        },
        {
          "indexed": false,
          "internalType": "address",
          "name": "paymentToken",
          "type": "address"
        },
        {
          "indexed": false,
          "internalType": "address",
          "name": "buyer",
          "type": "address"
        },
        {
          "indexed": true,
          "internalType": "address",
          "name": "receiver",
          "type": "address"
        },
        {
          "indexed": true,
          "internalType": "uint256",
          "name": "tokenId",
          "type": "uint256"
        },
        {
          "indexed": false,
          "internalType": "uint256",
          "name": "value",
          "type": "uint256"
        }
      ],
      "name": "RoyaltyPayed",
      "type": "event"
    },
    {
      "inputs": [
        {
          "components": [
            {
              "internalType": "address",
              "name": "token",
              "type": "address"
            },
            {
              "internalType": "address",
              "name": "to",
              "type": "address"
            },
            {
              "internalType": "uint256",
              "name": "id",
              "type": "uint256"
            },
            {
              "internalType": "uint256",
              "name": "amount",
              "type": "uint256"
            },
            {
              "internalType": "string",
              "name": "uri",
              "type": "string"
            },
            {
              "components": [
                {
                  "internalType": "address",
                  "name": "recipient",
                  "type": "address"
                },
                {
                  "internalType": "uint24",
                  "name": "amount",
                  "type": "uint24"
                }
              ],
              "internalType": "struct ERC2981Base.RoyaltyInfo",
              "name": "royalty",
              "type": "tuple"
            }
          ],
          "internalType": "struct MintERC1155Order",
          "name": "order",
          "type": "tuple"
        },
        {
          "internalType": "bytes",
          "name": "marketSignature",
          "type": "bytes"
        }
      ],
      "name": "ERC1155Mint",
      "outputs": [],
      "stateMutability": "nonpayable",
      "type": "function"
    },
    {
      "inputs": [
        {
          "components": [
            {
              "internalType": "address",
              "name": "token",
              "type": "address"
            },
            {
              "internalType": "address",
              "name": "to",
              "type": "address"
            },
            {
              "internalType": "uint256[]",
              "name": "ids",
              "type": "uint256[]"
            },
            {
              "internalType": "uint256[]",
              "name": "amounts",
              "type": "uint256[]"
            },
            {
              "internalType": "string[]",
              "name": "uris",
              "type": "string[]"
            },
            {
              "components": [
                {
                  "internalType": "address",
                  "name": "recipient",
                  "type": "address"
                },
                {
                  "internalType": "uint24",
                  "name": "amount",
                  "type": "uint24"
                }
              ],
              "internalType": "struct ERC2981Base.RoyaltyInfo",
              "name": "royalty",
              "type": "tuple"
            }
          ],
          "internalType": "struct MintERC1155BatchOrder",
          "name": "order",
          "type": "tuple"
        },
        {
          "internalType": "bytes",
          "name": "marketSignature",
          "type": "bytes"
        }
      ],
      "name": "ERC1155MintBatch",
      "outputs": [],
      "stateMutability": "nonpayable",
      "type": "function"
    }
  ],
  "bytecode": "0x608060405234801561001057600080fd5b50611da9806100206000396000f3fe608060405234801561001057600080fd5b50600436106100365760003560e01c80632efc704e1461003b578063fe7a9ca014610057575b600080fd5b61005560048036038101906100509190610bfe565b610073565b005b610071600480360381019061006c9190610c99565b61027f565b005b61007b610449565b73ffffffffffffffffffffffffffffffffffffffff168360200160208101906100a49190610d73565b73ffffffffffffffffffffffffffffffffffffffff16146100fa576040517f08c379a00000000000000000000000000000000000000000000000000000000081526004016100f190610dfd565b60405180910390fd5b600060050160000160006101bc61017286600001602081019061011d9190610d73565b87806040019061012d9190610e2c565b80806020026020016040519081016040528093929190818152602001838360200280828437600081840152601f19601f82011690508083019250505050505050610451565b85858080601f016020809104026020016040519081016040528093929190818152602001838380828437600081840152601f19601f8201169050808301925050505050505061048e565b73ffffffffffffffffffffffffffffffffffffffff1673ffffffffffffffffffffffffffffffffffffffff16815260200190815260200160002060009054906101000a900460ff16610243576040517f08c379a000000000000000000000000000000000000000000000000000000000815260040161023a90610edb565b60405180910390fd5b600061026084600001602081019061025b9190610d73565b6104b5565b905061026d600182610522565b610279848260006105e2565b50505050565b610287610449565b73ffffffffffffffffffffffffffffffffffffffff168360200160208101906102b09190610d73565b73ffffffffffffffffffffffffffffffffffffffff1614610306576040517f08c379a00000000000000000000000000000000000000000000000000000000081526004016102fd90610dfd565b60405180910390fd5b6000600501600001600061037d6103338660000160208101906103299190610d73565b8760400135610696565b85858080601f016020809104026020016040519081016040528093929190818152602001838380828437600081840152601f19601f8201169050808301925050505050505061048e565b73ffffffffffffffffffffffffffffffffffffffff1673ffffffffffffffffffffffffffffffffffffffff16815260200190815260200160002060009054906101000a900460ff16610404576040517f08c379a00000000000000000000000000000000000000000000000000000000081526004016103fb90610edb565b60405180910390fd5b600061042184600001602081019061041c9190610d73565b6104b5565b905061042e600182610522565b6104438461043b906111c3565b8260006106d3565b50505050565b600033905090565b600061048683834660405160200161046b939291906112f7565b60405160208183030381529060405280519060200120610779565b905092915050565b600080600061049d85856107a9565b915091506104aa8161082c565b819250505092915050565b6000806104c0610a01565b905060008160050160050160008573ffffffffffffffffffffffffffffffffffffffff1673ffffffffffffffffffffffffffffffffffffffff16815260200190815260200160002060009054906101000a900460ff1690508092505050919050565b600061052c610a01565b905080600501600301600084600181111561054a57610549611330565b5b600181111561055c5761055b611330565b5b815260200190815260200160002060009054906101000a900460ff16600181111561058a57610589611330565b5b82600181111561059d5761059c611330565b5b146105dd576040517f08c379a00000000000000000000000000000000000000000000000000000000081526004016105d4906113d1565b60405180910390fd5b505050565b6001808111156105f5576105f4611330565b5b82600181111561060857610607611330565b5b1415610691578260000160208101906106219190610d73565b73ffffffffffffffffffffffffffffffffffffffff16634b43fdd1848360006040518463ffffffff1660e01b815260040161065e93929190611842565b600060405180830381600087803b15801561067857600080fd5b505af115801561068c573d6000803e3d6000fd5b505050505b505050565b60006106cb8383466040516020016106b093929190611893565b60405160208183030381529060405280519060200120610779565b905092915050565b6001808111156106e6576106e5611330565b5b8260018111156106f9576106f8611330565b5b141561077457826000015173ffffffffffffffffffffffffffffffffffffffff1663b841bb89848360006040518463ffffffff1660e01b815260040161074193929190611a0e565b600060405180830381600087803b15801561075b57600080fd5b505af115801561076f573d6000803e3d6000fd5b505050505b505050565b60008160405160200161078c9190611ae1565b604051602081830303815290604052805190602001209050919050565b6000806041835114156107eb5760008060006020860151925060408601519150606086015160001a90506107df87828585610a06565b94509450505050610825565b60408351141561081c576000806020850151915060408501519050610811868383610b13565b935093505050610825565b60006002915091505b9250929050565b600060048111156108405761083f611330565b5b81600481111561085357610852611330565b5b141561085e576109fe565b6001600481111561087257610871611330565b5b81600481111561088557610884611330565b5b14156108c6576040517f08c379a00000000000000000000000000000000000000000000000000000000081526004016108bd90611b53565b60405180910390fd5b600260048111156108da576108d9611330565b5b8160048111156108ed576108ec611330565b5b141561092e576040517f08c379a000000000000000000000000000000000000000000000000000000000815260040161092590611bbf565b60405180910390fd5b6003600481111561094257610941611330565b5b81600481111561095557610954611330565b5b1415610996576040517f08c379a000000000000000000000000000000000000000000000000000000000815260040161098d90611c51565b60405180910390fd5b6004808111156109a9576109a8611330565b5b8160048111156109bc576109bb611330565b5b14156109fd576040517f08c379a00000000000000000000000000000000000000000000000000000000081526004016109f490611ce3565b60405180910390fd5b5b50565b600090565b6000807f7fffffffffffffffffffffffffffffff5d576e7357a4501ddfe92f46681b20a08360001c1115610a41576000600391509150610b0a565b601b8560ff1614158015610a595750601c8560ff1614155b15610a6b576000600491509150610b0a565b600060018787878760405160008152602001604052604051610a909493929190611d2e565b6020604051602081039080840390855afa158015610ab2573d6000803e3d6000fd5b505050602060405103519050600073ffffffffffffffffffffffffffffffffffffffff168173ffffffffffffffffffffffffffffffffffffffff161415610b0157600060019250925050610b0a565b80600092509250505b94509492505050565b6000806000807f7fffffffffffffffffffffffffffffffffffffffffffffffffffffffffffffff85169150601b8560ff1c019050610b5387828885610a06565b935093505050935093915050565b6000604051905090565b600080fd5b600080fd5b600080fd5b600060e08284031215610b9057610b8f610b75565b5b81905092915050565b600080fd5b600080fd5b600080fd5b60008083601f840112610bbe57610bbd610b99565b5b8235905067ffffffffffffffff811115610bdb57610bda610b9e565b5b602083019150836001820283011115610bf757610bf6610ba3565b5b9250929050565b600080600060408486031215610c1757610c16610b6b565b5b600084013567ffffffffffffffff811115610c3557610c34610b70565b5b610c4186828701610b7a565b935050602084013567ffffffffffffffff811115610c6257610c61610b70565b5b610c6e86828701610ba8565b92509250509250925092565b600060e08284031215610c9057610c8f610b75565b5b81905092915050565b600080600060408486031215610cb257610cb1610b6b565b5b600084013567ffffffffffffffff811115610cd057610ccf610b70565b5b610cdc86828701610c7a565b935050602084013567ffffffffffffffff811115610cfd57610cfc610b70565b5b610d0986828701610ba8565b92509250509250925092565b600073ffffffffffffffffffffffffffffffffffffffff82169050919050565b6000610d4082610d15565b9050919050565b610d5081610d35565b8114610d5b57600080fd5b50565b600081359050610d6d81610d47565b92915050565b600060208284031215610d8957610d88610b6b565b5b6000610d9784828501610d5e565b91505092915050565b600082825260208201905092915050565b7f31313535463a204e4f545f414c4c4f5745440000000000000000000000000000600082015250565b6000610de7601283610da0565b9150610df282610db1565b602082019050919050565b60006020820190508181036000830152610e1681610dda565b9050919050565b600080fd5b600080fd5b600080fd5b60008083356001602003843603038112610e4957610e48610e1d565b5b80840192508235915067ffffffffffffffff821115610e6b57610e6a610e22565b5b602083019250602082023603831315610e8757610e86610e27565b5b509250929050565b7f31313535463a20494e56414c49445f4d41524b45545f5349474e415455524500600082015250565b6000610ec5601f83610da0565b9150610ed082610e8f565b602082019050919050565b60006020820190508181036000830152610ef481610eb8565b9050919050565b600080fd5b6000601f19601f8301169050919050565b7f4e487b7100000000000000000000000000000000000000000000000000000000600052604160045260246000fd5b610f4982610f00565b810181811067ffffffffffffffff82111715610f6857610f67610f11565b5b80604052505050565b6000610f7b610b61565b9050610f878282610f40565b919050565b600080fd5b6000819050919050565b610fa481610f91565b8114610faf57600080fd5b50565b600081359050610fc181610f9b565b92915050565b600080fd5b600067ffffffffffffffff821115610fe757610fe6610f11565b5b610ff082610f00565b9050602081019050919050565b82818337600083830152505050565b600061101f61101a84610fcc565b610f71565b90508281526020810184848401111561103b5761103a610fc7565b5b611046848285610ffd565b509392505050565b600082601f83011261106357611062610b99565b5b813561107384826020860161100c565b91505092915050565b600062ffffff82169050919050565b6110948161107c565b811461109f57600080fd5b50565b6000813590506110b18161108b565b92915050565b6000604082840312156110cd576110cc610efb565b5b6110d76040610f71565b905060006110e784828501610d5e565b60008301525060206110fb848285016110a2565b60208301525092915050565b600060e0828403121561111d5761111c610efb565b5b61112760c0610f71565b9050600061113784828501610d5e565b600083015250602061114b84828501610d5e565b602083015250604061115f84828501610fb2565b604083015250606061117384828501610fb2565b606083015250608082013567ffffffffffffffff81111561119757611196610f8c565b5b6111a38482850161104e565b60808301525060a06111b7848285016110b7565b60a08301525092915050565b60006111cf3683611107565b9050919050565b60008160601b9050919050565b60006111ee826111d6565b9050919050565b6000611200826111e3565b9050919050565b61121861121382610d35565b6111f5565b82525050565b600081519050919050565b600081905092915050565b6000819050602082019050919050565b61124d81610f91565b82525050565b600061125f8383611244565b60208301905092915050565b6000602082019050919050565b60006112838261121e565b61128d8185611229565b935061129883611234565b8060005b838110156112c95781516112b08882611253565b97506112bb8361126b565b92505060018101905061129c565b5085935050505092915050565b6000819050919050565b6112f16112ec82610f91565b6112d6565b82525050565b60006113038286611207565b6014820191506113138285611278565b915061131f82846112e0565b602082019150819050949350505050565b7f4e487b7100000000000000000000000000000000000000000000000000000000600052602160045260246000fd5b7f636865636b417373657456657273696f6e497344656661756c743a20494e564160008201527f4c49445f544f4b454e5f56455253494f4e000000000000000000000000000000602082015250565b60006113bb603183610da0565b91506113c68261135f565b604082019050919050565b600060208201905081810360008301526113ea816113ae565b9050919050565b60006114006020840184610d5e565b905092915050565b61141181610d35565b82525050565b600080fd5b600080fd5b600080fd5b6000808335600160200384360303811261144357611442611421565b5b83810192508235915060208301925067ffffffffffffffff82111561146b5761146a611417565b5b6020820236038413156114815761148061141c565b5b509250929050565b600082825260208201905092915050565b600080fd5b60006114ab8385611489565b93507f07ffffffffffffffffffffffffffffffffffffffffffffffffffffffffffffff8311156114de576114dd61149a565b5b6020830292506114ef838584610ffd565b82840190509392505050565b6000808335600160200384360303811261151857611517611421565b5b83810192508235915060208301925067ffffffffffffffff8211156115405761153f611417565b5b6020820236038413156115565761155561141c565b5b509250929050565b600082825260208201905092915050565b6000819050919050565b600082825260208201905092915050565b60006115968385611579565b93506115a3838584610ffd565b6115ac83610f00565b840190509392505050565b60006115c484848461158a565b90509392505050565b600080833560016020038436030381126115ea576115e9611421565b5b83810192508235915060208301925067ffffffffffffffff82111561161257611611611417565b5b6001820236038413156116285761162761141c565b5b509250929050565b6000602082019050919050565b6000611649838561155e565b93508360208402850161165b8461156f565b8060005b878110156116a157848403895261167682846115cd565b6116818682846115b7565b955061168c84611630565b935060208b019a50505060018101905061165f565b50829750879450505050509392505050565b600082905092915050565b60006116cd60208401846110a2565b905092915050565b6116de8161107c565b82525050565b604082016116f560008301836113f1565b6117026000850182611408565b5061171060208301836116be565b61171d60208501826116d5565b50505050565b600060e0830161173660008401846113f1565b6117436000860182611408565b5061175160208401846113f1565b61175e6020860182611408565b5061176c6040840184611426565b858303604087015261177f83828461149f565b925050506117906060840184611426565b85830360608701526117a383828461149f565b925050506117b460808401846114fb565b85830360808701526117c783828461163d565b925050506117d860a08401846116b3565b6117e560a08601826116e4565b508091505092915050565b60008115159050919050565b611805816117f0565b82525050565b600082825260208201905092915050565b50565b600061182c60008361180b565b91506118378261181c565b600082019050919050565b6000608082019050818103600083015261185c8186611723565b905061186b60208301856117fc565b61187860408301846117fc565b81810360608301526118898161181f565b9050949350505050565b600061189f8286611207565b6014820191506118af82856112e0565b6020820191506118bf82846112e0565b602082019150819050949350505050565b6118d981610f91565b82525050565b600081519050919050565b60005b838110156119085780820151818401526020810190506118ed565b83811115611917576000848401525b50505050565b6000611928826118df565b6119328185611579565b93506119428185602086016118ea565b61194b81610f00565b840191505092915050565b60408201600082015161196c6000850182611408565b50602082015161197f60208501826116d5565b50505050565b600060e08301600083015161199d6000860182611408565b5060208301516119b06020860182611408565b5060408301516119c360408601826118d0565b5060608301516119d660608601826118d0565b50608083015184820360808601526119ee828261191d565b91505060a0830151611a0360a0860182611956565b508091505092915050565b60006080820190508181036000830152611a288186611985565b9050611a3760208301856117fc565b611a4460408301846117fc565b8181036060830152611a558161181f565b9050949350505050565b600081905092915050565b7f19457468657265756d205369676e6564204d6573736167653a0a333200000000600082015250565b6000611aa0601c83611a5f565b9150611aab82611a6a565b601c82019050919050565b6000819050919050565b6000819050919050565b611adb611ad682611ab6565b611ac0565b82525050565b6000611aec82611a93565b9150611af88284611aca565b60208201915081905092915050565b7f45434453413a20696e76616c6964207369676e61747572650000000000000000600082015250565b6000611b3d601883610da0565b9150611b4882611b07565b602082019050919050565b60006020820190508181036000830152611b6c81611b30565b9050919050565b7f45434453413a20696e76616c6964207369676e6174757265206c656e67746800600082015250565b6000611ba9601f83610da0565b9150611bb482611b73565b602082019050919050565b60006020820190508181036000830152611bd881611b9c565b9050919050565b7f45434453413a20696e76616c6964207369676e6174757265202773272076616c60008201527f7565000000000000000000000000000000000000000000000000000000000000602082015250565b6000611c3b602283610da0565b9150611c4682611bdf565b604082019050919050565b60006020820190508181036000830152611c6a81611c2e565b9050919050565b7f45434453413a20696e76616c6964207369676e6174757265202776272076616c60008201527f7565000000000000000000000000000000000000000000000000000000000000602082015250565b6000611ccd602283610da0565b9150611cd882611c71565b604082019050919050565b60006020820190508181036000830152611cfc81611cc0565b9050919050565b611d0c81611ab6565b82525050565b600060ff82169050919050565b611d2881611d12565b82525050565b6000608082019050611d436000830187611d03565b611d506020830186611d1f565b611d5d6040830185611d03565b611d6a6060830184611d03565b9594505050505056fea2646970667358221220765e0aec1a5431d6502fbb8e74be3a838b5f61088f95b08feb659e3c9a117d6f64736f6c63430008090033",
  "linkReferences": {},
  "deployedLinkReferences": {}
}