{
  "_format": "hh-sol-artifact-1",
  "contractName": "ERC721MintFacet",
  "sourceName": "contracts/marketplace/facets/ERC721MintFacet.sol",
  "abi": [
    {
      "anonymous": false,
      "inputs": [
        {
          "indexed": false,
          "internalType": "address",
          "name": "paymentToken",
          "type": "address"
        },
        {
          "indexed": true,
          "internalType": "address",
          "name": "buyer",
          "type": "address"
        },
        {
          "indexed": true,
          "internalType": "address",
          "name": "receiver",
          "type": "address"
        },
        {
          "indexed": false,
          "internalType": "uint256",
          "name": "value",
          "type": "uint256"
        }
      ],
      "name": "ComissionPayed",
      "type": "event"
    },
    {
      "anonymous": false,
      "inputs": [
        {
          "indexed": true,
          "internalType": "address",
          "name": "token",
          "type": "address"
        },
        {
          "indexed": false,
          "internalType": "address",
          "name": "paymentToken",
          "type": "address"
        },
        {
          "indexed": false,
          "internalType": "address",
          "name": "buyer",
          "type": "address"
        },
        {
          "indexed": true,
          "internalType": "address",
          "name": "receiver",
          "type": "address"
        },
        {
          "indexed": true,
          "internalType": "uint256",
          "name": "tokenId",
          "type": "uint256"
        },
        {
          "indexed": false,
          "internalType": "uint256",
          "name": "value",
          "type": "uint256"
        }
      ],
      "name": "RoyaltyPayed",
      "type": "event"
    },
    {
      "inputs": [
        {
          "components": [
            {
              "internalType": "address",
              "name": "token",
              "type": "address"
            },
            {
              "internalType": "address",
              "name": "to",
              "type": "address"
            },
            {
              "internalType": "uint256",
              "name": "id",
              "type": "uint256"
            },
            {
              "internalType": "string",
              "name": "uri",
              "type": "string"
            },
            {
              "components": [
                {
                  "internalType": "address",
                  "name": "recipient",
                  "type": "address"
                },
                {
                  "internalType": "uint24",
                  "name": "amount",
                  "type": "uint24"
                }
              ],
              "internalType": "struct ERC2981Base.RoyaltyInfo",
              "name": "royalty",
              "type": "tuple"
            }
          ],
          "internalType": "struct MintERC721Order",
          "name": "order",
          "type": "tuple"
        },
        {
          "internalType": "bytes",
          "name": "marketSignature",
          "type": "bytes"
        }
      ],
      "name": "ERC721Mint",
      "outputs": [],
      "stateMutability": "nonpayable",
      "type": "function"
    },
    {
      "inputs": [
        {
          "components": [
            {
              "internalType": "address",
              "name": "token",
              "type": "address"
            },
            {
              "internalType": "address",
              "name": "to",
              "type": "address"
            },
            {
              "internalType": "uint256[]",
              "name": "ids",
              "type": "uint256[]"
            },
            {
              "internalType": "string[]",
              "name": "uris",
              "type": "string[]"
            },
            {
              "components": [
                {
                  "internalType": "address",
                  "name": "recipient",
                  "type": "address"
                },
                {
                  "internalType": "uint24",
                  "name": "amount",
                  "type": "uint24"
                }
              ],
              "internalType": "struct ERC2981Base.RoyaltyInfo",
              "name": "royalty",
              "type": "tuple"
            }
          ],
          "internalType": "struct MintERC721BatchOrder",
          "name": "order",
          "type": "tuple"
        },
        {
          "internalType": "bytes",
          "name": "marketSignature",
          "type": "bytes"
        }
      ],
      "name": "ERC721MintBatch",
      "outputs": [],
      "stateMutability": "nonpayable",
      "type": "function"
    }
  ],
  "bytecode": "0x608060405234801561001057600080fd5b50611df0806100206000396000f3fe608060405234801561001057600080fd5b50600436106100365760003560e01c80631180f9501461003b57806335cd4d5514610057575b600080fd5b61005560048036038101906100509190610bfe565b610073565b005b610071600480360381019061006c9190610c99565b61027f565b005b61007b610449565b73ffffffffffffffffffffffffffffffffffffffff168360200160208101906100a49190610d73565b73ffffffffffffffffffffffffffffffffffffffff16146100fa576040517f08c379a00000000000000000000000000000000000000000000000000000000081526004016100f190610dfd565b60405180910390fd5b600060050160000160006101bc61017286600001602081019061011d9190610d73565b87806040019061012d9190610e2c565b80806020026020016040519081016040528093929190818152602001838360200280828437600081840152601f19601f82011690508083019250505050505050610451565b85858080601f016020809104026020016040519081016040528093929190818152602001838380828437600081840152601f19601f8201169050808301925050505050505061048e565b73ffffffffffffffffffffffffffffffffffffffff1673ffffffffffffffffffffffffffffffffffffffff16815260200190815260200160002060009054906101000a900460ff16610243576040517f08c379a000000000000000000000000000000000000000000000000000000000815260040161023a90610f01565b60405180910390fd5b600061026084600001602081019061025b9190610d73565b6104b5565b905061026d600082610522565b610279848260006105e2565b50505050565b610287610449565b73ffffffffffffffffffffffffffffffffffffffff168360200160208101906102b09190610d73565b73ffffffffffffffffffffffffffffffffffffffff1614610306576040517f08c379a00000000000000000000000000000000000000000000000000000000081526004016102fd90610f6d565b60405180910390fd5b6000600501600001600061037d6103338660000160208101906103299190610d73565b8760400135610696565b85858080601f016020809104026020016040519081016040528093929190818152602001838380828437600081840152601f19601f8201169050808301925050505050505061048e565b73ffffffffffffffffffffffffffffffffffffffff1673ffffffffffffffffffffffffffffffffffffffff16815260200190815260200160002060009054906101000a900460ff16610404576040517f08c379a00000000000000000000000000000000000000000000000000000000081526004016103fb90610f01565b60405180910390fd5b600061042184600001602081019061041c9190610d73565b6104b5565b905061042e600082610522565b6104438461043b90611241565b8260006106d3565b50505050565b600033905090565b600061048683834660405160200161046b93929190611375565b60405160208183030381529060405280519060200120610779565b905092915050565b600080600061049d85856107a9565b915091506104aa8161082c565b819250505092915050565b6000806104c0610a01565b905060008160050160050160008573ffffffffffffffffffffffffffffffffffffffff1673ffffffffffffffffffffffffffffffffffffffff16815260200190815260200160002060009054906101000a900460ff1690508092505050919050565b600061052c610a01565b905080600501600301600084600181111561054a576105496113ae565b5b600181111561055c5761055b6113ae565b5b815260200190815260200160002060009054906101000a900460ff16600181111561058a576105896113ae565b5b82600181111561059d5761059c6113ae565b5b146105dd576040517f08c379a00000000000000000000000000000000000000000000000000000000081526004016105d49061144f565b60405180910390fd5b505050565b6001808111156105f5576105f46113ae565b5b826001811115610608576106076113ae565b5b1415610691578260000160208101906106219190610d73565b73ffffffffffffffffffffffffffffffffffffffff1663b2dd49ca848360006040518463ffffffff1660e01b815260040161065e9392919061189c565b600060405180830381600087803b15801561067857600080fd5b505af115801561068c573d6000803e3d6000fd5b505050505b505050565b60006106cb8383466040516020016106b0939291906118ed565b60405160208183030381529060405280519060200120610779565b905092915050565b6001808111156106e6576106e56113ae565b5b8260018111156106f9576106f86113ae565b5b141561077457826000015173ffffffffffffffffffffffffffffffffffffffff1663dece1b10848360006040518463ffffffff1660e01b815260040161074193929190611a55565b600060405180830381600087803b15801561075b57600080fd5b505af115801561076f573d6000803e3d6000fd5b505050505b505050565b60008160405160200161078c9190611b28565b604051602081830303815290604052805190602001209050919050565b6000806041835114156107eb5760008060006020860151925060408601519150606086015160001a90506107df87828585610a06565b94509450505050610825565b60408351141561081c576000806020850151915060408501519050610811868383610b13565b935093505050610825565b60006002915091505b9250929050565b600060048111156108405761083f6113ae565b5b816004811115610853576108526113ae565b5b141561085e576109fe565b60016004811115610872576108716113ae565b5b816004811115610885576108846113ae565b5b14156108c6576040517f08c379a00000000000000000000000000000000000000000000000000000000081526004016108bd90611b9a565b60405180910390fd5b600260048111156108da576108d96113ae565b5b8160048111156108ed576108ec6113ae565b5b141561092e576040517f08c379a000000000000000000000000000000000000000000000000000000000815260040161092590611c06565b60405180910390fd5b60036004811115610942576109416113ae565b5b816004811115610955576109546113ae565b5b1415610996576040517f08c379a000000000000000000000000000000000000000000000000000000000815260040161098d90611c98565b60405180910390fd5b6004808111156109a9576109a86113ae565b5b8160048111156109bc576109bb6113ae565b5b14156109fd576040517f08c379a00000000000000000000000000000000000000000000000000000000081526004016109f490611d2a565b60405180910390fd5b5b50565b600090565b6000807f7fffffffffffffffffffffffffffffff5d576e7357a4501ddfe92f46681b20a08360001c1115610a41576000600391509150610b0a565b601b8560ff1614158015610a595750601c8560ff1614155b15610a6b576000600491509150610b0a565b600060018787878760405160008152602001604052604051610a909493929190611d75565b6020604051602081039080840390855afa158015610ab2573d6000803e3d6000fd5b505050602060405103519050600073ffffffffffffffffffffffffffffffffffffffff168173ffffffffffffffffffffffffffffffffffffffff161415610b0157600060019250925050610b0a565b80600092509250505b94509492505050565b6000806000807f7fffffffffffffffffffffffffffffffffffffffffffffffffffffffffffffff85169150601b8560ff1c019050610b5387828885610a06565b935093505050935093915050565b6000604051905090565b600080fd5b600080fd5b600080fd5b600060c08284031215610b9057610b8f610b75565b5b81905092915050565b600080fd5b600080fd5b600080fd5b60008083601f840112610bbe57610bbd610b99565b5b8235905067ffffffffffffffff811115610bdb57610bda610b9e565b5b602083019150836001820283011115610bf757610bf6610ba3565b5b9250929050565b600080600060408486031215610c1757610c16610b6b565b5b600084013567ffffffffffffffff811115610c3557610c34610b70565b5b610c4186828701610b7a565b935050602084013567ffffffffffffffff811115610c6257610c61610b70565b5b610c6e86828701610ba8565b92509250509250925092565b600060c08284031215610c9057610c8f610b75565b5b81905092915050565b600080600060408486031215610cb257610cb1610b6b565b5b600084013567ffffffffffffffff811115610cd057610ccf610b70565b5b610cdc86828701610c7a565b935050602084013567ffffffffffffffff811115610cfd57610cfc610b70565b5b610d0986828701610ba8565b92509250509250925092565b600073ffffffffffffffffffffffffffffffffffffffff82169050919050565b6000610d4082610d15565b9050919050565b610d5081610d35565b8114610d5b57600080fd5b50565b600081359050610d6d81610d47565b92915050565b600060208284031215610d8957610d88610b6b565b5b6000610d9784828501610d5e565b91505092915050565b600082825260208201905092915050565b7f455243373231463a204e4f545f414c4c4f574544000000000000000000000000600082015250565b6000610de7601483610da0565b9150610df282610db1565b602082019050919050565b60006020820190508181036000830152610e1681610dda565b9050919050565b600080fd5b600080fd5b600080fd5b60008083356001602003843603038112610e4957610e48610e1d565b5b80840192508235915067ffffffffffffffff821115610e6b57610e6a610e22565b5b602083019250602082023603831315610e8757610e86610e27565b5b509250929050565b7f61756374696f6e5265736f6c76653a20494e56414c49445f4d41524b45545f5360008201527f49474e4154555245000000000000000000000000000000000000000000000000602082015250565b6000610eeb602883610da0565b9150610ef682610e8f565b604082019050919050565b60006020820190508181036000830152610f1a81610ede565b9050919050565b7f4552433732314d696e743a204e4f545f414c4c4f574544000000000000000000600082015250565b6000610f57601783610da0565b9150610f6282610f21565b602082019050919050565b60006020820190508181036000830152610f8681610f4a565b9050919050565b600080fd5b6000601f19601f8301169050919050565b7f4e487b7100000000000000000000000000000000000000000000000000000000600052604160045260246000fd5b610fdb82610f92565b810181811067ffffffffffffffff82111715610ffa57610ff9610fa3565b5b80604052505050565b600061100d610b61565b90506110198282610fd2565b919050565b600080fd5b6000819050919050565b61103681611023565b811461104157600080fd5b50565b6000813590506110538161102d565b92915050565b600080fd5b600067ffffffffffffffff82111561107957611078610fa3565b5b61108282610f92565b9050602081019050919050565b82818337600083830152505050565b60006110b16110ac8461105e565b611003565b9050828152602081018484840111156110cd576110cc611059565b5b6110d884828561108f565b509392505050565b600082601f8301126110f5576110f4610b99565b5b813561110584826020860161109e565b91505092915050565b600062ffffff82169050919050565b6111268161110e565b811461113157600080fd5b50565b6000813590506111438161111d565b92915050565b60006040828403121561115f5761115e610f8d565b5b6111696040611003565b9050600061117984828501610d5e565b600083015250602061118d84828501611134565b60208301525092915050565b600060c082840312156111af576111ae610f8d565b5b6111b960a0611003565b905060006111c984828501610d5e565b60008301525060206111dd84828501610d5e565b60208301525060406111f184828501611044565b604083015250606082013567ffffffffffffffff8111156112155761121461101e565b5b611221848285016110e0565b606083015250608061123584828501611149565b60808301525092915050565b600061124d3683611199565b9050919050565b60008160601b9050919050565b600061126c82611254565b9050919050565b600061127e82611261565b9050919050565b61129661129182610d35565b611273565b82525050565b600081519050919050565b600081905092915050565b6000819050602082019050919050565b6112cb81611023565b82525050565b60006112dd83836112c2565b60208301905092915050565b6000602082019050919050565b60006113018261129c565b61130b81856112a7565b9350611316836112b2565b8060005b8381101561134757815161132e88826112d1565b9750611339836112e9565b92505060018101905061131a565b5085935050505092915050565b6000819050919050565b61136f61136a82611023565b611354565b82525050565b60006113818286611285565b60148201915061139182856112f6565b915061139d828461135e565b602082019150819050949350505050565b7f4e487b7100000000000000000000000000000000000000000000000000000000600052602160045260246000fd5b7f636865636b417373657456657273696f6e497344656661756c743a20494e564160008201527f4c49445f544f4b454e5f56455253494f4e000000000000000000000000000000602082015250565b6000611439603183610da0565b9150611444826113dd565b604082019050919050565b600060208201905081810360008301526114688161142c565b9050919050565b600061147e6020840184610d5e565b905092915050565b61148f81610d35565b82525050565b600080fd5b600080fd5b600080fd5b600080833560016020038436030381126114c1576114c061149f565b5b83810192508235915060208301925067ffffffffffffffff8211156114e9576114e8611495565b5b6020820236038413156114ff576114fe61149a565b5b509250929050565b600082825260208201905092915050565b600080fd5b60006115298385611507565b93507f07ffffffffffffffffffffffffffffffffffffffffffffffffffffffffffffff83111561155c5761155b611518565b5b60208302925061156d83858461108f565b82840190509392505050565b600080833560016020038436030381126115965761159561149f565b5b83810192508235915060208301925067ffffffffffffffff8211156115be576115bd611495565b5b6020820236038413156115d4576115d361149a565b5b509250929050565b600082825260208201905092915050565b6000819050919050565b600082825260208201905092915050565b600061161483856115f7565b935061162183858461108f565b61162a83610f92565b840190509392505050565b6000611642848484611608565b90509392505050565b600080833560016020038436030381126116685761166761149f565b5b83810192508235915060208301925067ffffffffffffffff8211156116905761168f611495565b5b6001820236038413156116a6576116a561149a565b5b509250929050565b6000602082019050919050565b60006116c783856115dc565b9350836020840285016116d9846115ed565b8060005b8781101561171f5784840389526116f4828461164b565b6116ff868284611635565b955061170a846116ae565b935060208b019a5050506001810190506116dd565b50829750879450505050509392505050565b600082905092915050565b600061174b6020840184611134565b905092915050565b61175c8161110e565b82525050565b60408201611773600083018361146f565b6117806000850182611486565b5061178e602083018361173c565b61179b6020850182611753565b50505050565b600060c083016117b4600084018461146f565b6117c16000860182611486565b506117cf602084018461146f565b6117dc6020860182611486565b506117ea60408401846114a4565b85830360408701526117fd83828461151d565b9250505061180e6060840184611579565b85830360608701526118218382846116bb565b925050506118326080840184611731565b61183f6080860182611762565b508091505092915050565b60008115159050919050565b61185f8161184a565b82525050565b600082825260208201905092915050565b50565b6000611886600083611865565b915061189182611876565b600082019050919050565b600060808201905081810360008301526118b681866117a1565b90506118c56020830185611856565b6118d26040830184611856565b81810360608301526118e381611879565b9050949350505050565b60006118f98286611285565b601482019150611909828561135e565b602082019150611919828461135e565b602082019150819050949350505050565b61193381611023565b82525050565b600081519050919050565b60005b83811015611962578082015181840152602081019050611947565b83811115611971576000848401525b50505050565b600061198282611939565b61198c81856115f7565b935061199c818560208601611944565b6119a581610f92565b840191505092915050565b6040820160008201516119c66000850182611486565b5060208201516119d96020850182611753565b50505050565b600060c0830160008301516119f76000860182611486565b506020830151611a0a6020860182611486565b506040830151611a1d604086018261192a565b5060608301518482036060860152611a358282611977565b9150506080830151611a4a60808601826119b0565b508091505092915050565b60006080820190508181036000830152611a6f81866119df565b9050611a7e6020830185611856565b611a8b6040830184611856565b8181036060830152611a9c81611879565b9050949350505050565b600081905092915050565b7f19457468657265756d205369676e6564204d6573736167653a0a333200000000600082015250565b6000611ae7601c83611aa6565b9150611af282611ab1565b601c82019050919050565b6000819050919050565b6000819050919050565b611b22611b1d82611afd565b611b07565b82525050565b6000611b3382611ada565b9150611b3f8284611b11565b60208201915081905092915050565b7f45434453413a20696e76616c6964207369676e61747572650000000000000000600082015250565b6000611b84601883610da0565b9150611b8f82611b4e565b602082019050919050565b60006020820190508181036000830152611bb381611b77565b9050919050565b7f45434453413a20696e76616c6964207369676e6174757265206c656e67746800600082015250565b6000611bf0601f83610da0565b9150611bfb82611bba565b602082019050919050565b60006020820190508181036000830152611c1f81611be3565b9050919050565b7f45434453413a20696e76616c6964207369676e6174757265202773272076616c60008201527f7565000000000000000000000000000000000000000000000000000000000000602082015250565b6000611c82602283610da0565b9150611c8d82611c26565b604082019050919050565b60006020820190508181036000830152611cb181611c75565b9050919050565b7f45434453413a20696e76616c6964207369676e6174757265202776272076616c60008201527f7565000000000000000000000000000000000000000000000000000000000000602082015250565b6000611d14602283610da0565b9150611d1f82611cb8565b604082019050919050565b60006020820190508181036000830152611d4381611d07565b9050919050565b611d5381611afd565b82525050565b600060ff82169050919050565b611d6f81611d59565b82525050565b6000608082019050611d8a6000830187611d4a565b611d976020830186611d66565b611da46040830185611d4a565b611db16060830184611d4a565b9594505050505056fea264697066735822122042000f09c646c7c2c0bf2fb4ec616c26ef15e9b03144d1199443a6a212e71b9e64736f6c63430008090033",
  "linkReferences": {},
  "deployedLinkReferences": {}
}