{
  "_format": "hh-sol-artifact-1",
  "contractName": "ERC721RedeemFacet",
  "sourceName": "contracts/marketplace/facets/ERC721RedeemFacet.sol",
  "abi": [
    {
      "anonymous": false,
      "inputs": [
        {
          "indexed": false,
          "internalType": "address",
          "name": "paymentToken",
          "type": "address"
        },
        {
          "indexed": true,
          "internalType": "address",
          "name": "buyer",
          "type": "address"
        },
        {
          "indexed": true,
          "internalType": "address",
          "name": "receiver",
          "type": "address"
        },
        {
          "indexed": false,
          "internalType": "uint256",
          "name": "value",
          "type": "uint256"
        }
      ],
      "name": "ComissionPayed",
      "type": "event"
    },
    {
      "anonymous": false,
      "inputs": [
        {
          "indexed": false,
          "internalType": "address[]",
          "name": "tokens",
          "type": "address[]"
        },
        {
          "indexed": false,
          "internalType": "address",
          "name": "paymentToken",
          "type": "address"
        },
        {
          "indexed": false,
          "internalType": "address",
          "name": "from",
          "type": "address"
        },
        {
          "indexed": false,
          "internalType": "address",
          "name": "to",
          "type": "address"
        },
        {
          "indexed": false,
          "internalType": "uint256[]",
          "name": "ids",
          "type": "uint256[]"
        },
        {
          "indexed": false,
          "internalType": "uint256[]",
          "name": "prices",
          "type": "uint256[]"
        }
      ],
      "name": "FixedPriceERC721BundleRedeemed",
      "type": "event"
    },
    {
      "anonymous": false,
      "inputs": [
        {
          "indexed": false,
          "internalType": "address",
          "name": "token",
          "type": "address"
        },
        {
          "indexed": false,
          "internalType": "address",
          "name": "paymentToken",
          "type": "address"
        },
        {
          "indexed": false,
          "internalType": "address",
          "name": "from",
          "type": "address"
        },
        {
          "indexed": false,
          "internalType": "address",
          "name": "to",
          "type": "address"
        },
        {
          "indexed": false,
          "internalType": "uint256",
          "name": "id",
          "type": "uint256"
        },
        {
          "indexed": false,
          "internalType": "uint256",
          "name": "price",
          "type": "uint256"
        }
      ],
      "name": "FixedPriceERC721Redeemed",
      "type": "event"
    },
    {
      "anonymous": false,
      "inputs": [
        {
          "indexed": true,
          "internalType": "address",
          "name": "token",
          "type": "address"
        },
        {
          "indexed": false,
          "internalType": "address",
          "name": "paymentToken",
          "type": "address"
        },
        {
          "indexed": false,
          "internalType": "address",
          "name": "buyer",
          "type": "address"
        },
        {
          "indexed": true,
          "internalType": "address",
          "name": "receiver",
          "type": "address"
        },
        {
          "indexed": true,
          "internalType": "uint256",
          "name": "tokenId",
          "type": "uint256"
        },
        {
          "indexed": false,
          "internalType": "uint256",
          "name": "value",
          "type": "uint256"
        }
      ],
      "name": "RoyaltyPayed",
      "type": "event"
    },
    {
      "inputs": [
        {
          "components": [
            {
              "internalType": "address",
              "name": "token",
              "type": "address"
            },
            {
              "internalType": "address",
              "name": "to",
              "type": "address"
            },
            {
              "internalType": "uint256",
              "name": "id",
              "type": "uint256"
            },
            {
              "internalType": "string",
              "name": "uri",
              "type": "string"
            },
            {
              "components": [
                {
                  "internalType": "address",
                  "name": "recipient",
                  "type": "address"
                },
                {
                  "internalType": "uint24",
                  "name": "amount",
                  "type": "uint24"
                }
              ],
              "internalType": "struct ERC2981Base.RoyaltyInfo",
              "name": "royalty",
              "type": "tuple"
            }
          ],
          "internalType": "struct MintERC721Order",
          "name": "mintOrder",
          "type": "tuple"
        },
        {
          "components": [
            {
              "internalType": "address",
              "name": "token",
              "type": "address"
            },
            {
              "internalType": "address",
              "name": "paymentToken",
              "type": "address"
            },
            {
              "internalType": "address",
              "name": "targetToken",
              "type": "address"
            },
            {
              "internalType": "address",
              "name": "from",
              "type": "address"
            },
            {
              "internalType": "address",
              "name": "to",
              "type": "address"
            },
            {
              "internalType": "uint256",
              "name": "id",
              "type": "uint256"
            },
            {
              "internalType": "uint256",
              "name": "price",
              "type": "uint256"
            }
          ],
          "internalType": "struct RedeemERC721Order",
          "name": "redeemOrder",
          "type": "tuple"
        },
        {
          "internalType": "bytes",
          "name": "mintSignature",
          "type": "bytes"
        },
        {
          "internalType": "bytes",
          "name": "marketSignature",
          "type": "bytes"
        },
        {
          "internalType": "bytes",
          "name": "redeemSignature",
          "type": "bytes"
        },
        {
          "internalType": "uint32",
          "name": "nonce",
          "type": "uint32"
        }
      ],
      "name": "ERC721MintRedeem",
      "outputs": [],
      "stateMutability": "nonpayable",
      "type": "function"
    },
    {
      "inputs": [
        {
          "components": [
            {
              "internalType": "address",
              "name": "token",
              "type": "address"
            },
            {
              "internalType": "address",
              "name": "paymentToken",
              "type": "address"
            },
            {
              "internalType": "address",
              "name": "targetToken",
              "type": "address"
            },
            {
              "internalType": "address",
              "name": "from",
              "type": "address"
            },
            {
              "internalType": "address",
              "name": "to",
              "type": "address"
            },
            {
              "internalType": "uint256",
              "name": "id",
              "type": "uint256"
            },
            {
              "internalType": "uint256",
              "name": "price",
              "type": "uint256"
            }
          ],
          "internalType": "struct RedeemERC721Order",
          "name": "order",
          "type": "tuple"
        },
        {
          "internalType": "bytes",
          "name": "signature",
          "type": "bytes"
        },
        {
          "internalType": "uint32",
          "name": "nonce",
          "type": "uint32"
        }
      ],
      "name": "ERC721Redeem",
      "outputs": [],
      "stateMutability": "nonpayable",
      "type": "function"
    },
    {
      "inputs": [
        {
          "components": [
            {
              "internalType": "address[]",
              "name": "tokens",
              "type": "address[]"
            },
            {
              "internalType": "address",
              "name": "paymentToken",
              "type": "address"
            },
            {
              "internalType": "address",
              "name": "targetToken",
              "type": "address"
            },
            {
              "internalType": "address",
              "name": "from",
              "type": "address"
            },
            {
              "internalType": "address",
              "name": "to",
              "type": "address"
            },
            {
              "internalType": "uint256[]",
              "name": "ids",
              "type": "uint256[]"
            },
            {
              "internalType": "uint256[]",
              "name": "prices",
              "type": "uint256[]"
            }
          ],
          "internalType": "struct RedeemERC721BundleOrder",
          "name": "order",
          "type": "tuple"
        },
        {
          "internalType": "bytes",
          "name": "signature",
          "type": "bytes"
        },
        {
          "internalType": "uint32",
          "name": "nonce",
          "type": "uint32"
        }
      ],
      "name": "ERC721RedeemBundle",
      "outputs": [],
      "stateMutability": "nonpayable",
      "type": "function"
    }
  ],
  "bytecode": "0x608060405234801561001057600080fd5b506154d9806100206000396000f3fe608060405234801561001057600080fd5b50600436106100415760003560e01c80631bb0c98714610046578063d4ca65ac14610062578063de03c7571461007e575b600080fd5b610060600480360381019061005b9190613093565b61009a565b005b61007c600480360381019061007791906131a3565b610682565b005b61009860048036038101906100939190613238565b610abe565b005b6100a2610e5e565b73ffffffffffffffffffffffffffffffffffffffff168960200160208101906100cb9190613326565b73ffffffffffffffffffffffffffffffffffffffff161415610122576040517f08c379a0000000000000000000000000000000000000000000000000000000008152600401610119906133b0565b60405180910390fd5b8760600160208101906101359190613326565b73ffffffffffffffffffffffffffffffffffffffff1689602001602081019061015e9190613326565b73ffffffffffffffffffffffffffffffffffffffff1614801561018857508760a001358960400135145b80156101e357508760000160208101906101a29190613326565b73ffffffffffffffffffffffffffffffffffffffff168960000160208101906101cb9190613326565b73ffffffffffffffffffffffffffffffffffffffff16145b610222576040517f08c379a00000000000000000000000000000000000000000000000000000000081526004016102199061341c565b60405180910390fd5b60008860c0013511156102cd576000600501600801600089602001602081019061024c9190613326565b73ffffffffffffffffffffffffffffffffffffffff1673ffffffffffffffffffffffffffffffffffffffff168152602001908152602001600020548860c00135116102cc576040517f08c379a00000000000000000000000000000000000000000000000000000000081526004016102c390613488565b60405180910390fd5b5b600060050160000160006103446102fa8c60000160208101906102f09190613326565b8d60400135610e66565b88888080601f016020809104026020016040519081016040528093929190818152602001838380828437600081840152601f19601f82011690508083019250505050505050610ea3565b73ffffffffffffffffffffffffffffffffffffffff1673ffffffffffffffffffffffffffffffffffffffff16815260200190815260200160002060009054906101000a900460ff166103cb576040517f08c379a00000000000000000000000000000000000000000000000000000000081526004016103c29061351a565b60405180910390fd5b60006104236103d98b610eca565b89898080601f016020809104026020016040519081016040528093929190818152602001838380828437600081840152601f19601f82011690508083019250505050505050610ea3565b90508073ffffffffffffffffffffffffffffffffffffffff168a602001602081019061044f9190613326565b73ffffffffffffffffffffffffffffffffffffffff16148061048957506104888a60200160208101906104829190613326565b82610f70565b5b6104c8576040517f08c379a00000000000000000000000000000000000000000000000000000000081526004016104bf90613586565b60405180910390fd5b61051f6104d58a84611095565b85858080601f016020809104026020016040519081016040528093929190818152602001838380828437600081840152601f19601f82011690508083019250505050505050610ea3565b73ffffffffffffffffffffffffffffffffffffffff168173ffffffffffffffffffffffffffffffffffffffff161461058c576040517f08c379a000000000000000000000000000000000000000000000000000000000815260040161058390613618565b60405180910390fd5b60006105a98b60000160208101906105a49190613326565b611140565b90506105b66000826111ad565b6105cb8b6105c3906138ec565b82600161126d565b6105e48a8036038101906105df91906139b3565b611313565b7f42e8802e37f2649e3a94c88a7d6cf217626911c9655918b56b0149cc695ed0738a60000160208101906106189190613326565b8b602001602081019061062b9190613326565b8c606001602081019061063e9190613326565b8d60800160208101906106519190613326565b8e60a001358f60c0013560405161066d969594939291906139fe565b60405180910390a15050505050505050505050565b8360600160208101906106959190613326565b73ffffffffffffffffffffffffffffffffffffffff168460800160208101906106be9190613326565b73ffffffffffffffffffffffffffffffffffffffff161415610715576040517f08c379a000000000000000000000000000000000000000000000000000000000815260040161070c90613aab565b60405180910390fd5b60008460c0013511156107c0576000600501600801600085602001602081019061073f9190613326565b73ffffffffffffffffffffffffffffffffffffffff1673ffffffffffffffffffffffffffffffffffffffff168152602001908152602001600020548460c00135116107bf576040517f08c379a00000000000000000000000000000000000000000000000000000000081526004016107b690613488565b60405180910390fd5b5b60006108196107cf8684611095565b85858080601f016020809104026020016040519081016040528093929190818152602001838380828437600081840152601f19601f82011690508083019250505050505050610ea3565b90508073ffffffffffffffffffffffffffffffffffffffff168560600160208101906108459190613326565b73ffffffffffffffffffffffffffffffffffffffff16148061087f575061087e8560600160208101906108789190613326565b82610f70565b5b6108be576040517f08c379a00000000000000000000000000000000000000000000000000000000081526004016108b590613618565b60405180910390fd5b600060050160120160008660600160208101906108db9190613326565b73ffffffffffffffffffffffffffffffffffffffff1673ffffffffffffffffffffffffffffffffffffffff16815260200190815260200160002060008363ffffffff1663ffffffff16815260200190815260200160002060009054906101000a900460ff1615610980576040517f08c379a000000000000000000000000000000000000000000000000000000000815260040161097790613b17565b60405180910390fd5b60016000600501601201600087606001602081019061099f9190613326565b73ffffffffffffffffffffffffffffffffffffffff1673ffffffffffffffffffffffffffffffffffffffff16815260200190815260200160002060008463ffffffff1663ffffffff16815260200190815260200160002060006101000a81548160ff021916908315150217905550610a2685803603810190610a2191906139b3565b611313565b7f42e8802e37f2649e3a94c88a7d6cf217626911c9655918b56b0149cc695ed073856000016020810190610a5a9190613326565b866020016020810190610a6d9190613326565b876060016020810190610a809190613326565b886080016020810190610a939190613326565b8960a001358a60c00135604051610aaf969594939291906139fe565b60405180910390a15050505050565b836060016020810190610ad19190613326565b73ffffffffffffffffffffffffffffffffffffffff16846080016020810190610afa9190613326565b73ffffffffffffffffffffffffffffffffffffffff161415610b51576040517f08c379a0000000000000000000000000000000000000000000000000000000008152600401610b4890613aab565b60405180910390fd5b6000610bb3610b6986610b6390613dc5565b84611426565b85858080601f016020809104026020016040519081016040528093929190818152602001838380828437600081840152601f19601f82011690508083019250505050505050610ea3565b90508073ffffffffffffffffffffffffffffffffffffffff16856060016020810190610bdf9190613326565b73ffffffffffffffffffffffffffffffffffffffff161480610c195750610c18856060016020810190610c129190613326565b82610f70565b5b610c58576040517f08c379a0000000000000000000000000000000000000000000000000000000008152600401610c4f90613618565b60405180910390fd5b60006005016012016000866060016020810190610c759190613326565b73ffffffffffffffffffffffffffffffffffffffff1673ffffffffffffffffffffffffffffffffffffffff16815260200190815260200160002060008363ffffffff1663ffffffff16815260200190815260200160002060009054906101000a900460ff1615610d1a576040517f08c379a0000000000000000000000000000000000000000000000000000000008152600401610d1190613b17565b60405180910390fd5b600160006005016012016000876060016020810190610d399190613326565b73ffffffffffffffffffffffffffffffffffffffff1673ffffffffffffffffffffffffffffffffffffffff16815260200190815260200160002060008463ffffffff1663ffffffff16815260200190815260200160002060006101000a81548160ff021916908315150217905550610db08561148b565b7fd18b984621b50d0c20d38a258f3a85a28eea2e1ee30da5c5db4667c2ad8ccef2858060000190610de19190613de7565b876020016020810190610df49190613326565b886060016020810190610e079190613326565b896080016020810190610e1a9190613326565b8a8060a00190610e2a9190613e4a565b8c8060c00190610e3a9190613e4a565b604051610e4f99989796959493929190613fe2565b60405180910390a15050505050565b600033905090565b6000610e9b838346604051602001610e80939291906140c7565b604051602081830303815290604052805190602001206118b0565b905092915050565b6000806000610eb285856118e0565b91509150610ebf81611963565b819250505092915050565b6000610f69826000016020810190610ee29190613326565b836020016020810190610ef59190613326565b8460400135858060600190610f0a9190614104565b876080016000016020810190610f209190613326565b886080016020016020810190610f369190614167565b46604051602001610f4e9897969594939291906141fa565b604051602081830303815290604052805190602001206118b0565b9050919050565b60008060008473ffffffffffffffffffffffffffffffffffffffff1684604051602401610f9d9190614279565b6040516020818303038152906040527f2f54bf6e000000000000000000000000000000000000000000000000000000007bffffffffffffffffffffffffffffffffffffffffffffffffffffffff19166020820180517bffffffffffffffffffffffffffffffffffffffffffffffffffffffff8381831617835250505050604051611027919061430e565b6000604051808303816000865af19150503d8060008114611064576040519150601f19603f3d011682016040523d82523d6000602084013e611069565b606091505b509150915081801561108b57508080602001905181019061108a919061435d565b5b9250505092915050565b60006111388360000160208101906110ad9190613326565b8460600160208101906110c09190613326565b8560800160208101906110d39190613326565b8660a001358760200160208101906110eb9190613326565b8860400160208101906110fe9190613326565b8960c00135468a60405160200161111d999897969594939291906143c0565b604051602081830303815290604052805190602001206118b0565b905092915050565b60008061114b611b38565b905060008160050160050160008573ffffffffffffffffffffffffffffffffffffffff1673ffffffffffffffffffffffffffffffffffffffff16815260200190815260200160002060009054906101000a900460ff1690508092505050919050565b60006111b7611b38565b90508060050160030160008460018111156111d5576111d4614463565b5b60018111156111e7576111e6614463565b5b815260200190815260200160002060009054906101000a900460ff16600181111561121557611214614463565b5b82600181111561122857611227614463565b5b14611268576040517f08c379a000000000000000000000000000000000000000000000000000000000815260040161125f90614504565b60405180910390fd5b505050565b6001808111156112805761127f614463565b5b82600181111561129357611292614463565b5b141561130e57826000015173ffffffffffffffffffffffffffffffffffffffff1663dece1b10848360006040518463ffffffff1660e01b81526004016112db93929190614682565b600060405180830381600087803b1580156112f557600080fd5b505af1158015611309573d6000803e3d6000fd5b505050505b505050565b60008160c0015111156113a457600061134882600001518360200151846080015185608001518660a001518760c00151611b3d565b905060006113688360200151846080015185608001518660c00151611d27565b90506113a1836020015184604001518560800151866060015185878960c001516113929190614702565b61139c9190614702565b612008565b50505b806000015173ffffffffffffffffffffffffffffffffffffffff1663b88d4fde826060015183608001518460a001516040518463ffffffff1660e01b81526004016113f193929190614736565b600060405180830381600087803b15801561140b57600080fd5b505af115801561141f573d6000803e3d6000fd5b5050505050565b60006114838360000151846060015185608001518660a00151876020015188604001518960c00151468a604051602001611468999897969594939291906148f0565b604051602081830303815290604052805190602001206118b0565b905092915050565b6000611495611b38565b905060008060008360050160080160008660200160208101906114b89190613326565b73ffffffffffffffffffffffffffffffffffffffff1673ffffffffffffffffffffffffffffffffffffffff16815260200190815260200160002054905060005b858060a001906115089190613e4a565b90508110156116cd576000868060c001906115239190613e4a565b8381811061153457611533614987565b5b9050602002013511156116ba5781868060c001906115529190613e4a565b8381811061156357611562614987565b5b90506020020135116115aa576040517f08c379a00000000000000000000000000000000000000000000000000000000081526004016115a190614a28565b60405180910390fd5b60006116738780600001906115bf9190613de7565b848181106115d0576115cf614987565b5b90506020020160208101906115e59190613326565b8860200160208101906115f89190613326565b89608001602081019061160b9190613326565b8a608001602081019061161e9190613326565b8b8060a0019061162e9190613e4a565b8881811061163f5761163e614987565b5b905060200201358c8060c001906116569190613e4a565b8981811061166757611666614987565b5b90506020020135611b3d565b905080846116819190614a48565b9350868060c001906116939190613e4a565b838181106116a4576116a3614987565b5b90506020020135856116b69190614a48565b9450505b80806116c590614a9e565b9150506114f8565b50600083111561178a57600061171b8660200160208101906116ef9190613326565b8760800160208101906117029190613326565b8860800160208101906117159190613326565b87611d27565b90506117888660200160208101906117339190613326565b8760400160208101906117469190613326565b8860800160208101906117599190613326565b89606001602081019061176c9190613326565b85888a6117799190614702565b6117839190614702565b612008565b505b60005b858060a0019061179d9190613e4a565b90508110156118a8578580600001906117b69190613de7565b828181106117c7576117c6614987565b5b90506020020160208101906117dc9190613326565b73ffffffffffffffffffffffffffffffffffffffff1663b88d4fde87606001602081019061180a9190613326565b88608001602081019061181d9190613326565b898060a0019061182d9190613e4a565b8681811061183e5761183d614987565b5b905060200201356040518463ffffffff1660e01b815260040161186393929190614736565b600060405180830381600087803b15801561187d57600080fd5b505af1158015611891573d6000803e3d6000fd5b5050505080806118a090614a9e565b91505061178d565b505050505050565b6000816040516020016118c39190614b5e565b604051602081830303815290604052805190602001209050919050565b6000806041835114156119225760008060006020860151925060408601519150606086015160001a905061191687828585612806565b9450945050505061195c565b604083511415611953576000806020850151915060408501519050611948868383612913565b93509350505061195c565b60006002915091505b9250929050565b6000600481111561197757611976614463565b5b81600481111561198a57611989614463565b5b141561199557611b35565b600160048111156119a9576119a8614463565b5b8160048111156119bc576119bb614463565b5b14156119fd576040517f08c379a00000000000000000000000000000000000000000000000000000000081526004016119f490614bd0565b60405180910390fd5b60026004811115611a1157611a10614463565b5b816004811115611a2457611a23614463565b5b1415611a65576040517f08c379a0000000000000000000000000000000000000000000000000000000008152600401611a5c90614c3c565b60405180910390fd5b60036004811115611a7957611a78614463565b5b816004811115611a8c57611a8b614463565b5b1415611acd576040517f08c379a0000000000000000000000000000000000000000000000000000000008152600401611ac490614cce565b60405180910390fd5b600480811115611ae057611adf614463565b5b816004811115611af357611af2614463565b5b1415611b34576040517f08c379a0000000000000000000000000000000000000000000000000000000008152600401611b2b90614d60565b60405180910390fd5b5b50565b600090565b600080821415611b505760009050611d1d565b6000611b6388632a55205a60e01b612961565b15611d185760008873ffffffffffffffffffffffffffffffffffffffff16632a55205a86866040518363ffffffff1660e01b8152600401611ba5929190614d80565b604080518083038186803b158015611bbc57600080fd5b505afa158015611bd0573d6000803e3d6000fd5b505050506040513d601f19601f82011682018060405250810190611bf49190614dd3565b8093508192505050600082118015611c0b57508382105b15611d11573073ffffffffffffffffffffffffffffffffffffffff168773ffffffffffffffffffffffffffffffffffffffff161415611c7457611c6f81838a73ffffffffffffffffffffffffffffffffffffffff166129869092919063ffffffff16565b611ca2565b611ca18782848b73ffffffffffffffffffffffffffffffffffffffff16612a0c909392919063ffffffff16565b5b848173ffffffffffffffffffffffffffffffffffffffff168a73ffffffffffffffffffffffffffffffffffffffff167fc12e0ad04220866b41089cc4006c59d73fdfd790857e121651c1b55e7a872aeb8b8a87604051611d0493929190614e13565b60405180910390a4611d16565b600091505b505b809150505b9695505050505050565b600080821415611d3a5760009050612000565b6000611d44611b38565b905060008160050160060160008873ffffffffffffffffffffffffffffffffffffffff1673ffffffffffffffffffffffffffffffffffffffff1681526020019081526020016000208054905090506000805b82811015611ea557858460050160060160008b73ffffffffffffffffffffffffffffffffffffffff1673ffffffffffffffffffffffffffffffffffffffff1681526020019081526020016000208281548110611df557611df4614987565b5b90600052602060002001541015611e8d578360050160070160008a73ffffffffffffffffffffffffffffffffffffffff1673ffffffffffffffffffffffffffffffffffffffff1681526020019081526020016000208181548110611e5c57611e5b614987565b5b90600052602060002090600a91828204019190066003029054906101000a900462ffffff1662ffffff169150611e92565b611ea5565b8080611e9d90614a9e565b915050611d96565b5060006127108287611eb79190614e4a565b611ec19190614ed3565b90506000811115611ff8573073ffffffffffffffffffffffffffffffffffffffff168873ffffffffffffffffffffffffffffffffffffffff1614611f90578873ffffffffffffffffffffffffffffffffffffffff166323b872dd8930846040518463ffffffff1660e01b8152600401611f3c93929190614e13565b602060405180830381600087803b158015611f5657600080fd5b505af1158015611f6a573d6000803e3d6000fd5b505050506040513d601f19601f82011682018060405250810190611f8e919061435d565b505b3073ffffffffffffffffffffffffffffffffffffffff168773ffffffffffffffffffffffffffffffffffffffff167f3d1fa10df804e58804446516af66e1a441d99b35693f686142946525683247598b84604051611fef929190614f04565b60405180910390a35b809450505050505b949350505050565b6000612012611b38565b90503073ffffffffffffffffffffffffffffffffffffffff168473ffffffffffffffffffffffffffffffffffffffff161461211557818673ffffffffffffffffffffffffffffffffffffffff1663dd62ed3e86306040518363ffffffff1660e01b8152600401612083929190614f2d565b60206040518083038186803b15801561209b57600080fd5b505afa1580156120af573d6000803e3d6000fd5b505050506040513d601f19601f820116820180604052508101906120d39190614f56565b1015612114576040517f08c379a000000000000000000000000000000000000000000000000000000000815260040161210b90614ff5565b60405180910390fd5b5b600082905060008083600501600b0160009054906101000a900473ffffffffffffffffffffffffffffffffffffffff1673ffffffffffffffffffffffffffffffffffffffff168973ffffffffffffffffffffffffffffffffffffffff16149050600084600501600b0160009054906101000a900473ffffffffffffffffffffffffffffffffffffffff1673ffffffffffffffffffffffffffffffffffffffff168973ffffffffffffffffffffffffffffffffffffffff161490508180156121d95750805b806121f557508460050160110160109054906101000a900460ff165b15612295573073ffffffffffffffffffffffffffffffffffffffff168873ffffffffffffffffffffffffffffffffffffffff161461225f5761225a8888868d73ffffffffffffffffffffffffffffffffffffffff16612a0c909392919063ffffffff16565b61228b565b61228a87858c73ffffffffffffffffffffffffffffffffffffffff166129869092919063ffffffff16565b5b50505050506127ff565b3073ffffffffffffffffffffffffffffffffffffffff168873ffffffffffffffffffffffffffffffffffffffff16146122f6576122f58830868d73ffffffffffffffffffffffffffffffffffffffff16612a0c909392919063ffffffff16565b5b8161258f576000600267ffffffffffffffff8111156123185761231761364e565b5b6040519080825280602002602001820160405280156123465781602001602082028036833780820191505090505b5090508a8160008151811061235e5761235d614987565b5b602002602001019073ffffffffffffffffffffffffffffffffffffffff16908173ffffffffffffffffffffffffffffffffffffffff168152505085600501600b0160009054906101000a900473ffffffffffffffffffffffffffffffffffffffff16816001815181106123d4576123d3614987565b5b602002602001019073ffffffffffffffffffffffffffffffffffffffff16908173ffffffffffffffffffffffffffffffffffffffff16815250506124608660180160000160009054906101000a900473ffffffffffffffffffffffffffffffffffffffff16868d73ffffffffffffffffffffffffffffffffffffffff16612a959092919063ffffffff16565b6000821561247057889050612474565b3090505b60008760180160000160009054906101000a900473ffffffffffffffffffffffffffffffffffffffff1673ffffffffffffffffffffffffffffffffffffffff166338ed173988600086868d60180160010154426124d19190614a48565b6040518663ffffffff1660e01b81526004016124f19594939291906150b8565b600060405180830381600087803b15801561250b57600080fd5b505af115801561251f573d6000803e3d6000fd5b505050506040513d6000823e3d601f19601f8201168201806040525081019061254891906151a9565b9050831561255d5750505050505050506127ff565b806001825161256c9190614702565b8151811061257d5761257c614987565b5b60200260200101519550505050612593565b8392505b806127f9576000600267ffffffffffffffff8111156125b5576125b461364e565b5b6040519080825280602002602001820160405280156125e35781602001602082028036833780820191505090505b50905085600501600b0160009054906101000a900473ffffffffffffffffffffffffffffffffffffffff168160008151811061262257612621614987565b5b602002602001019073ffffffffffffffffffffffffffffffffffffffff16908173ffffffffffffffffffffffffffffffffffffffff1681525050898160018151811061267157612670614987565b5b602002602001019073ffffffffffffffffffffffffffffffffffffffff16908173ffffffffffffffffffffffffffffffffffffffff16815250506127248660180160000160009054906101000a900473ffffffffffffffffffffffffffffffffffffffff168588600501600b0160009054906101000a900473ffffffffffffffffffffffffffffffffffffffff1673ffffffffffffffffffffffffffffffffffffffff16612a959092919063ffffffff16565b8560180160000160009054906101000a900473ffffffffffffffffffffffffffffffffffffffff1673ffffffffffffffffffffffffffffffffffffffff166338ed1739856000848c8b601801600101544261277f9190614a48565b6040518663ffffffff1660e01b815260040161279f9594939291906150b8565b600060405180830381600087803b1580156127b957600080fd5b505af11580156127cd573d6000803e3d6000fd5b505050506040513d6000823e3d601f19601f820116820180604052508101906127f691906151a9565b50505b50505050505b5050505050565b6000807f7fffffffffffffffffffffffffffffff5d576e7357a4501ddfe92f46681b20a08360001c111561284157600060039150915061290a565b601b8560ff16141580156128595750601c8560ff1614155b1561286b57600060049150915061290a565b600060018787878760405160008152602001604052604051612890949392919061521d565b6020604051602081039080840390855afa1580156128b2573d6000803e3d6000fd5b505050602060405103519050600073ffffffffffffffffffffffffffffffffffffffff168173ffffffffffffffffffffffffffffffffffffffff1614156129015760006001925092505061290a565b80600092509250505b94509492505050565b6000806000807f7fffffffffffffffffffffffffffffffffffffffffffffffffffffffffffffff85169150601b8560ff1c01905061295387828885612806565b935093505050935093915050565b600061296c83612bb6565b801561297e575061297d8383612c03565b5b905092915050565b612a078363a9059cbb60e01b84846040516024016129a5929190614f04565b604051602081830303815290604052907bffffffffffffffffffffffffffffffffffffffffffffffffffffffff19166020820180517bffffffffffffffffffffffffffffffffffffffffffffffffffffffff8381831617835250505050612d2e565b505050565b612a8f846323b872dd60e01b858585604051602401612a2d93929190614e13565b604051602081830303815290604052907bffffffffffffffffffffffffffffffffffffffffffffffffffffffff19166020820180517bffffffffffffffffffffffffffffffffffffffffffffffffffffffff8381831617835250505050612d2e565b50505050565b6000818473ffffffffffffffffffffffffffffffffffffffff1663dd62ed3e30866040518363ffffffff1660e01b8152600401612ad3929190614f2d565b60206040518083038186803b158015612aeb57600080fd5b505afa158015612aff573d6000803e3d6000fd5b505050506040513d601f19601f82011682018060405250810190612b239190614f56565b612b2d9190614a48565b9050612bb08463095ea7b360e01b8584604051602401612b4e929190614f04565b604051602081830303815290604052907bffffffffffffffffffffffffffffffffffffffffffffffffffffffff19166020820180517bffffffffffffffffffffffffffffffffffffffffffffffffffffffff8381831617835250505050612d2e565b50505050565b6000612be2827f01ffc9a700000000000000000000000000000000000000000000000000000000612c03565b8015612bfc5750612bfa8263ffffffff60e01b612c03565b155b9050919050565b6000806301ffc9a760e01b83604051602401612c1f919061529d565b604051602081830303815290604052907bffffffffffffffffffffffffffffffffffffffffffffffffffffffff19166020820180517bffffffffffffffffffffffffffffffffffffffffffffffffffffffff838183161783525050505090506000808573ffffffffffffffffffffffffffffffffffffffff1661753084604051612ca9919061430e565b6000604051808303818686fa925050503d8060008114612ce5576040519150601f19603f3d011682016040523d82523d6000602084013e612cea565b606091505b5091509150602081511015612d055760009350505050612d28565b818015612d22575080806020019051810190612d21919061435d565b5b93505050505b92915050565b6000612d90826040518060400160405280602081526020017f5361666545524332303a206c6f772d6c6576656c2063616c6c206661696c65648152508573ffffffffffffffffffffffffffffffffffffffff16612df59092919063ffffffff16565b9050600081511115612df05780806020019051810190612db0919061435d565b612def576040517f08c379a0000000000000000000000000000000000000000000000000000000008152600401612de69061532a565b60405180910390fd5b5b505050565b6060612e048484600085612e0d565b90509392505050565b606082471015612e52576040517f08c379a0000000000000000000000000000000000000000000000000000000008152600401612e49906153bc565b60405180910390fd5b612e5b85612f21565b612e9a576040517f08c379a0000000000000000000000000000000000000000000000000000000008152600401612e9190615428565b60405180910390fd5b6000808673ffffffffffffffffffffffffffffffffffffffff168587604051612ec3919061430e565b60006040518083038185875af1925050503d8060008114612f00576040519150601f19603f3d011682016040523d82523d6000602084013e612f05565b606091505b5091509150612f15828286612f34565b92505050949350505050565b600080823b905060008111915050919050565b60608315612f4457829050612f94565b600083511115612f575782518084602001fd5b816040517f08c379a0000000000000000000000000000000000000000000000000000000008152600401612f8b9190615481565b60405180910390fd5b9392505050565b6000604051905090565b600080fd5b600080fd5b600080fd5b600060c08284031215612fca57612fc9612faf565b5b81905092915050565b600060e08284031215612fe957612fe8612faf565b5b81905092915050565b600080fd5b600080fd5b600080fd5b60008083601f84011261301757613016612ff2565b5b8235905067ffffffffffffffff81111561303457613033612ff7565b5b6020830191508360018202830111156130505761304f612ffc565b5b9250929050565b600063ffffffff82169050919050565b61307081613057565b811461307b57600080fd5b50565b60008135905061308d81613067565b92915050565b60008060008060008060008060006101808a8c0312156130b6576130b5612fa5565b5b60008a013567ffffffffffffffff8111156130d4576130d3612faa565b5b6130e08c828d01612fb4565b99505060206130f18c828d01612fd3565b9850506101008a013567ffffffffffffffff81111561311357613112612faa565b5b61311f8c828d01613001565b97509750506101208a013567ffffffffffffffff81111561314357613142612faa565b5b61314f8c828d01613001565b95509550506101408a013567ffffffffffffffff81111561317357613172612faa565b5b61317f8c828d01613001565b93509350506101606131938c828d0161307e565b9150509295985092959850929598565b60008060008061012085870312156131be576131bd612fa5565b5b60006131cc87828801612fd3565b94505060e085013567ffffffffffffffff8111156131ed576131ec612faa565b5b6131f987828801613001565b935093505061010061320d8782880161307e565b91505092959194509250565b600060e0828403121561322f5761322e612faf565b5b81905092915050565b6000806000806060858703121561325257613251612fa5565b5b600085013567ffffffffffffffff8111156132705761326f612faa565b5b61327c87828801613219565b945050602085013567ffffffffffffffff81111561329d5761329c612faa565b5b6132a987828801613001565b935093505060406132bc8782880161307e565b91505092959194509250565b600073ffffffffffffffffffffffffffffffffffffffff82169050919050565b60006132f3826132c8565b9050919050565b613303816132e8565b811461330e57600080fd5b50565b600081359050613320816132fa565b92915050565b60006020828403121561333c5761333b612fa5565b5b600061334a84828501613311565b91505092915050565b600082825260208201905092915050565b7f455243373231463a20494e56414c49445f4f574e455200000000000000000000600082015250565b600061339a601683613353565b91506133a582613364565b602082019050919050565b600060208201905081810360008301526133c98161338d565b9050919050565b7f455243373231463a204f574e45525f4d49534d41544348000000000000000000600082015250565b6000613406601783613353565b9150613411826133d0565b602082019050919050565b60006020820190508181036000830152613435816133f9565b9050919050565b7f455243373231463a20494e56414c49445f505249434500000000000000000000600082015250565b6000613472601683613353565b915061347d8261343c565b602082019050919050565b600060208201905081810360008301526134a181613465565b9050919050565b7f455243373231463a20494e56414c49445f4d41524b45545f5349474e4154555260008201527f4500000000000000000000000000000000000000000000000000000000000000602082015250565b6000613504602183613353565b915061350f826134a8565b604082019050919050565b60006020820190508181036000830152613533816134f7565b9050919050565b7f455243373231463a20494e56414c49445f4d494e545f5349474e415455524500600082015250565b6000613570601f83613353565b915061357b8261353a565b602082019050919050565b6000602082019050818103600083015261359f81613563565b9050919050565b7f455243373231463a20494e56414c49445f52454445454d5f5349474e4154555260008201527f4500000000000000000000000000000000000000000000000000000000000000602082015250565b6000613602602183613353565b915061360d826135a6565b604082019050919050565b60006020820190508181036000830152613631816135f5565b9050919050565b600080fd5b6000601f19601f8301169050919050565b7f4e487b7100000000000000000000000000000000000000000000000000000000600052604160045260246000fd5b6136868261363d565b810181811067ffffffffffffffff821117156136a5576136a461364e565b5b80604052505050565b60006136b8612f9b565b90506136c4828261367d565b919050565b600080fd5b6000819050919050565b6136e1816136ce565b81146136ec57600080fd5b50565b6000813590506136fe816136d8565b92915050565b600080fd5b600067ffffffffffffffff8211156137245761372361364e565b5b61372d8261363d565b9050602081019050919050565b82818337600083830152505050565b600061375c61375784613709565b6136ae565b90508281526020810184848401111561377857613777613704565b5b61378384828561373a565b509392505050565b600082601f8301126137a05761379f612ff2565b5b81356137b0848260208601613749565b91505092915050565b600062ffffff82169050919050565b6137d1816137b9565b81146137dc57600080fd5b50565b6000813590506137ee816137c8565b92915050565b60006040828403121561380a57613809613638565b5b61381460406136ae565b9050600061382484828501613311565b6000830152506020613838848285016137df565b60208301525092915050565b600060c0828403121561385a57613859613638565b5b61386460a06136ae565b9050600061387484828501613311565b600083015250602061388884828501613311565b602083015250604061389c848285016136ef565b604083015250606082013567ffffffffffffffff8111156138c0576138bf6136c9565b5b6138cc8482850161378b565b60608301525060806138e0848285016137f4565b60808301525092915050565b60006138f83683613844565b9050919050565b600060e0828403121561391557613914613638565b5b61391f60e06136ae565b9050600061392f84828501613311565b600083015250602061394384828501613311565b602083015250604061395784828501613311565b604083015250606061396b84828501613311565b606083015250608061397f84828501613311565b60808301525060a0613993848285016136ef565b60a08301525060c06139a7848285016136ef565b60c08301525092915050565b600060e082840312156139c9576139c8612fa5565b5b60006139d7848285016138ff565b91505092915050565b6139e9816132e8565b82525050565b6139f8816136ce565b82525050565b600060c082019050613a1360008301896139e0565b613a2060208301886139e0565b613a2d60408301876139e0565b613a3a60608301866139e0565b613a4760808301856139ef565b613a5460a08301846139ef565b979650505050505050565b7f455243373231463a2042555945525f49535f4f574e4552000000000000000000600082015250565b6000613a95601783613353565b9150613aa082613a5f565b602082019050919050565b60006020820190508181036000830152613ac481613a88565b9050919050565b7f455243373231463a204e4f4e43455f414c52454144595f555345440000000000600082015250565b6000613b01601b83613353565b9150613b0c82613acb565b602082019050919050565b60006020820190508181036000830152613b3081613af4565b9050919050565b600067ffffffffffffffff821115613b5257613b5161364e565b5b602082029050602081019050919050565b6000613b76613b7184613b37565b6136ae565b90508083825260208201905060208402830185811115613b9957613b98612ffc565b5b835b81811015613bc25780613bae8882613311565b845260208401935050602081019050613b9b565b5050509392505050565b600082601f830112613be157613be0612ff2565b5b8135613bf1848260208601613b63565b91505092915050565b600067ffffffffffffffff821115613c1557613c1461364e565b5b602082029050602081019050919050565b6000613c39613c3484613bfa565b6136ae565b90508083825260208201905060208402830185811115613c5c57613c5b612ffc565b5b835b81811015613c855780613c7188826136ef565b845260208401935050602081019050613c5e565b5050509392505050565b600082601f830112613ca457613ca3612ff2565b5b8135613cb4848260208601613c26565b91505092915050565b600060e08284031215613cd357613cd2613638565b5b613cdd60e06136ae565b9050600082013567ffffffffffffffff811115613cfd57613cfc6136c9565b5b613d0984828501613bcc565b6000830152506020613d1d84828501613311565b6020830152506040613d3184828501613311565b6040830152506060613d4584828501613311565b6060830152506080613d5984828501613311565b60808301525060a082013567ffffffffffffffff811115613d7d57613d7c6136c9565b5b613d8984828501613c8f565b60a08301525060c082013567ffffffffffffffff811115613dad57613dac6136c9565b5b613db984828501613c8f565b60c08301525092915050565b6000613dd13683613cbd565b9050919050565b600080fd5b600080fd5b600080fd5b60008083356001602003843603038112613e0457613e03613dd8565b5b80840192508235915067ffffffffffffffff821115613e2657613e25613ddd565b5b602083019250602082023603831315613e4257613e41613de2565b5b509250929050565b60008083356001602003843603038112613e6757613e66613dd8565b5b80840192508235915067ffffffffffffffff821115613e8957613e88613ddd565b5b602083019250602082023603831315613ea557613ea4613de2565b5b509250929050565b600082825260208201905092915050565b6000819050919050565b613ed1816132e8565b82525050565b6000613ee38383613ec8565b60208301905092915050565b6000613efe6020840184613311565b905092915050565b6000602082019050919050565b6000613f1f8385613ead565b9350613f2a82613ebe565b8060005b85811015613f6357613f408284613eef565b613f4a8882613ed7565b9750613f5583613f06565b925050600181019050613f2e565b5085925050509392505050565b600082825260208201905092915050565b600080fd5b6000613f928385613f70565b93507f07ffffffffffffffffffffffffffffffffffffffffffffffffffffffffffffff831115613fc557613fc4613f81565b5b602083029250613fd683858461373a565b82840190509392505050565b600060c0820190508181036000830152613ffd818b8d613f13565b905061400c602083018a6139e0565b61401960408301896139e0565b61402660608301886139e0565b8181036080830152614039818688613f86565b905081810360a083015261404e818486613f86565b90509a9950505050505050505050565b60008160601b9050919050565b60006140768261405e565b9050919050565b60006140888261406b565b9050919050565b6140a061409b826132e8565b61407d565b82525050565b6000819050919050565b6140c16140bc826136ce565b6140a6565b82525050565b60006140d3828661408f565b6014820191506140e382856140b0565b6020820191506140f382846140b0565b602082019150819050949350505050565b6000808335600160200384360303811261412157614120613dd8565b5b80840192508235915067ffffffffffffffff82111561414357614142613ddd565b5b60208301925060018202360383131561415f5761415e613de2565b5b509250929050565b60006020828403121561417d5761417c612fa5565b5b600061418b848285016137df565b91505092915050565b600081905092915050565b60006141ab8385614194565b93506141b883858461373a565b82840190509392505050565b60008160e81b9050919050565b60006141dc826141c4565b9050919050565b6141f46141ef826137b9565b6141d1565b82525050565b6000614206828b61408f565b601482019150614216828a61408f565b60148201915061422682896140b0565b60208201915061423782878961419f565b9150614243828661408f565b60148201915061425382856141e3565b60038201915061426382846140b0565b6020820191508190509998505050505050505050565b600060208201905061428e60008301846139e0565b92915050565b600081519050919050565b600081905092915050565b60005b838110156142c85780820151818401526020810190506142ad565b838111156142d7576000848401525b50505050565b60006142e882614294565b6142f2818561429f565b93506143028185602086016142aa565b80840191505092915050565b600061431a82846142dd565b915081905092915050565b60008115159050919050565b61433a81614325565b811461434557600080fd5b50565b60008151905061435781614331565b92915050565b60006020828403121561437357614372612fa5565b5b600061438184828501614348565b91505092915050565b60008160e01b9050919050565b60006143a28261438a565b9050919050565b6143ba6143b582613057565b614397565b82525050565b60006143cc828c61408f565b6014820191506143dc828b61408f565b6014820191506143ec828a61408f565b6014820191506143fc82896140b0565b60208201915061440c828861408f565b60148201915061441c828761408f565b60148201915061442c82866140b0565b60208201915061443c82856140b0565b60208201915061444c82846143a9565b6004820191508190509a9950505050505050505050565b7f4e487b7100000000000000000000000000000000000000000000000000000000600052602160045260246000fd5b7f636865636b417373657456657273696f6e497344656661756c743a20494e564160008201527f4c49445f544f4b454e5f56455253494f4e000000000000000000000000000000602082015250565b60006144ee603183613353565b91506144f982614492565b604082019050919050565b6000602082019050818103600083015261451d816144e1565b9050919050565b61452d816136ce565b82525050565b600081519050919050565b600082825260208201905092915050565b600061455a82614533565b614564818561453e565b93506145748185602086016142aa565b61457d8161363d565b840191505092915050565b614591816137b9565b82525050565b6040820160008201516145ad6000850182613ec8565b5060208201516145c06020850182614588565b50505050565b600060c0830160008301516145de6000860182613ec8565b5060208301516145f16020860182613ec8565b5060408301516146046040860182614524565b506060830151848203606086015261461c828261454f565b91505060808301516146316080860182614597565b508091505092915050565b61464581614325565b82525050565b600082825260208201905092915050565b50565b600061466c60008361464b565b91506146778261465c565b600082019050919050565b6000608082019050818103600083015261469c81866145c6565b90506146ab602083018561463c565b6146b8604083018461463c565b81810360608301526146c98161465f565b9050949350505050565b7f4e487b7100000000000000000000000000000000000000000000000000000000600052601160045260246000fd5b600061470d826136ce565b9150614718836136ce565b92508282101561472b5761472a6146d3565b5b828203905092915050565b600060808201905061474b60008301866139e0565b61475860208301856139e0565b61476560408301846139ef565b81810360608301526147768161465f565b9050949350505050565b600081519050919050565b600081905092915050565b6000819050602082019050919050565b6147af816132e8565b82525050565b60006147c183836147a6565b60208301905092915050565b6000602082019050919050565b60006147e582614780565b6147ef818561478b565b93506147fa83614796565b8060005b8381101561482b57815161481288826147b5565b975061481d836147cd565b9250506001810190506147fe565b5085935050505092915050565b600081519050919050565b600081905092915050565b6000819050602082019050919050565b614867816136ce565b82525050565b6000614879838361485e565b60208301905092915050565b6000602082019050919050565b600061489d82614838565b6148a78185614843565b93506148b28361484e565b8060005b838110156148e35781516148ca888261486d565b97506148d583614885565b9250506001810190506148b6565b5085935050505092915050565b60006148fc828c6147da565b9150614908828b61408f565b601482019150614918828a61408f565b6014820191506149288289614892565b9150614934828861408f565b601482019150614944828761408f565b6014820191506149548286614892565b915061496082856140b0565b60208201915061497082846143a9565b6004820191508190509a9950505050505050505050565b7f4e487b7100000000000000000000000000000000000000000000000000000000600052603260045260246000fd5b7f72656465656d45524337323142756e646c653a20494e56414c49445f5052494360008201527f4500000000000000000000000000000000000000000000000000000000000000602082015250565b6000614a12602183613353565b9150614a1d826149b6565b604082019050919050565b60006020820190508181036000830152614a4181614a05565b9050919050565b6000614a53826136ce565b9150614a5e836136ce565b9250827fffffffffffffffffffffffffffffffffffffffffffffffffffffffffffffffff03821115614a9357614a926146d3565b5b828201905092915050565b6000614aa9826136ce565b91507fffffffffffffffffffffffffffffffffffffffffffffffffffffffffffffffff821415614adc57614adb6146d3565b5b600182019050919050565b7f19457468657265756d205369676e6564204d6573736167653a0a333200000000600082015250565b6000614b1d601c83614194565b9150614b2882614ae7565b601c82019050919050565b6000819050919050565b6000819050919050565b614b58614b5382614b33565b614b3d565b82525050565b6000614b6982614b10565b9150614b758284614b47565b60208201915081905092915050565b7f45434453413a20696e76616c6964207369676e61747572650000000000000000600082015250565b6000614bba601883613353565b9150614bc582614b84565b602082019050919050565b60006020820190508181036000830152614be981614bad565b9050919050565b7f45434453413a20696e76616c6964207369676e6174757265206c656e67746800600082015250565b6000614c26601f83613353565b9150614c3182614bf0565b602082019050919050565b60006020820190508181036000830152614c5581614c19565b9050919050565b7f45434453413a20696e76616c6964207369676e6174757265202773272076616c60008201527f7565000000000000000000000000000000000000000000000000000000000000602082015250565b6000614cb8602283613353565b9150614cc382614c5c565b604082019050919050565b60006020820190508181036000830152614ce781614cab565b9050919050565b7f45434453413a20696e76616c6964207369676e6174757265202776272076616c60008201527f7565000000000000000000000000000000000000000000000000000000000000602082015250565b6000614d4a602283613353565b9150614d5582614cee565b604082019050919050565b60006020820190508181036000830152614d7981614d3d565b9050919050565b6000604082019050614d9560008301856139ef565b614da260208301846139ef565b9392505050565b600081519050614db8816132fa565b92915050565b600081519050614dcd816136d8565b92915050565b60008060408385031215614dea57614de9612fa5565b5b6000614df885828601614da9565b9250506020614e0985828601614dbe565b9150509250929050565b6000606082019050614e2860008301866139e0565b614e3560208301856139e0565b614e4260408301846139ef565b949350505050565b6000614e55826136ce565b9150614e60836136ce565b9250817fffffffffffffffffffffffffffffffffffffffffffffffffffffffffffffffff0483118215151615614e9957614e986146d3565b5b828202905092915050565b7f4e487b7100000000000000000000000000000000000000000000000000000000600052601260045260246000fd5b6000614ede826136ce565b9150614ee9836136ce565b925082614ef957614ef8614ea4565b5b828204905092915050565b6000604082019050614f1960008301856139e0565b614f2660208301846139ef565b9392505050565b6000604082019050614f4260008301856139e0565b614f4f60208301846139e0565b9392505050565b600060208284031215614f6c57614f6b612fa5565b5b6000614f7a84828501614dbe565b91505092915050565b7f657865637574655061796d656e743a20494e53554646494349454e545f414c4c60008201527f4f57414e43450000000000000000000000000000000000000000000000000000602082015250565b6000614fdf602683613353565b9150614fea82614f83565b604082019050919050565b6000602082019050818103600083015261500e81614fd2565b9050919050565b6000819050919050565b6000819050919050565b600061504461503f61503a84615015565b61501f565b6136ce565b9050919050565b61505481615029565b82525050565b600061506582614780565b61506f8185613ead565b935061507a83614796565b8060005b838110156150ab5781516150928882613ed7565b975061509d836147cd565b92505060018101905061507e565b5085935050505092915050565b600060a0820190506150cd60008301886139ef565b6150da602083018761504b565b81810360408301526150ec818661505a565b90506150fb60608301856139e0565b61510860808301846139ef565b9695505050505050565b600061512561512084613bfa565b6136ae565b9050808382526020820190506020840283018581111561514857615147612ffc565b5b835b81811015615171578061515d8882614dbe565b84526020840193505060208101905061514a565b5050509392505050565b600082601f8301126151905761518f612ff2565b5b81516151a0848260208601615112565b91505092915050565b6000602082840312156151bf576151be612fa5565b5b600082015167ffffffffffffffff8111156151dd576151dc612faa565b5b6151e98482850161517b565b91505092915050565b6151fb81614b33565b82525050565b600060ff82169050919050565b61521781615201565b82525050565b600060808201905061523260008301876151f2565b61523f602083018661520e565b61524c60408301856151f2565b61525960608301846151f2565b95945050505050565b60007fffffffff0000000000000000000000000000000000000000000000000000000082169050919050565b61529781615262565b82525050565b60006020820190506152b2600083018461528e565b92915050565b7f5361666545524332303a204552433230206f7065726174696f6e20646964206e60008201527f6f74207375636365656400000000000000000000000000000000000000000000602082015250565b6000615314602a83613353565b915061531f826152b8565b604082019050919050565b6000602082019050818103600083015261534381615307565b9050919050565b7f416464726573733a20696e73756666696369656e742062616c616e636520666f60008201527f722063616c6c0000000000000000000000000000000000000000000000000000602082015250565b60006153a6602683613353565b91506153b18261534a565b604082019050919050565b600060208201905081810360008301526153d581615399565b9050919050565b7f416464726573733a2063616c6c20746f206e6f6e2d636f6e7472616374000000600082015250565b6000615412601d83613353565b915061541d826153dc565b602082019050919050565b6000602082019050818103600083015261544181615405565b9050919050565b600061545382614533565b61545d8185613353565b935061546d8185602086016142aa565b6154768161363d565b840191505092915050565b6000602082019050818103600083015261549b8184615448565b90509291505056fea26469706673582212207fcaea7e4e3f8d32cbbb1e3453ae440d756804b12a6bd3c69ee0811cfc1236c864736f6c63430008090033",
  "linkReferences": {},
  "deployedLinkReferences": {}
}