{
  "_format": "hh-sol-artifact-1",
  "contractName": "FERC721V1",
  "sourceName": "contracts/tokens/FERC721V1.sol",
  "abi": [
    {
      "inputs": [
        {
          "internalType": "address",
          "name": "minter",
          "type": "address"
        },
        {
          "internalType": "address",
          "name": "childChainManager",
          "type": "address"
        },
        {
          "internalType": "string",
          "name": "name_",
          "type": "string"
        },
        {
          "internalType": "string",
          "name": "symbol_",
          "type": "string"
        },
        {
          "internalType": "string",
          "name": "baseTokenURI",
          "type": "string"
        },
        {
          "internalType": "string",
          "name": "contractURI_",
          "type": "string"
        }
      ],
      "stateMutability": "nonpayable",
      "type": "constructor"
    },
    {
      "anonymous": false,
      "inputs": [
        {
          "indexed": true,
          "internalType": "address",
          "name": "owner",
          "type": "address"
        },
        {
          "indexed": true,
          "internalType": "address",
          "name": "approved",
          "type": "address"
        },
        {
          "indexed": true,
          "internalType": "uint256",
          "name": "id",
          "type": "uint256"
        }
      ],
      "name": "Approval",
      "type": "event"
    },
    {
      "anonymous": false,
      "inputs": [
        {
          "indexed": true,
          "internalType": "address",
          "name": "owner",
          "type": "address"
        },
        {
          "indexed": true,
          "internalType": "address",
          "name": "operator",
          "type": "address"
        },
        {
          "indexed": false,
          "internalType": "bool",
          "name": "approved",
          "type": "bool"
        }
      ],
      "name": "ApprovalForAll",
      "type": "event"
    },
    {
      "anonymous": false,
      "inputs": [
        {
          "indexed": true,
          "internalType": "bytes32",
          "name": "role",
          "type": "bytes32"
        },
        {
          "indexed": true,
          "internalType": "bytes32",
          "name": "previousAdminRole",
          "type": "bytes32"
        },
        {
          "indexed": true,
          "internalType": "bytes32",
          "name": "newAdminRole",
          "type": "bytes32"
        }
      ],
      "name": "RoleAdminChanged",
      "type": "event"
    },
    {
      "anonymous": false,
      "inputs": [
        {
          "indexed": true,
          "internalType": "bytes32",
          "name": "role",
          "type": "bytes32"
        },
        {
          "indexed": true,
          "internalType": "address",
          "name": "account",
          "type": "address"
        },
        {
          "indexed": true,
          "internalType": "address",
          "name": "sender",
          "type": "address"
        }
      ],
      "name": "RoleGranted",
      "type": "event"
    },
    {
      "anonymous": false,
      "inputs": [
        {
          "indexed": true,
          "internalType": "bytes32",
          "name": "role",
          "type": "bytes32"
        },
        {
          "indexed": true,
          "internalType": "address",
          "name": "account",
          "type": "address"
        },
        {
          "indexed": true,
          "internalType": "address",
          "name": "sender",
          "type": "address"
        }
      ],
      "name": "RoleRevoked",
      "type": "event"
    },
    {
      "anonymous": false,
      "inputs": [
        {
          "indexed": true,
          "internalType": "address",
          "name": "from",
          "type": "address"
        },
        {
          "indexed": true,
          "internalType": "address",
          "name": "to",
          "type": "address"
        },
        {
          "indexed": true,
          "internalType": "uint256",
          "name": "id",
          "type": "uint256"
        }
      ],
      "name": "Transfer",
      "type": "event"
    },
    {
      "anonymous": false,
      "inputs": [
        {
          "indexed": true,
          "internalType": "address",
          "name": "from",
          "type": "address"
        },
        {
          "indexed": true,
          "internalType": "address",
          "name": "to",
          "type": "address"
        },
        {
          "indexed": true,
          "internalType": "uint256",
          "name": "tokenId",
          "type": "uint256"
        },
        {
          "indexed": false,
          "internalType": "bytes",
          "name": "metaData",
          "type": "bytes"
        }
      ],
      "name": "TransferWithMetadata",
      "type": "event"
    },
    {
      "anonymous": false,
      "inputs": [
        {
          "indexed": false,
          "internalType": "string",
          "name": "value",
          "type": "string"
        },
        {
          "indexed": true,
          "internalType": "uint256",
          "name": "id",
          "type": "uint256"
        }
      ],
      "name": "URI",
      "type": "event"
    },
    {
      "anonymous": false,
      "inputs": [
        {
          "indexed": true,
          "internalType": "address",
          "name": "user",
          "type": "address"
        },
        {
          "indexed": false,
          "internalType": "uint256[]",
          "name": "tokenIds",
          "type": "uint256[]"
        }
      ],
      "name": "WithdrawnBatch",
      "type": "event"
    },
    {
      "inputs": [],
      "name": "BATCH_LIMIT",
      "outputs": [
        {
          "internalType": "uint256",
          "name": "",
          "type": "uint256"
        }
      ],
      "stateMutability": "view",
      "type": "function"
    },
    {
      "inputs": [],
      "name": "DEFAULT_ADMIN_ROLE",
      "outputs": [
        {
          "internalType": "bytes32",
          "name": "",
          "type": "bytes32"
        }
      ],
      "stateMutability": "view",
      "type": "function"
    },
    {
      "inputs": [],
      "name": "DEPOSITOR_ROLE",
      "outputs": [
        {
          "internalType": "bytes32",
          "name": "",
          "type": "bytes32"
        }
      ],
      "stateMutability": "view",
      "type": "function"
    },
    {
      "inputs": [],
      "name": "MINTER_ROLE",
      "outputs": [
        {
          "internalType": "bytes32",
          "name": "",
          "type": "bytes32"
        }
      ],
      "stateMutability": "view",
      "type": "function"
    },
    {
      "inputs": [
        {
          "internalType": "address",
          "name": "to",
          "type": "address"
        },
        {
          "internalType": "uint256",
          "name": "id",
          "type": "uint256"
        }
      ],
      "name": "approve",
      "outputs": [],
      "stateMutability": "nonpayable",
      "type": "function"
    },
    {
      "inputs": [
        {
          "internalType": "address",
          "name": "owner",
          "type": "address"
        }
      ],
      "name": "balanceOf",
      "outputs": [
        {
          "internalType": "uint256",
          "name": "",
          "type": "uint256"
        }
      ],
      "stateMutability": "view",
      "type": "function"
    },
    {
      "inputs": [
        {
          "internalType": "uint256",
          "name": "id",
          "type": "uint256"
        }
      ],
      "name": "burn",
      "outputs": [],
      "stateMutability": "nonpayable",
      "type": "function"
    },
    {
      "inputs": [],
      "name": "contractURI",
      "outputs": [
        {
          "internalType": "string",
          "name": "",
          "type": "string"
        }
      ],
      "stateMutability": "view",
      "type": "function"
    },
    {
      "inputs": [
        {
          "internalType": "uint256",
          "name": "id",
          "type": "uint256"
        }
      ],
      "name": "creatorOf",
      "outputs": [
        {
          "internalType": "address",
          "name": "",
          "type": "address"
        }
      ],
      "stateMutability": "view",
      "type": "function"
    },
    {
      "inputs": [
        {
          "internalType": "address",
          "name": "user",
          "type": "address"
        },
        {
          "internalType": "bytes",
          "name": "depositData",
          "type": "bytes"
        }
      ],
      "name": "deposit",
      "outputs": [],
      "stateMutability": "nonpayable",
      "type": "function"
    },
    {
      "inputs": [
        {
          "internalType": "uint256",
          "name": "id",
          "type": "uint256"
        }
      ],
      "name": "getApproved",
      "outputs": [
        {
          "internalType": "address",
          "name": "",
          "type": "address"
        }
      ],
      "stateMutability": "view",
      "type": "function"
    },
    {
      "inputs": [
        {
          "internalType": "bytes32",
          "name": "role",
          "type": "bytes32"
        }
      ],
      "name": "getRoleAdmin",
      "outputs": [
        {
          "internalType": "bytes32",
          "name": "",
          "type": "bytes32"
        }
      ],
      "stateMutability": "view",
      "type": "function"
    },
    {
      "inputs": [
        {
          "internalType": "bytes32",
          "name": "role",
          "type": "bytes32"
        },
        {
          "internalType": "address",
          "name": "account",
          "type": "address"
        }
      ],
      "name": "grantRole",
      "outputs": [],
      "stateMutability": "nonpayable",
      "type": "function"
    },
    {
      "inputs": [
        {
          "internalType": "bytes32",
          "name": "role",
          "type": "bytes32"
        },
        {
          "internalType": "address",
          "name": "account",
          "type": "address"
        }
      ],
      "name": "hasRole",
      "outputs": [
        {
          "internalType": "bool",
          "name": "",
          "type": "bool"
        }
      ],
      "stateMutability": "view",
      "type": "function"
    },
    {
      "inputs": [
        {
          "internalType": "address",
          "name": "owner",
          "type": "address"
        },
        {
          "internalType": "address",
          "name": "operator",
          "type": "address"
        }
      ],
      "name": "isApprovedForAll",
      "outputs": [
        {
          "internalType": "bool",
          "name": "",
          "type": "bool"
        }
      ],
      "stateMutability": "view",
      "type": "function"
    },
    {
      "inputs": [
        {
          "internalType": "uint256",
          "name": "id",
          "type": "uint256"
        }
      ],
      "name": "isPermanentURI",
      "outputs": [
        {
          "internalType": "bool",
          "name": "",
          "type": "bool"
        }
      ],
      "stateMutability": "view",
      "type": "function"
    },
    {
      "inputs": [
        {
          "components": [
            {
              "internalType": "address",
              "name": "token",
              "type": "address"
            },
            {
              "internalType": "address",
              "name": "to",
              "type": "address"
            },
            {
              "internalType": "uint256",
              "name": "id",
              "type": "uint256"
            },
            {
              "internalType": "string",
              "name": "uri",
              "type": "string"
            },
            {
              "components": [
                {
                  "internalType": "address",
                  "name": "recipient",
                  "type": "address"
                },
                {
                  "internalType": "uint24",
                  "name": "amount",
                  "type": "uint24"
                }
              ],
              "internalType": "struct ERC2981Base.RoyaltyInfo",
              "name": "royalty",
              "type": "tuple"
            }
          ],
          "internalType": "struct MintERC721Order",
          "name": "order",
          "type": "tuple"
        },
        {
          "internalType": "bool",
          "name": "approve_",
          "type": "bool"
        },
        {
          "internalType": "bool",
          "name": "freezeTokenURI",
          "type": "bool"
        },
        {
          "internalType": "bytes",
          "name": "data",
          "type": "bytes"
        }
      ],
      "name": "mint",
      "outputs": [],
      "stateMutability": "nonpayable",
      "type": "function"
    },
    {
      "inputs": [
        {
          "components": [
            {
              "internalType": "address",
              "name": "token",
              "type": "address"
            },
            {
              "internalType": "address",
              "name": "to",
              "type": "address"
            },
            {
              "internalType": "uint256[]",
              "name": "ids",
              "type": "uint256[]"
            },
            {
              "internalType": "string[]",
              "name": "uris",
              "type": "string[]"
            },
            {
              "components": [
                {
                  "internalType": "address",
                  "name": "recipient",
                  "type": "address"
                },
                {
                  "internalType": "uint24",
                  "name": "amount",
                  "type": "uint24"
                }
              ],
              "internalType": "struct ERC2981Base.RoyaltyInfo",
              "name": "royalty",
              "type": "tuple"
            }
          ],
          "internalType": "struct MintERC721BatchOrder",
          "name": "order",
          "type": "tuple"
        },
        {
          "internalType": "bool",
          "name": "approve_",
          "type": "bool"
        },
        {
          "internalType": "bool",
          "name": "freezeTokenURI",
          "type": "bool"
        },
        {
          "internalType": "bytes",
          "name": "data",
          "type": "bytes"
        }
      ],
      "name": "mintBatch",
      "outputs": [],
      "stateMutability": "nonpayable",
      "type": "function"
    },
    {
      "inputs": [],
      "name": "name",
      "outputs": [
        {
          "internalType": "string",
          "name": "",
          "type": "string"
        }
      ],
      "stateMutability": "view",
      "type": "function"
    },
    {
      "inputs": [
        {
          "internalType": "uint256",
          "name": "id",
          "type": "uint256"
        }
      ],
      "name": "ownerOf",
      "outputs": [
        {
          "internalType": "address",
          "name": "",
          "type": "address"
        }
      ],
      "stateMutability": "view",
      "type": "function"
    },
    {
      "inputs": [
        {
          "internalType": "bytes32",
          "name": "role",
          "type": "bytes32"
        },
        {
          "internalType": "address",
          "name": "account",
          "type": "address"
        }
      ],
      "name": "renounceRole",
      "outputs": [],
      "stateMutability": "nonpayable",
      "type": "function"
    },
    {
      "inputs": [
        {
          "internalType": "bytes32",
          "name": "role",
          "type": "bytes32"
        },
        {
          "internalType": "address",
          "name": "account",
          "type": "address"
        }
      ],
      "name": "revokeRole",
      "outputs": [],
      "stateMutability": "nonpayable",
      "type": "function"
    },
    {
      "inputs": [
        {
          "internalType": "uint256",
          "name": "tokenId",
          "type": "uint256"
        },
        {
          "internalType": "uint256",
          "name": "value",
          "type": "uint256"
        }
      ],
      "name": "royaltyInfo",
      "outputs": [
        {
          "internalType": "address",
          "name": "receiver",
          "type": "address"
        },
        {
          "internalType": "uint256",
          "name": "royaltyAmount",
          "type": "uint256"
        }
      ],
      "stateMutability": "view",
      "type": "function"
    },
    {
      "inputs": [
        {
          "internalType": "address",
          "name": "from",
          "type": "address"
        },
        {
          "internalType": "address",
          "name": "to",
          "type": "address"
        },
        {
          "internalType": "uint256",
          "name": "id",
          "type": "uint256"
        }
      ],
      "name": "safeTransferFrom",
      "outputs": [],
      "stateMutability": "nonpayable",
      "type": "function"
    },
    {
      "inputs": [
        {
          "internalType": "address",
          "name": "from",
          "type": "address"
        },
        {
          "internalType": "address",
          "name": "to",
          "type": "address"
        },
        {
          "internalType": "uint256",
          "name": "id",
          "type": "uint256"
        },
        {
          "internalType": "bytes",
          "name": "_data",
          "type": "bytes"
        }
      ],
      "name": "safeTransferFrom",
      "outputs": [],
      "stateMutability": "nonpayable",
      "type": "function"
    },
    {
      "inputs": [
        {
          "internalType": "address",
          "name": "operator",
          "type": "address"
        },
        {
          "internalType": "bool",
          "name": "approved",
          "type": "bool"
        }
      ],
      "name": "setApprovalForAll",
      "outputs": [],
      "stateMutability": "nonpayable",
      "type": "function"
    },
    {
      "inputs": [
        {
          "internalType": "string",
          "name": "baseTokenURI",
          "type": "string"
        }
      ],
      "name": "setBaseTokenURI",
      "outputs": [],
      "stateMutability": "nonpayable",
      "type": "function"
    },
    {
      "inputs": [
        {
          "internalType": "string",
          "name": "contractURI_",
          "type": "string"
        }
      ],
      "name": "setContractURI",
      "outputs": [],
      "stateMutability": "nonpayable",
      "type": "function"
    },
    {
      "inputs": [
        {
          "internalType": "uint256",
          "name": "id",
          "type": "uint256"
        },
        {
          "internalType": "string",
          "name": "newUri",
          "type": "string"
        },
        {
          "internalType": "bool",
          "name": "freeze",
          "type": "bool"
        }
      ],
      "name": "setTokenURI",
      "outputs": [],
      "stateMutability": "nonpayable",
      "type": "function"
    },
    {
      "inputs": [
        {
          "internalType": "bytes4",
          "name": "interfaceId",
          "type": "bytes4"
        }
      ],
      "name": "supportsInterface",
      "outputs": [
        {
          "internalType": "bool",
          "name": "",
          "type": "bool"
        }
      ],
      "stateMutability": "view",
      "type": "function"
    },
    {
      "inputs": [],
      "name": "symbol",
      "outputs": [
        {
          "internalType": "string",
          "name": "",
          "type": "string"
        }
      ],
      "stateMutability": "view",
      "type": "function"
    },
    {
      "inputs": [
        {
          "internalType": "uint256",
          "name": "id",
          "type": "uint256"
        }
      ],
      "name": "tokenURI",
      "outputs": [
        {
          "internalType": "string",
          "name": "",
          "type": "string"
        }
      ],
      "stateMutability": "view",
      "type": "function"
    },
    {
      "inputs": [
        {
          "internalType": "address",
          "name": "from",
          "type": "address"
        },
        {
          "internalType": "address",
          "name": "to",
          "type": "address"
        },
        {
          "internalType": "uint256",
          "name": "id",
          "type": "uint256"
        }
      ],
      "name": "transferFrom",
      "outputs": [],
      "stateMutability": "nonpayable",
      "type": "function"
    },
    {
      "inputs": [
        {
          "internalType": "uint256",
          "name": "id",
          "type": "uint256"
        }
      ],
      "name": "withdraw",
      "outputs": [],
      "stateMutability": "nonpayable",
      "type": "function"
    },
    {
      "inputs": [
        {
          "internalType": "uint256[]",
          "name": "ids",
          "type": "uint256[]"
        }
      ],
      "name": "withdrawBatch",
      "outputs": [],
      "stateMutability": "nonpayable",
      "type": "function"
    },
    {
      "inputs": [
        {
          "internalType": "uint256",
          "name": "id",
          "type": "uint256"
        }
      ],
      "name": "withdrawWithMetadata",
      "outputs": [],
      "stateMutability": "nonpayable",
      "type": "function"
    },
    {
      "inputs": [
        {
          "internalType": "uint256",
          "name": "",
          "type": "uint256"
        }
      ],
      "name": "withdrawnTokens",
      "outputs": [
        {
          "internalType": "bool",
          "name": "",
          "type": "bool"
        }
      ],
      "stateMutability": "view",
      "type": "function"
    }
  ],
  "bytecode": "0x60806040523480156200001157600080fd5b506040516200639e3803806200639e833981810160405281019062000037919062000948565b83600290805190602001906200004f92919062000696565b5082600390805190602001906200006892919062000696565b506200007e6000801b336200011060201b60201c565b620000b07f9f2df0fed2c77648de5860a4cc508cd0818c85b8b8a1ab4ceeef8d981c8956a6876200012660201b60201c565b620000e27f8f4f2da22e8ac8f11e15f9fc141cddbb5deea8800186560abb6e68c5496619a9866200012660201b60201c565b620000f3826200016f60201b60201c565b6200010481620001b160201b60201c565b50505050505062000e31565b620001228282620001f360201b60201c565b5050565b6200013782620002e460201b60201c565b62000158816200014c6200030460201b60201c565b6200030c60201b60201c565b6200016a8383620001f360201b60201c565b505050565b6000801b6200019481620001886200030460201b60201c565b6200030c60201b60201c565b8160049080519060200190620001ac92919062000696565b505050565b6000801b620001d681620001ca6200030460201b60201c565b6200030c60201b60201c565b8160059080519060200190620001ee92919062000696565b505050565b620002058282620003d060201b60201c565b620002e057600180600084815260200190815260200160002060000160008373ffffffffffffffffffffffffffffffffffffffff1673ffffffffffffffffffffffffffffffffffffffff16815260200190815260200160002060006101000a81548160ff021916908315150217905550620002856200030460201b60201c565b73ffffffffffffffffffffffffffffffffffffffff168173ffffffffffffffffffffffffffffffffffffffff16837f2f8788117e7eff1d82e926ec794901d17c78024a50270940304540a733656f0d60405160405180910390a45b5050565b600060016000838152602001908152602001600020600101549050919050565b600033905090565b6200031e8282620003d060201b60201c565b620003cc57620003518173ffffffffffffffffffffffffffffffffffffffff1660146200043b60201b620021961760201c565b6200036c8360001c60206200043b60201b620021961760201c565b6040516020016200037f92919062000b4d565b6040516020818303038152906040526040517f08c379a0000000000000000000000000000000000000000000000000000000008152600401620003c3919062000be1565b60405180910390fd5b5050565b60006001600084815260200190815260200160002060000160008373ffffffffffffffffffffffffffffffffffffffff1673ffffffffffffffffffffffffffffffffffffffff16815260200190815260200160002060009054906101000a900460ff16905092915050565b60606000600283600262000450919062000c3e565b6200045c919062000c9f565b67ffffffffffffffff811115620004785762000477620007da565b5b6040519080825280601f01601f191660200182016040528015620004ab5781602001600182028036833780820191505090505b5090507f300000000000000000000000000000000000000000000000000000000000000081600081518110620004e657620004e562000cfc565b5b60200101907effffffffffffffffffffffffffffffffffffffffffffffffffffffffffffff1916908160001a9053507f7800000000000000000000000000000000000000000000000000000000000000816001815181106200054d576200054c62000cfc565b5b60200101907effffffffffffffffffffffffffffffffffffffffffffffffffffffffffffff1916908160001a905350600060018460026200058f919062000c3e565b6200059b919062000c9f565b90505b600181111562000645577f3031323334353637383961626364656600000000000000000000000000000000600f861660108110620005e157620005e062000cfc565b5b1a60f81b828281518110620005fb57620005fa62000cfc565b5b60200101907effffffffffffffffffffffffffffffffffffffffffffffffffffffffffffff1916908160001a905350600485901c9450806200063d9062000d2b565b90506200059e565b50600084146200068c576040517f08c379a0000000000000000000000000000000000000000000000000000000008152600401620006839062000daa565b60405180910390fd5b8091505092915050565b828054620006a49062000dfb565b90600052602060002090601f016020900481019282620006c8576000855562000714565b82601f10620006e357805160ff191683800117855562000714565b8280016001018555821562000714579182015b8281111562000713578251825591602001919060010190620006f6565b5b50905062000723919062000727565b5090565b5b808211156200074257600081600090555060010162000728565b5090565b6000604051905090565b600080fd5b600080fd5b600073ffffffffffffffffffffffffffffffffffffffff82169050919050565b600062000787826200075a565b9050919050565b62000799816200077a565b8114620007a557600080fd5b50565b600081519050620007b9816200078e565b92915050565b600080fd5b600080fd5b6000601f19601f8301169050919050565b7f4e487b7100000000000000000000000000000000000000000000000000000000600052604160045260246000fd5b6200081482620007c9565b810181811067ffffffffffffffff82111715620008365762000835620007da565b5b80604052505050565b60006200084b62000746565b905062000859828262000809565b919050565b600067ffffffffffffffff8211156200087c576200087b620007da565b5b6200088782620007c9565b9050602081019050919050565b60005b83811015620008b457808201518184015260208101905062000897565b83811115620008c4576000848401525b50505050565b6000620008e1620008db846200085e565b6200083f565b9050828152602081018484840111156200090057620008ff620007c4565b5b6200090d84828562000894565b509392505050565b600082601f8301126200092d576200092c620007bf565b5b81516200093f848260208601620008ca565b91505092915050565b60008060008060008060c0878903121562000968576200096762000750565b5b60006200097889828a01620007a8565b96505060206200098b89828a01620007a8565b955050604087015167ffffffffffffffff811115620009af57620009ae62000755565b5b620009bd89828a0162000915565b945050606087015167ffffffffffffffff811115620009e157620009e062000755565b5b620009ef89828a0162000915565b935050608087015167ffffffffffffffff81111562000a135762000a1262000755565b5b62000a2189828a0162000915565b92505060a087015167ffffffffffffffff81111562000a455762000a4462000755565b5b62000a5389828a0162000915565b9150509295509295509295565b600081905092915050565b7f416363657373436f6e74726f6c3a206163636f756e7420000000000000000000600082015250565b600062000aa360178362000a60565b915062000ab08262000a6b565b601782019050919050565b600081519050919050565b600062000ad38262000abb565b62000adf818562000a60565b935062000af181856020860162000894565b80840191505092915050565b7f206973206d697373696e6720726f6c6520000000000000000000000000000000600082015250565b600062000b3560118362000a60565b915062000b428262000afd565b601182019050919050565b600062000b5a8262000a94565b915062000b68828562000ac6565b915062000b758262000b26565b915062000b83828462000ac6565b91508190509392505050565b600082825260208201905092915050565b600062000bad8262000abb565b62000bb9818562000b8f565b935062000bcb81856020860162000894565b62000bd681620007c9565b840191505092915050565b6000602082019050818103600083015262000bfd818462000ba0565b905092915050565b6000819050919050565b7f4e487b7100000000000000000000000000000000000000000000000000000000600052601160045260246000fd5b600062000c4b8262000c05565b915062000c588362000c05565b9250817fffffffffffffffffffffffffffffffffffffffffffffffffffffffffffffffff048311821515161562000c945762000c9362000c0f565b5b828202905092915050565b600062000cac8262000c05565b915062000cb98362000c05565b9250827fffffffffffffffffffffffffffffffffffffffffffffffffffffffffffffffff0382111562000cf15762000cf062000c0f565b5b828201905092915050565b7f4e487b7100000000000000000000000000000000000000000000000000000000600052603260045260246000fd5b600062000d388262000c05565b9150600082141562000d4f5762000d4e62000c0f565b5b600182039050919050565b7f537472696e67733a20686578206c656e67746820696e73756666696369656e74600082015250565b600062000d9260208362000b8f565b915062000d9f8262000d5a565b602082019050919050565b6000602082019050818103600083015262000dc58162000d83565b9050919050565b7f4e487b7100000000000000000000000000000000000000000000000000000000600052602260045260246000fd5b6000600282049050600182168062000e1457607f821691505b6020821081141562000e2b5762000e2a62000dcc565b5b50919050565b61555d8062000e416000396000f3fe608060405234801561001057600080fd5b50600436106102275760003560e01c806391d1485411610130578063b2dd49ca116100b8578063d547741f1161007c578063d547741f14610695578063da8438ac146106b1578063dece1b10146106cd578063e8a3d485146106e9578063e985e9c51461070757610227565b8063b2dd49ca146105f3578063b88d4fde1461060f578063c87b56dd1461062b578063cf2c52cb1461065b578063d53913931461067757610227565b80639c8d4156116100ff5780639c8d415614610563578063a217fddf1461057f578063a22cb4651461059d578063a3b0b5a3146105b9578063a5e584dc146105d757610227565b806391d14854146104db578063938e3d7b1461050b5780639559c0bd1461052757806395d89b411461054557610227565b80632e1a7d4d116101b357806342842e0e1161018257806342842e0e1461041357806342966c681461042f578063589a17431461044b5780636352211e1461047b57806370a08231146104ab57610227565b80632e1a7d4d146103a35780632f2ff15d146103bf57806330176e13146103db57806336568abe146103f757610227565b8063095ea7b3116101fa578063095ea7b3146102da5780631e7d9dbb146102f657806323b872dd14610326578063248a9ca3146103425780632a55205a1461037257610227565b806301ffc9a71461022c57806306fdde031461025c57806307a974fc1461027a578063081812fc146102aa575b600080fd5b61024660048036038101906102419190613374565b610737565b60405161025391906133bc565b60405180910390f35b610264610836565b6040516102719190613470565b60405180910390f35b610294600480360381019061028f91906134c8565b6108c8565b6040516102a191906133bc565b60405180910390f35b6102c460048036038101906102bf91906134c8565b6108e8565b6040516102d19190613536565b60405180910390f35b6102f460048036038101906102ef919061357d565b61096d565b005b610310600480360381019061030b91906134c8565b610a85565b60405161031d91906133bc565b60405180910390f35b610340600480360381019061033b91906135bd565b610aaf565b005b61035c60048036038101906103579190613646565b610b0f565b6040516103699190613682565b60405180910390f35b61038c6004803603810190610387919061369d565b610b2f565b60405161039a9291906136ec565b60405180910390f35b6103bd60048036038101906103b891906134c8565b610bff565b005b6103d960048036038101906103d49190613715565b610cb4565b005b6103f560048036038101906103f0919061388a565b610cdd565b005b610411600480360381019061040c9190613715565b610d0d565b005b61042d600480360381019061042891906135bd565b610d90565b005b610449600480360381019061044491906134c8565b610db0565b005b610465600480360381019061046091906134c8565b610e0c565b6040516104729190613536565b60405180910390f35b610495600480360381019061049091906134c8565b610e49565b6040516104a29190613536565b60405180910390f35b6104c560048036038101906104c091906138d3565b610efb565b6040516104d29190613900565b60405180910390f35b6104f560048036038101906104f09190613715565b610fb3565b60405161050291906133bc565b60405180910390f35b6105256004803603810190610520919061388a565b61101e565b005b61052f61104e565b60405161053c9190613900565b60405180910390f35b61054d611053565b60405161055a9190613470565b60405180910390f35b61057d6004803603810190610578919061397b565b6110e5565b005b6105876112a0565b6040516105949190613682565b60405180910390f35b6105b760048036038101906105b291906139f4565b6112a7565b005b6105c1611420565b6040516105ce9190613682565b60405180910390f35b6105f160048036038101906105ec91906134c8565b611444565b005b61060d60048036038101906106089190613af9565b61158f565b005b61062960048036038101906106249190613b98565b6118bd565b005b610645600480360381019061064091906134c8565b611969565b6040516106529190613470565b60405180910390f35b61067560048036038101906106709190613c71565b6119ef565b005b61067f611b27565b60405161068c9190613682565b60405180910390f35b6106af60048036038101906106aa9190613715565b611b4b565b005b6106cb60048036038101906106c69190613d27565b611b74565b005b6106e760048036038101906106e29190613dba565b611e2d565b005b6106f1612074565b6040516106fe9190613470565b60405180910390f35b610721600480360381019061071c9190613e59565b612102565b60405161072e91906133bc565b60405180910390f35b60006380ac58cd60e01b7bffffffffffffffffffffffffffffffffffffffffffffffffffffffff1916827bffffffffffffffffffffffffffffffffffffffffffffffffffffffff191614806107d05750635b5e139f60e01b7bffffffffffffffffffffffffffffffffffffffffffffffffffffffff1916827bffffffffffffffffffffffffffffffffffffffffffffffffffffffff1916145b8061081f575063e8a3d48560e01b7bffffffffffffffffffffffffffffffffffffffffffffffffffffffff1916827bffffffffffffffffffffffffffffffffffffffffffffffffffffffff1916145b8061082f575061082e826123d2565b5b9050919050565b60606002805461084590613ec8565b80601f016020809104026020016040519081016040528092919081815260200182805461087190613ec8565b80156108be5780601f10610893576101008083540402835291602001916108be565b820191906000526020600020905b8154815290600101906020018083116108a157829003601f168201915b5050505050905090565b600d6020528060005260406000206000915054906101000a900460ff1681565b60006108f38261244c565b610932576040517f08c379a000000000000000000000000000000000000000000000000000000000815260040161092990613f6c565b60405180910390fd5b6008600083815260200190815260200160002060009054906101000a900473ffffffffffffffffffffffffffffffffffffffff169050919050565b600061097882610e49565b90508073ffffffffffffffffffffffffffffffffffffffff168373ffffffffffffffffffffffffffffffffffffffff1614156109e9576040517f08c379a00000000000000000000000000000000000000000000000000000000081526004016109e090613ffe565b60405180910390fd5b8073ffffffffffffffffffffffffffffffffffffffff16610a086124b8565b73ffffffffffffffffffffffffffffffffffffffff161480610a375750610a3681610a316124b8565b612102565b5b610a76576040517f08c379a0000000000000000000000000000000000000000000000000000000008152600401610a6d90614090565b60405180910390fd5b610a8083836124c0565b505050565b6000600b600083815260200190815260200160002060009054906101000a900460ff169050919050565b610ac0610aba6124b8565b82612579565b610aff576040517f08c379a0000000000000000000000000000000000000000000000000000000008152600401610af690614122565b60405180910390fd5b610b0a838383612657565b505050565b600060016000838152602001908152602001600020600101549050919050565b60008060008060008681526020019081526020016000206040518060400160405290816000820160009054906101000a900473ffffffffffffffffffffffffffffffffffffffff1673ffffffffffffffffffffffffffffffffffffffff1673ffffffffffffffffffffffffffffffffffffffff1681526020016000820160149054906101000a900462ffffff1662ffffff1662ffffff1681525050905080600001519250612710816020015162ffffff1685610beb9190614171565b610bf591906141fa565b9150509250929050565b610c0881610e49565b73ffffffffffffffffffffffffffffffffffffffff16610c266124b8565b73ffffffffffffffffffffffffffffffffffffffff1614610c7c576040517f08c379a0000000000000000000000000000000000000000000000000000000008152600401610c7390614277565b60405180910390fd5b6001600d600083815260200190815260200160002060006101000a81548160ff021916908315150217905550610cb1816128a8565b50565b610cbd82610b0f565b610cce81610cc96124b8565b6129e3565b610cd88383612a80565b505050565b6000801b610cf281610ced6124b8565b6129e3565b8160049080519060200190610d089291906131df565b505050565b610d156124b8565b73ffffffffffffffffffffffffffffffffffffffff168173ffffffffffffffffffffffffffffffffffffffff1614610d82576040517f08c379a0000000000000000000000000000000000000000000000000000000008152600401610d7990614309565b60405180910390fd5b610d8c8282612b60565b5050565b610dab838383604051806020016040528060008152506118bd565b505050565b610dc1610dbb6124b8565b82612579565b610e00576040517f08c379a0000000000000000000000000000000000000000000000000000000008152600401610df79061439b565b60405180910390fd5b610e09816128a8565b50565b6000600c600083815260200190815260200160002060009054906101000a900473ffffffffffffffffffffffffffffffffffffffff169050919050565b6000806006600084815260200190815260200160002060009054906101000a900473ffffffffffffffffffffffffffffffffffffffff169050600073ffffffffffffffffffffffffffffffffffffffff168173ffffffffffffffffffffffffffffffffffffffff161415610ef2576040517f08c379a0000000000000000000000000000000000000000000000000000000008152600401610ee99061442d565b60405180910390fd5b80915050919050565b60008073ffffffffffffffffffffffffffffffffffffffff168273ffffffffffffffffffffffffffffffffffffffff161415610f6c576040517f08c379a0000000000000000000000000000000000000000000000000000000008152600401610f63906144bf565b60405180910390fd5b600760008373ffffffffffffffffffffffffffffffffffffffff1673ffffffffffffffffffffffffffffffffffffffff168152602001908152602001600020549050919050565b60006001600084815260200190815260200160002060000160008373ffffffffffffffffffffffffffffffffffffffff1673ffffffffffffffffffffffffffffffffffffffff16815260200190815260200160002060009054906101000a900460ff16905092915050565b6000801b6110338161102e6124b8565b6129e3565b81600590805190602001906110499291906131df565b505050565b601481565b60606003805461106290613ec8565b80601f016020809104026020016040519081016040528092919081815260200182805461108e90613ec8565b80156110db5780601f106110b0576101008083540402835291602001916110db565b820191906000526020600020905b8154815290600101906020018083116110be57829003601f168201915b5050505050905090565b60008282905090506014811115611131576040517f08c379a00000000000000000000000000000000000000000000000000000000081526004016111289061452b565b60405180910390fd5b60005b818110156112435760008484838181106111515761115061454b565b5b90506020020135905061116381610e49565b73ffffffffffffffffffffffffffffffffffffffff166111816124b8565b73ffffffffffffffffffffffffffffffffffffffff1614816040516020016111a991906145f2565b604051602081830303815290604052906111f9576040517f08c379a00000000000000000000000000000000000000000000000000000000081526004016111f09190613470565b60405180910390fd5b506001600d600083815260200190815260200160002060006101000a81548160ff02191690831515021790555061122f816128a8565b50808061123b90614618565b915050611134565b5061124c6124b8565b73ffffffffffffffffffffffffffffffffffffffff167ff871896b17e9cb7a64941c62c188a4f5c621b86800e3d15452ece01ce56073df84846040516112939291906146d3565b60405180910390a2505050565b6000801b81565b60006112b16124b8565b90508273ffffffffffffffffffffffffffffffffffffffff168173ffffffffffffffffffffffffffffffffffffffff161415611322576040517f08c379a000000000000000000000000000000000000000000000000000000000815260040161131990614743565b60405180910390fd5b81600960008373ffffffffffffffffffffffffffffffffffffffff1673ffffffffffffffffffffffffffffffffffffffff16815260200190815260200160002060008573ffffffffffffffffffffffffffffffffffffffff1673ffffffffffffffffffffffffffffffffffffffff16815260200190815260200160002060006101000a81548160ff0219169083151502179055508273ffffffffffffffffffffffffffffffffffffffff168173ffffffffffffffffffffffffffffffffffffffff167f17307eab39ab6107e8899845ad3d59bd9653f200f220920489ca2b5937696c318460405161141391906133bc565b60405180910390a3505050565b7f8f4f2da22e8ac8f11e15f9fc141cddbb5deea8800186560abb6e68c5496619a981565b61144d81610e49565b73ffffffffffffffffffffffffffffffffffffffff1661146b6124b8565b73ffffffffffffffffffffffffffffffffffffffff16146114c1576040517f08c379a00000000000000000000000000000000000000000000000000000000081526004016114b890614277565b60405180910390fd5b6001600d600083815260200190815260200160002060006101000a81548160ff02191690831515021790555080600073ffffffffffffffffffffffffffffffffffffffff1661150f83610e49565b73ffffffffffffffffffffffffffffffffffffffff167ff94915c6d1fd521cee85359239227480c7e8776d7caf1fc3bacad5c269b66a1461154f85611969565b60405160200161155f9190613470565b60405160208183030381529060405260405161157b91906147b8565b60405180910390a461158c816128a8565b50565b7f9f2df0fed2c77648de5860a4cc508cd0818c85b8b8a1ab4ceeef8d981c8956a66115c1816115bc6124b8565b6129e3565b8480606001906115d191906147e9565b90508580604001906115e3919061484c565b905014611625576040517f08c379a000000000000000000000000000000000000000000000000000000000815260040161161c90614921565b60405180910390fd5b600061162f6124b8565b905060005b868060400190611644919061484c565b90508110156118b457600087806040019061165f919061484c565b838181106116705761166f61454b565b5b905060200201359050600088806060019061168b91906147e9565b8481811061169c5761169b61454b565b5b90506020028101906116ae9190614941565b9050116116f0576040517f08c379a00000000000000000000000000000000000000000000000000000000081526004016116e7906149f0565b60405180910390fd5b61170c88602001602081019061170691906138d3565b82612c42565b87806060019061171c91906147e9565b8381811061172d5761172c61454b565b5b905060200281019061173f9190614941565b600a6000848152602001908152602001600020919061175f929190613265565b508515611793576001600b600083815260200190815260200160002060006101000a81548160ff0219169083151502179055505b6117b260008960200160208101906117ab91906138d3565b8388612e56565b6117f1576040517f08c379a00000000000000000000000000000000000000000000000000000000081526004016117e890614a82565b60405180910390fd5b86156118025761180183826124c0565b5b600088608001602001602081019061181a9190614add565b62ffffff1611156118605761185f8189608001600001602081019061183f91906138d3565b8a60800160200160208101906118559190614add565b62ffffff16612fed565b5b807f6bb7ff708619ba0610cba295a58592e0451dee2622938c8755667688daf3529b61188b83611969565b6040516118989190613470565b60405180910390a25080806118ac90614618565b915050611634565b50505050505050565b6118ce6118c86124b8565b83612579565b61190d576040517f08c379a000000000000000000000000000000000000000000000000000000000815260040161190490614122565b60405180910390fd5b611918848484612657565b61192484848484612e56565b611963576040517f08c379a000000000000000000000000000000000000000000000000000000000815260040161195a90614a82565b60405180910390fd5b50505050565b60606119748261244c565b6119b3576040517f08c379a00000000000000000000000000000000000000000000000000000000081526004016119aa90614b7c565b60405180910390fd5b6004600a60008481526020019081526020016000206040516020016119d9929190614c30565b6040516020818303038152906040529050919050565b7f8f4f2da22e8ac8f11e15f9fc141cddbb5deea8800186560abb6e68c5496619a9611a2181611a1c6124b8565b6129e3565b6020838390501415611a7c5760008383810190611a3e91906134c8565b90506000600d600083815260200190815260200160002060006101000a81548160ff021916908315150217905550611a768582612c42565b50611b21565b60008383810190611a8d9190614d17565b905060008151905060005b81811015611b1d576000600d6000858481518110611ab957611ab861454b565b5b6020026020010151815260200190815260200160002060006101000a81548160ff021916908315150217905550611b0a87848381518110611afd57611afc61454b565b5b6020026020010151612c42565b8080611b1590614618565b915050611a98565b5050505b50505050565b7f9f2df0fed2c77648de5860a4cc508cd0818c85b8b8a1ab4ceeef8d981c8956a681565b611b5482610b0f565b611b6581611b606124b8565b6129e3565b611b6f8383612b60565b505050565b836000611b7f6124b8565b90508073ffffffffffffffffffffffffffffffffffffffff16600c600084815260200190815260200160002060009054906101000a900473ffffffffffffffffffffffffffffffffffffffff1673ffffffffffffffffffffffffffffffffffffffff161480611c145750611c137f9f2df0fed2c77648de5860a4cc508cd0818c85b8b8a1ab4ceeef8d981c8956a682610fb3565b5b611c53576040517f08c379a0000000000000000000000000000000000000000000000000000000008152600401611c4a90614dac565b60405180910390fd5b85611c5d81610e49565b73ffffffffffffffffffffffffffffffffffffffff16600c600083815260200190815260200160002060009054906101000a900473ffffffffffffffffffffffffffffffffffffffff1673ffffffffffffffffffffffffffffffffffffffff1614611cfd576040517f08c379a0000000000000000000000000000000000000000000000000000000008152600401611cf490614e18565b60405180910390fd5b86611d0781610a85565b15611d47576040517f08c379a0000000000000000000000000000000000000000000000000000000008152600401611d3e90614e84565b60405180910390fd5b8415611dc05760008787905011611d93576040517f08c379a0000000000000000000000000000000000000000000000000000000008152600401611d8a90614ef0565b60405180910390fd5b6001600b60008a815260200190815260200160002060006101000a81548160ff0219169083151502179055505b8686600a60008b81526020019081526020016000209190611de2929190613265565b50877f6bb7ff708619ba0610cba295a58592e0451dee2622938c8755667688daf3529b611e0e8a611969565b604051611e1b9190613470565b60405180910390a25050505050505050565b7f9f2df0fed2c77648de5860a4cc508cd0818c85b8b8a1ab4ceeef8d981c8956a6611e5f81611e5a6124b8565b6129e3565b6000858060600190611e719190614941565b905011611eb3576040517f08c379a0000000000000000000000000000000000000000000000000000000008152600401611eaa90614f5c565b60405180910390fd5b6000611ebd6124b8565b9050611edf866020016020810190611ed591906138d3565b8760400135612c42565b858060600190611eef9190614941565b600a6000896040013581526020019081526020016000209190611f13929190613265565b508315611f4b576001600b60008860400135815260200190815260200160002060006101000a81548160ff0219169083151502179055505b6000866080016020016020810190611f639190614add565b62ffffff161115611fad57611fac8660400135876080016000016020810190611f8c91906138d3565b886080016020016020810190611fa29190614add565b62ffffff16612fed565b5b611fd06000876020016020810190611fc591906138d3565b886040013586612e56565b61200f576040517f08c379a000000000000000000000000000000000000000000000000000000000815260040161200690614a82565b60405180910390fd5b8415612024576120238187604001356124c0565b5b85604001357f6bb7ff708619ba0610cba295a58592e0451dee2622938c8755667688daf3529b6120578860400135611969565b6040516120649190613470565b60405180910390a2505050505050565b6005805461208190613ec8565b80601f01602080910402602001604051908101604052809291908181526020018280546120ad90613ec8565b80156120fa5780601f106120cf576101008083540402835291602001916120fa565b820191906000526020600020905b8154815290600101906020018083116120dd57829003601f168201915b505050505081565b6000600960008473ffffffffffffffffffffffffffffffffffffffff1673ffffffffffffffffffffffffffffffffffffffff16815260200190815260200160002060008373ffffffffffffffffffffffffffffffffffffffff1673ffffffffffffffffffffffffffffffffffffffff16815260200190815260200160002060009054906101000a900460ff16905092915050565b6060600060028360026121a99190614171565b6121b39190614f7c565b67ffffffffffffffff8111156121cc576121cb61375f565b5b6040519080825280601f01601f1916602001820160405280156121fe5781602001600182028036833780820191505090505b5090507f3000000000000000000000000000000000000000000000000000000000000000816000815181106122365761223561454b565b5b60200101907effffffffffffffffffffffffffffffffffffffffffffffffffffffffffffff1916908160001a9053507f78000000000000000000000000000000000000000000000000000000000000008160018151811061229a5761229961454b565b5b60200101907effffffffffffffffffffffffffffffffffffffffffffffffffffffffffffff1916908160001a905350600060018460026122da9190614171565b6122e49190614f7c565b90505b6001811115612384577f3031323334353637383961626364656600000000000000000000000000000000600f8616601081106123265761232561454b565b5b1a60f81b82828151811061233d5761233c61454b565b5b60200101907effffffffffffffffffffffffffffffffffffffffffffffffffffffffffffff1916908160001a905350600485901c94508061237d90614fd2565b90506122e7565b50600084146123c8576040517f08c379a00000000000000000000000000000000000000000000000000000000081526004016123bf90615048565b60405180910390fd5b8091505092915050565b60007f7965db0b000000000000000000000000000000000000000000000000000000007bffffffffffffffffffffffffffffffffffffffffffffffffffffffff1916827bffffffffffffffffffffffffffffffffffffffffffffffffffffffff191614806124455750612444826130e8565b5b9050919050565b60008073ffffffffffffffffffffffffffffffffffffffff166006600084815260200190815260200160002060009054906101000a900473ffffffffffffffffffffffffffffffffffffffff1673ffffffffffffffffffffffffffffffffffffffff1614159050919050565b600033905090565b816008600083815260200190815260200160002060006101000a81548173ffffffffffffffffffffffffffffffffffffffff021916908373ffffffffffffffffffffffffffffffffffffffff160217905550808273ffffffffffffffffffffffffffffffffffffffff1661253383610e49565b73ffffffffffffffffffffffffffffffffffffffff167f8c5be1e5ebec7d5bd14f71427d1e84f3dd0314c0f7b2291e5b200ac8c7c3b92560405160405180910390a45050565b60006125848261244c565b6125c3576040517f08c379a00000000000000000000000000000000000000000000000000000000081526004016125ba906150da565b60405180910390fd5b60006125ce83610e49565b90508073ffffffffffffffffffffffffffffffffffffffff168473ffffffffffffffffffffffffffffffffffffffff16148061263d57508373ffffffffffffffffffffffffffffffffffffffff16612625846108e8565b73ffffffffffffffffffffffffffffffffffffffff16145b8061264e575061264d8185612102565b5b91505092915050565b8273ffffffffffffffffffffffffffffffffffffffff1661267782610e49565b73ffffffffffffffffffffffffffffffffffffffff16146126cd576040517f08c379a00000000000000000000000000000000000000000000000000000000081526004016126c49061516c565b60405180910390fd5b600073ffffffffffffffffffffffffffffffffffffffff168273ffffffffffffffffffffffffffffffffffffffff16141561273d576040517f08c379a0000000000000000000000000000000000000000000000000000000008152600401612734906151fe565b60405180910390fd5b6127486000826124c0565b6001600760008573ffffffffffffffffffffffffffffffffffffffff1673ffffffffffffffffffffffffffffffffffffffff1681526020019081526020016000206000828254612798919061521e565b925050819055506001600760008473ffffffffffffffffffffffffffffffffffffffff1673ffffffffffffffffffffffffffffffffffffffff16815260200190815260200160002060008282546127ef9190614f7c565b92505081905550816006600083815260200190815260200160002060006101000a81548173ffffffffffffffffffffffffffffffffffffffff021916908373ffffffffffffffffffffffffffffffffffffffff160217905550808273ffffffffffffffffffffffffffffffffffffffff168473ffffffffffffffffffffffffffffffffffffffff167fddf252ad1be2c89b69c2b068fc378daa952ba7f163c4a11628f55a4df523b3ef60405160405180910390a4505050565b60006128b382610e49565b90506128c06000836124c0565b6001600760008373ffffffffffffffffffffffffffffffffffffffff1673ffffffffffffffffffffffffffffffffffffffff1681526020019081526020016000206000828254612910919061521e565b925050819055506006600083815260200190815260200160002060006101000a81549073ffffffffffffffffffffffffffffffffffffffff0219169055600c600083815260200190815260200160002060006101000a81549073ffffffffffffffffffffffffffffffffffffffff021916905581600073ffffffffffffffffffffffffffffffffffffffff168273ffffffffffffffffffffffffffffffffffffffff167fddf252ad1be2c89b69c2b068fc378daa952ba7f163c4a11628f55a4df523b3ef60405160405180910390a45050565b6129ed8282610fb3565b612a7c57612a128173ffffffffffffffffffffffffffffffffffffffff166014612196565b612a208360001c6020612196565b604051602001612a3192919061531b565b6040516020818303038152906040526040517f08c379a0000000000000000000000000000000000000000000000000000000008152600401612a739190613470565b60405180910390fd5b5050565b612a8a8282610fb3565b612b5c57600180600084815260200190815260200160002060000160008373ffffffffffffffffffffffffffffffffffffffff1673ffffffffffffffffffffffffffffffffffffffff16815260200190815260200160002060006101000a81548160ff021916908315150217905550612b016124b8565b73ffffffffffffffffffffffffffffffffffffffff168173ffffffffffffffffffffffffffffffffffffffff16837f2f8788117e7eff1d82e926ec794901d17c78024a50270940304540a733656f0d60405160405180910390a45b5050565b612b6a8282610fb3565b15612c3e5760006001600084815260200190815260200160002060000160008373ffffffffffffffffffffffffffffffffffffffff1673ffffffffffffffffffffffffffffffffffffffff16815260200190815260200160002060006101000a81548160ff021916908315150217905550612be36124b8565b73ffffffffffffffffffffffffffffffffffffffff168173ffffffffffffffffffffffffffffffffffffffff16837ff6391f5c32d9c69d2a47ea670b442974b53935d1edc7fd64eb21e047a839171b60405160405180910390a45b5050565b600073ffffffffffffffffffffffffffffffffffffffff168273ffffffffffffffffffffffffffffffffffffffff161415612cb2576040517f08c379a0000000000000000000000000000000000000000000000000000000008152600401612ca9906153a1565b60405180910390fd5b612cbb8161244c565b15612cfb576040517f08c379a0000000000000000000000000000000000000000000000000000000008152600401612cf29061540d565b60405180910390fd5b6001600760008473ffffffffffffffffffffffffffffffffffffffff1673ffffffffffffffffffffffffffffffffffffffff1681526020019081526020016000206000828254612d4b9190614f7c565b92505081905550816006600083815260200190815260200160002060006101000a81548173ffffffffffffffffffffffffffffffffffffffff021916908373ffffffffffffffffffffffffffffffffffffffff16021790555081600c600083815260200190815260200160002060006101000a81548173ffffffffffffffffffffffffffffffffffffffff021916908373ffffffffffffffffffffffffffffffffffffffff160217905550808273ffffffffffffffffffffffffffffffffffffffff16600073ffffffffffffffffffffffffffffffffffffffff167fddf252ad1be2c89b69c2b068fc378daa952ba7f163c4a11628f55a4df523b3ef60405160405180910390a45050565b6000612e778473ffffffffffffffffffffffffffffffffffffffff16613162565b15612fe0578373ffffffffffffffffffffffffffffffffffffffff1663150b7a02612ea06124b8565b8786866040518563ffffffff1660e01b8152600401612ec2949392919061542d565b602060405180830381600087803b158015612edc57600080fd5b505af1925050508015612f0d57506040513d601f19601f82011682018060405250810190612f0a919061548e565b60015b612f90573d8060008114612f3d576040519150601f19603f3d011682016040523d82523d6000602084013e612f42565b606091505b50600081511415612f88576040517f08c379a0000000000000000000000000000000000000000000000000000000008152600401612f7f90614a82565b60405180910390fd5b805181602001fd5b63150b7a0260e01b7bffffffffffffffffffffffffffffffffffffffffffffffffffffffff1916817bffffffffffffffffffffffffffffffffffffffffffffffffffffffff191614915050612fe5565b600190505b949350505050565b612710811115613032576040517f08c379a000000000000000000000000000000000000000000000000000000000815260040161302990615507565b60405180910390fd5b60405180604001604052808373ffffffffffffffffffffffffffffffffffffffff1681526020018262ffffff1681525060008085815260200190815260200160002060008201518160000160006101000a81548173ffffffffffffffffffffffffffffffffffffffff021916908373ffffffffffffffffffffffffffffffffffffffff16021790555060208201518160000160146101000a81548162ffffff021916908362ffffff160217905550905050505050565b60007f2a55205a000000000000000000000000000000000000000000000000000000007bffffffffffffffffffffffffffffffffffffffffffffffffffffffff1916827bffffffffffffffffffffffffffffffffffffffffffffffffffffffff1916148061315b575061315a82613175565b5b9050919050565b600080823b905060008111915050919050565b60007f01ffc9a7000000000000000000000000000000000000000000000000000000007bffffffffffffffffffffffffffffffffffffffffffffffffffffffff1916827bffffffffffffffffffffffffffffffffffffffffffffffffffffffff1916149050919050565b8280546131eb90613ec8565b90600052602060002090601f01602090048101928261320d5760008555613254565b82601f1061322657805160ff1916838001178555613254565b82800160010185558215613254579182015b82811115613253578251825591602001919060010190613238565b5b50905061326191906132eb565b5090565b82805461327190613ec8565b90600052602060002090601f01602090048101928261329357600085556132da565b82601f106132ac57803560ff19168380011785556132da565b828001600101855582156132da579182015b828111156132d95782358255916020019190600101906132be565b5b5090506132e791906132eb565b5090565b5b808211156133045760008160009055506001016132ec565b5090565b6000604051905090565b600080fd5b600080fd5b60007fffffffff0000000000000000000000000000000000000000000000000000000082169050919050565b6133518161331c565b811461335c57600080fd5b50565b60008135905061336e81613348565b92915050565b60006020828403121561338a57613389613312565b5b60006133988482850161335f565b91505092915050565b60008115159050919050565b6133b6816133a1565b82525050565b60006020820190506133d160008301846133ad565b92915050565b600081519050919050565b600082825260208201905092915050565b60005b838110156134115780820151818401526020810190506133f6565b83811115613420576000848401525b50505050565b6000601f19601f8301169050919050565b6000613442826133d7565b61344c81856133e2565b935061345c8185602086016133f3565b61346581613426565b840191505092915050565b6000602082019050818103600083015261348a8184613437565b905092915050565b6000819050919050565b6134a581613492565b81146134b057600080fd5b50565b6000813590506134c28161349c565b92915050565b6000602082840312156134de576134dd613312565b5b60006134ec848285016134b3565b91505092915050565b600073ffffffffffffffffffffffffffffffffffffffff82169050919050565b6000613520826134f5565b9050919050565b61353081613515565b82525050565b600060208201905061354b6000830184613527565b92915050565b61355a81613515565b811461356557600080fd5b50565b60008135905061357781613551565b92915050565b6000806040838503121561359457613593613312565b5b60006135a285828601613568565b92505060206135b3858286016134b3565b9150509250929050565b6000806000606084860312156135d6576135d5613312565b5b60006135e486828701613568565b93505060206135f586828701613568565b9250506040613606868287016134b3565b9150509250925092565b6000819050919050565b61362381613610565b811461362e57600080fd5b50565b6000813590506136408161361a565b92915050565b60006020828403121561365c5761365b613312565b5b600061366a84828501613631565b91505092915050565b61367c81613610565b82525050565b60006020820190506136976000830184613673565b92915050565b600080604083850312156136b4576136b3613312565b5b60006136c2858286016134b3565b92505060206136d3858286016134b3565b9150509250929050565b6136e681613492565b82525050565b60006040820190506137016000830185613527565b61370e60208301846136dd565b9392505050565b6000806040838503121561372c5761372b613312565b5b600061373a85828601613631565b925050602061374b85828601613568565b9150509250929050565b600080fd5b600080fd5b7f4e487b7100000000000000000000000000000000000000000000000000000000600052604160045260246000fd5b61379782613426565b810181811067ffffffffffffffff821117156137b6576137b561375f565b5b80604052505050565b60006137c9613308565b90506137d5828261378e565b919050565b600067ffffffffffffffff8211156137f5576137f461375f565b5b6137fe82613426565b9050602081019050919050565b82818337600083830152505050565b600061382d613828846137da565b6137bf565b9050828152602081018484840111156138495761384861375a565b5b61385484828561380b565b509392505050565b600082601f83011261387157613870613755565b5b813561388184826020860161381a565b91505092915050565b6000602082840312156138a05761389f613312565b5b600082013567ffffffffffffffff8111156138be576138bd613317565b5b6138ca8482850161385c565b91505092915050565b6000602082840312156138e9576138e8613312565b5b60006138f784828501613568565b91505092915050565b600060208201905061391560008301846136dd565b92915050565b600080fd5b600080fd5b60008083601f84011261393b5761393a613755565b5b8235905067ffffffffffffffff8111156139585761395761391b565b5b60208301915083602082028301111561397457613973613920565b5b9250929050565b6000806020838503121561399257613991613312565b5b600083013567ffffffffffffffff8111156139b0576139af613317565b5b6139bc85828601613925565b92509250509250929050565b6139d1816133a1565b81146139dc57600080fd5b50565b6000813590506139ee816139c8565b92915050565b60008060408385031215613a0b57613a0a613312565b5b6000613a1985828601613568565b9250506020613a2a858286016139df565b9150509250929050565b600080fd5b600060c08284031215613a4f57613a4e613a34565b5b81905092915050565b600067ffffffffffffffff821115613a7357613a7261375f565b5b613a7c82613426565b9050602081019050919050565b6000613a9c613a9784613a58565b6137bf565b905082815260208101848484011115613ab857613ab761375a565b5b613ac384828561380b565b509392505050565b600082601f830112613ae057613adf613755565b5b8135613af0848260208601613a89565b91505092915050565b60008060008060808587031215613b1357613b12613312565b5b600085013567ffffffffffffffff811115613b3157613b30613317565b5b613b3d87828801613a39565b9450506020613b4e878288016139df565b9350506040613b5f878288016139df565b925050606085013567ffffffffffffffff811115613b8057613b7f613317565b5b613b8c87828801613acb565b91505092959194509250565b60008060008060808587031215613bb257613bb1613312565b5b6000613bc087828801613568565b9450506020613bd187828801613568565b9350506040613be2878288016134b3565b925050606085013567ffffffffffffffff811115613c0357613c02613317565b5b613c0f87828801613acb565b91505092959194509250565b60008083601f840112613c3157613c30613755565b5b8235905067ffffffffffffffff811115613c4e57613c4d61391b565b5b602083019150836001820283011115613c6a57613c69613920565b5b9250929050565b600080600060408486031215613c8a57613c89613312565b5b6000613c9886828701613568565b935050602084013567ffffffffffffffff811115613cb957613cb8613317565b5b613cc586828701613c1b565b92509250509250925092565b60008083601f840112613ce757613ce6613755565b5b8235905067ffffffffffffffff811115613d0457613d0361391b565b5b602083019150836001820283011115613d2057613d1f613920565b5b9250929050565b60008060008060608587031215613d4157613d40613312565b5b6000613d4f878288016134b3565b945050602085013567ffffffffffffffff811115613d7057613d6f613317565b5b613d7c87828801613cd1565b93509350506040613d8f878288016139df565b91505092959194509250565b600060c08284031215613db157613db0613a34565b5b81905092915050565b60008060008060808587031215613dd457613dd3613312565b5b600085013567ffffffffffffffff811115613df257613df1613317565b5b613dfe87828801613d9b565b9450506020613e0f878288016139df565b9350506040613e20878288016139df565b925050606085013567ffffffffffffffff811115613e4157613e40613317565b5b613e4d87828801613acb565b91505092959194509250565b60008060408385031215613e7057613e6f613312565b5b6000613e7e85828601613568565b9250506020613e8f85828601613568565b9150509250929050565b7f4e487b7100000000000000000000000000000000000000000000000000000000600052602260045260246000fd5b60006002820490506001821680613ee057607f821691505b60208210811415613ef457613ef3613e99565b5b50919050565b7f4552433732313a20617070726f76656420717565727920666f72206e6f6e657860008201527f697374656e7420746f6b656e0000000000000000000000000000000000000000602082015250565b6000613f56602c836133e2565b9150613f6182613efa565b604082019050919050565b60006020820190508181036000830152613f8581613f49565b9050919050565b7f4552433732313a20617070726f76616c20746f2063757272656e74206f776e6560008201527f7200000000000000000000000000000000000000000000000000000000000000602082015250565b6000613fe86021836133e2565b9150613ff382613f8c565b604082019050919050565b6000602082019050818103600083015261401781613fdb565b9050919050565b7f4552433732313a20617070726f76652063616c6c6572206973206e6f74206f7760008201527f6e6572206e6f7220617070726f76656420666f7220616c6c0000000000000000602082015250565b600061407a6038836133e2565b91506140858261401e565b604082019050919050565b600060208201905081810360008301526140a98161406d565b9050919050565b7f4552433732313a207472616e736665722063616c6c6572206973206e6f74206f60008201527f776e6572206e6f7220617070726f766564000000000000000000000000000000602082015250565b600061410c6031836133e2565b9150614117826140b0565b604082019050919050565b6000602082019050818103600083015261413b816140ff565b9050919050565b7f4e487b7100000000000000000000000000000000000000000000000000000000600052601160045260246000fd5b600061417c82613492565b915061418783613492565b9250817fffffffffffffffffffffffffffffffffffffffffffffffffffffffffffffffff04831182151516156141c0576141bf614142565b5b828202905092915050565b7f4e487b7100000000000000000000000000000000000000000000000000000000600052601260045260246000fd5b600061420582613492565b915061421083613492565b9250826142205761421f6141cb565b5b828204905092915050565b7f4552433732313a20494e56414c49445f544f4b454e5f4f574e45520000000000600082015250565b6000614261601b836133e2565b915061426c8261422b565b602082019050919050565b6000602082019050818103600083015261429081614254565b9050919050565b7f416363657373436f6e74726f6c3a2063616e206f6e6c792072656e6f756e636560008201527f20726f6c657320666f722073656c660000000000000000000000000000000000602082015250565b60006142f3602f836133e2565b91506142fe82614297565b604082019050919050565b60006020820190508181036000830152614322816142e6565b9050919050565b7f4552433732313a2063616c6c6572206973206e6f74206f776e6572206e6f722060008201527f617070726f766564000000000000000000000000000000000000000000000000602082015250565b60006143856028836133e2565b915061439082614329565b604082019050919050565b600060208201905081810360008301526143b481614378565b9050919050565b7f4552433732313a206f776e657220717565727920666f72206e6f6e657869737460008201527f656e7420746f6b656e0000000000000000000000000000000000000000000000602082015250565b60006144176029836133e2565b9150614422826143bb565b604082019050919050565b600060208201905081810360008301526144468161440a565b9050919050565b7f4552433732313a2062616c616e636520717565727920666f7220746865207a6560008201527f726f206164647265737300000000000000000000000000000000000000000000602082015250565b60006144a9602a836133e2565b91506144b48261444d565b604082019050919050565b600060208201905081810360008301526144d88161449c565b9050919050565b7f4552433732313a20455843454544535f42415443485f4c494d49540000000000600082015250565b6000614515601b836133e2565b9150614520826144df565b602082019050919050565b6000602082019050818103600083015261454481614508565b9050919050565b7f4e487b7100000000000000000000000000000000000000000000000000000000600052603260045260246000fd5b600081905092915050565b7f4552433732313a20494e56414c49445f544f4b454e5f4f574e45522000000000600082015250565b60006145bb601c8361457a565b91506145c682614585565b601c82019050919050565b6000819050919050565b6145ec6145e782613492565b6145d1565b82525050565b60006145fd826145ae565b915061460982846145db565b60208201915081905092915050565b600061462382613492565b91507fffffffffffffffffffffffffffffffffffffffffffffffffffffffffffffffff82141561465657614655614142565b5b600182019050919050565b600082825260208201905092915050565b600080fd5b60006146838385614661565b93507f07ffffffffffffffffffffffffffffffffffffffffffffffffffffffffffffff8311156146b6576146b5614672565b5b6020830292506146c783858461380b565b82840190509392505050565b600060208201905081810360008301526146ee818486614677565b90509392505050565b7f4552433732313a20617070726f766520746f2063616c6c657200000000000000600082015250565b600061472d6019836133e2565b9150614738826146f7565b602082019050919050565b6000602082019050818103600083015261475c81614720565b9050919050565b600081519050919050565b600082825260208201905092915050565b600061478a82614763565b614794818561476e565b93506147a48185602086016133f3565b6147ad81613426565b840191505092915050565b600060208201905081810360008301526147d2818461477f565b905092915050565b600080fd5b600080fd5b600080fd5b60008083356001602003843603038112614806576148056147da565b5b80840192508235915067ffffffffffffffff821115614828576148276147df565b5b602083019250602082023603831315614844576148436147e4565b5b509250929050565b60008083356001602003843603038112614869576148686147da565b5b80840192508235915067ffffffffffffffff82111561488b5761488a6147df565b5b6020830192506020820236038313156148a7576148a66147e4565b5b509250929050565b7f4552433732313a2069647320616e642075726973206c656e677468206d69736d60008201527f6174636800000000000000000000000000000000000000000000000000000000602082015250565b600061490b6024836133e2565b9150614916826148af565b604082019050919050565b6000602082019050818103600083015261493a816148fe565b9050919050565b6000808335600160200384360303811261495e5761495d6147da565b5b80840192508235915067ffffffffffffffff8211156149805761497f6147df565b5b60208301925060018202360383131561499c5761499b6147e4565b5b509250929050565b7f4552433732313a20696e76616c69642075726900000000000000000000000000600082015250565b60006149da6013836133e2565b91506149e5826149a4565b602082019050919050565b60006020820190508181036000830152614a09816149cd565b9050919050565b7f4552433732313a207472616e7366657220746f206e6f6e20455243373231526560008201527f63656976657220696d706c656d656e7465720000000000000000000000000000602082015250565b6000614a6c6032836133e2565b9150614a7782614a10565b604082019050919050565b60006020820190508181036000830152614a9b81614a5f565b9050919050565b600062ffffff82169050919050565b614aba81614aa2565b8114614ac557600080fd5b50565b600081359050614ad781614ab1565b92915050565b600060208284031215614af357614af2613312565b5b6000614b0184828501614ac8565b91505092915050565b7f4552433732313a2055524920717565727920666f72206e6f6e6578697374656e60008201527f7420746f6b656e00000000000000000000000000000000000000000000000000602082015250565b6000614b666027836133e2565b9150614b7182614b0a565b604082019050919050565b60006020820190508181036000830152614b9581614b59565b9050919050565b60008190508160005260206000209050919050565b60008154614bbe81613ec8565b614bc8818661457a565b94506001821660008114614be35760018114614bf457614c27565b60ff19831686528186019350614c27565b614bfd85614b9c565b60005b83811015614c1f57815481890152600182019150602081019050614c00565b838801955050505b50505092915050565b6000614c3c8285614bb1565b9150614c488284614bb1565b91508190509392505050565b600067ffffffffffffffff821115614c6f57614c6e61375f565b5b602082029050602081019050919050565b6000614c93614c8e84614c54565b6137bf565b90508083825260208201905060208402830185811115614cb657614cb5613920565b5b835b81811015614cdf5780614ccb88826134b3565b845260208401935050602081019050614cb8565b5050509392505050565b600082601f830112614cfe57614cfd613755565b5b8135614d0e848260208601614c80565b91505092915050565b600060208284031215614d2d57614d2c613312565b5b600082013567ffffffffffffffff811115614d4b57614d4a613317565b5b614d5784828501614ce9565b91505092915050565b7f4552433732313a204e4f545f414c4c4f57454400000000000000000000000000600082015250565b6000614d966013836133e2565b9150614da182614d60565b602082019050919050565b60006020820190508181036000830152614dc581614d89565b9050919050565b7f4552433732313a204f574e45525f49535f4e4f545f43524541544f5200000000600082015250565b6000614e02601c836133e2565b9150614e0d82614dcc565b602082019050919050565b60006020820190508181036000830152614e3181614df5565b9050919050565b7f4552433732313a205552495f49535f46524f5a454e0000000000000000000000600082015250565b6000614e6e6015836133e2565b9150614e7982614e38565b602082019050919050565b60006020820190508181036000830152614e9d81614e61565b9050919050565b7f4552433732313a20494e56414c49445f55524900000000000000000000000000600082015250565b6000614eda6013836133e2565b9150614ee582614ea4565b602082019050919050565b60006020820190508181036000830152614f0981614ecd565b9050919050565b7f455243313135353a20696e76616c696420757269000000000000000000000000600082015250565b6000614f466014836133e2565b9150614f5182614f10565b602082019050919050565b60006020820190508181036000830152614f7581614f39565b9050919050565b6000614f8782613492565b9150614f9283613492565b9250827fffffffffffffffffffffffffffffffffffffffffffffffffffffffffffffffff03821115614fc757614fc6614142565b5b828201905092915050565b6000614fdd82613492565b91506000821415614ff157614ff0614142565b5b600182039050919050565b7f537472696e67733a20686578206c656e67746820696e73756666696369656e74600082015250565b60006150326020836133e2565b915061503d82614ffc565b602082019050919050565b6000602082019050818103600083015261506181615025565b9050919050565b7f4552433732313a206f70657261746f7220717565727920666f72206e6f6e657860008201527f697374656e7420746f6b656e0000000000000000000000000000000000000000602082015250565b60006150c4602c836133e2565b91506150cf82615068565b604082019050919050565b600060208201905081810360008301526150f3816150b7565b9050919050565b7f4552433732313a207472616e73666572206f6620746f6b656e2074686174206960008201527f73206e6f74206f776e0000000000000000000000000000000000000000000000602082015250565b60006151566029836133e2565b9150615161826150fa565b604082019050919050565b6000602082019050818103600083015261518581615149565b9050919050565b7f4552433732313a207472616e7366657220746f20746865207a65726f2061646460008201527f7265737300000000000000000000000000000000000000000000000000000000602082015250565b60006151e86024836133e2565b91506151f38261518c565b604082019050919050565b60006020820190508181036000830152615217816151db565b9050919050565b600061522982613492565b915061523483613492565b92508282101561524757615246614142565b5b828203905092915050565b7f416363657373436f6e74726f6c3a206163636f756e7420000000000000000000600082015250565b600061528860178361457a565b915061529382615252565b601782019050919050565b60006152a9826133d7565b6152b3818561457a565b93506152c38185602086016133f3565b80840191505092915050565b7f206973206d697373696e6720726f6c6520000000000000000000000000000000600082015250565b600061530560118361457a565b9150615310826152cf565b601182019050919050565b60006153268261527b565b9150615332828561529e565b915061533d826152f8565b9150615349828461529e565b91508190509392505050565b7f4552433732313a206d696e7420746f20746865207a65726f2061646472657373600082015250565b600061538b6020836133e2565b915061539682615355565b602082019050919050565b600060208201905081810360008301526153ba8161537e565b9050919050565b7f4552433732313a20746f6b656e20616c7265616479206d696e74656400000000600082015250565b60006153f7601c836133e2565b9150615402826153c1565b602082019050919050565b60006020820190508181036000830152615426816153ea565b9050919050565b60006080820190506154426000830187613527565b61544f6020830186613527565b61545c60408301856136dd565b818103606083015261546e818461477f565b905095945050505050565b60008151905061548881613348565b92915050565b6000602082840312156154a4576154a3613312565b5b60006154b284828501615479565b91505092915050565b7f45524332393831526f79616c746965733a20546f6f2068696768000000000000600082015250565b60006154f1601a836133e2565b91506154fc826154bb565b602082019050919050565b60006020820190508181036000830152615520816154e4565b905091905056fea2646970667358221220bfcc459cd03c7d62a2f49946a9d9c2cb8bb9ae1e3a364c6c17ababb5b00623d664736f6c63430008090033",
  "linkReferences": {},
  "deployedLinkReferences": {}
}