{
  "_format": "hh-sol-artifact-1",
  "contractName": "FERC1155V1",
  "sourceName": "contracts/tokens/FERC1155V1.sol",
  "abi": [
    {
      "inputs": [
        {
          "internalType": "address",
          "name": "minter",
          "type": "address"
        },
        {
          "internalType": "address",
          "name": "childChainManager",
          "type": "address"
        },
        {
          "internalType": "string",
          "name": "name_",
          "type": "string"
        },
        {
          "internalType": "string",
          "name": "symbol_",
          "type": "string"
        },
        {
          "internalType": "string",
          "name": "baseTokenURI",
          "type": "string"
        },
        {
          "internalType": "string",
          "name": "contractURI_",
          "type": "string"
        }
      ],
      "stateMutability": "nonpayable",
      "type": "constructor"
    },
    {
      "anonymous": false,
      "inputs": [
        {
          "indexed": true,
          "internalType": "address",
          "name": "account",
          "type": "address"
        },
        {
          "indexed": true,
          "internalType": "address",
          "name": "operator",
          "type": "address"
        },
        {
          "indexed": false,
          "internalType": "bool",
          "name": "approved",
          "type": "bool"
        }
      ],
      "name": "ApprovalForAll",
      "type": "event"
    },
    {
      "anonymous": false,
      "inputs": [
        {
          "indexed": true,
          "internalType": "bytes32",
          "name": "role",
          "type": "bytes32"
        },
        {
          "indexed": true,
          "internalType": "bytes32",
          "name": "previousAdminRole",
          "type": "bytes32"
        },
        {
          "indexed": true,
          "internalType": "bytes32",
          "name": "newAdminRole",
          "type": "bytes32"
        }
      ],
      "name": "RoleAdminChanged",
      "type": "event"
    },
    {
      "anonymous": false,
      "inputs": [
        {
          "indexed": true,
          "internalType": "bytes32",
          "name": "role",
          "type": "bytes32"
        },
        {
          "indexed": true,
          "internalType": "address",
          "name": "account",
          "type": "address"
        },
        {
          "indexed": true,
          "internalType": "address",
          "name": "sender",
          "type": "address"
        }
      ],
      "name": "RoleGranted",
      "type": "event"
    },
    {
      "anonymous": false,
      "inputs": [
        {
          "indexed": true,
          "internalType": "bytes32",
          "name": "role",
          "type": "bytes32"
        },
        {
          "indexed": true,
          "internalType": "address",
          "name": "account",
          "type": "address"
        },
        {
          "indexed": true,
          "internalType": "address",
          "name": "sender",
          "type": "address"
        }
      ],
      "name": "RoleRevoked",
      "type": "event"
    },
    {
      "anonymous": false,
      "inputs": [
        {
          "indexed": true,
          "internalType": "address",
          "name": "operator",
          "type": "address"
        },
        {
          "indexed": true,
          "internalType": "address",
          "name": "from",
          "type": "address"
        },
        {
          "indexed": true,
          "internalType": "address",
          "name": "to",
          "type": "address"
        },
        {
          "indexed": false,
          "internalType": "uint256[]",
          "name": "ids",
          "type": "uint256[]"
        },
        {
          "indexed": false,
          "internalType": "uint256[]",
          "name": "values",
          "type": "uint256[]"
        }
      ],
      "name": "TransferBatch",
      "type": "event"
    },
    {
      "anonymous": false,
      "inputs": [
        {
          "indexed": true,
          "internalType": "address",
          "name": "operator",
          "type": "address"
        },
        {
          "indexed": true,
          "internalType": "address",
          "name": "from",
          "type": "address"
        },
        {
          "indexed": true,
          "internalType": "address",
          "name": "to",
          "type": "address"
        },
        {
          "indexed": false,
          "internalType": "uint256",
          "name": "id",
          "type": "uint256"
        },
        {
          "indexed": false,
          "internalType": "uint256",
          "name": "value",
          "type": "uint256"
        }
      ],
      "name": "TransferSingle",
      "type": "event"
    },
    {
      "anonymous": false,
      "inputs": [
        {
          "indexed": false,
          "internalType": "string",
          "name": "value",
          "type": "string"
        },
        {
          "indexed": true,
          "internalType": "uint256",
          "name": "id",
          "type": "uint256"
        }
      ],
      "name": "URI",
      "type": "event"
    },
    {
      "inputs": [],
      "name": "DEFAULT_ADMIN_ROLE",
      "outputs": [
        {
          "internalType": "bytes32",
          "name": "",
          "type": "bytes32"
        }
      ],
      "stateMutability": "view",
      "type": "function"
    },
    {
      "inputs": [],
      "name": "DEPOSITOR_ROLE",
      "outputs": [
        {
          "internalType": "bytes32",
          "name": "",
          "type": "bytes32"
        }
      ],
      "stateMutability": "view",
      "type": "function"
    },
    {
      "inputs": [],
      "name": "MINTER_ROLE",
      "outputs": [
        {
          "internalType": "bytes32",
          "name": "",
          "type": "bytes32"
        }
      ],
      "stateMutability": "view",
      "type": "function"
    },
    {
      "inputs": [
        {
          "internalType": "address",
          "name": "account",
          "type": "address"
        },
        {
          "internalType": "uint256",
          "name": "id",
          "type": "uint256"
        }
      ],
      "name": "balanceOf",
      "outputs": [
        {
          "internalType": "uint256",
          "name": "",
          "type": "uint256"
        }
      ],
      "stateMutability": "view",
      "type": "function"
    },
    {
      "inputs": [
        {
          "internalType": "address[]",
          "name": "accounts",
          "type": "address[]"
        },
        {
          "internalType": "uint256[]",
          "name": "ids",
          "type": "uint256[]"
        }
      ],
      "name": "balanceOfBatch",
      "outputs": [
        {
          "internalType": "uint256[]",
          "name": "",
          "type": "uint256[]"
        }
      ],
      "stateMutability": "view",
      "type": "function"
    },
    {
      "inputs": [
        {
          "internalType": "address",
          "name": "account",
          "type": "address"
        },
        {
          "internalType": "uint256",
          "name": "id",
          "type": "uint256"
        },
        {
          "internalType": "uint256",
          "name": "amount",
          "type": "uint256"
        }
      ],
      "name": "burn",
      "outputs": [],
      "stateMutability": "nonpayable",
      "type": "function"
    },
    {
      "inputs": [
        {
          "internalType": "address",
          "name": "account",
          "type": "address"
        },
        {
          "internalType": "uint256[]",
          "name": "ids",
          "type": "uint256[]"
        },
        {
          "internalType": "uint256[]",
          "name": "amounts",
          "type": "uint256[]"
        }
      ],
      "name": "burnBatch",
      "outputs": [],
      "stateMutability": "nonpayable",
      "type": "function"
    },
    {
      "inputs": [],
      "name": "contractURI",
      "outputs": [
        {
          "internalType": "string",
          "name": "",
          "type": "string"
        }
      ],
      "stateMutability": "view",
      "type": "function"
    },
    {
      "inputs": [
        {
          "internalType": "uint256",
          "name": "id",
          "type": "uint256"
        }
      ],
      "name": "creatorOf",
      "outputs": [
        {
          "internalType": "address",
          "name": "",
          "type": "address"
        }
      ],
      "stateMutability": "view",
      "type": "function"
    },
    {
      "inputs": [
        {
          "internalType": "address",
          "name": "user",
          "type": "address"
        },
        {
          "internalType": "bytes",
          "name": "depositData",
          "type": "bytes"
        }
      ],
      "name": "deposit",
      "outputs": [],
      "stateMutability": "nonpayable",
      "type": "function"
    },
    {
      "inputs": [
        {
          "internalType": "bytes32",
          "name": "role",
          "type": "bytes32"
        }
      ],
      "name": "getRoleAdmin",
      "outputs": [
        {
          "internalType": "bytes32",
          "name": "",
          "type": "bytes32"
        }
      ],
      "stateMutability": "view",
      "type": "function"
    },
    {
      "inputs": [
        {
          "internalType": "bytes32",
          "name": "role",
          "type": "bytes32"
        },
        {
          "internalType": "address",
          "name": "account",
          "type": "address"
        }
      ],
      "name": "grantRole",
      "outputs": [],
      "stateMutability": "nonpayable",
      "type": "function"
    },
    {
      "inputs": [
        {
          "internalType": "bytes32",
          "name": "role",
          "type": "bytes32"
        },
        {
          "internalType": "address",
          "name": "account",
          "type": "address"
        }
      ],
      "name": "hasRole",
      "outputs": [
        {
          "internalType": "bool",
          "name": "",
          "type": "bool"
        }
      ],
      "stateMutability": "view",
      "type": "function"
    },
    {
      "inputs": [
        {
          "internalType": "address",
          "name": "account",
          "type": "address"
        },
        {
          "internalType": "address",
          "name": "operator",
          "type": "address"
        }
      ],
      "name": "isApprovedForAll",
      "outputs": [
        {
          "internalType": "bool",
          "name": "",
          "type": "bool"
        }
      ],
      "stateMutability": "view",
      "type": "function"
    },
    {
      "inputs": [
        {
          "internalType": "uint256",
          "name": "",
          "type": "uint256"
        }
      ],
      "name": "isPermanentURI",
      "outputs": [
        {
          "internalType": "bool",
          "name": "",
          "type": "bool"
        }
      ],
      "stateMutability": "view",
      "type": "function"
    },
    {
      "inputs": [
        {
          "components": [
            {
              "internalType": "address",
              "name": "token",
              "type": "address"
            },
            {
              "internalType": "address",
              "name": "to",
              "type": "address"
            },
            {
              "internalType": "uint256",
              "name": "id",
              "type": "uint256"
            },
            {
              "internalType": "uint256",
              "name": "amount",
              "type": "uint256"
            },
            {
              "internalType": "string",
              "name": "uri",
              "type": "string"
            },
            {
              "components": [
                {
                  "internalType": "address",
                  "name": "recipient",
                  "type": "address"
                },
                {
                  "internalType": "uint24",
                  "name": "amount",
                  "type": "uint24"
                }
              ],
              "internalType": "struct ERC2981Base.RoyaltyInfo",
              "name": "royalty",
              "type": "tuple"
            }
          ],
          "internalType": "struct MintERC1155Order",
          "name": "order",
          "type": "tuple"
        },
        {
          "internalType": "bool",
          "name": "approve",
          "type": "bool"
        },
        {
          "internalType": "bool",
          "name": "freezeTokenURI",
          "type": "bool"
        },
        {
          "internalType": "bytes",
          "name": "data",
          "type": "bytes"
        }
      ],
      "name": "mint",
      "outputs": [],
      "stateMutability": "nonpayable",
      "type": "function"
    },
    {
      "inputs": [
        {
          "components": [
            {
              "internalType": "address",
              "name": "token",
              "type": "address"
            },
            {
              "internalType": "address",
              "name": "to",
              "type": "address"
            },
            {
              "internalType": "uint256[]",
              "name": "ids",
              "type": "uint256[]"
            },
            {
              "internalType": "uint256[]",
              "name": "amounts",
              "type": "uint256[]"
            },
            {
              "internalType": "string[]",
              "name": "uris",
              "type": "string[]"
            },
            {
              "components": [
                {
                  "internalType": "address",
                  "name": "recipient",
                  "type": "address"
                },
                {
                  "internalType": "uint24",
                  "name": "amount",
                  "type": "uint24"
                }
              ],
              "internalType": "struct ERC2981Base.RoyaltyInfo",
              "name": "royalty",
              "type": "tuple"
            }
          ],
          "internalType": "struct MintERC1155BatchOrder",
          "name": "order",
          "type": "tuple"
        },
        {
          "internalType": "bool",
          "name": "approve",
          "type": "bool"
        },
        {
          "internalType": "bool",
          "name": "freezeTokenURI",
          "type": "bool"
        },
        {
          "internalType": "bytes",
          "name": "data",
          "type": "bytes"
        }
      ],
      "name": "mintBatch",
      "outputs": [],
      "stateMutability": "nonpayable",
      "type": "function"
    },
    {
      "inputs": [],
      "name": "name",
      "outputs": [
        {
          "internalType": "string",
          "name": "",
          "type": "string"
        }
      ],
      "stateMutability": "view",
      "type": "function"
    },
    {
      "inputs": [
        {
          "internalType": "bytes32",
          "name": "role",
          "type": "bytes32"
        },
        {
          "internalType": "address",
          "name": "account",
          "type": "address"
        }
      ],
      "name": "renounceRole",
      "outputs": [],
      "stateMutability": "nonpayable",
      "type": "function"
    },
    {
      "inputs": [
        {
          "internalType": "bytes32",
          "name": "role",
          "type": "bytes32"
        },
        {
          "internalType": "address",
          "name": "account",
          "type": "address"
        }
      ],
      "name": "revokeRole",
      "outputs": [],
      "stateMutability": "nonpayable",
      "type": "function"
    },
    {
      "inputs": [
        {
          "internalType": "uint256",
          "name": "tokenId",
          "type": "uint256"
        },
        {
          "internalType": "uint256",
          "name": "value",
          "type": "uint256"
        }
      ],
      "name": "royaltyInfo",
      "outputs": [
        {
          "internalType": "address",
          "name": "receiver",
          "type": "address"
        },
        {
          "internalType": "uint256",
          "name": "royaltyAmount",
          "type": "uint256"
        }
      ],
      "stateMutability": "view",
      "type": "function"
    },
    {
      "inputs": [
        {
          "internalType": "address",
          "name": "from",
          "type": "address"
        },
        {
          "internalType": "address",
          "name": "to",
          "type": "address"
        },
        {
          "internalType": "uint256[]",
          "name": "ids",
          "type": "uint256[]"
        },
        {
          "internalType": "uint256[]",
          "name": "amounts",
          "type": "uint256[]"
        },
        {
          "internalType": "bytes",
          "name": "data",
          "type": "bytes"
        }
      ],
      "name": "safeBatchTransferFrom",
      "outputs": [],
      "stateMutability": "nonpayable",
      "type": "function"
    },
    {
      "inputs": [
        {
          "internalType": "address",
          "name": "from",
          "type": "address"
        },
        {
          "internalType": "address",
          "name": "to",
          "type": "address"
        },
        {
          "internalType": "uint256",
          "name": "id",
          "type": "uint256"
        },
        {
          "internalType": "uint256",
          "name": "amount",
          "type": "uint256"
        },
        {
          "internalType": "bytes",
          "name": "data",
          "type": "bytes"
        }
      ],
      "name": "safeTransferFrom",
      "outputs": [],
      "stateMutability": "nonpayable",
      "type": "function"
    },
    {
      "inputs": [
        {
          "internalType": "address",
          "name": "operator",
          "type": "address"
        },
        {
          "internalType": "bool",
          "name": "approved",
          "type": "bool"
        }
      ],
      "name": "setApprovalForAll",
      "outputs": [],
      "stateMutability": "nonpayable",
      "type": "function"
    },
    {
      "inputs": [
        {
          "internalType": "string",
          "name": "baseTokenURI",
          "type": "string"
        }
      ],
      "name": "setBaseTokenURI",
      "outputs": [],
      "stateMutability": "nonpayable",
      "type": "function"
    },
    {
      "inputs": [
        {
          "internalType": "string",
          "name": "contractURI_",
          "type": "string"
        }
      ],
      "name": "setContractURI",
      "outputs": [],
      "stateMutability": "nonpayable",
      "type": "function"
    },
    {
      "inputs": [
        {
          "internalType": "uint256",
          "name": "id",
          "type": "uint256"
        },
        {
          "internalType": "string",
          "name": "newUri",
          "type": "string"
        },
        {
          "internalType": "bool",
          "name": "freeze",
          "type": "bool"
        }
      ],
      "name": "setTokenURI",
      "outputs": [],
      "stateMutability": "nonpayable",
      "type": "function"
    },
    {
      "inputs": [
        {
          "internalType": "bytes4",
          "name": "interfaceId",
          "type": "bytes4"
        }
      ],
      "name": "supportsInterface",
      "outputs": [
        {
          "internalType": "bool",
          "name": "",
          "type": "bool"
        }
      ],
      "stateMutability": "view",
      "type": "function"
    },
    {
      "inputs": [],
      "name": "symbol",
      "outputs": [
        {
          "internalType": "string",
          "name": "",
          "type": "string"
        }
      ],
      "stateMutability": "view",
      "type": "function"
    },
    {
      "inputs": [
        {
          "internalType": "uint256",
          "name": "",
          "type": "uint256"
        }
      ],
      "name": "tokenSupply",
      "outputs": [
        {
          "internalType": "uint256",
          "name": "",
          "type": "uint256"
        }
      ],
      "stateMutability": "view",
      "type": "function"
    },
    {
      "inputs": [
        {
          "internalType": "uint256",
          "name": "id",
          "type": "uint256"
        }
      ],
      "name": "uri",
      "outputs": [
        {
          "internalType": "string",
          "name": "",
          "type": "string"
        }
      ],
      "stateMutability": "view",
      "type": "function"
    },
    {
      "inputs": [
        {
          "internalType": "uint256[]",
          "name": "ids",
          "type": "uint256[]"
        },
        {
          "internalType": "uint256[]",
          "name": "amounts",
          "type": "uint256[]"
        }
      ],
      "name": "withdrawBatch",
      "outputs": [],
      "stateMutability": "nonpayable",
      "type": "function"
    }
  ],
  "bytecode": "0x60806040523480156200001157600080fd5b5060405162006d3138038062006d31833981810160405281019062000037919062000948565b83600290805190602001906200004f92919062000696565b5082600390805190602001906200006892919062000696565b506200007e6000801b336200011060201b60201c565b620000b07f9f2df0fed2c77648de5860a4cc508cd0818c85b8b8a1ab4ceeef8d981c8956a6876200012660201b60201c565b620000e27f8f4f2da22e8ac8f11e15f9fc141cddbb5deea8800186560abb6e68c5496619a9866200012660201b60201c565b620000f3826200016f60201b60201c565b6200010481620001b160201b60201c565b50505050505062000e31565b620001228282620001f360201b60201c565b5050565b6200013782620002e460201b60201c565b62000158816200014c6200030460201b60201c565b6200030c60201b60201c565b6200016a8383620001f360201b60201c565b505050565b6000801b6200019481620001886200030460201b60201c565b6200030c60201b60201c565b8160059080519060200190620001ac92919062000696565b505050565b6000801b620001d681620001ca6200030460201b60201c565b6200030c60201b60201c565b8160049080519060200190620001ee92919062000696565b505050565b620002058282620003d060201b60201c565b620002e057600180600084815260200190815260200160002060000160008373ffffffffffffffffffffffffffffffffffffffff1673ffffffffffffffffffffffffffffffffffffffff16815260200190815260200160002060006101000a81548160ff021916908315150217905550620002856200030460201b60201c565b73ffffffffffffffffffffffffffffffffffffffff168173ffffffffffffffffffffffffffffffffffffffff16837f2f8788117e7eff1d82e926ec794901d17c78024a50270940304540a733656f0d60405160405180910390a45b5050565b600060016000838152602001908152602001600020600101549050919050565b600033905090565b6200031e8282620003d060201b60201c565b620003cc57620003518173ffffffffffffffffffffffffffffffffffffffff1660146200043b60201b62002b5f1760201c565b6200036c8360001c60206200043b60201b62002b5f1760201c565b6040516020016200037f92919062000b4d565b6040516020818303038152906040526040517f08c379a0000000000000000000000000000000000000000000000000000000008152600401620003c3919062000be1565b60405180910390fd5b5050565b60006001600084815260200190815260200160002060000160008373ffffffffffffffffffffffffffffffffffffffff1673ffffffffffffffffffffffffffffffffffffffff16815260200190815260200160002060009054906101000a900460ff16905092915050565b60606000600283600262000450919062000c3e565b6200045c919062000c9f565b67ffffffffffffffff811115620004785762000477620007da565b5b6040519080825280601f01601f191660200182016040528015620004ab5781602001600182028036833780820191505090505b5090507f300000000000000000000000000000000000000000000000000000000000000081600081518110620004e657620004e562000cfc565b5b60200101907effffffffffffffffffffffffffffffffffffffffffffffffffffffffffffff1916908160001a9053507f7800000000000000000000000000000000000000000000000000000000000000816001815181106200054d576200054c62000cfc565b5b60200101907effffffffffffffffffffffffffffffffffffffffffffffffffffffffffffff1916908160001a905350600060018460026200058f919062000c3e565b6200059b919062000c9f565b90505b600181111562000645577f3031323334353637383961626364656600000000000000000000000000000000600f861660108110620005e157620005e062000cfc565b5b1a60f81b828281518110620005fb57620005fa62000cfc565b5b60200101907effffffffffffffffffffffffffffffffffffffffffffffffffffffffffffff1916908160001a905350600485901c9450806200063d9062000d2b565b90506200059e565b50600084146200068c576040517f08c379a0000000000000000000000000000000000000000000000000000000008152600401620006839062000daa565b60405180910390fd5b8091505092915050565b828054620006a49062000dfb565b90600052602060002090601f016020900481019282620006c8576000855562000714565b82601f10620006e357805160ff191683800117855562000714565b8280016001018555821562000714579182015b8281111562000713578251825591602001919060010190620006f6565b5b50905062000723919062000727565b5090565b5b808211156200074257600081600090555060010162000728565b5090565b6000604051905090565b600080fd5b600080fd5b600073ffffffffffffffffffffffffffffffffffffffff82169050919050565b600062000787826200075a565b9050919050565b62000799816200077a565b8114620007a557600080fd5b50565b600081519050620007b9816200078e565b92915050565b600080fd5b600080fd5b6000601f19601f8301169050919050565b7f4e487b7100000000000000000000000000000000000000000000000000000000600052604160045260246000fd5b6200081482620007c9565b810181811067ffffffffffffffff82111715620008365762000835620007da565b5b80604052505050565b60006200084b62000746565b905062000859828262000809565b919050565b600067ffffffffffffffff8211156200087c576200087b620007da565b5b6200088782620007c9565b9050602081019050919050565b60005b83811015620008b457808201518184015260208101905062000897565b83811115620008c4576000848401525b50505050565b6000620008e1620008db846200085e565b6200083f565b9050828152602081018484840111156200090057620008ff620007c4565b5b6200090d84828562000894565b509392505050565b600082601f8301126200092d576200092c620007bf565b5b81516200093f848260208601620008ca565b91505092915050565b60008060008060008060c0878903121562000968576200096762000750565b5b60006200097889828a01620007a8565b96505060206200098b89828a01620007a8565b955050604087015167ffffffffffffffff811115620009af57620009ae62000755565b5b620009bd89828a0162000915565b945050606087015167ffffffffffffffff811115620009e157620009e062000755565b5b620009ef89828a0162000915565b935050608087015167ffffffffffffffff81111562000a135762000a1262000755565b5b62000a2189828a0162000915565b92505060a087015167ffffffffffffffff81111562000a455762000a4462000755565b5b62000a5389828a0162000915565b9150509295509295509295565b600081905092915050565b7f416363657373436f6e74726f6c3a206163636f756e7420000000000000000000600082015250565b600062000aa360178362000a60565b915062000ab08262000a6b565b601782019050919050565b600081519050919050565b600062000ad38262000abb565b62000adf818562000a60565b935062000af181856020860162000894565b80840191505092915050565b7f206973206d697373696e6720726f6c6520000000000000000000000000000000600082015250565b600062000b3560118362000a60565b915062000b428262000afd565b601182019050919050565b600062000b5a8262000a94565b915062000b68828562000ac6565b915062000b758262000b26565b915062000b83828462000ac6565b91508190509392505050565b600082825260208201905092915050565b600062000bad8262000abb565b62000bb9818562000b8f565b935062000bcb81856020860162000894565b62000bd681620007c9565b840191505092915050565b6000602082019050818103600083015262000bfd818462000ba0565b905092915050565b6000819050919050565b7f4e487b7100000000000000000000000000000000000000000000000000000000600052601160045260246000fd5b600062000c4b8262000c05565b915062000c588362000c05565b9250817fffffffffffffffffffffffffffffffffffffffffffffffffffffffffffffffff048311821515161562000c945762000c9362000c0f565b5b828202905092915050565b600062000cac8262000c05565b915062000cb98362000c05565b9250827fffffffffffffffffffffffffffffffffffffffffffffffffffffffffffffffff0382111562000cf15762000cf062000c0f565b5b828201905092915050565b7f4e487b7100000000000000000000000000000000000000000000000000000000600052603260045260246000fd5b600062000d388262000c05565b9150600082141562000d4f5762000d4e62000c0f565b5b600182039050919050565b7f537472696e67733a20686578206c656e67746820696e73756666696369656e74600082015250565b600062000d9260208362000b8f565b915062000d9f8262000d5a565b602082019050919050565b6000602082019050818103600083015262000dc58162000d83565b9050919050565b7f4e487b7100000000000000000000000000000000000000000000000000000000600052602260045260246000fd5b6000600282049050600182168062000e1457607f821691505b6020821081141562000e2b5762000e2a62000dcc565b5b50919050565b615ef08062000e416000396000f3fe608060405234801561001057600080fd5b50600436106101ef5760003560e01c80636b20c4541161010f578063cf2c52cb116100a2578063e8a3d48511610071578063e8a3d485146105d7578063e985e9c5146105f5578063f242432a14610625578063f5298aca14610641576101ef565b8063cf2c52cb14610565578063d539139314610581578063d547741f1461059f578063da8438ac146105bb576101ef565b8063a217fddf116100de578063a217fddf146104f1578063a22cb4651461050f578063a3b0b5a31461052b578063b841bb8914610549576101ef565b80636b20c4541461046b57806391d1485414610487578063938e3d7b146104b757806395d89b41146104d3576101ef565b80632eb2c2d6116101875780634b43fdd1116101565780634b43fdd1146103d35780634e1273f4146103ef578063589a17431461041f5780635c5fb5211461044f576101ef565b80632eb2c2d6146103635780632f2ff15d1461037f57806330176e131461039b57806336568abe146103b7576101ef565b80631e7d9dbb116101c35780631e7d9dbb146102a2578063248a9ca3146102d25780632693ebf2146103025780632a55205a14610332576101ef565b8062fdd58e146101f457806301ffc9a71461022457806306fdde03146102545780630e89341c14610272575b600080fd5b61020e60048036038101906102099190613ba6565b61065d565b60405161021b9190613bf5565b60405180910390f35b61023e60048036038101906102399190613c68565b610727565b60405161024b9190613cb0565b60405180910390f35b61025c610826565b6040516102699190613d64565b60405180910390f35b61028c60048036038101906102879190613d86565b6108b4565b6040516102999190613d64565b60405180910390f35b6102bc60048036038101906102b79190613d86565b6108f2565b6040516102c99190613cb0565b60405180910390f35b6102ec60048036038101906102e79190613de9565b610912565b6040516102f99190613e25565b60405180910390f35b61031c60048036038101906103179190613d86565b610932565b6040516103299190613bf5565b60405180910390f35b61034c60048036038101906103479190613e40565b61094a565b60405161035a929190613e8f565b60405180910390f35b61037d600480360381019061037891906140b5565b610a1a565b005b61039960048036038101906103949190614184565b610db0565b005b6103b560048036038101906103b09190614265565b610dd9565b005b6103d160048036038101906103cc9190614184565b610e09565b005b6103ed60048036038101906103e891906142fe565b610e8c565b005b61040960048036038101906104049190614460565b611311565b6040516104169190614596565b60405180910390f35b61043960048036038101906104349190613d86565b61142a565b60405161044691906145b8565b60405180910390f35b6104696004803603810190610464919061462e565b611467565b005b610485600480360381019061048091906146af565b611501565b005b6104a1600480360381019061049c9190614184565b61181d565b6040516104ae9190613cb0565b60405180910390f35b6104d160048036038101906104cc9190614265565b611888565b005b6104db6118b8565b6040516104e89190613d64565b60405180910390f35b6104f9611946565b6040516105069190613e25565b60405180910390f35b6105296004803603810190610524919061473a565b61194d565b005b610533611ac6565b6040516105409190613e25565b60405180910390f35b610563600480360381019061055e9190614799565b611aea565b005b61057f600480360381019061057a919061488e565b6120fa565b005b6105896121cb565b6040516105969190613e25565b60405180910390f35b6105b960048036038101906105b49190614184565b6121ef565b005b6105d560048036038101906105d09190614944565b612218565b005b6105df6124d1565b6040516105ec9190613d64565b60405180910390f35b61060f600480360381019061060a91906149b8565b61255f565b60405161061c9190613cb0565b60405180910390f35b61063f600480360381019061063a91906149f8565b6125f3565b005b61065b60048036038101906106569190614a8f565b6128e7565b005b60008073ffffffffffffffffffffffffffffffffffffffff168373ffffffffffffffffffffffffffffffffffffffff1614156106ce576040517f08c379a00000000000000000000000000000000000000000000000000000000081526004016106c590614b54565b60405180910390fd5b6006600083815260200190815260200160002060008473ffffffffffffffffffffffffffffffffffffffff1673ffffffffffffffffffffffffffffffffffffffff16815260200190815260200160002054905092915050565b600063d9b67a2660e01b7bffffffffffffffffffffffffffffffffffffffffffffffffffffffff1916827bffffffffffffffffffffffffffffffffffffffffffffffffffffffff191614806107c05750630e89341c60e01b7bffffffffffffffffffffffffffffffffffffffffffffffffffffffff1916827bffffffffffffffffffffffffffffffffffffffffffffffffffffffff1916145b8061080f575063e8a3d48560e01b7bffffffffffffffffffffffffffffffffffffffffffffffffffffffff1916827bffffffffffffffffffffffffffffffffffffffffffffffffffffffff1916145b8061081f575061081e82612d9b565b5b9050919050565b6002805461083390614ba3565b80601f016020809104026020016040519081016040528092919081815260200182805461085f90614ba3565b80156108ac5780601f10610881576101008083540402835291602001916108ac565b820191906000526020600020905b81548152906001019060200180831161088f57829003601f168201915b505050505081565b60606005600860008481526020019081526020016000206040516020016108dc929190614c74565b6040516020818303038152906040529050919050565b60096020528060005260406000206000915054906101000a900460ff1681565b600060016000838152602001908152602001600020600101549050919050565b600b6020528060005260406000206000915090505481565b60008060008060008681526020019081526020016000206040518060400160405290816000820160009054906101000a900473ffffffffffffffffffffffffffffffffffffffff1673ffffffffffffffffffffffffffffffffffffffff1673ffffffffffffffffffffffffffffffffffffffff1681526020016000820160149054906101000a900462ffffff1662ffffff1662ffffff1681525050905080600001519250612710816020015162ffffff1685610a069190614cc7565b610a109190614d50565b9150509250929050565b610a22612e15565b73ffffffffffffffffffffffffffffffffffffffff168573ffffffffffffffffffffffffffffffffffffffff161480610a685750610a6785610a62612e15565b61255f565b5b610aa7576040517f08c379a0000000000000000000000000000000000000000000000000000000008152600401610a9e90614df3565b60405180910390fd5b8151835114610aeb576040517f08c379a0000000000000000000000000000000000000000000000000000000008152600401610ae290614e5f565b60405180910390fd5b600073ffffffffffffffffffffffffffffffffffffffff168473ffffffffffffffffffffffffffffffffffffffff161415610b5b576040517f08c379a0000000000000000000000000000000000000000000000000000000008152600401610b5290614ecb565b60405180910390fd5b6000610b65612e15565b905060005b8451811015610d1b576000858281518110610b8857610b87614eeb565b5b602002602001015190506000858381518110610ba757610ba6614eeb565b5b6020026020010151905060006006600084815260200190815260200160002060008b73ffffffffffffffffffffffffffffffffffffffff1673ffffffffffffffffffffffffffffffffffffffff16815260200190815260200160002054905081811015610c49576040517f08c379a0000000000000000000000000000000000000000000000000000000008152600401610c4090614f8c565b60405180910390fd5b8181036006600085815260200190815260200160002060008c73ffffffffffffffffffffffffffffffffffffffff1673ffffffffffffffffffffffffffffffffffffffff16815260200190815260200160002081905550816006600085815260200190815260200160002060008b73ffffffffffffffffffffffffffffffffffffffff1673ffffffffffffffffffffffffffffffffffffffff1681526020019081526020016000206000828254610d009190614fac565b9250508190555050505080610d1490615002565b9050610b6a565b508473ffffffffffffffffffffffffffffffffffffffff168673ffffffffffffffffffffffffffffffffffffffff168273ffffffffffffffffffffffffffffffffffffffff167f4a39dc06d4c0dbc64b70af90fd698a233a518aa5d07e595d983b8c0526c8f7fb8787604051610d9292919061504b565b60405180910390a4610da8818787878787612e1d565b505050505050565b610db982610912565b610dca81610dc5612e15565b613004565b610dd483836130a1565b505050565b6000801b610dee81610de9612e15565b613004565b8160059080519060200190610e049291906139d5565b505050565b610e11612e15565b73ffffffffffffffffffffffffffffffffffffffff168173ffffffffffffffffffffffffffffffffffffffff1614610e7e576040517f08c379a0000000000000000000000000000000000000000000000000000000008152600401610e75906150f4565b60405180910390fd5b610e888282613181565b5050565b7f9f2df0fed2c77648de5860a4cc508cd0818c85b8b8a1ab4ceeef8d981c8956a6610ebe81610eb9612e15565b613004565b848060800190610ece9190615123565b9050858060400190610ee09190615186565b905014610f22576040517f08c379a0000000000000000000000000000000000000000000000000000000008152600401610f1990615235565b60405180910390fd5b6000610f2c612e15565b9050610fea866020016020810190610f449190615255565b878060400190610f549190615186565b80806020026020016040519081016040528093929190818152602001838360200280828437600081840152601f19601f82011690508083019250505050505050888060600190610fa49190615186565b80806020026020016040519081016040528093929190818152602001838360200280828437600081840152601f19601f8201169050808301925050505050505086613263565b60005b868060400190610ffd9190615186565b90508110156113085760008780604001906110189190615186565b8381811061102957611028614eeb565b5b90506020020135905060008880608001906110449190615123565b8481811061105557611054614eeb565b5b90506020028101906110679190615282565b9050116110a9576040517f08c379a00000000000000000000000000000000000000000000000000000000081526004016110a090615331565b60405180910390fd5b8780608001906110b99190615123565b838181106110ca576110c9614eeb565b5b90506020028101906110dc9190615282565b6008600084815260200190815260200160002091906110fc929190613a5b565b5085156111305760016009600083815260200190815260200160002060006101000a81548160ff0219169083151502179055505b807f6bb7ff708619ba0610cba295a58592e0451dee2622938c8755667688daf3529b61115b836108b4565b6040516111689190613d64565b60405180910390a28615611296576001600760008a602001602081019061118f9190615255565b73ffffffffffffffffffffffffffffffffffffffff1673ffffffffffffffffffffffffffffffffffffffff16815260200190815260200160002060008573ffffffffffffffffffffffffffffffffffffffff1673ffffffffffffffffffffffffffffffffffffffff16815260200190815260200160002060006101000a81548160ff0219169083151502179055508273ffffffffffffffffffffffffffffffffffffffff168860200160208101906112479190615255565b73ffffffffffffffffffffffffffffffffffffffff167f17307eab39ab6107e8899845ad3d59bd9653f200f220920489ca2b5937696c31600160405161128d9190613cb0565b60405180910390a35b60008860a00160200160208101906112ae919061538c565b62ffffff1611156112f4576112f3818960a00160000160208101906112d39190615255565b8a60a00160200160208101906112e9919061538c565b62ffffff166135fc565b5b50808061130090615002565b915050610fed565b50505050505050565b60608151835114611357576040517f08c379a000000000000000000000000000000000000000000000000000000000815260040161134e90615405565b60405180910390fd5b6000835167ffffffffffffffff81111561137457611373613ebd565b5b6040519080825280602002602001820160405280156113a25781602001602082028036833780820191505090505b50905060005b845181101561141f576113ef8582815181106113c7576113c6614eeb565b5b60200260200101518583815181106113e2576113e1614eeb565b5b602002602001015161065d565b82828151811061140257611401614eeb565b5b6020026020010181815250508061141890615002565b90506113a8565b508091505092915050565b6000600a600083815260200190815260200160002060009054906101000a900473ffffffffffffffffffffffffffffffffffffffff169050919050565b6114fb611472612e15565b858580806020026020016040519081016040528093929190818152602001838360200280828437600081840152601f19601f82011690508083019250505050505050848480806020026020016040519081016040528093929190818152602001838360200280828437600081840152601f19601f82011690508083019250505050505050611501565b50505050565b600073ffffffffffffffffffffffffffffffffffffffff168373ffffffffffffffffffffffffffffffffffffffff161415611571576040517f08c379a000000000000000000000000000000000000000000000000000000000815260040161156890615471565b60405180910390fd5b611579612e15565b73ffffffffffffffffffffffffffffffffffffffff168373ffffffffffffffffffffffffffffffffffffffff1614806115bf57506115be836115b9612e15565b61255f565b5b6115fe576040517f08c379a00000000000000000000000000000000000000000000000000000000081526004016115f5906154dd565b60405180910390fd5b8051825114611642576040517f08c379a000000000000000000000000000000000000000000000000000000000815260040161163990614e5f565b60405180910390fd5b60005b825181101561179157600083828151811061166357611662614eeb565b5b60200260200101519050600083838151811061168257611681614eeb565b5b6020026020010151905060006006600084815260200190815260200160002060008873ffffffffffffffffffffffffffffffffffffffff1673ffffffffffffffffffffffffffffffffffffffff16815260200190815260200160002054905081811015611724576040517f08c379a000000000000000000000000000000000000000000000000000000000815260040161171b90615549565b60405180910390fd5b8181036006600085815260200190815260200160002060008973ffffffffffffffffffffffffffffffffffffffff1673ffffffffffffffffffffffffffffffffffffffff16815260200190815260200160002081905550505050808061178990615002565b915050611645565b50600073ffffffffffffffffffffffffffffffffffffffff168373ffffffffffffffffffffffffffffffffffffffff166117c9612e15565b73ffffffffffffffffffffffffffffffffffffffff167f4a39dc06d4c0dbc64b70af90fd698a233a518aa5d07e595d983b8c0526c8f7fb858560405161181092919061504b565b60405180910390a4505050565b60006001600084815260200190815260200160002060000160008373ffffffffffffffffffffffffffffffffffffffff1673ffffffffffffffffffffffffffffffffffffffff16815260200190815260200160002060009054906101000a900460ff16905092915050565b6000801b61189d81611898612e15565b613004565b81600490805190602001906118b39291906139d5565b505050565b600380546118c590614ba3565b80601f01602080910402602001604051908101604052809291908181526020018280546118f190614ba3565b801561193e5780601f106119135761010080835404028352916020019161193e565b820191906000526020600020905b81548152906001019060200180831161192157829003601f168201915b505050505081565b6000801b81565b6000611957612e15565b90508273ffffffffffffffffffffffffffffffffffffffff168173ffffffffffffffffffffffffffffffffffffffff1614156119c8576040517f08c379a00000000000000000000000000000000000000000000000000000000081526004016119bf906155b5565b60405180910390fd5b81600760008373ffffffffffffffffffffffffffffffffffffffff1673ffffffffffffffffffffffffffffffffffffffff16815260200190815260200160002060008573ffffffffffffffffffffffffffffffffffffffff1673ffffffffffffffffffffffffffffffffffffffff16815260200190815260200160002060006101000a81548160ff0219169083151502179055508273ffffffffffffffffffffffffffffffffffffffff168173ffffffffffffffffffffffffffffffffffffffff167f17307eab39ab6107e8899845ad3d59bd9653f200f220920489ca2b5937696c3184604051611ab99190613cb0565b60405180910390a3505050565b7f8f4f2da22e8ac8f11e15f9fc141cddbb5deea8800186560abb6e68c5496619a981565b7f9f2df0fed2c77648de5860a4cc508cd0818c85b8b8a1ab4ceeef8d981c8956a6611b1c81611b17612e15565b613004565b600073ffffffffffffffffffffffffffffffffffffffff16600a60008760400135815260200190815260200160002060009054906101000a900473ffffffffffffffffffffffffffffffffffffffff1673ffffffffffffffffffffffffffffffffffffffff1614611bc2576040517f08c379a0000000000000000000000000000000000000000000000000000000008152600401611bb990615621565b60405180910390fd5b600073ffffffffffffffffffffffffffffffffffffffff16856020016020810190611bed9190615255565b73ffffffffffffffffffffffffffffffffffffffff161415611c44576040517f08c379a0000000000000000000000000000000000000000000000000000000008152600401611c3b9061568d565b60405180910390fd5b6000856060013511611c8b576040517f08c379a0000000000000000000000000000000000000000000000000000000008152600401611c82906156f9565b60405180910390fd5b6000858060800190611c9d9190615282565b905011611cdf576040517f08c379a0000000000000000000000000000000000000000000000000000000008152600401611cd690615331565b60405180910390fd5b6000611ce9612e15565b9050856060013560066000886040013581526020019081526020016000206000886020016020810190611d1c9190615255565b73ffffffffffffffffffffffffffffffffffffffff1673ffffffffffffffffffffffffffffffffffffffff1681526020019081526020016000206000828254611d659190614fac565b92505081905550856020016020810190611d7f9190615255565b600a60008860400135815260200190815260200160002060006101000a81548173ffffffffffffffffffffffffffffffffffffffff021916908373ffffffffffffffffffffffffffffffffffffffff1602179055508560600135600b60008860400135815260200190815260200160002081905550858060800190611e049190615282565b60086000896040013581526020019081526020016000209190611e28929190613a5b565b508315611e60576001600960008860400135815260200190815260200160002060006101000a81548160ff0219169083151502179055505b856020016020810190611e739190615255565b73ffffffffffffffffffffffffffffffffffffffff16600073ffffffffffffffffffffffffffffffffffffffff168273ffffffffffffffffffffffffffffffffffffffff167fc3d58168c5ae7397731d063d5bbf3d657854427343f4c083240f7aacaa2d0f6289604001358a60600135604051611ef1929190615719565b60405180910390a4611f22816000886020016020810190611f129190615255565b89604001358a60600135886136f7565b60008660a0016020016020810190611f3a919061538c565b62ffffff161115611f8457611f8386604001358760a0016000016020810190611f639190615255565b8860a0016020016020810190611f79919061538c565b62ffffff166135fc565b5b85604001357f6bb7ff708619ba0610cba295a58592e0451dee2622938c8755667688daf3529b611fb788604001356108b4565b604051611fc49190613d64565b60405180910390a284156120f257600160076000886020016020810190611feb9190615255565b73ffffffffffffffffffffffffffffffffffffffff1673ffffffffffffffffffffffffffffffffffffffff16815260200190815260200160002060008373ffffffffffffffffffffffffffffffffffffffff1673ffffffffffffffffffffffffffffffffffffffff16815260200190815260200160002060006101000a81548160ff0219169083151502179055508073ffffffffffffffffffffffffffffffffffffffff168660200160208101906120a39190615255565b73ffffffffffffffffffffffffffffffffffffffff167f17307eab39ab6107e8899845ad3d59bd9653f200f220920489ca2b5937696c3160016040516120e99190613cb0565b60405180910390a35b505050505050565b7f8f4f2da22e8ac8f11e15f9fc141cddbb5deea8800186560abb6e68c5496619a961212c81612127612e15565b613004565b600080600085858101906121409190615742565b925092509250600073ffffffffffffffffffffffffffffffffffffffff168773ffffffffffffffffffffffffffffffffffffffff1614156121b6576040517f08c379a00000000000000000000000000000000000000000000000000000000081526004016121ad90615835565b60405180910390fd5b6121c287848484613263565b50505050505050565b7f9f2df0fed2c77648de5860a4cc508cd0818c85b8b8a1ab4ceeef8d981c8956a681565b6121f882610912565b61220981612204612e15565b613004565b6122138383613181565b505050565b836000612223612e15565b90508073ffffffffffffffffffffffffffffffffffffffff16600a600084815260200190815260200160002060009054906101000a900473ffffffffffffffffffffffffffffffffffffffff1673ffffffffffffffffffffffffffffffffffffffff1614806122b857506122b77f9f2df0fed2c77648de5860a4cc508cd0818c85b8b8a1ab4ceeef8d981c8956a68261181d565b5b6122f7576040517f08c379a00000000000000000000000000000000000000000000000000000000081526004016122ee906158a1565b60405180910390fd5b85600b600082815260200190815260200160002054612349600a600084815260200190815260200160002060009054906101000a900473ffffffffffffffffffffffffffffffffffffffff168361065d565b14612389576040517f08c379a00000000000000000000000000000000000000000000000000000000081526004016123809061590d565b60405180910390fd5b866009600082815260200190815260200160002060009054906101000a900460ff16156123eb576040517f08c379a00000000000000000000000000000000000000000000000000000000081526004016123e290615979565b60405180910390fd5b84156124645760008787905011612437576040517f08c379a000000000000000000000000000000000000000000000000000000000815260040161242e90615331565b60405180910390fd5b6001600960008a815260200190815260200160002060006101000a81548160ff0219169083151502179055505b8686600860008b81526020019081526020016000209190612486929190613a5b565b50877f6bb7ff708619ba0610cba295a58592e0451dee2622938c8755667688daf3529b6124b28a6108b4565b6040516124bf9190613d64565b60405180910390a25050505050505050565b600480546124de90614ba3565b80601f016020809104026020016040519081016040528092919081815260200182805461250a90614ba3565b80156125575780601f1061252c57610100808354040283529160200191612557565b820191906000526020600020905b81548152906001019060200180831161253a57829003601f168201915b505050505081565b6000600760008473ffffffffffffffffffffffffffffffffffffffff1673ffffffffffffffffffffffffffffffffffffffff16815260200190815260200160002060008373ffffffffffffffffffffffffffffffffffffffff1673ffffffffffffffffffffffffffffffffffffffff16815260200190815260200160002060009054906101000a900460ff16905092915050565b6125fb612e15565b73ffffffffffffffffffffffffffffffffffffffff168573ffffffffffffffffffffffffffffffffffffffff16148061264157506126408561263b612e15565b61255f565b5b612680576040517f08c379a0000000000000000000000000000000000000000000000000000000008152600401612677906154dd565b60405180910390fd5b600073ffffffffffffffffffffffffffffffffffffffff168473ffffffffffffffffffffffffffffffffffffffff1614156126f0576040517f08c379a00000000000000000000000000000000000000000000000000000000081526004016126e790614ecb565b60405180910390fd5b60006126fa612e15565b905060006006600086815260200190815260200160002060008873ffffffffffffffffffffffffffffffffffffffff1673ffffffffffffffffffffffffffffffffffffffff16815260200190815260200160002054905083811015612794576040517f08c379a000000000000000000000000000000000000000000000000000000000815260040161278b90614f8c565b60405180910390fd5b8381036006600087815260200190815260200160002060008973ffffffffffffffffffffffffffffffffffffffff1673ffffffffffffffffffffffffffffffffffffffff16815260200190815260200160002081905550836006600087815260200190815260200160002060008873ffffffffffffffffffffffffffffffffffffffff1673ffffffffffffffffffffffffffffffffffffffff168152602001908152602001600020600082825461284b9190614fac565b925050819055508573ffffffffffffffffffffffffffffffffffffffff168773ffffffffffffffffffffffffffffffffffffffff168373ffffffffffffffffffffffffffffffffffffffff167fc3d58168c5ae7397731d063d5bbf3d657854427343f4c083240f7aacaa2d0f6288886040516128c8929190615719565b60405180910390a46128de8288888888886136f7565b50505050505050565b600073ffffffffffffffffffffffffffffffffffffffff168373ffffffffffffffffffffffffffffffffffffffff161415612957576040517f08c379a000000000000000000000000000000000000000000000000000000000815260040161294e90615471565b60405180910390fd5b61295f612e15565b73ffffffffffffffffffffffffffffffffffffffff168373ffffffffffffffffffffffffffffffffffffffff1614806129a557506129a48361299f612e15565b61255f565b5b6129e4576040517f08c379a00000000000000000000000000000000000000000000000000000000081526004016129db906154dd565b60405180910390fd5b60006006600084815260200190815260200160002060008573ffffffffffffffffffffffffffffffffffffffff1673ffffffffffffffffffffffffffffffffffffffff16815260200190815260200160002054905081811015612a7c576040517f08c379a0000000000000000000000000000000000000000000000000000000008152600401612a7390615549565b60405180910390fd5b8181036006600085815260200190815260200160002060008673ffffffffffffffffffffffffffffffffffffffff1673ffffffffffffffffffffffffffffffffffffffff16815260200190815260200160002081905550600073ffffffffffffffffffffffffffffffffffffffff168473ffffffffffffffffffffffffffffffffffffffff16612b0a612e15565b73ffffffffffffffffffffffffffffffffffffffff167fc3d58168c5ae7397731d063d5bbf3d657854427343f4c083240f7aacaa2d0f628686604051612b51929190615719565b60405180910390a450505050565b606060006002836002612b729190614cc7565b612b7c9190614fac565b67ffffffffffffffff811115612b9557612b94613ebd565b5b6040519080825280601f01601f191660200182016040528015612bc75781602001600182028036833780820191505090505b5090507f300000000000000000000000000000000000000000000000000000000000000081600081518110612bff57612bfe614eeb565b5b60200101907effffffffffffffffffffffffffffffffffffffffffffffffffffffffffffff1916908160001a9053507f780000000000000000000000000000000000000000000000000000000000000081600181518110612c6357612c62614eeb565b5b60200101907effffffffffffffffffffffffffffffffffffffffffffffffffffffffffffff1916908160001a90535060006001846002612ca39190614cc7565b612cad9190614fac565b90505b6001811115612d4d577f3031323334353637383961626364656600000000000000000000000000000000600f861660108110612cef57612cee614eeb565b5b1a60f81b828281518110612d0657612d05614eeb565b5b60200101907effffffffffffffffffffffffffffffffffffffffffffffffffffffffffffff1916908160001a905350600485901c945080612d4690615999565b9050612cb0565b5060008414612d91576040517f08c379a0000000000000000000000000000000000000000000000000000000008152600401612d8890615a0f565b60405180910390fd5b8091505092915050565b60007f7965db0b000000000000000000000000000000000000000000000000000000007bffffffffffffffffffffffffffffffffffffffffffffffffffffffff1916827bffffffffffffffffffffffffffffffffffffffffffffffffffffffff19161480612e0e5750612e0d826138de565b5b9050919050565b600033905090565b612e3c8473ffffffffffffffffffffffffffffffffffffffff16613958565b15612ffc578373ffffffffffffffffffffffffffffffffffffffff1663bc197c8187878686866040518663ffffffff1660e01b8152600401612e82959493929190615a84565b602060405180830381600087803b158015612e9c57600080fd5b505af1925050508015612ecd57506040513d601f19601f82011682018060405250810190612eca9190615b01565b60015b612f7357612ed9615b3b565b806308c379a01415612f365750612eee615b5d565b80612ef95750612f38565b806040517f08c379a0000000000000000000000000000000000000000000000000000000008152600401612f2d9190613d64565b60405180910390fd5b505b6040517f08c379a0000000000000000000000000000000000000000000000000000000008152600401612f6a90615c65565b60405180910390fd5b63bc197c8160e01b7bffffffffffffffffffffffffffffffffffffffffffffffffffffffff1916817bffffffffffffffffffffffffffffffffffffffffffffffffffffffff191614612ffa576040517f08c379a0000000000000000000000000000000000000000000000000000000008152600401612ff190615cd1565b60405180910390fd5b505b505050505050565b61300e828261181d565b61309d576130338173ffffffffffffffffffffffffffffffffffffffff166014612b5f565b6130418360001c6020612b5f565b604051602001613052929190615dba565b6040516020818303038152906040526040517f08c379a00000000000000000000000000000000000000000000000000000000081526004016130949190613d64565b60405180910390fd5b5050565b6130ab828261181d565b61317d57600180600084815260200190815260200160002060000160008373ffffffffffffffffffffffffffffffffffffffff1673ffffffffffffffffffffffffffffffffffffffff16815260200190815260200160002060006101000a81548160ff021916908315150217905550613122612e15565b73ffffffffffffffffffffffffffffffffffffffff168173ffffffffffffffffffffffffffffffffffffffff16837f2f8788117e7eff1d82e926ec794901d17c78024a50270940304540a733656f0d60405160405180910390a45b5050565b61318b828261181d565b1561325f5760006001600084815260200190815260200160002060000160008373ffffffffffffffffffffffffffffffffffffffff1673ffffffffffffffffffffffffffffffffffffffff16815260200190815260200160002060006101000a81548160ff021916908315150217905550613204612e15565b73ffffffffffffffffffffffffffffffffffffffff168173ffffffffffffffffffffffffffffffffffffffff16837ff6391f5c32d9c69d2a47ea670b442974b53935d1edc7fd64eb21e047a839171b60405160405180910390a45b5050565b600073ffffffffffffffffffffffffffffffffffffffff168473ffffffffffffffffffffffffffffffffffffffff1614156132d3576040517f08c379a00000000000000000000000000000000000000000000000000000000081526004016132ca9061568d565b60405180910390fd5b8151835114613317576040517f08c379a000000000000000000000000000000000000000000000000000000000815260040161330e90614e5f565b60405180910390fd5b6000613321612e15565b905060005b845181101561356657600085828151811061334457613343614eeb565b5b60200260200101519050600073ffffffffffffffffffffffffffffffffffffffff16600a600083815260200190815260200160002060009054906101000a900473ffffffffffffffffffffffffffffffffffffffff1673ffffffffffffffffffffffffffffffffffffffff16146133f0576040517f08c379a00000000000000000000000000000000000000000000000000000000081526004016133e790615621565b60405180910390fd5b600085838151811061340557613404614eeb565b5b60200260200101511161344d576040517f08c379a0000000000000000000000000000000000000000000000000000000008152600401613444906156f9565b60405180910390fd5b8482815181106134605761345f614eeb565b5b60200260200101516006600083815260200190815260200160002060008973ffffffffffffffffffffffffffffffffffffffff1673ffffffffffffffffffffffffffffffffffffffff16815260200190815260200160002060008282546134c79190614fac565b9250508190555086600a600083815260200190815260200160002060006101000a81548173ffffffffffffffffffffffffffffffffffffffff021916908373ffffffffffffffffffffffffffffffffffffffff16021790555084828151811061353357613532614eeb565b5b6020026020010151600b60008381526020019081526020016000208190555050808061355e90615002565b915050613326565b508473ffffffffffffffffffffffffffffffffffffffff16600073ffffffffffffffffffffffffffffffffffffffff168273ffffffffffffffffffffffffffffffffffffffff167f4a39dc06d4c0dbc64b70af90fd698a233a518aa5d07e595d983b8c0526c8f7fb87876040516135de92919061504b565b60405180910390a46135f581600087878787612e1d565b5050505050565b612710811115613641576040517f08c379a000000000000000000000000000000000000000000000000000000000815260040161363890615e40565b60405180910390fd5b60405180604001604052808373ffffffffffffffffffffffffffffffffffffffff1681526020018262ffffff1681525060008085815260200190815260200160002060008201518160000160006101000a81548173ffffffffffffffffffffffffffffffffffffffff021916908373ffffffffffffffffffffffffffffffffffffffff16021790555060208201518160000160146101000a81548162ffffff021916908362ffffff160217905550905050505050565b6137168473ffffffffffffffffffffffffffffffffffffffff16613958565b156138d6578373ffffffffffffffffffffffffffffffffffffffff1663f23a6e6187878686866040518663ffffffff1660e01b815260040161375c959493929190615e60565b602060405180830381600087803b15801561377657600080fd5b505af19250505080156137a757506040513d601f19601f820116820180604052508101906137a49190615b01565b60015b61384d576137b3615b3b565b806308c379a0141561381057506137c8615b5d565b806137d35750613812565b806040517f08c379a00000000000000000000000000000000000000000000000000000000081526004016138079190613d64565b60405180910390fd5b505b6040517f08c379a000000000000000000000000000000000000000000000000000000000815260040161384490615c65565b60405180910390fd5b63f23a6e6160e01b7bffffffffffffffffffffffffffffffffffffffffffffffffffffffff1916817bffffffffffffffffffffffffffffffffffffffffffffffffffffffff1916146138d4576040517f08c379a00000000000000000000000000000000000000000000000000000000081526004016138cb90615cd1565b60405180910390fd5b505b505050505050565b60007f2a55205a000000000000000000000000000000000000000000000000000000007bffffffffffffffffffffffffffffffffffffffffffffffffffffffff1916827bffffffffffffffffffffffffffffffffffffffffffffffffffffffff1916148061395157506139508261396b565b5b9050919050565b600080823b905060008111915050919050565b60007f01ffc9a7000000000000000000000000000000000000000000000000000000007bffffffffffffffffffffffffffffffffffffffffffffffffffffffff1916827bffffffffffffffffffffffffffffffffffffffffffffffffffffffff1916149050919050565b8280546139e190614ba3565b90600052602060002090601f016020900481019282613a035760008555613a4a565b82601f10613a1c57805160ff1916838001178555613a4a565b82800160010185558215613a4a579182015b82811115613a49578251825591602001919060010190613a2e565b5b509050613a579190613ae1565b5090565b828054613a6790614ba3565b90600052602060002090601f016020900481019282613a895760008555613ad0565b82601f10613aa257803560ff1916838001178555613ad0565b82800160010185558215613ad0579182015b82811115613acf578235825591602001919060010190613ab4565b5b509050613add9190613ae1565b5090565b5b80821115613afa576000816000905550600101613ae2565b5090565b6000604051905090565b600080fd5b600080fd5b600073ffffffffffffffffffffffffffffffffffffffff82169050919050565b6000613b3d82613b12565b9050919050565b613b4d81613b32565b8114613b5857600080fd5b50565b600081359050613b6a81613b44565b92915050565b6000819050919050565b613b8381613b70565b8114613b8e57600080fd5b50565b600081359050613ba081613b7a565b92915050565b60008060408385031215613bbd57613bbc613b08565b5b6000613bcb85828601613b5b565b9250506020613bdc85828601613b91565b9150509250929050565b613bef81613b70565b82525050565b6000602082019050613c0a6000830184613be6565b92915050565b60007fffffffff0000000000000000000000000000000000000000000000000000000082169050919050565b613c4581613c10565b8114613c5057600080fd5b50565b600081359050613c6281613c3c565b92915050565b600060208284031215613c7e57613c7d613b08565b5b6000613c8c84828501613c53565b91505092915050565b60008115159050919050565b613caa81613c95565b82525050565b6000602082019050613cc56000830184613ca1565b92915050565b600081519050919050565b600082825260208201905092915050565b60005b83811015613d05578082015181840152602081019050613cea565b83811115613d14576000848401525b50505050565b6000601f19601f8301169050919050565b6000613d3682613ccb565b613d408185613cd6565b9350613d50818560208601613ce7565b613d5981613d1a565b840191505092915050565b60006020820190508181036000830152613d7e8184613d2b565b905092915050565b600060208284031215613d9c57613d9b613b08565b5b6000613daa84828501613b91565b91505092915050565b6000819050919050565b613dc681613db3565b8114613dd157600080fd5b50565b600081359050613de381613dbd565b92915050565b600060208284031215613dff57613dfe613b08565b5b6000613e0d84828501613dd4565b91505092915050565b613e1f81613db3565b82525050565b6000602082019050613e3a6000830184613e16565b92915050565b60008060408385031215613e5757613e56613b08565b5b6000613e6585828601613b91565b9250506020613e7685828601613b91565b9150509250929050565b613e8981613b32565b82525050565b6000604082019050613ea46000830185613e80565b613eb16020830184613be6565b9392505050565b600080fd5b7f4e487b7100000000000000000000000000000000000000000000000000000000600052604160045260246000fd5b613ef582613d1a565b810181811067ffffffffffffffff82111715613f1457613f13613ebd565b5b80604052505050565b6000613f27613afe565b9050613f338282613eec565b919050565b600067ffffffffffffffff821115613f5357613f52613ebd565b5b602082029050602081019050919050565b600080fd5b6000613f7c613f7784613f38565b613f1d565b90508083825260208201905060208402830185811115613f9f57613f9e613f64565b5b835b81811015613fc85780613fb48882613b91565b845260208401935050602081019050613fa1565b5050509392505050565b600082601f830112613fe757613fe6613eb8565b5b8135613ff7848260208601613f69565b91505092915050565b600080fd5b600067ffffffffffffffff8211156140205761401f613ebd565b5b61402982613d1a565b9050602081019050919050565b82818337600083830152505050565b600061405861405384614005565b613f1d565b90508281526020810184848401111561407457614073614000565b5b61407f848285614036565b509392505050565b600082601f83011261409c5761409b613eb8565b5b81356140ac848260208601614045565b91505092915050565b600080600080600060a086880312156140d1576140d0613b08565b5b60006140df88828901613b5b565b95505060206140f088828901613b5b565b945050604086013567ffffffffffffffff81111561411157614110613b0d565b5b61411d88828901613fd2565b935050606086013567ffffffffffffffff81111561413e5761413d613b0d565b5b61414a88828901613fd2565b925050608086013567ffffffffffffffff81111561416b5761416a613b0d565b5b61417788828901614087565b9150509295509295909350565b6000806040838503121561419b5761419a613b08565b5b60006141a985828601613dd4565b92505060206141ba85828601613b5b565b9150509250929050565b600067ffffffffffffffff8211156141df576141de613ebd565b5b6141e882613d1a565b9050602081019050919050565b6000614208614203846141c4565b613f1d565b90508281526020810184848401111561422457614223614000565b5b61422f848285614036565b509392505050565b600082601f83011261424c5761424b613eb8565b5b813561425c8482602086016141f5565b91505092915050565b60006020828403121561427b5761427a613b08565b5b600082013567ffffffffffffffff81111561429957614298613b0d565b5b6142a584828501614237565b91505092915050565b600080fd5b600060e082840312156142c9576142c86142ae565b5b81905092915050565b6142db81613c95565b81146142e657600080fd5b50565b6000813590506142f8816142d2565b92915050565b6000806000806080858703121561431857614317613b08565b5b600085013567ffffffffffffffff81111561433657614335613b0d565b5b614342878288016142b3565b9450506020614353878288016142e9565b9350506040614364878288016142e9565b925050606085013567ffffffffffffffff81111561438557614384613b0d565b5b61439187828801614087565b91505092959194509250565b600067ffffffffffffffff8211156143b8576143b7613ebd565b5b602082029050602081019050919050565b60006143dc6143d78461439d565b613f1d565b905080838252602082019050602084028301858111156143ff576143fe613f64565b5b835b8181101561442857806144148882613b5b565b845260208401935050602081019050614401565b5050509392505050565b600082601f83011261444757614446613eb8565b5b81356144578482602086016143c9565b91505092915050565b6000806040838503121561447757614476613b08565b5b600083013567ffffffffffffffff81111561449557614494613b0d565b5b6144a185828601614432565b925050602083013567ffffffffffffffff8111156144c2576144c1613b0d565b5b6144ce85828601613fd2565b9150509250929050565b600081519050919050565b600082825260208201905092915050565b6000819050602082019050919050565b61450d81613b70565b82525050565b600061451f8383614504565b60208301905092915050565b6000602082019050919050565b6000614543826144d8565b61454d81856144e3565b9350614558836144f4565b8060005b838110156145895781516145708882614513565b975061457b8361452b565b92505060018101905061455c565b5085935050505092915050565b600060208201905081810360008301526145b08184614538565b905092915050565b60006020820190506145cd6000830184613e80565b92915050565b600080fd5b60008083601f8401126145ee576145ed613eb8565b5b8235905067ffffffffffffffff81111561460b5761460a6145d3565b5b60208301915083602082028301111561462757614626613f64565b5b9250929050565b6000806000806040858703121561464857614647613b08565b5b600085013567ffffffffffffffff81111561466657614665613b0d565b5b614672878288016145d8565b9450945050602085013567ffffffffffffffff81111561469557614694613b0d565b5b6146a1878288016145d8565b925092505092959194509250565b6000806000606084860312156146c8576146c7613b08565b5b60006146d686828701613b5b565b935050602084013567ffffffffffffffff8111156146f7576146f6613b0d565b5b61470386828701613fd2565b925050604084013567ffffffffffffffff81111561472457614723613b0d565b5b61473086828701613fd2565b9150509250925092565b6000806040838503121561475157614750613b08565b5b600061475f85828601613b5b565b9250506020614770858286016142e9565b9150509250929050565b600060e082840312156147905761478f6142ae565b5b81905092915050565b600080600080608085870312156147b3576147b2613b08565b5b600085013567ffffffffffffffff8111156147d1576147d0613b0d565b5b6147dd8782880161477a565b94505060206147ee878288016142e9565b93505060406147ff878288016142e9565b925050606085013567ffffffffffffffff8111156148205761481f613b0d565b5b61482c87828801614087565b91505092959194509250565b60008083601f84011261484e5761484d613eb8565b5b8235905067ffffffffffffffff81111561486b5761486a6145d3565b5b60208301915083600182028301111561488757614886613f64565b5b9250929050565b6000806000604084860312156148a7576148a6613b08565b5b60006148b586828701613b5b565b935050602084013567ffffffffffffffff8111156148d6576148d5613b0d565b5b6148e286828701614838565b92509250509250925092565b60008083601f84011261490457614903613eb8565b5b8235905067ffffffffffffffff811115614921576149206145d3565b5b60208301915083600182028301111561493d5761493c613f64565b5b9250929050565b6000806000806060858703121561495e5761495d613b08565b5b600061496c87828801613b91565b945050602085013567ffffffffffffffff81111561498d5761498c613b0d565b5b614999878288016148ee565b935093505060406149ac878288016142e9565b91505092959194509250565b600080604083850312156149cf576149ce613b08565b5b60006149dd85828601613b5b565b92505060206149ee85828601613b5b565b9150509250929050565b600080600080600060a08688031215614a1457614a13613b08565b5b6000614a2288828901613b5b565b9550506020614a3388828901613b5b565b9450506040614a4488828901613b91565b9350506060614a5588828901613b91565b925050608086013567ffffffffffffffff811115614a7657614a75613b0d565b5b614a8288828901614087565b9150509295509295909350565b600080600060608486031215614aa857614aa7613b08565b5b6000614ab686828701613b5b565b9350506020614ac786828701613b91565b9250506040614ad886828701613b91565b9150509250925092565b7f62616c616e636520717565727920666f7220746865207a65726f20616464726560008201527f7373000000000000000000000000000000000000000000000000000000000000602082015250565b6000614b3e602283613cd6565b9150614b4982614ae2565b604082019050919050565b60006020820190508181036000830152614b6d81614b31565b9050919050565b7f4e487b7100000000000000000000000000000000000000000000000000000000600052602260045260246000fd5b60006002820490506001821680614bbb57607f821691505b60208210811415614bcf57614bce614b74565b5b50919050565b600081905092915050565b60008190508160005260206000209050919050565b60008154614c0281614ba3565b614c0c8186614bd5565b94506001821660008114614c275760018114614c3857614c6b565b60ff19831686528186019350614c6b565b614c4185614be0565b60005b83811015614c6357815481890152600182019150602081019050614c44565b838801955050505b50505092915050565b6000614c808285614bf5565b9150614c8c8284614bf5565b91508190509392505050565b7f4e487b7100000000000000000000000000000000000000000000000000000000600052601160045260246000fd5b6000614cd282613b70565b9150614cdd83613b70565b9250817fffffffffffffffffffffffffffffffffffffffffffffffffffffffffffffffff0483118215151615614d1657614d15614c98565b5b828202905092915050565b7f4e487b7100000000000000000000000000000000000000000000000000000000600052601260045260246000fd5b6000614d5b82613b70565b9150614d6683613b70565b925082614d7657614d75614d21565b5b828204905092915050565b7f7472616e736665722063616c6c6572206973206e6f74206f776e6572206e6f7260008201527f20617070726f7665640000000000000000000000000000000000000000000000602082015250565b6000614ddd602983613cd6565b9150614de882614d81565b604082019050919050565b60006020820190508181036000830152614e0c81614dd0565b9050919050565b7f69647320616e6420616d6f756e7473206c656e677468206d69736d6174636800600082015250565b6000614e49601f83613cd6565b9150614e5482614e13565b602082019050919050565b60006020820190508181036000830152614e7881614e3c565b9050919050565b7f7472616e7366657220746f20746865207a65726f206164647265737300000000600082015250565b6000614eb5601c83613cd6565b9150614ec082614e7f565b602082019050919050565b60006020820190508181036000830152614ee481614ea8565b9050919050565b7f4e487b7100000000000000000000000000000000000000000000000000000000600052603260045260246000fd5b7f696e73756666696369656e742062616c616e636520666f72207472616e73666560008201527f7200000000000000000000000000000000000000000000000000000000000000602082015250565b6000614f76602183613cd6565b9150614f8182614f1a565b604082019050919050565b60006020820190508181036000830152614fa581614f69565b9050919050565b6000614fb782613b70565b9150614fc283613b70565b9250827fffffffffffffffffffffffffffffffffffffffffffffffffffffffffffffffff03821115614ff757614ff6614c98565b5b828201905092915050565b600061500d82613b70565b91507fffffffffffffffffffffffffffffffffffffffffffffffffffffffffffffffff8214156150405761503f614c98565b5b600182019050919050565b600060408201905081810360008301526150658185614538565b905081810360208301526150798184614538565b90509392505050565b7f416363657373436f6e74726f6c3a2063616e206f6e6c792072656e6f756e636560008201527f20726f6c657320666f722073656c660000000000000000000000000000000000602082015250565b60006150de602f83613cd6565b91506150e982615082565b604082019050919050565b6000602082019050818103600083015261510d816150d1565b9050919050565b600080fd5b600080fd5b600080fd5b600080833560016020038436030381126151405761513f615114565b5b80840192508235915067ffffffffffffffff82111561516257615161615119565b5b60208301925060208202360383131561517e5761517d61511e565b5b509250929050565b600080833560016020038436030381126151a3576151a2615114565b5b80840192508235915067ffffffffffffffff8211156151c5576151c4615119565b5b6020830192506020820236038313156151e1576151e061511e565b5b509250929050565b7f69647320616e642075726973206c656e677468206d69736d6174636800000000600082015250565b600061521f601c83613cd6565b915061522a826151e9565b602082019050919050565b6000602082019050818103600083015261524e81615212565b9050919050565b60006020828403121561526b5761526a613b08565b5b600061527984828501613b5b565b91505092915050565b6000808335600160200384360303811261529f5761529e615114565b5b80840192508235915067ffffffffffffffff8211156152c1576152c0615119565b5b6020830192506001820236038313156152dd576152dc61511e565b5b509250929050565b7f696e76616c696420757269000000000000000000000000000000000000000000600082015250565b600061531b600b83613cd6565b9150615326826152e5565b602082019050919050565b6000602082019050818103600083015261534a8161530e565b9050919050565b600062ffffff82169050919050565b61536981615351565b811461537457600080fd5b50565b60008135905061538681615360565b92915050565b6000602082840312156153a2576153a1613b08565b5b60006153b084828501615377565b91505092915050565b7f6163636f756e747320616e6420696473206c656e677468206d69736d61746368600082015250565b60006153ef602083613cd6565b91506153fa826153b9565b602082019050919050565b6000602082019050818103600083015261541e816153e2565b9050919050565b7f6275726e2066726f6d20746865207a65726f2061646472657373000000000000600082015250565b600061545b601a83613cd6565b915061546682615425565b602082019050919050565b6000602082019050818103600083015261548a8161544e565b9050919050565b7f63616c6c6572206973206e6f74206f776e6572206e6f7220617070726f766564600082015250565b60006154c7602083613cd6565b91506154d282615491565b602082019050919050565b600060208201905081810360008301526154f6816154ba565b9050919050565b7f6275726e20616d6f756e7420657863656564732062616c616e63650000000000600082015250565b6000615533601b83613cd6565b915061553e826154fd565b602082019050919050565b6000602082019050818103600083015261556281615526565b9050919050565b7f73657474696e6720617070726f76616c2073746174757320666f722073656c66600082015250565b600061559f602083613cd6565b91506155aa82615569565b602082019050919050565b600060208201905081810360008301526155ce81615592565b9050919050565b7f746f6b656e20697320616c7265616479206d696e746564000000000000000000600082015250565b600061560b601783613cd6565b9150615616826155d5565b602082019050919050565b6000602082019050818103600083015261563a816155fe565b9050919050565b7f6d696e7420746f20746865207a65726f20616464726573730000000000000000600082015250565b6000615677601883613cd6565b915061568282615641565b602082019050919050565b600060208201905081810360008301526156a68161566a565b9050919050565b7f7a65726f20737570706c79000000000000000000000000000000000000000000600082015250565b60006156e3600b83613cd6565b91506156ee826156ad565b602082019050919050565b60006020820190508181036000830152615712816156d6565b9050919050565b600060408201905061572e6000830185613be6565b61573b6020830184613be6565b9392505050565b60008060006060848603121561575b5761575a613b08565b5b600084013567ffffffffffffffff81111561577957615778613b0d565b5b61578586828701613fd2565b935050602084013567ffffffffffffffff8111156157a6576157a5613b0d565b5b6157b286828701613fd2565b925050604084013567ffffffffffffffff8111156157d3576157d2613b0d565b5b6157df86828701614087565b9150509250925092565b7f696e76616c6964206465706f7369742075736572000000000000000000000000600082015250565b600061581f601483613cd6565b915061582a826157e9565b602082019050919050565b6000602082019050818103600083015261584e81615812565b9050919050565b7f6e6f7420616c6c6f776564000000000000000000000000000000000000000000600082015250565b600061588b600b83613cd6565b915061589682615855565b602082019050919050565b600060208201905081810360008301526158ba8161587e565b9050919050565b7f63726561746f72206973206e6f742066756c6c206f776e657200000000000000600082015250565b60006158f7601983613cd6565b9150615902826158c1565b602082019050919050565b60006020820190508181036000830152615926816158ea565b9050919050565b7f7572692069732066726f7a656e00000000000000000000000000000000000000600082015250565b6000615963600d83613cd6565b915061596e8261592d565b602082019050919050565b6000602082019050818103600083015261599281615956565b9050919050565b60006159a482613b70565b915060008214156159b8576159b7614c98565b5b600182039050919050565b7f537472696e67733a20686578206c656e67746820696e73756666696369656e74600082015250565b60006159f9602083613cd6565b9150615a04826159c3565b602082019050919050565b60006020820190508181036000830152615a28816159ec565b9050919050565b600081519050919050565b600082825260208201905092915050565b6000615a5682615a2f565b615a608185615a3a565b9350615a70818560208601613ce7565b615a7981613d1a565b840191505092915050565b600060a082019050615a996000830188613e80565b615aa66020830187613e80565b8181036040830152615ab88186614538565b90508181036060830152615acc8185614538565b90508181036080830152615ae08184615a4b565b90509695505050505050565b600081519050615afb81613c3c565b92915050565b600060208284031215615b1757615b16613b08565b5b6000615b2584828501615aec565b91505092915050565b60008160e01c9050919050565b600060033d1115615b5a5760046000803e615b57600051615b2e565b90505b90565b600060443d1015615b6d57615bf0565b615b75613afe565b60043d036004823e80513d602482011167ffffffffffffffff82111715615b9d575050615bf0565b808201805167ffffffffffffffff811115615bbb5750505050615bf0565b80602083010160043d038501811115615bd8575050505050615bf0565b615be782602001850186613eec565b82955050505050505b90565b7f7472616e7366657220746f206e6f6e204552433131353552656365697665722060008201527f696d706c656d656e746572000000000000000000000000000000000000000000602082015250565b6000615c4f602b83613cd6565b9150615c5a82615bf3565b604082019050919050565b60006020820190508181036000830152615c7e81615c42565b9050919050565b7f4552433131353552656365697665722072656a656374656420746f6b656e7300600082015250565b6000615cbb601f83613cd6565b9150615cc682615c85565b602082019050919050565b60006020820190508181036000830152615cea81615cae565b9050919050565b7f416363657373436f6e74726f6c3a206163636f756e7420000000000000000000600082015250565b6000615d27601783614bd5565b9150615d3282615cf1565b601782019050919050565b6000615d4882613ccb565b615d528185614bd5565b9350615d62818560208601613ce7565b80840191505092915050565b7f206973206d697373696e6720726f6c6520000000000000000000000000000000600082015250565b6000615da4601183614bd5565b9150615daf82615d6e565b601182019050919050565b6000615dc582615d1a565b9150615dd18285615d3d565b9150615ddc82615d97565b9150615de88284615d3d565b91508190509392505050565b7f45524332393831526f79616c746965733a20546f6f2068696768000000000000600082015250565b6000615e2a601a83613cd6565b9150615e3582615df4565b602082019050919050565b60006020820190508181036000830152615e5981615e1d565b9050919050565b600060a082019050615e756000830188613e80565b615e826020830187613e80565b615e8f6040830186613be6565b615e9c6060830185613be6565b8181036080830152615eae8184615a4b565b9050969550505050505056fea2646970667358221220b944d0c808b3849a450affd680c8e9bbdd878ebd22f56ec62f5b217cc449853864736f6c63430008090033",
  "linkReferences": {},
  "deployedLinkReferences": {}
}