{
  "_format": "hh-sol-artifact-1",
  "contractName": "FixedPriceRedeemFacet",
  "sourceName": "contracts/marketplace/facets/FixedPriceRedeemFacet.sol",
  "abi": [
    {
      "anonymous": false,
      "inputs": [
        {
          "indexed": false,
          "internalType": "address",
          "name": "paymentToken",
          "type": "address"
        },
        {
          "indexed": true,
          "internalType": "address",
          "name": "buyer",
          "type": "address"
        },
        {
          "indexed": true,
          "internalType": "address",
          "name": "receiver",
          "type": "address"
        },
        {
          "indexed": false,
          "internalType": "uint256",
          "name": "value",
          "type": "uint256"
        }
      ],
      "name": "ComissionPayed",
      "type": "event"
    },
    {
      "anonymous": false,
      "inputs": [
        {
          "indexed": true,
          "internalType": "uint256",
          "name": "bundleId",
          "type": "uint256"
        },
        {
          "indexed": true,
          "internalType": "address",
          "name": "buyer",
          "type": "address"
        }
      ],
      "name": "FixedPriceBundleRedeemed",
      "type": "event"
    },
    {
      "anonymous": false,
      "inputs": [
        {
          "indexed": true,
          "internalType": "address",
          "name": "token",
          "type": "address"
        },
        {
          "indexed": false,
          "internalType": "address",
          "name": "paymentToken",
          "type": "address"
        },
        {
          "indexed": false,
          "internalType": "address",
          "name": "buyer",
          "type": "address"
        },
        {
          "indexed": true,
          "internalType": "address",
          "name": "receiver",
          "type": "address"
        },
        {
          "indexed": true,
          "internalType": "uint256",
          "name": "tokenId",
          "type": "uint256"
        },
        {
          "indexed": false,
          "internalType": "uint256",
          "name": "value",
          "type": "uint256"
        }
      ],
      "name": "RoyaltyPayed",
      "type": "event"
    },
    {
      "inputs": [
        {
          "components": [
            {
              "internalType": "address",
              "name": "buyer",
              "type": "address"
            },
            {
              "internalType": "uint256",
              "name": "bundleId",
              "type": "uint256"
            },
            {
              "internalType": "uint256[]",
              "name": "amounts",
              "type": "uint256[]"
            }
          ],
          "internalType": "struct FixedPriceRedeemOrder",
          "name": "order",
          "type": "tuple"
        }
      ],
      "name": "fixedPriceRedeemBundle",
      "outputs": [],
      "stateMutability": "nonpayable",
      "type": "function"
    }
  ],
  "bytecode": "0x608060405234801561001057600080fd5b50613c38806100206000396000f3fe608060405234801561001057600080fd5b506004361061002b5760003560e01c806335bb28ac14610030575b600080fd5b61004a60048036038101906100459190612940565b61004c565b005b80600001602081019061005f91906129e7565b6100676100ea565b73ffffffffffffffffffffffffffffffffffffffff168173ffffffffffffffffffffffffffffffffffffffff16146100d4576040517f08c379a00000000000000000000000000000000000000000000000000000000081526004016100cb90612a71565b60405180910390fd5b6100dd826100f2565b6100e6826102a5565b5050565b600033905090565b60006100fc610ae9565b9050600081600301600101600084602001358152602001908152602001600020905061013983600001602081019061013491906129e7565b610aee565b610144816001610b61565b6001600281111561015857610157612a91565b5b81600a0160009054906101000a900460ff16600281111561017c5761017b612a91565b5b14806101bc575060028081111561019657610195612a91565b5b81600a0160009054906101000a900460ff1660028111156101ba576101b9612a91565b5b145b6101fb576040517f08c379a00000000000000000000000000000000000000000000000000000000081526004016101f290612b32565b60405180910390fd5b82600001602081019061020e91906129e7565b73ffffffffffffffffffffffffffffffffffffffff168160000160009054906101000a900473ffffffffffffffffffffffffffffffffffffffff1673ffffffffffffffffffffffffffffffffffffffff1614156102a0576040517f08c379a000000000000000000000000000000000000000000000000000000000815260040161029790612bc4565b60405180910390fd5b505050565b60006102af610ae9565b905060008160030160010160008460200135815260200190815260200160002090506002808111156102e4576102e3612a91565b5b81600a0160009054906101000a900460ff16600281111561030857610307612a91565b5b14156103455761031781610bdc565b600181600a0160006101000a81548160ff0219169083600281111561033f5761033e612a91565b5b02179055505b60008160040180549050905060008060006001905060005b848110156109135760008760030160000160008860000160009054906101000a900473ffffffffffffffffffffffffffffffffffffffff1673ffffffffffffffffffffffffffffffffffffffff1673ffffffffffffffffffffffffffffffffffffffff16815260200190815260200160002060008860030184815481106103e7576103e6612be4565b5b9060005260206000200160009054906101000a900473ffffffffffffffffffffffffffffffffffffffff1673ffffffffffffffffffffffffffffffffffffffff1673ffffffffffffffffffffffffffffffffffffffff168152602001908152602001600020600088600401848154811061046457610463612be4565b5b90600052602060002001548152602001908152602001600020905080600101548980604001906104949190612c22565b848181106104a5576104a4612be4565b5b9050602002013511156104ed576040517f08c379a00000000000000000000000000000000000000000000000000000000081526004016104e490612cf7565b60405180910390fd5b60008980604001906104ff9190612c22565b848181106105105761050f612be4565b5b9050602002013514156105235750610900565b60008980604001906105359190612c22565b8481811061054657610545612be4565b5b90506020020135826002015461055c9190612d50565b9050600061061689600301858154811061057957610578612be4565b5b9060005260206000200160009054906101000a900473ffffffffffffffffffffffffffffffffffffffff168a60010160009054906101000a900473ffffffffffffffffffffffffffffffffffffffff168d60000160208101906105dc91906129e7565b8e60000160208101906105ef91906129e7565b8d600401898154811061060557610604612be4565b5b90600052602060002001548761134e565b90506000600181111561062c5761062b612a91565b5b8360040160009054906101000a900460ff1660018111156106505761064f612a91565b5b14156107385788600301848154811061066c5761066b612be4565b5b9060005260206000200160009054906101000a900473ffffffffffffffffffffffffffffffffffffffff1673ffffffffffffffffffffffffffffffffffffffff1663b88d4fde308d60000160208101906106c691906129e7565b8c60040188815481106106dc576106db612be4565b5b90600052602060002001546040518463ffffffff1660e01b815260040161070593929190612dff565b600060405180830381600087803b15801561071f57600080fd5b505af1158015610733573d6000803e3d6000fd5b505050505b60018081111561074b5761074a612a91565b5b8360040160009054906101000a900460ff16600181111561076f5761076e612a91565b5b14156108805788600301848154811061078b5761078a612be4565b5b9060005260206000200160009054906101000a900473ffffffffffffffffffffffffffffffffffffffff1673ffffffffffffffffffffffffffffffffffffffff1663f242432a308d60000160208101906107e591906129e7565b8c60040188815481106107fb576107fa612be4565b5b90600052602060002001548f80604001906108169190612c22565b8a81811061082757610826612be4565b5b905060200201356040518563ffffffff1660e01b815260040161084d9493929190612e49565b600060405180830381600087803b15801561086757600080fd5b505af115801561087b573d6000803e3d6000fd5b505050505b818761088c9190612ea1565b9650808661089a9190612ea1565b95508a80604001906108ac9190612c22565b858181106108bd576108bc612be4565b5b9050602002013583600101546108d39190612ef7565b83600101819055506000836001015411156108f157600094506108fc565b600083600001819055505b5050505b808061090b90612f2b565b91505061035d565b506000831415610958576040517f08c379a000000000000000000000000000000000000000000000000000000000815260040161094f90612fc0565b60405180910390fd5b60006109ae8660010160009054906101000a900473ffffffffffffffffffffffffffffffffffffffff1689600001602081019061099591906129e7565b8a60000160208101906109a891906129e7565b87611538565b9050610a518660010160009054906101000a900473ffffffffffffffffffffffffffffffffffffffff168760020160009054906101000a900473ffffffffffffffffffffffffffffffffffffffff168a6000016020810190610a1091906129e7565b8960000160009054906101000a900473ffffffffffffffffffffffffffffffffffffffff1685888a610a429190612ef7565b610a4c9190612ef7565b611819565b8115610a8557600086600a0160006101000a81548160ff02191690836002811115610a7f57610a7e612a91565b5b02179055505b876000016020810190610a9891906129e7565b73ffffffffffffffffffffffffffffffffffffffff1688602001357f92cc0b15ff4711cbecb1103b6b0faa1e623fb5f609beca03be72dc49d0058d2c60405160405180910390a35050505050505050565b600090565b600073ffffffffffffffffffffffffffffffffffffffff168173ffffffffffffffffffffffffffffffffffffffff161415610b5e576040517f08c379a0000000000000000000000000000000000000000000000000000000008152600401610b559061302c565b60405180910390fd5b50565b806003811115610b7457610b73612a91565b5b82600a0160019054906101000a900460ff166003811115610b9857610b97612a91565b5b14610bd8576040517f08c379a0000000000000000000000000000000000000000000000000000000008152600401610bcf90613098565b60405180910390fd5b5050565b6000610be6610ae9565b905060008260040180549050905060005b818110156113485760008360030160000160008660000160009054906101000a900473ffffffffffffffffffffffffffffffffffffffff1673ffffffffffffffffffffffffffffffffffffffff1673ffffffffffffffffffffffffffffffffffffffff1681526020019081526020016000206000866003018481548110610c8157610c80612be4565b5b9060005260206000200160009054906101000a900473ffffffffffffffffffffffffffffffffffffffff1673ffffffffffffffffffffffffffffffffffffffff1673ffffffffffffffffffffffffffffffffffffffff1681526020019081526020016000206000866004018481548110610cfe57610cfd612be4565b5b90600052602060002001548152602001908152602001600020905060006001811115610d2d57610d2c612a91565b5b8160040160009054906101000a900460ff166001811115610d5157610d50612a91565b5b141561101d57610d5f61280a565b856003018381548110610d7557610d74612be4565b5b9060005260206000200160009054906101000a900473ffffffffffffffffffffffffffffffffffffffff16816000019073ffffffffffffffffffffffffffffffffffffffff16908173ffffffffffffffffffffffffffffffffffffffff16815250508560000160009054906101000a900473ffffffffffffffffffffffffffffffffffffffff16816020019073ffffffffffffffffffffffffffffffffffffffff16908173ffffffffffffffffffffffffffffffffffffffff1681525050856004018381548110610e4957610e48612be4565b5b9060005260206000200154816040018181525050816003018054610e6c906130e7565b80601f0160208091040260200160405190810160405280929190818152602001828054610e98906130e7565b8015610ee55780601f10610eba57610100808354040283529160200191610ee5565b820191906000526020600020905b815481529060010190602001808311610ec857829003601f168201915b50505050508160600181905250816005016040518060400160405290816000820160009054906101000a900473ffffffffffffffffffffffffffffffffffffffff1673ffffffffffffffffffffffffffffffffffffffff1673ffffffffffffffffffffffffffffffffffffffff1681526020016000820160149054906101000a900462ffffff1662ffffff1662ffffff168152505081608001819052506000610f918260000151612017565b9050610f9f82826000612084565b816000015173ffffffffffffffffffffffffffffffffffffffff1663b88d4fde83602001513085604001516040518463ffffffff1660e01b8152600401610fe893929190612dff565b600060405180830381600087803b15801561100257600080fd5b505af1158015611016573d6000803e3d6000fd5b5050505050505b6001808111156110305761102f612a91565b5b8160040160009054906101000a900460ff16600181111561105457611053612a91565b5b14156113345761106261286b565b85600301838154811061107857611077612be4565b5b9060005260206000200160009054906101000a900473ffffffffffffffffffffffffffffffffffffffff16816000019073ffffffffffffffffffffffffffffffffffffffff16908173ffffffffffffffffffffffffffffffffffffffff16815250508560000160009054906101000a900473ffffffffffffffffffffffffffffffffffffffff16816020019073ffffffffffffffffffffffffffffffffffffffff16908173ffffffffffffffffffffffffffffffffffffffff168152505085600401838154811061114c5761114b612be4565b5b9060005260206000200154816040018181525050816001015481606001818152505081600301805461117d906130e7565b80601f01602080910402602001604051908101604052809291908181526020018280546111a9906130e7565b80156111f65780601f106111cb576101008083540402835291602001916111f6565b820191906000526020600020905b8154815290600101906020018083116111d957829003601f168201915b50505050508160800181905250816005016040518060400160405290816000820160009054906101000a900473ffffffffffffffffffffffffffffffffffffffff1673ffffffffffffffffffffffffffffffffffffffff1673ffffffffffffffffffffffffffffffffffffffff1681526020016000820160149054906101000a900462ffffff1662ffffff1662ffffff16815250508160a0018190525060006112a28260000151612017565b90506112b08282600061212a565b816000015173ffffffffffffffffffffffffffffffffffffffff1663f242432a836020015130856040015186606001516040518563ffffffff1660e01b81526004016112ff9493929190612e49565b600060405180830381600087803b15801561131957600080fd5b505af115801561132d573d6000803e3d6000fd5b5050505050505b50808061134090612f2b565b915050610bf7565b50505050565b600080821415611361576000905061152e565b600061137488632a55205a60e01b6121d0565b156115295760008873ffffffffffffffffffffffffffffffffffffffff16632a55205a86866040518363ffffffff1660e01b81526004016113b6929190613119565b604080518083038186803b1580156113cd57600080fd5b505afa1580156113e1573d6000803e3d6000fd5b505050506040513d601f19601f820116820180604052508101906114059190613183565b809350819250505060008211801561141c57508382105b15611522573073ffffffffffffffffffffffffffffffffffffffff168773ffffffffffffffffffffffffffffffffffffffff1614156114855761148081838a73ffffffffffffffffffffffffffffffffffffffff166121f59092919063ffffffff16565b6114b3565b6114b28782848b73ffffffffffffffffffffffffffffffffffffffff1661227b909392919063ffffffff16565b5b848173ffffffffffffffffffffffffffffffffffffffff168a73ffffffffffffffffffffffffffffffffffffffff167fc12e0ad04220866b41089cc4006c59d73fdfd790857e121651c1b55e7a872aeb8b8a87604051611515939291906131c3565b60405180910390a4611527565b600091505b505b809150505b9695505050505050565b60008082141561154b5760009050611811565b6000611555610ae9565b905060008160050160060160008873ffffffffffffffffffffffffffffffffffffffff1673ffffffffffffffffffffffffffffffffffffffff1681526020019081526020016000208054905090506000805b828110156116b657858460050160060160008b73ffffffffffffffffffffffffffffffffffffffff1673ffffffffffffffffffffffffffffffffffffffff168152602001908152602001600020828154811061160657611605612be4565b5b9060005260206000200154101561169e578360050160070160008a73ffffffffffffffffffffffffffffffffffffffff1673ffffffffffffffffffffffffffffffffffffffff168152602001908152602001600020818154811061166d5761166c612be4565b5b90600052602060002090600a91828204019190066003029054906101000a900462ffffff1662ffffff1691506116a3565b6116b6565b80806116ae90612f2b565b9150506115a7565b50600061271082876116c89190612d50565b6116d29190613229565b90506000811115611809573073ffffffffffffffffffffffffffffffffffffffff168873ffffffffffffffffffffffffffffffffffffffff16146117a1578873ffffffffffffffffffffffffffffffffffffffff166323b872dd8930846040518463ffffffff1660e01b815260040161174d939291906131c3565b602060405180830381600087803b15801561176757600080fd5b505af115801561177b573d6000803e3d6000fd5b505050506040513d601f19601f8201168201806040525081019061179f9190613292565b505b3073ffffffffffffffffffffffffffffffffffffffff168773ffffffffffffffffffffffffffffffffffffffff167f3d1fa10df804e58804446516af66e1a441d99b35693f686142946525683247598b846040516118009291906132bf565b60405180910390a35b809450505050505b949350505050565b6000611823610ae9565b90503073ffffffffffffffffffffffffffffffffffffffff168473ffffffffffffffffffffffffffffffffffffffff161461192657818673ffffffffffffffffffffffffffffffffffffffff1663dd62ed3e86306040518363ffffffff1660e01b81526004016118949291906132e8565b60206040518083038186803b1580156118ac57600080fd5b505afa1580156118c0573d6000803e3d6000fd5b505050506040513d601f19601f820116820180604052508101906118e49190613311565b1015611925576040517f08c379a000000000000000000000000000000000000000000000000000000000815260040161191c906133b0565b60405180910390fd5b5b600082905060008083600501600b0160009054906101000a900473ffffffffffffffffffffffffffffffffffffffff1673ffffffffffffffffffffffffffffffffffffffff168973ffffffffffffffffffffffffffffffffffffffff16149050600084600501600b0160009054906101000a900473ffffffffffffffffffffffffffffffffffffffff1673ffffffffffffffffffffffffffffffffffffffff168973ffffffffffffffffffffffffffffffffffffffff161490508180156119ea5750805b80611a0657508460050160110160109054906101000a900460ff165b15611aa6573073ffffffffffffffffffffffffffffffffffffffff168873ffffffffffffffffffffffffffffffffffffffff1614611a7057611a6b8888868d73ffffffffffffffffffffffffffffffffffffffff1661227b909392919063ffffffff16565b611a9c565b611a9b87858c73ffffffffffffffffffffffffffffffffffffffff166121f59092919063ffffffff16565b5b5050505050612010565b3073ffffffffffffffffffffffffffffffffffffffff168873ffffffffffffffffffffffffffffffffffffffff1614611b0757611b068830868d73ffffffffffffffffffffffffffffffffffffffff1661227b909392919063ffffffff16565b5b81611da0576000600267ffffffffffffffff811115611b2957611b286133d0565b5b604051908082528060200260200182016040528015611b575781602001602082028036833780820191505090505b5090508a81600081518110611b6f57611b6e612be4565b5b602002602001019073ffffffffffffffffffffffffffffffffffffffff16908173ffffffffffffffffffffffffffffffffffffffff168152505085600501600b0160009054906101000a900473ffffffffffffffffffffffffffffffffffffffff1681600181518110611be557611be4612be4565b5b602002602001019073ffffffffffffffffffffffffffffffffffffffff16908173ffffffffffffffffffffffffffffffffffffffff1681525050611c718660180160000160009054906101000a900473ffffffffffffffffffffffffffffffffffffffff16868d73ffffffffffffffffffffffffffffffffffffffff166123049092919063ffffffff16565b60008215611c8157889050611c85565b3090505b60008760180160000160009054906101000a900473ffffffffffffffffffffffffffffffffffffffff1673ffffffffffffffffffffffffffffffffffffffff166338ed173988600086868d6018016001015442611ce29190612ea1565b6040518663ffffffff1660e01b8152600401611d02959493929190613502565b600060405180830381600087803b158015611d1c57600080fd5b505af1158015611d30573d6000803e3d6000fd5b505050506040513d6000823e3d601f19601f82011682018060405250810190611d599190613686565b90508315611d6e575050505050505050612010565b8060018251611d7d9190612ef7565b81518110611d8e57611d8d612be4565b5b60200260200101519550505050611da4565b8392505b8061200a576000600267ffffffffffffffff811115611dc657611dc56133d0565b5b604051908082528060200260200182016040528015611df45781602001602082028036833780820191505090505b50905085600501600b0160009054906101000a900473ffffffffffffffffffffffffffffffffffffffff1681600081518110611e3357611e32612be4565b5b602002602001019073ffffffffffffffffffffffffffffffffffffffff16908173ffffffffffffffffffffffffffffffffffffffff16815250508981600181518110611e8257611e81612be4565b5b602002602001019073ffffffffffffffffffffffffffffffffffffffff16908173ffffffffffffffffffffffffffffffffffffffff1681525050611f358660180160000160009054906101000a900473ffffffffffffffffffffffffffffffffffffffff168588600501600b0160009054906101000a900473ffffffffffffffffffffffffffffffffffffffff1673ffffffffffffffffffffffffffffffffffffffff166123049092919063ffffffff16565b8560180160000160009054906101000a900473ffffffffffffffffffffffffffffffffffffffff1673ffffffffffffffffffffffffffffffffffffffff166338ed1739856000848c8b6018016001015442611f909190612ea1565b6040518663ffffffff1660e01b8152600401611fb0959493929190613502565b600060405180830381600087803b158015611fca57600080fd5b505af1158015611fde573d6000803e3d6000fd5b505050506040513d6000823e3d601f19601f820116820180604052508101906120079190613686565b50505b50505050505b5050505050565b600080612022610ae9565b905060008160050160050160008573ffffffffffffffffffffffffffffffffffffffff1673ffffffffffffffffffffffffffffffffffffffff16815260200190815260200160002060009054906101000a900460ff1690508092505050919050565b60018081111561209757612096612a91565b5b8260018111156120aa576120a9612a91565b5b141561212557826000015173ffffffffffffffffffffffffffffffffffffffff1663dece1b10848360006040518463ffffffff1660e01b81526004016120f293929190613838565b600060405180830381600087803b15801561210c57600080fd5b505af1158015612120573d6000803e3d6000fd5b505050505b505050565b60018081111561213d5761213c612a91565b5b8260018111156121505761214f612a91565b5b14156121cb57826000015173ffffffffffffffffffffffffffffffffffffffff1663b841bb89848360006040518463ffffffff1660e01b815260040161219893929190613912565b600060405180830381600087803b1580156121b257600080fd5b505af11580156121c6573d6000803e3d6000fd5b505050505b505050565b60006121db83612425565b80156121ed57506121ec8383612472565b5b905092915050565b6122768363a9059cbb60e01b84846040516024016122149291906132bf565b604051602081830303815290604052907bffffffffffffffffffffffffffffffffffffffffffffffffffffffff19166020820180517bffffffffffffffffffffffffffffffffffffffffffffffffffffffff838183161783525050505061259d565b505050565b6122fe846323b872dd60e01b85858560405160240161229c939291906131c3565b604051602081830303815290604052907bffffffffffffffffffffffffffffffffffffffffffffffffffffffff19166020820180517bffffffffffffffffffffffffffffffffffffffffffffffffffffffff838183161783525050505061259d565b50505050565b6000818473ffffffffffffffffffffffffffffffffffffffff1663dd62ed3e30866040518363ffffffff1660e01b81526004016123429291906132e8565b60206040518083038186803b15801561235a57600080fd5b505afa15801561236e573d6000803e3d6000fd5b505050506040513d601f19601f820116820180604052508101906123929190613311565b61239c9190612ea1565b905061241f8463095ea7b360e01b85846040516024016123bd9291906132bf565b604051602081830303815290604052907bffffffffffffffffffffffffffffffffffffffffffffffffffffffff19166020820180517bffffffffffffffffffffffffffffffffffffffffffffffffffffffff838183161783525050505061259d565b50505050565b6000612451827f01ffc9a700000000000000000000000000000000000000000000000000000000612472565b801561246b57506124698263ffffffff60e01b612472565b155b9050919050565b6000806301ffc9a760e01b8360405160240161248e919061399e565b604051602081830303815290604052907bffffffffffffffffffffffffffffffffffffffffffffffffffffffff19166020820180517bffffffffffffffffffffffffffffffffffffffffffffffffffffffff838183161783525050505090506000808573ffffffffffffffffffffffffffffffffffffffff16617530846040516125189190613a00565b6000604051808303818686fa925050503d8060008114612554576040519150601f19603f3d011682016040523d82523d6000602084013e612559565b606091505b50915091506020815110156125745760009350505050612597565b8180156125915750808060200190518101906125909190613292565b5b93505050505b92915050565b60006125ff826040518060400160405280602081526020017f5361666545524332303a206c6f772d6c6576656c2063616c6c206661696c65648152508573ffffffffffffffffffffffffffffffffffffffff166126649092919063ffffffff16565b905060008151111561265f578080602001905181019061261f9190613292565b61265e576040517f08c379a000000000000000000000000000000000000000000000000000000000815260040161265590613a89565b60405180910390fd5b5b505050565b6060612673848460008561267c565b90509392505050565b6060824710156126c1576040517f08c379a00000000000000000000000000000000000000000000000000000000081526004016126b890613b1b565b60405180910390fd5b6126ca85612790565b612709576040517f08c379a000000000000000000000000000000000000000000000000000000000815260040161270090613b87565b60405180910390fd5b6000808673ffffffffffffffffffffffffffffffffffffffff1685876040516127329190613a00565b60006040518083038185875af1925050503d806000811461276f576040519150601f19603f3d011682016040523d82523d6000602084013e612774565b606091505b50915091506127848282866127a3565b92505050949350505050565b600080823b905060008111915050919050565b606083156127b357829050612803565b6000835111156127c65782518084602001fd5b816040517f08c379a00000000000000000000000000000000000000000000000000000000081526004016127fa9190613be0565b60405180910390fd5b9392505050565b6040518060a00160405280600073ffffffffffffffffffffffffffffffffffffffff168152602001600073ffffffffffffffffffffffffffffffffffffffff16815260200160008152602001606081526020016128656128d3565b81525090565b6040518060c00160405280600073ffffffffffffffffffffffffffffffffffffffff168152602001600073ffffffffffffffffffffffffffffffffffffffff1681526020016000815260200160008152602001606081526020016128cd6128d3565b81525090565b6040518060400160405280600073ffffffffffffffffffffffffffffffffffffffff168152602001600062ffffff1681525090565b6000604051905090565b600080fd5b600080fd5b600080fd5b6000606082840312156129375761293661291c565b5b81905092915050565b60006020828403121561295657612955612912565b5b600082013567ffffffffffffffff81111561297457612973612917565b5b61298084828501612921565b91505092915050565b600073ffffffffffffffffffffffffffffffffffffffff82169050919050565b60006129b482612989565b9050919050565b6129c4816129a9565b81146129cf57600080fd5b50565b6000813590506129e1816129bb565b92915050565b6000602082840312156129fd576129fc612912565b5b6000612a0b848285016129d2565b91505092915050565b600082825260208201905092915050565b7f4e4f545f53454e44455200000000000000000000000000000000000000000000600082015250565b6000612a5b600a83612a14565b9150612a6682612a25565b602082019050919050565b60006020820190508181036000830152612a8a81612a4e565b9050919050565b7f4e487b7100000000000000000000000000000000000000000000000000000000600052602160045260246000fd5b7f636865636b46697865645072696365556e6c6973744f726465723a2057524f4e60008201527f475f42554e444c455f5354415445000000000000000000000000000000000000602082015250565b6000612b1c602e83612a14565b9150612b2782612ac0565b604082019050919050565b60006020820190508181036000830152612b4b81612b0f565b9050919050565b7f636865636b46697865645072696365556e6c6973744f726465723a204f574e4560008201527f525f49535f425559455200000000000000000000000000000000000000000000602082015250565b6000612bae602a83612a14565b9150612bb982612b52565b604082019050919050565b60006020820190508181036000830152612bdd81612ba1565b9050919050565b7f4e487b7100000000000000000000000000000000000000000000000000000000600052603260045260246000fd5b600080fd5b600080fd5b600080fd5b60008083356001602003843603038112612c3f57612c3e612c13565b5b80840192508235915067ffffffffffffffff821115612c6157612c60612c18565b5b602083019250602082023603831315612c7d57612c7c612c1d565b5b509250929050565b7f6669786564507269636552656465656d3a20414d4f554e545f4558434545445360008201527f5f4c49535445445f414d4f554e54000000000000000000000000000000000000602082015250565b6000612ce1602e83612a14565b9150612cec82612c85565b604082019050919050565b60006020820190508181036000830152612d1081612cd4565b9050919050565b6000819050919050565b7f4e487b7100000000000000000000000000000000000000000000000000000000600052601160045260246000fd5b6000612d5b82612d17565b9150612d6683612d17565b9250817fffffffffffffffffffffffffffffffffffffffffffffffffffffffffffffffff0483118215151615612d9f57612d9e612d21565b5b828202905092915050565b612db3816129a9565b82525050565b612dc281612d17565b82525050565b600082825260208201905092915050565b50565b6000612de9600083612dc8565b9150612df482612dd9565b600082019050919050565b6000608082019050612e146000830186612daa565b612e216020830185612daa565b612e2e6040830184612db9565b8181036060830152612e3f81612ddc565b9050949350505050565b600060a082019050612e5e6000830187612daa565b612e6b6020830186612daa565b612e786040830185612db9565b612e856060830184612db9565b8181036080830152612e9681612ddc565b905095945050505050565b6000612eac82612d17565b9150612eb783612d17565b9250827fffffffffffffffffffffffffffffffffffffffffffffffffffffffffffffffff03821115612eec57612eeb612d21565b5b828201905092915050565b6000612f0282612d17565b9150612f0d83612d17565b925082821015612f2057612f1f612d21565b5b828203905092915050565b6000612f3682612d17565b91507fffffffffffffffffffffffffffffffffffffffffffffffffffffffffffffffff821415612f6957612f68612d21565b5b600182019050919050565b7f72656465656d4552433131353542756e646c653a205a45524f5f56414c554500600082015250565b6000612faa601f83612a14565b9150612fb582612f74565b602082019050919050565b60006020820190508181036000830152612fd981612f9d565b9050919050565b7f4d61726b6574706c6163653a205a45524f5f4144445245535300000000000000600082015250565b6000613016601983612a14565b915061302182612fe0565b602082019050919050565b6000602082019050818103600083015261304581613009565b9050919050565b7f4d61726b6574706c6163653a2057524f4e475f4c49535452494e475f54595045600082015250565b6000613082602083612a14565b915061308d8261304c565b602082019050919050565b600060208201905081810360008301526130b181613075565b9050919050565b7f4e487b7100000000000000000000000000000000000000000000000000000000600052602260045260246000fd5b600060028204905060018216806130ff57607f821691505b60208210811415613113576131126130b8565b5b50919050565b600060408201905061312e6000830185612db9565b61313b6020830184612db9565b9392505050565b600081519050613151816129bb565b92915050565b61316081612d17565b811461316b57600080fd5b50565b60008151905061317d81613157565b92915050565b6000806040838503121561319a57613199612912565b5b60006131a885828601613142565b92505060206131b98582860161316e565b9150509250929050565b60006060820190506131d86000830186612daa565b6131e56020830185612daa565b6131f26040830184612db9565b949350505050565b7f4e487b7100000000000000000000000000000000000000000000000000000000600052601260045260246000fd5b600061323482612d17565b915061323f83612d17565b92508261324f5761324e6131fa565b5b828204905092915050565b60008115159050919050565b61326f8161325a565b811461327a57600080fd5b50565b60008151905061328c81613266565b92915050565b6000602082840312156132a8576132a7612912565b5b60006132b68482850161327d565b91505092915050565b60006040820190506132d46000830185612daa565b6132e16020830184612db9565b9392505050565b60006040820190506132fd6000830185612daa565b61330a6020830184612daa565b9392505050565b60006020828403121561332757613326612912565b5b60006133358482850161316e565b91505092915050565b7f657865637574655061796d656e743a20494e53554646494349454e545f414c4c60008201527f4f57414e43450000000000000000000000000000000000000000000000000000602082015250565b600061339a602683612a14565b91506133a58261333e565b604082019050919050565b600060208201905081810360008301526133c98161338d565b9050919050565b7f4e487b7100000000000000000000000000000000000000000000000000000000600052604160045260246000fd5b6000819050919050565b6000819050919050565b600061342e613429613424846133ff565b613409565b612d17565b9050919050565b61343e81613413565b82525050565b600081519050919050565b600082825260208201905092915050565b6000819050602082019050919050565b613479816129a9565b82525050565b600061348b8383613470565b60208301905092915050565b6000602082019050919050565b60006134af82613444565b6134b9818561344f565b93506134c483613460565b8060005b838110156134f55781516134dc888261347f565b97506134e783613497565b9250506001810190506134c8565b5085935050505092915050565b600060a0820190506135176000830188612db9565b6135246020830187613435565b818103604083015261353681866134a4565b90506135456060830185612daa565b6135526080830184612db9565b9695505050505050565b600080fd5b6000601f19601f8301169050919050565b61357b82613561565b810181811067ffffffffffffffff8211171561359a576135996133d0565b5b80604052505050565b60006135ad612908565b90506135b98282613572565b919050565b600067ffffffffffffffff8211156135d9576135d86133d0565b5b602082029050602081019050919050565b600080fd5b60006136026135fd846135be565b6135a3565b90508083825260208201905060208402830185811115613625576136246135ea565b5b835b8181101561364e578061363a888261316e565b845260208401935050602081019050613627565b5050509392505050565b600082601f83011261366d5761366c61355c565b5b815161367d8482602086016135ef565b91505092915050565b60006020828403121561369c5761369b612912565b5b600082015167ffffffffffffffff8111156136ba576136b9612917565b5b6136c684828501613658565b91505092915050565b6136d881612d17565b82525050565b600081519050919050565b600082825260208201905092915050565b60005b838110156137185780820151818401526020810190506136fd565b83811115613727576000848401525b50505050565b6000613738826136de565b61374281856136e9565b93506137528185602086016136fa565b61375b81613561565b840191505092915050565b600062ffffff82169050919050565b61377e81613766565b82525050565b60408201600082015161379a6000850182613470565b5060208201516137ad6020850182613775565b50505050565b600060c0830160008301516137cb6000860182613470565b5060208301516137de6020860182613470565b5060408301516137f160408601826136cf565b5060608301518482036060860152613809828261372d565b915050608083015161381e6080860182613784565b508091505092915050565b6138328161325a565b82525050565b6000608082019050818103600083015261385281866137b3565b90506138616020830185613829565b61386e6040830184613829565b818103606083015261387f81612ddc565b9050949350505050565b600060e0830160008301516138a16000860182613470565b5060208301516138b46020860182613470565b5060408301516138c760408601826136cf565b5060608301516138da60608601826136cf565b50608083015184820360808601526138f2828261372d565b91505060a083015161390760a0860182613784565b508091505092915050565b6000608082019050818103600083015261392c8186613889565b905061393b6020830185613829565b6139486040830184613829565b818103606083015261395981612ddc565b9050949350505050565b60007fffffffff0000000000000000000000000000000000000000000000000000000082169050919050565b61399881613963565b82525050565b60006020820190506139b3600083018461398f565b92915050565b600081519050919050565b600081905092915050565b60006139da826139b9565b6139e481856139c4565b93506139f48185602086016136fa565b80840191505092915050565b6000613a0c82846139cf565b915081905092915050565b7f5361666545524332303a204552433230206f7065726174696f6e20646964206e60008201527f6f74207375636365656400000000000000000000000000000000000000000000602082015250565b6000613a73602a83612a14565b9150613a7e82613a17565b604082019050919050565b60006020820190508181036000830152613aa281613a66565b9050919050565b7f416464726573733a20696e73756666696369656e742062616c616e636520666f60008201527f722063616c6c0000000000000000000000000000000000000000000000000000602082015250565b6000613b05602683612a14565b9150613b1082613aa9565b604082019050919050565b60006020820190508181036000830152613b3481613af8565b9050919050565b7f416464726573733a2063616c6c20746f206e6f6e2d636f6e7472616374000000600082015250565b6000613b71601d83612a14565b9150613b7c82613b3b565b602082019050919050565b60006020820190508181036000830152613ba081613b64565b9050919050565b6000613bb2826136de565b613bbc8185612a14565b9350613bcc8185602086016136fa565b613bd581613561565b840191505092915050565b60006020820190508181036000830152613bfa8184613ba7565b90509291505056fea2646970667358221220d92aefb323b6c87afb5f95c0a36784e142e553244e19ef318fe9ec93104cae9064736f6c63430008090033",
  "linkReferences": {},
  "deployedLinkReferences": {}
}