{
  "_format": "hh-sol-artifact-1",
  "contractName": "FixedPriceListFacet",
  "sourceName": "contracts/marketplace/facets/FixedPriceListFacet.sol",
  "abi": [
    {
      "anonymous": false,
      "inputs": [
        {
          "indexed": true,
          "internalType": "uint256",
          "name": "bundleId",
          "type": "uint256"
        },
        {
          "indexed": true,
          "internalType": "address",
          "name": "owner",
          "type": "address"
        },
        {
          "indexed": false,
          "internalType": "address",
          "name": "paymentToken",
          "type": "address"
        },
        {
          "indexed": false,
          "internalType": "address[]",
          "name": "tokens",
          "type": "address[]"
        },
        {
          "indexed": false,
          "internalType": "uint256[]",
          "name": "ids",
          "type": "uint256[]"
        },
        {
          "indexed": false,
          "internalType": "uint256[]",
          "name": "amounts",
          "type": "uint256[]"
        },
        {
          "indexed": false,
          "internalType": "uint256[]",
          "name": "prices",
          "type": "uint256[]"
        },
        {
          "indexed": false,
          "internalType": "uint8[]",
          "name": "standards",
          "type": "uint8[]"
        },
        {
          "indexed": false,
          "internalType": "uint64",
          "name": "listingTime",
          "type": "uint64"
        },
        {
          "indexed": false,
          "internalType": "uint8",
          "name": "state",
          "type": "uint8"
        }
      ],
      "name": "FixedPriceBundleListed",
      "type": "event"
    },
    {
      "anonymous": false,
      "inputs": [
        {
          "indexed": true,
          "internalType": "uint256",
          "name": "bundleId",
          "type": "uint256"
        }
      ],
      "name": "FixedPriceBundleUnlisted",
      "type": "event"
    },
    {
      "inputs": [
        {
          "components": [
            {
              "internalType": "address",
              "name": "owner",
              "type": "address"
            },
            {
              "internalType": "address",
              "name": "paymentToken",
              "type": "address"
            },
            {
              "internalType": "address",
              "name": "targetToken",
              "type": "address"
            },
            {
              "internalType": "uint256",
              "name": "bundleId",
              "type": "uint256"
            },
            {
              "internalType": "address[]",
              "name": "tokens",
              "type": "address[]"
            },
            {
              "internalType": "uint256[]",
              "name": "ids",
              "type": "uint256[]"
            },
            {
              "internalType": "uint256[]",
              "name": "amounts",
              "type": "uint256[]"
            },
            {
              "internalType": "uint256[]",
              "name": "prices",
              "type": "uint256[]"
            },
            {
              "internalType": "string[]",
              "name": "uris",
              "type": "string[]"
            },
            {
              "internalType": "enum AssetStandard[]",
              "name": "standards",
              "type": "uint8[]"
            },
            {
              "components": [
                {
                  "internalType": "address",
                  "name": "recipient",
                  "type": "address"
                },
                {
                  "internalType": "uint24",
                  "name": "amount",
                  "type": "uint24"
                }
              ],
              "internalType": "struct ERC2981Base.RoyaltyInfo[]",
              "name": "royalties",
              "type": "tuple[]"
            },
            {
              "internalType": "bool",
              "name": "minted",
              "type": "bool"
            }
          ],
          "internalType": "struct FixedPriceListOrder",
          "name": "order",
          "type": "tuple"
        }
      ],
      "name": "fixedPriceListBundle",
      "outputs": [],
      "stateMutability": "nonpayable",
      "type": "function"
    },
    {
      "inputs": [
        {
          "components": [
            {
              "internalType": "address",
              "name": "owner",
              "type": "address"
            },
            {
              "internalType": "uint256",
              "name": "bundleId",
              "type": "uint256"
            }
          ],
          "internalType": "struct FixedPriceUnlistOrder",
          "name": "order",
          "type": "tuple"
        }
      ],
      "name": "fixedPriceUnlistBundle",
      "outputs": [],
      "stateMutability": "nonpayable",
      "type": "function"
    }
  ],
  "bytecode": "0x608060405234801561001057600080fd5b5061316b806100206000396000f3fe608060405234801561001057600080fd5b50600436106100365760003560e01c806303218be81461003b5780633b24a8dd14610057575b600080fd5b61005560048036038101906100509190611d63565b610073565b005b610071600480360381019061006c9190611db0565b610111565b005b8060000160208101906100869190611e57565b61008e6101af565b73ffffffffffffffffffffffffffffffffffffffff168173ffffffffffffffffffffffffffffffffffffffff16146100fb576040517f08c379a00000000000000000000000000000000000000000000000000000000081526004016100f290611ee1565b60405180910390fd5b610104826101b7565b61010d8261034e565b5050565b8060000160208101906101249190611e57565b61012c6101af565b73ffffffffffffffffffffffffffffffffffffffff168173ffffffffffffffffffffffffffffffffffffffff1614610199576040517f08c379a000000000000000000000000000000000000000000000000000000000815260040161019090611ee1565b60405180910390fd5b6101a2826107d6565b6101ab82610d8f565b5050565b600033905090565b60006101c1611916565b905060008160030160010160008460200135815260200190815260200160002090506101ee81600161191b565b8060000160009054906101000a900473ffffffffffffffffffffffffffffffffffffffff1673ffffffffffffffffffffffffffffffffffffffff1683600001602081019061023c9190611e57565b73ffffffffffffffffffffffffffffffffffffffff1614610292576040517f08c379a000000000000000000000000000000000000000000000000000000000815260040161028990611f73565b60405180910390fd5b600160028111156102a6576102a5611f93565b5b81600a0160009054906101000a900460ff1660028111156102ca576102c9611f93565b5b148061030a57506002808111156102e4576102e3611f93565b5b81600a0160009054906101000a900460ff16600281111561030857610307611f93565b5b145b610349576040517f08c379a000000000000000000000000000000000000000000000000000000000815260040161034090612034565b60405180910390fd5b505050565b6000610358611916565b9050600081600301600101600084602001358152602001908152602001600020905060008160040180549050905060005b818110156107715760008460030160000160008560000160009054906101000a900473ffffffffffffffffffffffffffffffffffffffff1673ffffffffffffffffffffffffffffffffffffffff1673ffffffffffffffffffffffffffffffffffffffff168152602001908152602001600020600085600301848154811061041357610412612054565b5b9060005260206000200160009054906101000a900473ffffffffffffffffffffffffffffffffffffffff1673ffffffffffffffffffffffffffffffffffffffff1673ffffffffffffffffffffffffffffffffffffffff16815260200190815260200160002060008560040184815481106104905761048f612054565b5b906000526020600020015481526020019081526020016000209050600160028111156104bf576104be611f93565b5b84600a0160009054906101000a900460ff1660028111156104e3576104e2611f93565b5b141561075357600060018111156104fd576104fc611f93565b5b8160040160009054906101000a900460ff16600181111561052157610520611f93565b5b141561061b5783600301828154811061053d5761053c612054565b5b9060005260206000200160009054906101000a900473ffffffffffffffffffffffffffffffffffffffff1673ffffffffffffffffffffffffffffffffffffffff1663b88d4fde308660000160009054906101000a900473ffffffffffffffffffffffffffffffffffffffff168760040186815481106105bf576105be612054565b5b90600052602060002001546040518463ffffffff1660e01b81526004016105e8939291906120e2565b600060405180830381600087803b15801561060257600080fd5b505af1158015610616573d6000803e3d6000fd5b505050505b60018081111561062e5761062d611f93565b5b8160040160009054906101000a900460ff16600181111561065257610651611f93565b5b14156107525783600301828154811061066e5761066d612054565b5b9060005260206000200160009054906101000a900473ffffffffffffffffffffffffffffffffffffffff1673ffffffffffffffffffffffffffffffffffffffff1663f242432a308660000160009054906101000a900473ffffffffffffffffffffffffffffffffffffffff168760040186815481106106f0576106ef612054565b5b906000526020600020015485600101546040518563ffffffff1660e01b815260040161071f949392919061212c565b600060405180830381600087803b15801561073957600080fd5b505af115801561074d573d6000803e3d6000fd5b505050505b5b60008160000181905550508080610769906121b3565b915050610389565b50600082600a0160006101000a81548160ff0219169083600281111561079a57610799611f93565b5b021790555083602001357f23a45beabcf535463e10d0b546b3a27d22e69e671e0ee46c877e99bada3e26bb60405160405180910390a250505050565b60006107e0611916565b905060008280608001906107f4919061220b565b9050905081600501600c0154811115610842576040517f08c379a0000000000000000000000000000000000000000000000000000000008152600401610839906122e0565b60405180910390fd5b80838060a001906108539190612300565b9050148015610872575080838060c0019061086e9190612300565b9050145b801561088e575080838060e0019061088a9190612300565b9050145b6108cd576040517f08c379a00000000000000000000000000000000000000000000000000000000081526004016108c4906123d5565b60405180910390fd5b6108e88360200160208101906108e39190611e57565b611996565b6109038360400160208101906108fe9190611e57565b611a27565b60005b81811015610d89576000848060800190610920919061220b565b8381811061093157610930612054565b5b90506020020160208101906109469190611e57565b905060008460030160000160008760000160208101906109669190611e57565b73ffffffffffffffffffffffffffffffffffffffff1673ffffffffffffffffffffffffffffffffffffffff16815260200190815260200160002060008373ffffffffffffffffffffffffffffffffffffffff1673ffffffffffffffffffffffffffffffffffffffff1681526020019081526020016000206000878060a001906109ef9190612300565b86818110610a00576109ff612054565b5b9050602002013581526020019081526020016000209050610a2081611ac2565b6000868060c00190610a329190612300565b85818110610a4357610a42612054565b5b9050602002013511610a8a576040517f08c379a0000000000000000000000000000000000000000000000000000000008152600401610a8190612467565b60405180910390fd5b846005016008016000876020016020810190610aa69190611e57565b73ffffffffffffffffffffffffffffffffffffffff1673ffffffffffffffffffffffffffffffffffffffff16815260200190815260200160002054868060e00190610af19190612300565b85818110610b0257610b01612054565b5b905060200201351015610b4a576040517f08c379a0000000000000000000000000000000000000000000000000000000008152600401610b41906124f9565b60405180910390fd5b60006001811115610b5e57610b5d611f93565b5b86806101200190610b6f9190612519565b85818110610b8057610b7f612054565b5b9050602002016020810190610b9591906125a1565b6001811115610ba757610ba6611f93565b5b1480610c0c5750600180811115610bc157610bc0611f93565b5b86806101200190610bd29190612519565b85818110610be357610be2612054565b5b9050602002016020810190610bf891906125a1565b6001811115610c0a57610c09611f93565b5b145b610c4b576040517f08c379a0000000000000000000000000000000000000000000000000000000008152600401610c4290612640565b60405180910390fd5b85610160016020810190610c5f9190612698565b610d7457600086806101000190610c7691906126c5565b85818110610c8757610c86612054565b5b9050602002810190610c999190612728565b90501415610cdc576040517f08c379a0000000000000000000000000000000000000000000000000000000008152600401610cd3906127fd565b60405180910390fd5b60008560050160050160008473ffffffffffffffffffffffffffffffffffffffff1673ffffffffffffffffffffffffffffffffffffffff16815260200190815260200160002060009054906101000a900460ff169050610d7287806101200190610d469190612519565b86818110610d5757610d56612054565b5b9050602002016020810190610d6c91906125a1565b82611b0c565b505b50508080610d81906121b3565b915050610906565b50505050565b6000610d99611916565b90506000828060800190610dad919061220b565b90509050600082600301600101600085606001358152602001908152602001600020905060006003811115610de557610de4611f93565b5b81600a0160019054906101000a900460ff166003811115610e0957610e08611f93565b5b14610e49576040517f08c379a0000000000000000000000000000000000000000000000000000000008152600401610e4090612869565b60405180910390fd5b836000016020810190610e5c9190611e57565b8160000160006101000a81548173ffffffffffffffffffffffffffffffffffffffff021916908373ffffffffffffffffffffffffffffffffffffffff160217905550836020016020810190610eb19190611e57565b8160010160006101000a81548173ffffffffffffffffffffffffffffffffffffffff021916908373ffffffffffffffffffffffffffffffffffffffff160217905550836040016020810190610f069190611e57565b8160020160006101000a81548173ffffffffffffffffffffffffffffffffffffffff021916908373ffffffffffffffffffffffffffffffffffffffff160217905550428160060160006101000a81548167ffffffffffffffff021916908367ffffffffffffffff16021790555083610160016020810190610f879190612698565b610f92576002610f95565b60015b81600a0160006101000a81548160ff02191690836002811115610fbb57610fba611f93565b5b0217905550600181600a0160016101000a81548160ff02191690836003811115610fe857610fe7611f93565b5b021790555060008267ffffffffffffffff81111561100957611008612889565b5b6040519080825280602002602001820160405280156110375781602001602082028036833780820191505090505b50905060005b838110156117fc5760008560030160000160008560000160009054906101000a900473ffffffffffffffffffffffffffffffffffffffff1673ffffffffffffffffffffffffffffffffffffffff1673ffffffffffffffffffffffffffffffffffffffff16815260200190815260200160002060008880608001906110c1919061220b565b858181106110d2576110d1612054565b5b90506020020160208101906110e79190611e57565b73ffffffffffffffffffffffffffffffffffffffff1673ffffffffffffffffffffffffffffffffffffffff1681526020019081526020016000206000888060a001906111339190612300565b8581811061114457611143612054565b5b905060200201358152602001908152602001600020905086606001358160000181905550868060e001906111789190612300565b8381811061118957611188612054565b5b905060200201358160020181905550866101600160208101906111ac9190612698565b6111f757868061010001906111c191906126c5565b838181106111d2576111d1612054565b5b90506020028101906111e49190612728565b8260030191906111f5929190611c92565b505b868061012001906112089190612519565b8381811061121957611218612054565b5b905060200201602081019061122e91906125a1565b8160040160006101000a81548160ff0219169083600181111561125457611253611f93565b5b02179055508560050160030160008260040160009054906101000a900460ff16600181111561128657611285611f93565b5b600181111561129857611297611f93565b5b815260200190815260200160002060009054906101000a900460ff168160040160016101000a81548160ff021916908360018111156112da576112d9611f93565b5b0217905550600060018111156112f3576112f2611f93565b5b8160040160009054906101000a900460ff16600181111561131757611316611f93565b5b141561141f57866101600160208101906113319190612698565b1561141457868060800190611346919061220b565b8381811061135757611356612054565b5b905060200201602081019061136c9190611e57565b73ffffffffffffffffffffffffffffffffffffffff1663b88d4fde88600001602081019061139a9190611e57565b308a8060a001906113ab9190612300565b878181106113bc576113bb612054565b5b905060200201356040518463ffffffff1660e01b81526004016113e1939291906120e2565b600060405180830381600087803b1580156113fb57600080fd5b505af115801561140f573d6000803e3d6000fd5b505050505b600181600101819055505b60018081111561143257611431611f93565b5b8160040160009054906101000a900460ff16600181111561145657611455611f93565b5b14156115ad57866101600160208101906114709190612698565b1561157c57868060800190611485919061220b565b8381811061149657611495612054565b5b90506020020160208101906114ab9190611e57565b73ffffffffffffffffffffffffffffffffffffffff1663f242432a8860000160208101906114d99190611e57565b308a8060a001906114ea9190612300565b878181106114fb576114fa612054565b5b905060200201358b8060c001906115129190612300565b8881811061152357611522612054565b5b905060200201356040518563ffffffff1660e01b8152600401611549949392919061212c565b600060405180830381600087803b15801561156357600080fd5b505af1158015611577573d6000803e3d6000fd5b505050505b868060c0019061158c9190612300565b8381811061159d5761159c612054565b5b9050602002013581600101819055505b866101600160208101906115c19190612698565b1580156115e057506000878061014001906115dc91906128b8565b9050115b156116b157868061014001906115f691906128b8565b8381811061160757611606612054565b5b90506040020181600501818161161d9190612b08565b9050506116b0816005016040518060400160405290816000820160009054906101000a900473ffffffffffffffffffffffffffffffffffffffff1673ffffffffffffffffffffffffffffffffffffffff1673ffffffffffffffffffffffffffffffffffffffff1681526020016000820160149054906101000a900462ffffff1662ffffff1662ffffff1681525050611bcc565b5b836003018780608001906116c5919061220b565b848181106116d6576116d5612054565b5b90506020020160208101906116eb9190611e57565b9080600181540180825580915050600190039060005260206000200160009091909190916101000a81548173ffffffffffffffffffffffffffffffffffffffff021916908373ffffffffffffffffffffffffffffffffffffffff16021790555083600401878060a0019061175f9190612300565b848181106117705761176f612054565b5b9050602002013590806001815401808255809150506001900390600052602060002001600090919091909150558060040160009054906101000a900460ff1660018111156117c1576117c0611f93565b5b8383815181106117d4576117d3612054565b5b602002602001019060ff16908160ff16815250505080806117f4906121b3565b91505061103d565b508160000160009054906101000a900473ffffffffffffffffffffffffffffffffffffffff1673ffffffffffffffffffffffffffffffffffffffff1685606001357f1bb19b6953f973acf48ecf55104e83ffabdd6b5b8bb66f8dbcd21c8c59872c628760200160208101906118719190611e57565b888060800190611881919061220b565b8a8060a001906118919190612300565b8c8060c001906118a19190612300565b8e8060e001906118b19190612300565b8c8e60060160009054906101000a900467ffffffffffffffff168f600a0160009054906101000a900460ff1660028111156118ef576118ee611f93565b5b6040516119079c9b9a99989796959493929190612d57565b60405180910390a35050505050565b600090565b80600381111561192e5761192d611f93565b5b82600a0160019054906101000a900460ff16600381111561195257611951611f93565b5b14611992576040517f08c379a000000000000000000000000000000000000000000000000000000000815260040161198990612e4c565b60405180910390fd5b5050565b60006119a0611916565b60050160080160008373ffffffffffffffffffffffffffffffffffffffff1673ffffffffffffffffffffffffffffffffffffffff1681526020019081526020016000205411611a24576040517f08c379a0000000000000000000000000000000000000000000000000000000008152600401611a1b90612ede565b60405180910390fd5b50565b611a2f611916565b60050160090160008273ffffffffffffffffffffffffffffffffffffffff1673ffffffffffffffffffffffffffffffffffffffff16815260200190815260200160002060009054906101000a900460ff16611abf576040517f08c379a0000000000000000000000000000000000000000000000000000000008152600401611ab690612f4a565b60405180910390fd5b50565b6000816000015414611b09576040517f08c379a0000000000000000000000000000000000000000000000000000000008152600401611b0090612fb6565b60405180910390fd5b50565b6000611b16611916565b9050806005016003016000846001811115611b3457611b33611f93565b5b6001811115611b4657611b45611f93565b5b815260200190815260200160002060009054906101000a900460ff166001811115611b7457611b73611f93565b5b826001811115611b8757611b86611f93565b5b14611bc7576040517f08c379a0000000000000000000000000000000000000000000000000000000008152600401611bbe90613048565b60405180910390fd5b505050565b6000611bd6611916565b90506000826020015162ffffff161115611c8e5780600501600b0160149054906101000a900462ffffff1662ffffff16826020015162ffffff16108015611c4e5750600073ffffffffffffffffffffffffffffffffffffffff16826000015173ffffffffffffffffffffffffffffffffffffffff1614155b611c8d576040517f08c379a0000000000000000000000000000000000000000000000000000000008152600401611c84906130b4565b60405180910390fd5b5b5050565b828054611c9e90613103565b90600052602060002090601f016020900481019282611cc05760008555611d07565b82601f10611cd957803560ff1916838001178555611d07565b82800160010185558215611d07579182015b82811115611d06578235825591602001919060010190611ceb565b5b509050611d149190611d18565b5090565b5b80821115611d31576000816000905550600101611d19565b5090565b600080fd5b600080fd5b600080fd5b600060408284031215611d5a57611d59611d3f565b5b81905092915050565b600060408284031215611d7957611d78611d35565b5b6000611d8784828501611d44565b91505092915050565b60006101808284031215611da757611da6611d3f565b5b81905092915050565b600060208284031215611dc657611dc5611d35565b5b600082013567ffffffffffffffff811115611de457611de3611d3a565b5b611df084828501611d90565b91505092915050565b600073ffffffffffffffffffffffffffffffffffffffff82169050919050565b6000611e2482611df9565b9050919050565b611e3481611e19565b8114611e3f57600080fd5b50565b600081359050611e5181611e2b565b92915050565b600060208284031215611e6d57611e6c611d35565b5b6000611e7b84828501611e42565b91505092915050565b600082825260208201905092915050565b7f4e4f545f53454e44455200000000000000000000000000000000000000000000600082015250565b6000611ecb600a83611e84565b9150611ed682611e95565b602082019050919050565b60006020820190508181036000830152611efa81611ebe565b9050919050565b7f636865636b46697865645072696365556e6c6973744f726465723a204e4f545f60008201527f414c4c4f57454400000000000000000000000000000000000000000000000000602082015250565b6000611f5d602783611e84565b9150611f6882611f01565b604082019050919050565b60006020820190508181036000830152611f8c81611f50565b9050919050565b7f4e487b7100000000000000000000000000000000000000000000000000000000600052602160045260246000fd5b7f636865636b46697865645072696365556e6c6973744f726465723a2057524f4e60008201527f475f42554e444c455f5354415445000000000000000000000000000000000000602082015250565b600061201e602e83611e84565b915061202982611fc2565b604082019050919050565b6000602082019050818103600083015261204d81612011565b9050919050565b7f4e487b7100000000000000000000000000000000000000000000000000000000600052603260045260246000fd5b61208c81611e19565b82525050565b6000819050919050565b6120a581612092565b82525050565b600082825260208201905092915050565b50565b60006120cc6000836120ab565b91506120d7826120bc565b600082019050919050565b60006080820190506120f76000830186612083565b6121046020830185612083565b612111604083018461209c565b8181036060830152612122816120bf565b9050949350505050565b600060a0820190506121416000830187612083565b61214e6020830186612083565b61215b604083018561209c565b612168606083018461209c565b8181036080830152612179816120bf565b905095945050505050565b7f4e487b7100000000000000000000000000000000000000000000000000000000600052601160045260246000fd5b60006121be82612092565b91507fffffffffffffffffffffffffffffffffffffffffffffffffffffffffffffffff8214156121f1576121f0612184565b5b600182019050919050565b600080fd5b600080fd5b600080fd5b60008083356001602003843603038112612228576122276121fc565b5b80840192508235915067ffffffffffffffff82111561224a57612249612201565b5b60208301925060208202360383131561226657612265612206565b5b509250929050565b7f636865636b466978656450726963654c6973744f726465723a20494e56414c4960008201527f445f42554e444c455f53495a4500000000000000000000000000000000000000602082015250565b60006122ca602d83611e84565b91506122d58261226e565b604082019050919050565b600060208201905081810360008301526122f9816122bd565b9050919050565b6000808335600160200384360303811261231d5761231c6121fc565b5b80840192508235915067ffffffffffffffff82111561233f5761233e612201565b5b60208301925060208202360383131561235b5761235a612206565b5b509250929050565b7f636865636b466978656450726963654c6973744f726465723a2053495a455f4d60008201527f49534d4154434800000000000000000000000000000000000000000000000000602082015250565b60006123bf602783611e84565b91506123ca82612363565b604082019050919050565b600060208201905081810360008301526123ee816123b2565b9050919050565b7f636865636b466978656450726963654c6973744f726465723a205a45524f5f4160008201527f4d4f554e54000000000000000000000000000000000000000000000000000000602082015250565b6000612451602583611e84565b915061245c826123f5565b604082019050919050565b6000602082019050818103600083015261248081612444565b9050919050565b7f636865636b466978656450726963654c6973744f726465723a20494e56414c4960008201527f445f505249434500000000000000000000000000000000000000000000000000602082015250565b60006124e3602783611e84565b91506124ee82612487565b604082019050919050565b60006020820190508181036000830152612512816124d6565b9050919050565b60008083356001602003843603038112612536576125356121fc565b5b80840192508235915067ffffffffffffffff82111561255857612557612201565b5b60208301925060208202360383131561257457612573612206565b5b509250929050565b6002811061258957600080fd5b50565b60008135905061259b8161257c565b92915050565b6000602082840312156125b7576125b6611d35565b5b60006125c58482850161258c565b91505092915050565b7f636865636b466978656450726963654c6973744f726465723a20494e56414c4960008201527f445f5354414e4441524400000000000000000000000000000000000000000000602082015250565b600061262a602a83611e84565b9150612635826125ce565b604082019050919050565b600060208201905081810360008301526126598161261d565b9050919050565b60008115159050919050565b61267581612660565b811461268057600080fd5b50565b6000813590506126928161266c565b92915050565b6000602082840312156126ae576126ad611d35565b5b60006126bc84828501612683565b91505092915050565b600080833560016020038436030381126126e2576126e16121fc565b5b80840192508235915067ffffffffffffffff82111561270457612703612201565b5b6020830192506020820236038313156127205761271f612206565b5b509250929050565b60008083356001602003843603038112612745576127446121fc565b5b80840192508235915067ffffffffffffffff82111561276757612766612201565b5b60208301925060018202360383131561278357612782612206565b5b509250929050565b7f636865636b466978656450726963654c6973744f726465723a204d495353494e60008201527f475f544f4b454e5f555249000000000000000000000000000000000000000000602082015250565b60006127e7602b83611e84565b91506127f28261278b565b604082019050919050565b60006020820190508181036000830152612816816127da565b9050919050565b7f666978656450726963654c6973743a2042554e444c455f455849535453000000600082015250565b6000612853601d83611e84565b915061285e8261281d565b602082019050919050565b6000602082019050818103600083015261288281612846565b9050919050565b7f4e487b7100000000000000000000000000000000000000000000000000000000600052604160045260246000fd5b600080833560016020038436030381126128d5576128d46121fc565b5b80840192508235915067ffffffffffffffff8211156128f7576128f6612201565b5b60208301925060408202360383131561291357612912612206565b5b509250929050565b6000813561292881611e2b565b80915050919050565b60008160001b9050919050565b600073ffffffffffffffffffffffffffffffffffffffff61295e84612931565b9350801983169250808416831791505092915050565b6000819050919050565b600061299961299461298f84611df9565b612974565b611df9565b9050919050565b60006129ab8261297e565b9050919050565b60006129bd826129a0565b9050919050565b6000819050919050565b6129d7826129b2565b6129ea6129e3826129c4565b835461293e565b8255505050565b600062ffffff82169050919050565b612a09816129f1565b8114612a1457600080fd5b50565b60008135612a2481612a00565b80915050919050565b60008160a01b9050919050565b600076ffffff0000000000000000000000000000000000000000612a5d84612a2d565b9350801983169250808416831791505092915050565b6000612a8e612a89612a84846129f1565b612974565b6129f1565b9050919050565b6000819050919050565b612aa882612a73565b612abb612ab482612a95565b8354612a3a565b8255505050565b600081016000830180612ad48161291b565b9050612ae081846129ce565b505050600081016020830180612af581612a17565b9050612b018184612a9f565b5050505050565b612b128282612ac2565b5050565b600082825260208201905092915050565b6000819050919050565b612b3a81611e19565b82525050565b6000612b4c8383612b31565b60208301905092915050565b6000612b676020840184611e42565b905092915050565b6000602082019050919050565b6000612b888385612b16565b9350612b9382612b27565b8060005b85811015612bcc57612ba98284612b58565b612bb38882612b40565b9750612bbe83612b6f565b925050600181019050612b97565b5085925050509392505050565b600082825260208201905092915050565b600080fd5b82818337600083830152505050565b6000612c0a8385612bd9565b93507f07ffffffffffffffffffffffffffffffffffffffffffffffffffffffffffffff831115612c3d57612c3c612bea565b5b602083029250612c4e838584612bef565b82840190509392505050565b600081519050919050565b600082825260208201905092915050565b6000819050602082019050919050565b600060ff82169050919050565b612c9c81612c86565b82525050565b6000612cae8383612c93565b60208301905092915050565b6000602082019050919050565b6000612cd282612c5a565b612cdc8185612c65565b9350612ce783612c76565b8060005b83811015612d18578151612cff8882612ca2565b9750612d0a83612cba565b925050600181019050612ceb565b5085935050505092915050565b600067ffffffffffffffff82169050919050565b612d4281612d25565b82525050565b612d5181612c86565b82525050565b600061010082019050612d6d600083018f612083565b8181036020830152612d80818d8f612b7c565b90508181036040830152612d95818b8d612bfe565b90508181036060830152612daa81898b612bfe565b90508181036080830152612dbf818789612bfe565b905081810360a0830152612dd38186612cc7565b9050612de260c0830185612d39565b612def60e0830184612d48565b9d9c50505050505050505050505050565b7f4d61726b6574706c6163653a2057524f4e475f4c49535452494e475f54595045600082015250565b6000612e36602083611e84565b9150612e4182612e00565b602082019050919050565b60006020820190508181036000830152612e6581612e29565b9050919050565b7f4d61726b6574706c6163653a205041594d454e545f4e4f545f535550504f524560008201527f4400000000000000000000000000000000000000000000000000000000000000602082015250565b6000612ec8602183611e84565b9150612ed382612e6c565b604082019050919050565b60006020820190508181036000830152612ef781612ebb565b9050919050565b7f4d61726b6574706c6163653a205441524745545f4e4f545f535550504f524544600082015250565b6000612f34602083611e84565b9150612f3f82612efe565b602082019050919050565b60006020820190508181036000830152612f6381612f27565b9050919050565b7f4d61726b6574706c6163653a2042554e444c455f455849535453000000000000600082015250565b6000612fa0601a83611e84565b9150612fab82612f6a565b602082019050919050565b60006020820190508181036000830152612fcf81612f93565b9050919050565b7f636865636b417373657456657273696f6e497344656661756c743a20494e564160008201527f4c49445f544f4b454e5f56455253494f4e000000000000000000000000000000602082015250565b6000613032603183611e84565b915061303d82612fd6565b604082019050919050565b6000602082019050818103600083015261306181613025565b9050919050565b7f76616c6964617465526f79616c74793a20494e56414c49445f524f59414c5459600082015250565b600061309e602083611e84565b91506130a982613068565b602082019050919050565b600060208201905081810360008301526130cd81613091565b9050919050565b7f4e487b7100000000000000000000000000000000000000000000000000000000600052602260045260246000fd5b6000600282049050600182168061311b57607f821691505b6020821081141561312f5761312e6130d4565b5b5091905056fea264697066735822122088aeb94420e8cd0643e1d4d87708c5343d6889559cbb0b1e9c38326f2744be0164736f6c63430008090033",
  "linkReferences": {},
  "deployedLinkReferences": {}
}