{
  "_format": "hh-sol-artifact-1",
  "contractName": "GasFacet",
  "sourceName": "contracts/marketplace/facets/GasFacet.sol",
  "abi": [
    {
      "inputs": [
        {
          "internalType": "bytes32[]",
          "name": "proof",
          "type": "bytes32[]"
        },
        {
          "internalType": "bytes32",
          "name": "root",
          "type": "bytes32"
        }
      ],
      "name": "refillNative",
      "outputs": [],
      "stateMutability": "nonpayable",
      "type": "function"
    },
    {
      "inputs": [
        {
          "internalType": "address",
          "name": "account",
          "type": "address"
        },
        {
          "internalType": "bool",
          "name": "blacklisted",
          "type": "bool"
        }
      ],
      "name": "setRefillBlacklisted",
      "outputs": [],
      "stateMutability": "nonpayable",
      "type": "function"
    },
    {
      "inputs": [
        {
          "internalType": "uint256",
          "name": "value",
          "type": "uint256"
        }
      ],
      "name": "setRefillValue",
      "outputs": [],
      "stateMutability": "nonpayable",
      "type": "function"
    },
    {
      "inputs": [
        {
          "internalType": "bytes32",
          "name": "root",
          "type": "bytes32"
        },
        {
          "internalType": "bool",
          "name": "enabled",
          "type": "bool"
        }
      ],
      "name": "setRoot",
      "outputs": [],
      "stateMutability": "nonpayable",
      "type": "function"
    }
  ],
  "bytecode": "0x608060405234801561001057600080fd5b50610d3e806100206000396000f3fe608060405234801561001057600080fd5b506004361061004c5760003560e01c8063ba871d6614610051578063c1bcbd951461006d578063e5e87f6b14610089578063eee66883146100a5575b600080fd5b61006b600480360381019061006691906106ce565b6100c1565b005b61008760048036038101906100829190610744565b610129565b005b6100a3600480360381019061009e91906107e9565b6101f6565b005b6100bf60048036038101906100ba919061087f565b610467565b005b6100c961047e565b806000800160010160008473ffffffffffffffffffffffffffffffffffffffff1673ffffffffffffffffffffffffffffffffffffffff16815260200190815260200160002060006101000a81548160ff0219169083151502179055505050565b6000600501600001600061013b610519565b73ffffffffffffffffffffffffffffffffffffffff1673ffffffffffffffffffffffffffffffffffffffff16815260200190815260200160002060009054906101000a900460ff166101c2576040517f08c379a00000000000000000000000000000000000000000000000000000000081526004016101b990610909565b60405180910390fd5b8060008001600001600084815260200190815260200160002060006101000a81548160ff0219169083151502179055505050565b6000610200610519565b905060008001600001600083815260200190815260200160002060009054906101000a900460ff16610267576040517f08c379a000000000000000000000000000000000000000000000000000000000815260040161025e90610975565b60405180910390fd5b6000800160010160008273ffffffffffffffffffffffffffffffffffffffff1673ffffffffffffffffffffffffffffffffffffffff16815260200190815260200160002060009054906101000a900460ff16156102f9576040517f08c379a00000000000000000000000000000000000000000000000000000000081526004016102f0906109e1565b60405180910390fd5b61036b8160405160200161030d9190610a49565b60405160208183030381529060405280519060200120858580806020026020016040519081016040528093929190818152602001838360200280828437600081840152601f19601f8201169050808301925050505050505084610521565b6103aa576040517f08c379a00000000000000000000000000000000000000000000000000000000081526004016103a190610ab0565b60405180910390fd5b6000808273ffffffffffffffffffffffffffffffffffffffff1660008001600201546040516103d890610b01565b60006040518083038185875af1925050503d8060008114610415576040519150601f19603f3d011682016040523d82523d6000602084013e61041a565b606091505b50915091508161045f576040517f08c379a000000000000000000000000000000000000000000000000000000000815260040161045690610b62565b60405180910390fd5b505050505050565b61046f61047e565b80600080016002018190555050565b610486610537565b60040160009054906101000a900473ffffffffffffffffffffffffffffffffffffffff1673ffffffffffffffffffffffffffffffffffffffff163373ffffffffffffffffffffffffffffffffffffffff1614610517576040517f08c379a000000000000000000000000000000000000000000000000000000000815260040161050e90610bf4565b60405180910390fd5b565b600033905090565b600061052e838386610564565b90509392505050565b6000807fc8fcad8db84d3cc18b4c41d551ea0ee66dd599cde068d998e57d5e09332c131c90508091505090565b600082610571858461057b565b1490509392505050565b60008082905060005b84518110156106235760008582815181106105a2576105a1610c14565b5b602002602001015190508083116105e35782816040516020016105c6929190610c64565b60405160208183030381529060405280519060200120925061060f565b80836040516020016105f6929190610c64565b6040516020818303038152906040528051906020012092505b50808061061b90610cbf565b915050610584565b508091505092915050565b600080fd5b600080fd5b600073ffffffffffffffffffffffffffffffffffffffff82169050919050565b600061066382610638565b9050919050565b61067381610658565b811461067e57600080fd5b50565b6000813590506106908161066a565b92915050565b60008115159050919050565b6106ab81610696565b81146106b657600080fd5b50565b6000813590506106c8816106a2565b92915050565b600080604083850312156106e5576106e461062e565b5b60006106f385828601610681565b9250506020610704858286016106b9565b9150509250929050565b6000819050919050565b6107218161070e565b811461072c57600080fd5b50565b60008135905061073e81610718565b92915050565b6000806040838503121561075b5761075a61062e565b5b60006107698582860161072f565b925050602061077a858286016106b9565b9150509250929050565b600080fd5b600080fd5b600080fd5b60008083601f8401126107a9576107a8610784565b5b8235905067ffffffffffffffff8111156107c6576107c5610789565b5b6020830191508360208202830111156107e2576107e161078e565b5b9250929050565b6000806000604084860312156108025761080161062e565b5b600084013567ffffffffffffffff8111156108205761081f610633565b5b61082c86828701610793565b9350935050602061083f8682870161072f565b9150509250925092565b6000819050919050565b61085c81610849565b811461086757600080fd5b50565b60008135905061087981610853565b92915050565b6000602082840312156108955761089461062e565b5b60006108a38482850161086a565b91505092915050565b600082825260208201905092915050565b7f736574526f6f743a204e4f545f414c4c4f574544000000000000000000000000600082015250565b60006108f36014836108ac565b91506108fe826108bd565b602082019050919050565b60006020820190508181036000830152610922816108e6565b9050919050565b7f726566696c6c4e61746976653a20494e56414c49445f524f4f54000000000000600082015250565b600061095f601a836108ac565b915061096a82610929565b602082019050919050565b6000602082019050818103600083015261098e81610952565b9050919050565b7f726566696c6c4e61746976653a204e4f545f414c4c4f57454400000000000000600082015250565b60006109cb6019836108ac565b91506109d682610995565b602082019050919050565b600060208201905081810360008301526109fa816109be565b9050919050565b60008160601b9050919050565b6000610a1982610a01565b9050919050565b6000610a2b82610a0e565b9050919050565b610a43610a3e82610658565b610a20565b82525050565b6000610a558284610a32565b60148201915081905092915050565b7f726566696c6c4e61746976653a20494e56414c49445f50524f4f460000000000600082015250565b6000610a9a601b836108ac565b9150610aa582610a64565b602082019050919050565b60006020820190508181036000830152610ac981610a8d565b9050919050565b600081905092915050565b50565b6000610aeb600083610ad0565b9150610af682610adb565b600082019050919050565b6000610b0c82610ade565b9150819050919050565b7f726566696c6c4e61746976653a2053454e445f43414c4c5f4641494c45440000600082015250565b6000610b4c601e836108ac565b9150610b5782610b16565b602082019050919050565b60006020820190508181036000830152610b7b81610b3f565b9050919050565b7f4c69624469616d6f6e643a204d75737420626520636f6e7472616374206f776e60008201527f6572000000000000000000000000000000000000000000000000000000000000602082015250565b6000610bde6022836108ac565b9150610be982610b82565b604082019050919050565b60006020820190508181036000830152610c0d81610bd1565b9050919050565b7f4e487b7100000000000000000000000000000000000000000000000000000000600052603260045260246000fd5b6000819050919050565b610c5e610c598261070e565b610c43565b82525050565b6000610c708285610c4d565b602082019150610c808284610c4d565b6020820191508190509392505050565b7f4e487b7100000000000000000000000000000000000000000000000000000000600052601160045260246000fd5b6000610cca82610849565b91507fffffffffffffffffffffffffffffffffffffffffffffffffffffffffffffffff821415610cfd57610cfc610c90565b5b60018201905091905056fea2646970667358221220604f12278b46073acd1c8ec070bac925cd3e48793191588a76f64313fed94bad64736f6c63430008090033",
  "linkReferences": {},
  "deployedLinkReferences": {}
}