{
  "_format": "hh-sol-artifact-1",
  "contractName": "MarketBaseFacet",
  "sourceName": "contracts/marketplace/facets/MarketBaseFacet.sol",
  "abi": [
    {
      "inputs": [
        {
          "internalType": "uint256",
          "name": "minDuration",
          "type": "uint256"
        },
        {
          "internalType": "uint256",
          "name": "maxDuration",
          "type": "uint256"
        }
      ],
      "name": "auctionSetDurationLimits",
      "outputs": [],
      "stateMutability": "nonpayable",
      "type": "function"
    },
    {
      "inputs": [
        {
          "internalType": "address",
          "name": "paymentToken",
          "type": "address"
        },
        {
          "internalType": "uint256",
          "name": "price",
          "type": "uint256"
        }
      ],
      "name": "auctionSetMinReservePrice",
      "outputs": [],
      "stateMutability": "nonpayable",
      "type": "function"
    },
    {
      "inputs": [
        {
          "internalType": "uint64",
          "name": "prolongation",
          "type": "uint64"
        }
      ],
      "name": "auctionSetProlongation",
      "outputs": [],
      "stateMutability": "nonpayable",
      "type": "function"
    },
    {
      "inputs": [
        {
          "internalType": "uint64",
          "name": "relaxation",
          "type": "uint64"
        }
      ],
      "name": "auctionSetRelaxation",
      "outputs": [],
      "stateMutability": "nonpayable",
      "type": "function"
    },
    {
      "inputs": [
        {
          "internalType": "address",
          "name": "paymentToken",
          "type": "address"
        },
        {
          "internalType": "uint256",
          "name": "step",
          "type": "uint256"
        }
      ],
      "name": "auctionSetStep",
      "outputs": [],
      "stateMutability": "nonpayable",
      "type": "function"
    },
    {
      "inputs": [
        {
          "internalType": "address",
          "name": "owner",
          "type": "address"
        },
        {
          "internalType": "address",
          "name": "token",
          "type": "address"
        },
        {
          "internalType": "uint256",
          "name": "id",
          "type": "uint256"
        }
      ],
      "name": "getAsset",
      "outputs": [
        {
          "components": [
            {
              "internalType": "uint256",
              "name": "bundleId",
              "type": "uint256"
            },
            {
              "internalType": "uint256",
              "name": "amount",
              "type": "uint256"
            },
            {
              "internalType": "uint256",
              "name": "price",
              "type": "uint256"
            },
            {
              "internalType": "string",
              "name": "uri",
              "type": "string"
            },
            {
              "internalType": "enum AssetStandard",
              "name": "standard",
              "type": "uint8"
            },
            {
              "internalType": "enum AssetVersion",
              "name": "version",
              "type": "uint8"
            },
            {
              "components": [
                {
                  "internalType": "address",
                  "name": "recipient",
                  "type": "address"
                },
                {
                  "internalType": "uint24",
                  "name": "amount",
                  "type": "uint24"
                }
              ],
              "internalType": "struct ERC2981Base.RoyaltyInfo",
              "name": "royalty",
              "type": "tuple"
            }
          ],
          "internalType": "struct Asset",
          "name": "",
          "type": "tuple"
        }
      ],
      "stateMutability": "view",
      "type": "function"
    },
    {
      "inputs": [
        {
          "internalType": "uint256",
          "name": "bundleId",
          "type": "uint256"
        }
      ],
      "name": "getBundle",
      "outputs": [
        {
          "components": [
            {
              "internalType": "address",
              "name": "owner",
              "type": "address"
            },
            {
              "internalType": "address",
              "name": "paymentToken",
              "type": "address"
            },
            {
              "internalType": "address",
              "name": "targetToken",
              "type": "address"
            },
            {
              "internalType": "address[]",
              "name": "tokens",
              "type": "address[]"
            },
            {
              "internalType": "uint256[]",
              "name": "ids",
              "type": "uint256[]"
            },
            {
              "internalType": "uint256",
              "name": "reservePrice",
              "type": "uint256"
            },
            {
              "internalType": "uint64",
              "name": "listingTime",
              "type": "uint64"
            },
            {
              "internalType": "uint64",
              "name": "duration",
              "type": "uint64"
            },
            {
              "components": [
                {
                  "internalType": "address",
                  "name": "bidder",
                  "type": "address"
                },
                {
                  "internalType": "uint256",
                  "name": "value",
                  "type": "uint256"
                },
                {
                  "internalType": "bool",
                  "name": "active",
                  "type": "bool"
                }
              ],
              "internalType": "struct Bid",
              "name": "bid",
              "type": "tuple"
            },
            {
              "internalType": "enum BundleState",
              "name": "state",
              "type": "uint8"
            },
            {
              "internalType": "enum ListingType",
              "name": "listingType",
              "type": "uint8"
            }
          ],
          "internalType": "struct Bundle",
          "name": "",
          "type": "tuple"
        }
      ],
      "stateMutability": "view",
      "type": "function"
    },
    {
      "inputs": [
        {
          "internalType": "address",
          "name": "",
          "type": "address"
        },
        {
          "internalType": "address",
          "name": "",
          "type": "address"
        },
        {
          "internalType": "uint256[]",
          "name": "",
          "type": "uint256[]"
        },
        {
          "internalType": "uint256[]",
          "name": "",
          "type": "uint256[]"
        },
        {
          "internalType": "bytes",
          "name": "",
          "type": "bytes"
        }
      ],
      "name": "onERC1155BatchReceived",
      "outputs": [
        {
          "internalType": "bytes4",
          "name": "",
          "type": "bytes4"
        }
      ],
      "stateMutability": "nonpayable",
      "type": "function"
    },
    {
      "inputs": [
        {
          "internalType": "address",
          "name": "",
          "type": "address"
        },
        {
          "internalType": "address",
          "name": "",
          "type": "address"
        },
        {
          "internalType": "uint256",
          "name": "",
          "type": "uint256"
        },
        {
          "internalType": "uint256",
          "name": "",
          "type": "uint256"
        },
        {
          "internalType": "bytes",
          "name": "",
          "type": "bytes"
        }
      ],
      "name": "onERC1155Received",
      "outputs": [
        {
          "internalType": "bytes4",
          "name": "",
          "type": "bytes4"
        }
      ],
      "stateMutability": "nonpayable",
      "type": "function"
    },
    {
      "inputs": [
        {
          "internalType": "address",
          "name": "",
          "type": "address"
        },
        {
          "internalType": "address",
          "name": "",
          "type": "address"
        },
        {
          "internalType": "uint256",
          "name": "",
          "type": "uint256"
        },
        {
          "internalType": "bytes",
          "name": "",
          "type": "bytes"
        }
      ],
      "name": "onERC721Received",
      "outputs": [
        {
          "internalType": "bytes4",
          "name": "",
          "type": "bytes4"
        }
      ],
      "stateMutability": "nonpayable",
      "type": "function"
    },
    {
      "inputs": [
        {
          "internalType": "address",
          "name": "token",
          "type": "address"
        },
        {
          "internalType": "enum AssetStandard",
          "name": "standard",
          "type": "uint8"
        },
        {
          "internalType": "enum AssetVersion",
          "name": "version",
          "type": "uint8"
        }
      ],
      "name": "setAssetToken",
      "outputs": [],
      "stateMutability": "nonpayable",
      "type": "function"
    },
    {
      "inputs": [
        {
          "internalType": "enum AssetStandard",
          "name": "standard",
          "type": "uint8"
        },
        {
          "internalType": "enum AssetVersion",
          "name": "version",
          "type": "uint8"
        }
      ],
      "name": "setAssetTokenVersion",
      "outputs": [],
      "stateMutability": "nonpayable",
      "type": "function"
    },
    {
      "inputs": [
        {
          "internalType": "address",
          "name": "token",
          "type": "address"
        },
        {
          "internalType": "uint256[]",
          "name": "steps",
          "type": "uint256[]"
        },
        {
          "internalType": "uint24[]",
          "name": "percentages",
          "type": "uint24[]"
        }
      ],
      "name": "setComission",
      "outputs": [],
      "stateMutability": "nonpayable",
      "type": "function"
    },
    {
      "inputs": [
        {
          "internalType": "address",
          "name": "receiver",
          "type": "address"
        }
      ],
      "name": "setComissionReceiver",
      "outputs": [],
      "stateMutability": "nonpayable",
      "type": "function"
    },
    {
      "inputs": [
        {
          "internalType": "address",
          "name": "router",
          "type": "address"
        }
      ],
      "name": "setExchangeRouter",
      "outputs": [],
      "stateMutability": "nonpayable",
      "type": "function"
    },
    {
      "inputs": [
        {
          "internalType": "uint256",
          "name": "value",
          "type": "uint256"
        }
      ],
      "name": "setMaxBundleSize",
      "outputs": [],
      "stateMutability": "nonpayable",
      "type": "function"
    },
    {
      "inputs": [
        {
          "internalType": "uint24",
          "name": "value",
          "type": "uint24"
        }
      ],
      "name": "setMaxRoyalty",
      "outputs": [],
      "stateMutability": "nonpayable",
      "type": "function"
    },
    {
      "inputs": [
        {
          "internalType": "address",
          "name": "token",
          "type": "address"
        },
        {
          "internalType": "uint256",
          "name": "minPrice",
          "type": "uint256"
        }
      ],
      "name": "setPaymentToken",
      "outputs": [],
      "stateMutability": "nonpayable",
      "type": "function"
    },
    {
      "inputs": [
        {
          "internalType": "address",
          "name": "token",
          "type": "address"
        }
      ],
      "name": "setPlatformToken",
      "outputs": [],
      "stateMutability": "nonpayable",
      "type": "function"
    },
    {
      "inputs": [
        {
          "internalType": "address",
          "name": "resolver",
          "type": "address"
        },
        {
          "internalType": "bool",
          "name": "enabled",
          "type": "bool"
        }
      ],
      "name": "setResolver",
      "outputs": [],
      "stateMutability": "nonpayable",
      "type": "function"
    },
    {
      "inputs": [
        {
          "internalType": "address",
          "name": "signer",
          "type": "address"
        },
        {
          "internalType": "bool",
          "name": "enabled",
          "type": "bool"
        }
      ],
      "name": "setSigner",
      "outputs": [],
      "stateMutability": "nonpayable",
      "type": "function"
    },
    {
      "inputs": [
        {
          "internalType": "bool",
          "name": "value",
          "type": "bool"
        }
      ],
      "name": "setSkipPlatformToken",
      "outputs": [],
      "stateMutability": "nonpayable",
      "type": "function"
    },
    {
      "inputs": [
        {
          "internalType": "uint256",
          "name": "delay",
          "type": "uint256"
        }
      ],
      "name": "setSwapMaxDelay",
      "outputs": [],
      "stateMutability": "nonpayable",
      "type": "function"
    },
    {
      "inputs": [
        {
          "internalType": "address",
          "name": "token",
          "type": "address"
        },
        {
          "internalType": "bool",
          "name": "enabled",
          "type": "bool"
        }
      ],
      "name": "setTargetToken",
      "outputs": [],
      "stateMutability": "nonpayable",
      "type": "function"
    },
    {
      "inputs": [
        {
          "internalType": "address",
          "name": "to",
          "type": "address"
        },
        {
          "internalType": "uint256",
          "name": "value",
          "type": "uint256"
        }
      ],
      "name": "withdraw",
      "outputs": [],
      "stateMutability": "nonpayable",
      "type": "function"
    },
    {
      "inputs": [
        {
          "internalType": "address",
          "name": "to",
          "type": "address"
        },
        {
          "internalType": "address",
          "name": "token",
          "type": "address"
        },
        {
          "internalType": "uint256",
          "name": "value",
          "type": "uint256"
        }
      ],
      "name": "withdrawERC20",
      "outputs": [],
      "stateMutability": "nonpayable",
      "type": "function"
    },
    {
      "stateMutability": "payable",
      "type": "receive"
    }
  ],
  "bytecode": "0x608060405234801561001057600080fd5b50612ec7806100206000396000f3fe6080604052600436106101855760003560e01c8063a911e67b116100d1578063f23a6e611161008a578063f689940111610064578063f68994011461057b578063fa1999c0146105a4578063fd329b3f146105cd578063ffbda5ff146105f65761018c565b8063f23a6e61146104ec578063f3fef3a314610529578063f56cc665146105525761018c565b8063a911e67b146103ce578063bc197c81146103f7578063bc67745114610434578063c1526cf51461045d578063d446e51c14610486578063d623e619146104c35761018c565b80633c7cb7821161013e57806344004cc11161011857806344004cc11461032a578063838b7ccb1461035357806390bbb14b1461037c5780639131a4a1146103a55761018c565b80633c7cb782146102af5780633e465b87146102d8578063432b92bb146103015761018c565b80630255a03b14610191578063150b7a02146101ba5780631da6ed7c146101f75780632ae506dd146102205780632d0821b71461024957806331cb6105146102865761018c565b3661018c57005b600080fd5b34801561019d57600080fd5b506101b860048036038101906101b39190611b32565b61061f565b005b3480156101c657600080fd5b506101e160048036038101906101dc9190611cdb565b610671565b6040516101ee9190611d99565b60405180910390f35b34801561020357600080fd5b5061021e60048036038101906102199190611dec565b610685565b005b34801561022c57600080fd5b5061024760048036038101906102429190611e76565b6106ee565b005b34801561025557600080fd5b50610270600480360381019061026b9190611eb6565b61075f565b60405161027d9190612288565b60405180910390f35b34801561029257600080fd5b506102ad60048036038101906102a89190611dec565b610aee565b005b3480156102bb57600080fd5b506102d660048036038101906102d191906122aa565b610b57565b005b3480156102e457600080fd5b506102ff60048036038101906102fa91906122aa565b610bad565b005b34801561030d57600080fd5b5061032860048036038101906103239190611b32565b610c03565b005b34801561033657600080fd5b50610351600480360381019061034c91906122ea565b610c55565b005b34801561035f57600080fd5b5061037a60048036038101906103759190611b32565b610c8d565b005b34801561038857600080fd5b506103a3600480360381019061039e9190611eb6565b610cdf565b005b3480156103b157600080fd5b506103cc60048036038101906103c7919061233d565b610cf7565b005b3480156103da57600080fd5b506103f560048036038101906103f09190612396565b610d22565b005b34801561040357600080fd5b5061041e6004803603810190610419919061248b565b610d5c565b60405161042b9190611d99565b60405180910390f35b34801561044057600080fd5b5061045b60048036038101906104569190611eb6565b610d71565b005b34801561046957600080fd5b50610484600480360381019061047f9190611dec565b610d89565b005b34801561049257600080fd5b506104ad60048036038101906104a891906122ea565b610df2565b6040516104ba919061275c565b60405180910390f35b3480156104cf57600080fd5b506104ea60048036038101906104e59190612396565b611054565b005b3480156104f857600080fd5b50610513600480360381019061050e919061277e565b61108e565b6040516105209190611d99565b60405180910390f35b34801561053557600080fd5b50610550600480360381019061054b91906122aa565b6110a3565b005b34801561055e57600080fd5b50610579600480360381019061057491906122aa565b6110f6565b005b34801561058757600080fd5b506105a2600480360381019061059d9190612904565b61114c565b005b3480156105b057600080fd5b506105cb60048036038101906105c6919061298f565b611251565b005b3480156105d957600080fd5b506105f460048036038101906105ef91906129bc565b611281565b005b34801561060257600080fd5b5061061d60048036038101906106189190612a0f565b611419565b005b61062761143f565b806000600501600b0160006101000a81548173ffffffffffffffffffffffffffffffffffffffff021916908373ffffffffffffffffffffffffffffffffffffffff16021790555050565b600063150b7a0260e01b9050949350505050565b61068d61143f565b80600060050160010160008473ffffffffffffffffffffffffffffffffffffffff1673ffffffffffffffffffffffffffffffffffffffff16815260200190815260200160002060006101000a81548160ff0219169083151502179055505050565b6106f661143f565b8060006005016003016000846001811115610714576107136120d3565b5b6001811115610726576107256120d3565b5b815260200190815260200160002060006101000a81548160ff02191690836001811115610756576107556120d3565b5b02179055505050565b6107676117fa565b60006003016001016000838152602001908152602001600020604051806101600160405290816000820160009054906101000a900473ffffffffffffffffffffffffffffffffffffffff1673ffffffffffffffffffffffffffffffffffffffff1673ffffffffffffffffffffffffffffffffffffffff1681526020016001820160009054906101000a900473ffffffffffffffffffffffffffffffffffffffff1673ffffffffffffffffffffffffffffffffffffffff1673ffffffffffffffffffffffffffffffffffffffff1681526020016002820160009054906101000a900473ffffffffffffffffffffffffffffffffffffffff1673ffffffffffffffffffffffffffffffffffffffff1673ffffffffffffffffffffffffffffffffffffffff1681526020016003820180548060200260200160405190810160405280929190818152602001828054801561091357602002820191906000526020600020905b8160009054906101000a900473ffffffffffffffffffffffffffffffffffffffff1673ffffffffffffffffffffffffffffffffffffffff16815260200190600101908083116108c9575b505050505081526020016004820180548060200260200160405190810160405280929190818152602001828054801561096b57602002820191906000526020600020905b815481526020019060010190808311610957575b50505050508152602001600582015481526020016006820160009054906101000a900467ffffffffffffffff1667ffffffffffffffff1667ffffffffffffffff1681526020016006820160089054906101000a900467ffffffffffffffff1667ffffffffffffffff1667ffffffffffffffff168152602001600782016040518060600160405290816000820160009054906101000a900473ffffffffffffffffffffffffffffffffffffffff1673ffffffffffffffffffffffffffffffffffffffff1673ffffffffffffffffffffffffffffffffffffffff168152602001600182015481526020016002820160009054906101000a900460ff1615151515815250508152602001600a820160009054906101000a900460ff166002811115610a9657610a956120d3565b5b6002811115610aa857610aa76120d3565b5b8152602001600a820160019054906101000a900460ff166003811115610ad157610ad06120d3565b5b6003811115610ae357610ae26120d3565b5b815250509050919050565b610af661143f565b80600060050160000160008473ffffffffffffffffffffffffffffffffffffffff1673ffffffffffffffffffffffffffffffffffffffff16815260200190815260200160002060006101000a81548160ff0219169083151502179055505050565b610b5f61143f565b806000600501600d0160008473ffffffffffffffffffffffffffffffffffffffff1673ffffffffffffffffffffffffffffffffffffffff168152602001908152602001600020819055505050565b610bb561143f565b806000600501600e0160008473ffffffffffffffffffffffffffffffffffffffff1673ffffffffffffffffffffffffffffffffffffffff168152602001908152602001600020819055505050565b610c0b61143f565b806000600501600a0160006101000a81548173ffffffffffffffffffffffffffffffffffffffff021916908373ffffffffffffffffffffffffffffffffffffffff16021790555050565b610c5d61143f565b610c8883828473ffffffffffffffffffffffffffffffffffffffff166114da9092919063ffffffff16565b505050565b610c9561143f565b80600060180160000160006101000a81548173ffffffffffffffffffffffffffffffffffffffff021916908373ffffffffffffffffffffffffffffffffffffffff16021790555050565b610ce761143f565b8060006018016001018190555050565b610cff61143f565b80600060050160110160106101000a81548160ff02191690831515021790555050565b610d2a61143f565b80600060050160110160086101000a81548167ffffffffffffffff021916908367ffffffffffffffff16021790555050565b600063bc197c8160e01b905095945050505050565b610d7961143f565b806000600501600c018190555050565b610d9161143f565b80600060050160090160008473ffffffffffffffffffffffffffffffffffffffff1673ffffffffffffffffffffffffffffffffffffffff16815260200190815260200160002060006101000a81548160ff0219169083151502179055505050565b610dfa6118d4565b600060030160000160008573ffffffffffffffffffffffffffffffffffffffff1673ffffffffffffffffffffffffffffffffffffffff16815260200190815260200160002060008473ffffffffffffffffffffffffffffffffffffffff1673ffffffffffffffffffffffffffffffffffffffff16815260200190815260200160002060008381526020019081526020016000206040518060e0016040529081600082015481526020016001820154815260200160028201548152602001600382018054610ec690612a7e565b80601f0160208091040260200160405190810160405280929190818152602001828054610ef290612a7e565b8015610f3f5780601f10610f1457610100808354040283529160200191610f3f565b820191906000526020600020905b815481529060010190602001808311610f2257829003601f168201915b505050505081526020016004820160009054906101000a900460ff166001811115610f6d57610f6c6120d3565b5b6001811115610f7f57610f7e6120d3565b5b81526020016004820160019054906101000a900460ff166001811115610fa857610fa76120d3565b5b6001811115610fba57610fb96120d3565b5b8152602001600582016040518060400160405290816000820160009054906101000a900473ffffffffffffffffffffffffffffffffffffffff1673ffffffffffffffffffffffffffffffffffffffff1673ffffffffffffffffffffffffffffffffffffffff1681526020016000820160149054906101000a900462ffffff1662ffffff1662ffffff16815250508152505090509392505050565b61105c61143f565b80600060050160110160006101000a81548167ffffffffffffffff021916908367ffffffffffffffff16021790555050565b600063f23a6e6160e01b905095945050505050565b6110ab61143f565b8173ffffffffffffffffffffffffffffffffffffffff166108fc829081150290604051600060405180830381858888f193505050501580156110f1573d6000803e3d6000fd5b505050565b6110fe61143f565b80600060050160080160008473ffffffffffffffffffffffffffffffffffffffff1673ffffffffffffffffffffffffffffffffffffffff168152602001908152602001600020819055505050565b61115461143f565b8051825114611198576040517f08c379a000000000000000000000000000000000000000000000000000000000815260040161118f90612b0d565b60405180910390fd5b81600060050160060160008573ffffffffffffffffffffffffffffffffffffffff1673ffffffffffffffffffffffffffffffffffffffff16815260200190815260200160002090805190602001906111f192919061193b565b5080600060050160070160008573ffffffffffffffffffffffffffffffffffffffff1673ffffffffffffffffffffffffffffffffffffffff168152602001908152602001600020908051906020019061124b929190611988565b50505050565b61125961143f565b806000600501600b0160146101000a81548162ffffff021916908362ffffff16021790555050565b61128961143f565b81600060050160040160008573ffffffffffffffffffffffffffffffffffffffff1673ffffffffffffffffffffffffffffffffffffffff16815260200190815260200160002060006101000a81548160ff021916908360018111156112f1576112f06120d3565b5b021790555080600060050160050160008573ffffffffffffffffffffffffffffffffffffffff1673ffffffffffffffffffffffffffffffffffffffff16815260200190815260200160002060006101000a81548160ff0219169083600181111561135e5761135d6120d3565b5b02179055508260006005016002016000846001811115611381576113806120d3565b5b6001811115611393576113926120d3565b5b815260200190815260200160002060008360018111156113b6576113b56120d3565b5b60018111156113c8576113c76120d3565b5b815260200190815260200160002060006101000a81548173ffffffffffffffffffffffffffffffffffffffff021916908373ffffffffffffffffffffffffffffffffffffffff160217905550505050565b61142161143f565b816000600501600f0181905550806000600501601001819055505050565b611447611560565b60040160009054906101000a900473ffffffffffffffffffffffffffffffffffffffff1673ffffffffffffffffffffffffffffffffffffffff163373ffffffffffffffffffffffffffffffffffffffff16146114d8576040517f08c379a00000000000000000000000000000000000000000000000000000000081526004016114cf90612b9f565b60405180910390fd5b565b61155b8363a9059cbb60e01b84846040516024016114f9929190612bdd565b604051602081830303815290604052907bffffffffffffffffffffffffffffffffffffffffffffffffffffffff19166020820180517bffffffffffffffffffffffffffffffffffffffffffffffffffffffff838183161783525050505061158d565b505050565b6000807fc8fcad8db84d3cc18b4c41d551ea0ee66dd599cde068d998e57d5e09332c131c90508091505090565b60006115ef826040518060400160405280602081526020017f5361666545524332303a206c6f772d6c6576656c2063616c6c206661696c65648152508573ffffffffffffffffffffffffffffffffffffffff166116549092919063ffffffff16565b905060008151111561164f578080602001905181019061160f9190612c1b565b61164e576040517f08c379a000000000000000000000000000000000000000000000000000000000815260040161164590612cba565b60405180910390fd5b5b505050565b6060611663848460008561166c565b90509392505050565b6060824710156116b1576040517f08c379a00000000000000000000000000000000000000000000000000000000081526004016116a890612d4c565b60405180910390fd5b6116ba85611780565b6116f9576040517f08c379a00000000000000000000000000000000000000000000000000000000081526004016116f090612db8565b60405180910390fd5b6000808673ffffffffffffffffffffffffffffffffffffffff1685876040516117229190612e1f565b60006040518083038185875af1925050503d806000811461175f576040519150601f19603f3d011682016040523d82523d6000602084013e611764565b606091505b5091509150611774828286611793565b92505050949350505050565b600080823b905060008111915050919050565b606083156117a3578290506117f3565b6000835111156117b65782518084602001fd5b816040517f08c379a00000000000000000000000000000000000000000000000000000000081526004016117ea9190612e6f565b60405180910390fd5b9392505050565b604051806101600160405280600073ffffffffffffffffffffffffffffffffffffffff168152602001600073ffffffffffffffffffffffffffffffffffffffff168152602001600073ffffffffffffffffffffffffffffffffffffffff168152602001606081526020016060815260200160008152602001600067ffffffffffffffff168152602001600067ffffffffffffffff16815260200161189c611a35565b8152602001600060028111156118b5576118b46120d3565b5b8152602001600060038111156118ce576118cd6120d3565b5b81525090565b6040518060e00160405280600081526020016000815260200160008152602001606081526020016000600181111561190f5761190e6120d3565b5b815260200160006001811115611928576119276120d3565b5b8152602001611935611a6e565b81525090565b828054828255906000526020600020908101928215611977579160200282015b8281111561197657825182559160200191906001019061195b565b5b5090506119849190611aa3565b5090565b82805482825590600052602060002090600901600a90048101928215611a245791602002820160005b838211156119f357835183826101000a81548162ffffff021916908362ffffff16021790555092602001926003016020816002010492830192600103026119b1565b8015611a225782816101000a81549062ffffff02191690556003016020816002010492830192600103026119f3565b505b509050611a319190611aa3565b5090565b6040518060600160405280600073ffffffffffffffffffffffffffffffffffffffff168152602001600081526020016000151581525090565b6040518060400160405280600073ffffffffffffffffffffffffffffffffffffffff168152602001600062ffffff1681525090565b5b80821115611abc576000816000905550600101611aa4565b5090565b6000604051905090565b600080fd5b600080fd5b600073ffffffffffffffffffffffffffffffffffffffff82169050919050565b6000611aff82611ad4565b9050919050565b611b0f81611af4565b8114611b1a57600080fd5b50565b600081359050611b2c81611b06565b92915050565b600060208284031215611b4857611b47611aca565b5b6000611b5684828501611b1d565b91505092915050565b6000819050919050565b611b7281611b5f565b8114611b7d57600080fd5b50565b600081359050611b8f81611b69565b92915050565b600080fd5b600080fd5b6000601f19601f8301169050919050565b7f4e487b7100000000000000000000000000000000000000000000000000000000600052604160045260246000fd5b611be882611b9f565b810181811067ffffffffffffffff82111715611c0757611c06611bb0565b5b80604052505050565b6000611c1a611ac0565b9050611c268282611bdf565b919050565b600067ffffffffffffffff821115611c4657611c45611bb0565b5b611c4f82611b9f565b9050602081019050919050565b82818337600083830152505050565b6000611c7e611c7984611c2b565b611c10565b905082815260208101848484011115611c9a57611c99611b9a565b5b611ca5848285611c5c565b509392505050565b600082601f830112611cc257611cc1611b95565b5b8135611cd2848260208601611c6b565b91505092915050565b60008060008060808587031215611cf557611cf4611aca565b5b6000611d0387828801611b1d565b9450506020611d1487828801611b1d565b9350506040611d2587828801611b80565b925050606085013567ffffffffffffffff811115611d4657611d45611acf565b5b611d5287828801611cad565b91505092959194509250565b60007fffffffff0000000000000000000000000000000000000000000000000000000082169050919050565b611d9381611d5e565b82525050565b6000602082019050611dae6000830184611d8a565b92915050565b60008115159050919050565b611dc981611db4565b8114611dd457600080fd5b50565b600081359050611de681611dc0565b92915050565b60008060408385031215611e0357611e02611aca565b5b6000611e1185828601611b1d565b9250506020611e2285828601611dd7565b9150509250929050565b60028110611e3957600080fd5b50565b600081359050611e4b81611e2c565b92915050565b60028110611e5e57600080fd5b50565b600081359050611e7081611e51565b92915050565b60008060408385031215611e8d57611e8c611aca565b5b6000611e9b85828601611e3c565b9250506020611eac85828601611e61565b9150509250929050565b600060208284031215611ecc57611ecb611aca565b5b6000611eda84828501611b80565b91505092915050565b611eec81611af4565b82525050565b600081519050919050565b600082825260208201905092915050565b6000819050602082019050919050565b6000611f2a8383611ee3565b60208301905092915050565b6000602082019050919050565b6000611f4e82611ef2565b611f588185611efd565b9350611f6383611f0e565b8060005b83811015611f94578151611f7b8882611f1e565b9750611f8683611f36565b925050600181019050611f67565b5085935050505092915050565b600081519050919050565b600082825260208201905092915050565b6000819050602082019050919050565b611fd681611b5f565b82525050565b6000611fe88383611fcd565b60208301905092915050565b6000602082019050919050565b600061200c82611fa1565b6120168185611fac565b935061202183611fbd565b8060005b838110156120525781516120398882611fdc565b975061204483611ff4565b925050600181019050612025565b5085935050505092915050565b600067ffffffffffffffff82169050919050565b61207c8161205f565b82525050565b61208b81611db4565b82525050565b6060820160008201516120a76000850182611ee3565b5060208201516120ba6020850182611fcd565b5060408201516120cd6040850182612082565b50505050565b7f4e487b7100000000000000000000000000000000000000000000000000000000600052602160045260246000fd5b60038110612113576121126120d3565b5b50565b600081905061212482612102565b919050565b600061213482612116565b9050919050565b61214481612129565b82525050565b6004811061215b5761215a6120d3565b5b50565b600081905061216c8261214a565b919050565b600061217c8261215e565b9050919050565b61218c81612171565b82525050565b60006101a0830160008301516121ab6000860182611ee3565b5060208301516121be6020860182611ee3565b5060408301516121d16040860182611ee3565b50606083015184820360608601526121e98282611f43565b915050608083015184820360808601526122038282612001565b91505060a083015161221860a0860182611fcd565b5060c083015161222b60c0860182612073565b5060e083015161223e60e0860182612073565b50610100830151612253610100860182612091565b5061012083015161226861016086018261213b565b5061014083015161227d610180860182612183565b508091505092915050565b600060208201905081810360008301526122a28184612192565b905092915050565b600080604083850312156122c1576122c0611aca565b5b60006122cf85828601611b1d565b92505060206122e085828601611b80565b9150509250929050565b60008060006060848603121561230357612302611aca565b5b600061231186828701611b1d565b935050602061232286828701611b1d565b925050604061233386828701611b80565b9150509250925092565b60006020828403121561235357612352611aca565b5b600061236184828501611dd7565b91505092915050565b6123738161205f565b811461237e57600080fd5b50565b6000813590506123908161236a565b92915050565b6000602082840312156123ac576123ab611aca565b5b60006123ba84828501612381565b91505092915050565b600067ffffffffffffffff8211156123de576123dd611bb0565b5b602082029050602081019050919050565b600080fd5b6000612407612402846123c3565b611c10565b9050808382526020820190506020840283018581111561242a576124296123ef565b5b835b81811015612453578061243f8882611b80565b84526020840193505060208101905061242c565b5050509392505050565b600082601f83011261247257612471611b95565b5b81356124828482602086016123f4565b91505092915050565b600080600080600060a086880312156124a7576124a6611aca565b5b60006124b588828901611b1d565b95505060206124c688828901611b1d565b945050604086013567ffffffffffffffff8111156124e7576124e6611acf565b5b6124f38882890161245d565b935050606086013567ffffffffffffffff81111561251457612513611acf565b5b6125208882890161245d565b925050608086013567ffffffffffffffff81111561254157612540611acf565b5b61254d88828901611cad565b9150509295509295909350565b600081519050919050565b600082825260208201905092915050565b60005b83811015612594578082015181840152602081019050612579565b838111156125a3576000848401525b50505050565b60006125b48261255a565b6125be8185612565565b93506125ce818560208601612576565b6125d781611b9f565b840191505092915050565b600281106125f3576125f26120d3565b5b50565b6000819050612604826125e2565b919050565b6000612614826125f6565b9050919050565b61262481612609565b82525050565b6002811061263b5761263a6120d3565b5b50565b600081905061264c8261262a565b919050565b600061265c8261263e565b9050919050565b61266c81612651565b82525050565b600062ffffff82169050919050565b61268a81612672565b82525050565b6040820160008201516126a66000850182611ee3565b5060208201516126b96020850182612681565b50505050565b6000610100830160008301516126d86000860182611fcd565b5060208301516126eb6020860182611fcd565b5060408301516126fe6040860182611fcd565b506060830151848203606086015261271682826125a9565b915050608083015161272b608086018261261b565b5060a083015161273e60a0860182612663565b5060c083015161275160c0860182612690565b508091505092915050565b6000602082019050818103600083015261277681846126bf565b905092915050565b600080600080600060a0868803121561279a57612799611aca565b5b60006127a888828901611b1d565b95505060206127b988828901611b1d565b94505060406127ca88828901611b80565b93505060606127db88828901611b80565b925050608086013567ffffffffffffffff8111156127fc576127fb611acf565b5b61280888828901611cad565b9150509295509295909350565b600067ffffffffffffffff8211156128305761282f611bb0565b5b602082029050602081019050919050565b61284a81612672565b811461285557600080fd5b50565b60008135905061286781612841565b92915050565b600061288061287b84612815565b611c10565b905080838252602082019050602084028301858111156128a3576128a26123ef565b5b835b818110156128cc57806128b88882612858565b8452602084019350506020810190506128a5565b5050509392505050565b600082601f8301126128eb576128ea611b95565b5b81356128fb84826020860161286d565b91505092915050565b60008060006060848603121561291d5761291c611aca565b5b600061292b86828701611b1d565b935050602084013567ffffffffffffffff81111561294c5761294b611acf565b5b6129588682870161245d565b925050604084013567ffffffffffffffff81111561297957612978611acf565b5b612985868287016128d6565b9150509250925092565b6000602082840312156129a5576129a4611aca565b5b60006129b384828501612858565b91505092915050565b6000806000606084860312156129d5576129d4611aca565b5b60006129e386828701611b1d565b93505060206129f486828701611e3c565b9250506040612a0586828701611e61565b9150509250925092565b60008060408385031215612a2657612a25611aca565b5b6000612a3485828601611b80565b9250506020612a4585828601611b80565b9150509250929050565b7f4e487b7100000000000000000000000000000000000000000000000000000000600052602260045260246000fd5b60006002820490506001821680612a9657607f821691505b60208210811415612aaa57612aa9612a4f565b5b50919050565b600082825260208201905092915050565b7f4261736546616365743a2041525241595f53495a455f4d49534d415443480000600082015250565b6000612af7601e83612ab0565b9150612b0282612ac1565b602082019050919050565b60006020820190508181036000830152612b2681612aea565b9050919050565b7f4c69624469616d6f6e643a204d75737420626520636f6e7472616374206f776e60008201527f6572000000000000000000000000000000000000000000000000000000000000602082015250565b6000612b89602283612ab0565b9150612b9482612b2d565b604082019050919050565b60006020820190508181036000830152612bb881612b7c565b9050919050565b612bc881611af4565b82525050565b612bd781611b5f565b82525050565b6000604082019050612bf26000830185612bbf565b612bff6020830184612bce565b9392505050565b600081519050612c1581611dc0565b92915050565b600060208284031215612c3157612c30611aca565b5b6000612c3f84828501612c06565b91505092915050565b7f5361666545524332303a204552433230206f7065726174696f6e20646964206e60008201527f6f74207375636365656400000000000000000000000000000000000000000000602082015250565b6000612ca4602a83612ab0565b9150612caf82612c48565b604082019050919050565b60006020820190508181036000830152612cd381612c97565b9050919050565b7f416464726573733a20696e73756666696369656e742062616c616e636520666f60008201527f722063616c6c0000000000000000000000000000000000000000000000000000602082015250565b6000612d36602683612ab0565b9150612d4182612cda565b604082019050919050565b60006020820190508181036000830152612d6581612d29565b9050919050565b7f416464726573733a2063616c6c20746f206e6f6e2d636f6e7472616374000000600082015250565b6000612da2601d83612ab0565b9150612dad82612d6c565b602082019050919050565b60006020820190508181036000830152612dd181612d95565b9050919050565b600081519050919050565b600081905092915050565b6000612df982612dd8565b612e038185612de3565b9350612e13818560208601612576565b80840191505092915050565b6000612e2b8284612dee565b915081905092915050565b6000612e418261255a565b612e4b8185612ab0565b9350612e5b818560208601612576565b612e6481611b9f565b840191505092915050565b60006020820190508181036000830152612e898184612e36565b90509291505056fea264697066735822122069eddf1f2b5e2391a3fceed9f1497b5fa263c918688418787e03cb4f96dcdcff64736f6c63430008090033",
  "linkReferences": {},
  "deployedLinkReferences": {}
}